{
	"data": {
		"bytecode": {
			"linkReferences": {
				"localhost/test/script.sol": {
					"fmt": [
						{
							"length": 20,
							"start": 372
						},
						{
							"length": 20,
							"start": 780
						},
						{
							"length": 20,
							"start": 1354
						},
						{
							"length": 20,
							"start": 1488
						},
						{
							"length": 20,
							"start": 1622
						},
						{
							"length": 20,
							"start": 1756
						},
						{
							"length": 20,
							"start": 1890
						},
						{
							"length": 20,
							"start": 2024
						},
						{
							"length": 20,
							"start": 2158
						},
						{
							"length": 20,
							"start": 2292
						},
						{
							"length": 20,
							"start": 2426
						},
						{
							"length": 20,
							"start": 2560
						},
						{
							"length": 20,
							"start": 3076
						},
						{
							"length": 20,
							"start": 3483
						},
						{
							"length": 20,
							"start": 5795
						},
						{
							"length": 20,
							"start": 6321
						},
						{
							"length": 20,
							"start": 6592
						},
						{
							"length": 20,
							"start": 6795
						},
						{
							"length": 20,
							"start": 7063
						},
						{
							"length": 20,
							"start": 7331
						},
						{
							"length": 20,
							"start": 7599
						},
						{
							"length": 20,
							"start": 7867
						},
						{
							"length": 20,
							"start": 8135
						},
						{
							"length": 20,
							"start": 8403
						},
						{
							"length": 20,
							"start": 8671
						},
						{
							"length": 20,
							"start": 8953
						},
						{
							"length": 20,
							"start": 9238
						},
						{
							"length": 20,
							"start": 9519
						},
						{
							"length": 20,
							"start": 9804
						}
					],
					"impl": [
						{
							"length": 20,
							"start": 10073
						}
					],
					"step": [
						{
							"length": 20,
							"start": 3830
						},
						{
							"length": 20,
							"start": 4001
						},
						{
							"length": 20,
							"start": 4172
						},
						{
							"length": 20,
							"start": 4343
						},
						{
							"length": 20,
							"start": 4514
						},
						{
							"length": 20,
							"start": 4696
						},
						{
							"length": 20,
							"start": 4867
						},
						{
							"length": 20,
							"start": 5038
						},
						{
							"length": 20,
							"start": 5209
						},
						{
							"length": 20,
							"start": 5380
						},
						{
							"length": 20,
							"start": 5551
						},
						{
							"length": 20,
							"start": 10182
						}
					]
				}
			},
			"object": "608060405234801561001057600080fd5b506131f7806100206000396000f3fe6080604052600436106100865760003560e01c8063ba0bba4011610059578063ba0bba40146100dc578063c0406226146100f1578063ca593c5914610106578063d0e30db01461011b578063d80528ae1461013057610086565b80633ccfd60b1461008857806343d726d61461009d578063775c300c146100b2578063999b93af146100c7575b005b34801561009457600080fd5b50610086610145565b3480156100a957600080fd5b506100866103ed565b3480156100be57600080fd5b50610086610a70565b3480156100d357600080fd5b50610086610b2f565b3480156100e857600080fd5b50610086610eb7565b3480156100fd57600080fd5b50610086610eb9565b34801561011257600080fd5b5061008661161f565b34801561012757600080fd5b50610086611674565b34801561013c57600080fd5b50610086611a69565b6040516370a0823160e01b815273__$425f1c4f5d795f19923be948d55f3ea66e$__9063fd63594a9073bb2b8038a1640196fbe3e38816f3e67cba72d940906370a0823190610198903090600401612e69565b60206040518083038186803b1580156101b057600080fd5b505afa1580156101c4573d6000803e3d6000fd5b505050506040513d601f19601f820116820180604052506101e89190810190612959565b6040516020016101f891906130d5565b6040516020818303038152906040526040518263ffffffff1660e01b81526004016102239190613075565b60006040518083038186803b15801561023b57600080fd5b505af415801561024f573d6000803e3d6000fd5b5050600054604051632e1a7d4d60e01b81526001600160a01b039091169250632e1a7d4d915061028a906605543df729c00090600401612f06565b602060405180830381600087803b1580156102a457600080fd5b505af11580156102b8573d6000803e3d6000fd5b505050506040513d601f19601f820116820180604052506102dc919081019061293b565b506040516370a0823160e01b815273__$425f1c4f5d795f19923be948d55f3ea66e$__9063fd63594a9073bb2b8038a1640196fbe3e38816f3e67cba72d940906370a0823190610330903090600401612e69565b60206040518083038186803b15801561034857600080fd5b505afa15801561035c573d6000803e3d6000fd5b505050506040513d601f19601f820116820180604052506103809190810190612959565b60405160200161039091906130d5565b6040516020818303038152906040526040518263ffffffff1660e01b81526004016103bb9190613075565b60006040518083038186803b1580156103d357600080fd5b505af41580156103e7573d6000803e3d6000fd5b50505050565b6000805460405163133f757160e31b8152829182918291829182918291829182916001600160a01b03909116906399fbab889061042e908490600401612f06565b6101206040518083038186803b15801561044757600080fd5b505afa15801561045b573d6000803e3d6000fd5b505050506040513d601f19601f8201168201806040525061047f9190810190612877565b98509850985098509850985098509850985060008060009054906101000a90046001600160a01b03166001600160a01b0316630aebeb4e60006040518263ffffffff1660e01b81526004016104d49190612f06565b602060405180830381600087803b1580156104ee57600080fd5b505af1158015610502573d6000803e3d6000fd5b505050506040513d601f19601f82011682018060405250610526919081019061293b565b905073__$425f1c4f5d795f19923be948d55f3ea66e$__63fd63594a8b6040516020016105539190612e5b565b6040516020818303038152906040526040518263ffffffff1660e01b815260040161057e9190612fd5565b60006040518083038186803b15801561059657600080fd5b505af41580156105aa573d6000803e3d6000fd5b5050505073__$425f1c4f5d795f19923be948d55f3ea66e$__63fd63594a8a6040516020016105d99190612e5b565b6040516020818303038152906040526040518263ffffffff1660e01b81526004016106049190613085565b60006040518083038186803b15801561061c57600080fd5b505af4158015610630573d6000803e3d6000fd5b5050505073__$425f1c4f5d795f19923be948d55f3ea66e$__63fd63594a8960405160200161065f9190612e5b565b6040516020818303038152906040526040518263ffffffff1660e01b815260040161068a9190612f65565b60006040518083038186803b1580156106a257600080fd5b505af41580156106b6573d6000803e3d6000fd5b5050505073__$425f1c4f5d795f19923be948d55f3ea66e$__63fd63594a886040516020016106e591906130d5565b6040516020818303038152906040526040518263ffffffff1660e01b81526004016107109190612ff5565b60006040518083038186803b15801561072857600080fd5b505af415801561073c573d6000803e3d6000fd5b5050505073__$425f1c4f5d795f19923be948d55f3ea66e$__63fd63594a8760405160200161076b91906130d5565b6040516020818303038152906040526040518263ffffffff1660e01b81526004016107969190613095565b60006040518083038186803b1580156107ae57600080fd5b505af41580156107c2573d6000803e3d6000fd5b5050505073__$425f1c4f5d795f19923be948d55f3ea66e$__63fd63594a866040516020016107f191906130d5565b6040516020818303038152906040526040518263ffffffff1660e01b815260040161081c9190612fa5565b60006040518083038186803b15801561083457600080fd5b505af4158015610848573d6000803e3d6000fd5b5050505073__$425f1c4f5d795f19923be948d55f3ea66e$__63fd63594a8560405160200161087791906130d5565b6040516020818303038152906040526040518263ffffffff1660e01b81526004016108a29190613045565b60006040518083038186803b1580156108ba57600080fd5b505af41580156108ce573d6000803e3d6000fd5b5050505073__$425f1c4f5d795f19923be948d55f3ea66e$__63fd63594a846040516020016108fd91906130d5565b6040516020818303038152906040526040518263ffffffff1660e01b81526004016109289190613035565b60006040518083038186803b15801561094057600080fd5b505af4158015610954573d6000803e3d6000fd5b5050505073__$425f1c4f5d795f19923be948d55f3ea66e$__63fd63594a836040516020016109839190612ef8565b6040516020818303038152906040526040518263ffffffff1660e01b81526004016109ae91906130c5565b60006040518083038186803b1580156109c657600080fd5b505af41580156109da573d6000803e3d6000fd5b5050505073__$425f1c4f5d795f19923be948d55f3ea66e$__63fd63594a82604051602001610a099190612ef8565b6040516020818303038152906040526040518263ffffffff1660e01b8152600401610a349190612f75565b60006040518083038186803b158015610a4c57600080fd5b505af4158015610a60573d6000803e3d6000fd5b5050505050505050505050505050565b604051634c96a38960e01b8152732df93404574dff883e2b35911a684dab1760da0d90634c96a38990610abb9073bb2b8038a1640196fbe3e38816f3e67cba72d94090600401612e5b565b602060405180830381600087803b158015610ad557600080fd5b505af1158015610ae9573d6000803e3d6000fd5b505050506040513d601f19601f82011682018060405250610b0d9190810190612851565b600080546001600160a01b0319166001600160a01b0392909216919091179055565b60008054604051632d9198e160e21b81526001600160a01b039091169063b646638490610b9090732260fac5e5542a773aa44fbcfedf7c193bc2c5999073c02aaa39b223fe8d0a0e5c4f27ead9083c756cc2906305f5e10090600401612e77565b60206040518083038186803b158015610ba857600080fd5b505afa158015610bbc573d6000803e3d6000fd5b505050506040513d601f19601f82011682018060405250610be09190810190612959565b905073__$425f1c4f5d795f19923be948d55f3ea66e$__63fd63594a82604051602001610c0d91906130d5565b6040516020818303038152906040526040518263ffffffff1660e01b8152600401610c3891906130b5565b60006040518083038186803b158015610c5057600080fd5b505af4158015610c64573d6000803e3d6000fd5b505060005460405163095ea7b360e01b8152732260fac5e5542a773aa44fbcfedf7c193bc2c599935063095ea7b39250610cae916001600160a01b03169060001990600401612edd565b600060405180830381600087803b158015610cc857600080fd5b505af1158015610cdc573d6000803e3d6000fd5b5050600080546040516353dc075960e11b81529193506001600160a01b0316915063a7b80eb290610d279073c02aaa39b223fe8d0a0e5c4f27ead9083c756cc2908690600401612edd565b60206040518083038186803b158015610d3f57600080fd5b505afa158015610d53573d6000803e3d6000fd5b505050506040513d601f19601f82011682018060405250610d779190810190612959565b905073__$425f1c4f5d795f19923be948d55f3ea66e$__63fd63594a82604051602001610da491906130d5565b6040516020818303038152906040526040518263ffffffff1660e01b8152600401610dcf9190612fb5565b60006040518083038186803b158015610de757600080fd5b505af4158015610dfb573d6000803e3d6000fd5b50506000805460405163a95fe26760e01b81526001600160a01b03909116935063a95fe2679250610e6091732260fac5e5542a773aa44fbcfedf7c193bc2c5999173c02aaa39b223fe8d0a0e5c4f27ead9083c756cc2916305f5e10091600401612e9f565b602060405180830381600087803b158015610e7a57600080fd5b505af1158015610e8e573d6000803e3d6000fd5b505050506040513d601f19601f82011682018060405250610eb29190810190612959565b505050565b565b610ec73063775c300c612705565b60405163d8f3214f60e01b815273__$f1507aecf922839096cf6f1443419cb6b5$__9163d8f3214f91610f139190732d407ddb06311396fe14d4b49da5f0471447d45c906004016130e3565b60206040518083038186803b158015610f2b57600080fd5b505af4158015610f3f573d6000803e3d6000fd5b505050506040513d601f19601f82011682018060405250610f639190810190612959565b50610f723063d0e30db0612705565b60405163d8f3214f60e01b815273__$f1507aecf922839096cf6f1443419cb6b5$__9163d8f3214f91610fbe919073a6bfedc4bf9bdb3f09a448518206023e8c009ddf906004016130e3565b60206040518083038186803b158015610fd657600080fd5b505af4158015610fea573d6000803e3d6000fd5b505050506040513d601f19601f8201168201806040525061100e9190810190612959565b5061101d3063d80528ae612705565b60405163d8f3214f60e01b815273__$f1507aecf922839096cf6f1443419cb6b5$__9163d8f3214f91611069919073a6bfedc4bf9bdb3f09a448518206023e8c009ddf906004016130e3565b60206040518083038186803b15801561108157600080fd5b505af4158015611095573d6000803e3d6000fd5b505050506040513d601f19601f820116820180604052506110b99190810190612959565b506110c83063999b93af612705565b60405163d8f3214f60e01b815273__$f1507aecf922839096cf6f1443419cb6b5$__9163d8f3214f916111149190733f5ce5fbfe3e9af3971dd833d26ba9b5c936f0be906004016130e3565b60206040518083038186803b15801561112c57600080fd5b505af4158015611140573d6000803e3d6000fd5b505050506040513d601f19601f820116820180604052506111649190810190612959565b506111733063d80528ae612705565b60405163d8f3214f60e01b815273__$f1507aecf922839096cf6f1443419cb6b5$__9163d8f3214f916111bf919073a6bfedc4bf9bdb3f09a448518206023e8c009ddf906004016130e3565b60206040518083038186803b1580156111d757600080fd5b505af41580156111eb573d6000803e3d6000fd5b505050506040513d601f19601f8201168201806040525061120f9190810190612959565b5061121b6119c961272a565b611229306343d726d6612705565b60405163d8f3214f60e01b815273__$f1507aecf922839096cf6f1443419cb6b5$__9163d8f3214f91611275919073a6bfedc4bf9bdb3f09a448518206023e8c009ddf906004016130e3565b60206040518083038186803b15801561128d57600080fd5b505af41580156112a1573d6000803e3d6000fd5b505050506040513d601f19601f820116820180604052506112c59190810190612959565b506112d43063d80528ae612705565b60405163d8f3214f60e01b815273__$f1507aecf922839096cf6f1443419cb6b5$__9163d8f3214f91611320919073a6bfedc4bf9bdb3f09a448518206023e8c009ddf906004016130e3565b60206040518083038186803b15801561133857600080fd5b505af415801561134c573d6000803e3d6000fd5b505050506040513d601f19601f820116820180604052506113709190810190612959565b5061137f3063ca593c59612705565b60405163d8f3214f60e01b815273__$f1507aecf922839096cf6f1443419cb6b5$__9163d8f3214f916113cb919073a6bfedc4bf9bdb3f09a448518206023e8c009ddf906004016130e3565b60206040518083038186803b1580156113e357600080fd5b505af41580156113f7573d6000803e3d6000fd5b505050506040513d601f19601f8201168201806040525061141b9190810190612959565b5061142a3063d80528ae612705565b60405163d8f3214f60e01b815273__$f1507aecf922839096cf6f1443419cb6b5$__9163d8f3214f91611476919073a6bfedc4bf9bdb3f09a448518206023e8c009ddf906004016130e3565b60206040518083038186803b15801561148e57600080fd5b505af41580156114a2573d6000803e3d6000fd5b505050506040513d601f19601f820116820180604052506114c69190810190612959565b506114d530633ccfd60b612705565b60405163d8f3214f60e01b815273__$f1507aecf922839096cf6f1443419cb6b5$__9163d8f3214f91611521919073a6bfedc4bf9bdb3f09a448518206023e8c009ddf906004016130e3565b60206040518083038186803b15801561153957600080fd5b505af415801561154d573d6000803e3d6000fd5b505050506040513d601f19601f820116820180604052506115719190810190612959565b506115803063d80528ae612705565b60405163d8f3214f60e01b815273__$f1507aecf922839096cf6f1443419cb6b5$__9163d8f3214f916115cc919073a6bfedc4bf9bdb3f09a448518206023e8c009ddf906004016130e3565b60206040518083038186803b1580156115e457600080fd5b505af41580156115f8573d6000803e3d6000fd5b505050506040513d601f19601f8201168201806040525061161c9190810190612959565b50565b600080546040805163ca593c5960e01b815290516001600160a01b039092169263ca593c599260048084019382900301818387803b15801561166057600080fd5b505af11580156103e7573d6000803e3d6000fd5b6040516370a0823160e01b815273__$425f1c4f5d795f19923be948d55f3ea66e$__9063fd63594a9073bb2b8038a1640196fbe3e38816f3e67cba72d940906370a08231906116c7903090600401612e69565b60206040518083038186803b1580156116df57600080fd5b505afa1580156116f3573d6000803e3d6000fd5b505050506040513d601f19601f820116820180604052506117179190810190612959565b60405160200161172791906130d5565b6040516020818303038152906040526040518263ffffffff1660e01b81526004016117529190613075565b60006040518083038186803b15801561176a57600080fd5b505af415801561177e573d6000803e3d6000fd5b505060005460405163095ea7b360e01b815273bb2b8038a1640196fbe3e38816f3e67cba72d940935063095ea7b392506117c8916001600160a01b03169060001990600401612edd565b600060405180830381600087803b1580156117e257600080fd5b505af11580156117f6573d6000803e3d6000fd5b505050506000809054906101000a90046001600160a01b03166001600160a01b031663de5f62686040518163ffffffff1660e01b8152600401602060405180830381600087803b15801561184957600080fd5b505af115801561185d573d6000803e3d6000fd5b505050506040513d601f19601f82011682018060405250611881919081019061293b565b506040516370a0823160e01b815273__$425f1c4f5d795f19923be948d55f3ea66e$__9063fd63594a9073bb2b8038a1640196fbe3e38816f3e67cba72d940906370a08231906118d5903090600401612e69565b60206040518083038186803b1580156118ed57600080fd5b505afa158015611901573d6000803e3d6000fd5b505050506040513d601f19601f820116820180604052506119259190810190612959565b60405160200161193591906130d5565b6040516020818303038152906040526040518263ffffffff1660e01b81526004016119609190613075565b60006040518083038186803b15801561197857600080fd5b505af415801561198c573d6000803e3d6000fd5b50506000546040516370a0823160e01b815273__$425f1c4f5d795f19923be948d55f3ea66e$__935063fd63594a92506001600160a01b03909116906370a08231906119dc903090600401612e69565b602060405180830381600087803b1580156119f657600080fd5b505af1158015611a0a573d6000803e3d6000fd5b505050506040513d601f19601f82011682018060405250611a2e9190810190612959565b604051602001611a3e91906130d5565b6040516020818303038152906040526040518263ffffffff1660e01b81526004016103bb9190612f41565b73__$425f1c4f5d795f19923be948d55f3ea66e$__63fd63594a6000809054906101000a90046001600160a01b03166001600160a01b031663d94439236040518163ffffffff1660e01b8152600401602060405180830381600087803b158015611ad257600080fd5b505af1158015611ae6573d6000803e3d6000fd5b505050506040513d601f19601f82011682018060405250611b0a9190810190612959565b604051602001611b1a91906130d5565b6040516020818303038152906040526040518263ffffffff1660e01b8152600401611b459190613005565b60006040518083038186803b158015611b5d57600080fd5b505af4158015611b71573d6000803e3d6000fd5b5050505073__$425f1c4f5d795f19923be948d55f3ea66e$__63fd63594a6000809054906101000a90046001600160a01b03166001600160a01b031663c3926a296040518163ffffffff1660e01b8152600401602060405180830381600087803b158015611bde57600080fd5b505af1158015611bf2573d6000803e3d6000fd5b505050506040513d601f19601f82011682018060405250611c169190810190612959565b604051602001611c2691906130d5565b6040516020818303038152906040526040518263ffffffff1660e01b8152600401611c519190613015565b60006040518083038186803b158015611c6957600080fd5b505af4158015611c7d573d6000803e3d6000fd5b5050505073__$425f1c4f5d795f19923be948d55f3ea66e$__63fd63594a6000809054906101000a90046001600160a01b03166001600160a01b031663d94439236040518163ffffffff1660e01b8152600401602060405180830381600087803b158015611cea57600080fd5b505af1158015611cfe573d6000803e3d6000fd5b505050506040513d601f19601f82011682018060405250611d229190810190612959565b604051602001611d3291906130d5565b6040516020818303038152906040526040518263ffffffff1660e01b8152600401611d5d9190613005565b60006040518083038186803b158015611d7557600080fd5b505af4158015611d89573d6000803e3d6000fd5b5050505073__$425f1c4f5d795f19923be948d55f3ea66e$__63fd63594a6000809054906101000a90046001600160a01b03166001600160a01b03166360b4d59f6040518163ffffffff1660e01b8152600401602060405180830381600087803b158015611df657600080fd5b505af1158015611e0a573d6000803e3d6000fd5b505050506040513d601f19601f82011682018060405250611e2e9190810190612959565b604051602001611e3e91906130d5565b6040516020818303038152906040526040518263ffffffff1660e01b8152600401611e699190613065565b60006040518083038186803b158015611e8157600080fd5b505af4158015611e95573d6000803e3d6000fd5b5050505073__$425f1c4f5d795f19923be948d55f3ea66e$__63fd63594a6000809054906101000a90046001600160a01b03166001600160a01b0316630499d1ac6040518163ffffffff1660e01b8152600401602060405180830381600087803b158015611f0257600080fd5b505af1158015611f16573d6000803e3d6000fd5b505050506040513d601f19601f82011682018060405250611f3a9190810190612959565b604051602001611f4a91906130d5565b6040516020818303038152906040526040518263ffffffff1660e01b8152600401611f759190612fe5565b60006040518083038186803b158015611f8d57600080fd5b505af4158015611fa1573d6000803e3d6000fd5b5050505073__$425f1c4f5d795f19923be948d55f3ea66e$__63fd63594a6000809054906101000a90046001600160a01b03166001600160a01b031663b6641dbd6040518163ffffffff1660e01b8152600401602060405180830381600087803b15801561200e57600080fd5b505af1158015612022573d6000803e3d6000fd5b505050506040513d601f19601f820116820180604052506120469190810190612959565b60405160200161205691906130d5565b6040516020818303038152906040526040518263ffffffff1660e01b81526004016120819190612fa5565b60006040518083038186803b15801561209957600080fd5b505af41580156120ad573d6000803e3d6000fd5b5050505073__$425f1c4f5d795f19923be948d55f3ea66e$__63fd63594a6000809054906101000a90046001600160a01b03166001600160a01b031663916e481e6040518163ffffffff1660e01b8152600401602060405180830381600087803b15801561211a57600080fd5b505af115801561212e573d6000803e3d6000fd5b505050506040513d601f19601f820116820180604052506121529190810190612959565b60405160200161216291906130d5565b6040516020818303038152906040526040518263ffffffff1660e01b815260040161218d91906130a5565b60006040518083038186803b1580156121a557600080fd5b505af41580156121b9573d6000803e3d6000fd5b5050505073__$425f1c4f5d795f19923be948d55f3ea66e$__63fd63594a6000809054906101000a90046001600160a01b03166001600160a01b0316634870827d6040518163ffffffff1660e01b8152600401602060405180830381600087803b15801561222657600080fd5b505af115801561223a573d6000803e3d6000fd5b505050506040513d601f19601f8201168201806040525061225e9190810190612959565b60405160200161226e91906130d5565b6040516020818303038152906040526040518263ffffffff1660e01b81526004016122999190613025565b60006040518083038186803b1580156122b157600080fd5b505af41580156122c5573d6000803e3d6000fd5b5050600054604051633c4750df60e01b815273__$425f1c4f5d795f19923be948d55f3ea66e$__935063fd63594a92506001600160a01b0390911690633c4750df906123299073c02aaa39b223fe8d0a0e5c4f27ead9083c756cc290600401612e5b565b602060405180830381600087803b15801561234357600080fd5b505af1158015612357573d6000803e3d6000fd5b505050506040513d601f19601f8201168201806040525061237b9190810190612959565b60405160200161238b91906130d5565b6040516020818303038152906040526040518263ffffffff1660e01b81526004016123b69190613055565b60006040518083038186803b1580156123ce57600080fd5b505af41580156123e2573d6000803e3d6000fd5b50506000546040516370a0823160e01b815273__$425f1c4f5d795f19923be948d55f3ea66e$__935063fd63594a925073c02aaa39b223fe8d0a0e5c4f27ead9083c756cc2916370a0823191612444916001600160a01b031690600401612e5b565b60206040518083038186803b15801561245c57600080fd5b505afa158015612470573d6000803e3d6000fd5b505050506040513d601f19601f820116820180604052506124949190810190612959565b6040516020016124a491906130d5565b6040516020818303038152906040526040518263ffffffff1660e01b81526004016124cf9190612f85565b60006040518083038186803b1580156124e757600080fd5b505af41580156124fb573d6000803e3d6000fd5b5050600054604051633c4750df60e01b815273__$425f1c4f5d795f19923be948d55f3ea66e$__935063fd63594a92506001600160a01b0390911690633c4750df9061255f90732260fac5e5542a773aa44fbcfedf7c193bc2c59990600401612e5b565b602060405180830381600087803b15801561257957600080fd5b505af115801561258d573d6000803e3d6000fd5b505050506040513d601f19601f820116820180604052506125b19190810190612959565b6040516020016125c191906130d5565b6040516020818303038152906040526040518263ffffffff1660e01b81526004016125ec9190612fc5565b60006040518083038186803b15801561260457600080fd5b505af4158015612618573d6000803e3d6000fd5b50506000546040516370a0823160e01b815273__$425f1c4f5d795f19923be948d55f3ea66e$__935063fd63594a9250732260fac5e5542a773aa44fbcfedf7c193bc2c599916370a082319161267a916001600160a01b031690600401612e5b565b60206040518083038186803b15801561269257600080fd5b505afa1580156126a6573d6000803e3d6000fd5b505050506040513d601f19601f820116820180604052506126ca9190810190612959565b6040516020016126da91906130d5565b6040516020818303038152906040526040518263ffffffff1660e01b81526004016103bb9190612f95565b6000612721604051806020016040528060008152508484612794565b90505b92915050565b604051636c97915760e01b815273__$0de1058814b708eef6f3dbcc07a00ad09d$__90636c979157906127619084906004016130d5565b60006040518083038186803b15801561277957600080fd5b505af415801561278d573d6000803e3d6000fd5b5050505050565b604051633f63e83560e11b815260009073__$f1507aecf922839096cf6f1443419cb6b5$__90637ec7d06a906127d6908790879060e088901b90600401612f14565b60206040518083038186803b1580156127ee57600080fd5b505af4158015612802573d6000803e3d6000fd5b505050506040513d601f19601f820116820180604052506128269190810190612959565b90505b9392505050565b80516127248161318e565b8051612724816131a2565b8051612724816131ab565b60006020828403121561286357600080fd5b600061286f8484612830565b949350505050565b60008060008060008060008060006101208a8c03121561289657600080fd5b60006128a28c8c612830565b99505060206128b38c828d01612830565b98505060406128c48c828d01612830565b97505060606128d58c828d01612846565b96505060806128e68c828d01612846565b95505060a06128f78c828d01612846565b94505060c06129088c828d01612846565b93505060e06129198c828d01612846565b92505061010061292b8c828d0161283b565b9150509295985092959850929598565b60006020828403121561294d57600080fd5b600061286f848461283b565b60006020828403121561296b57600080fd5b600061286f8484612846565b61298081613137565b82525050565b6129808161310b565b61298081613116565b6129808161311b565b60006129ac826130fe565b6129b68185613102565b93506129c6818560208601613158565b6129cf81613184565b9093019392505050565b61298081613142565b60006129ef601383613102565b722a26173130b630b731b2a7b31e9297189c3a8560691b815260200192915050565b6000612a1e600c83613102565b6b3137b93937bbb2b21e92b08560a11b815260200192915050565b6000612a46600a83613102565b6931b637b9b2b21e92b10560b11b815260200192915050565b6000612a6c601483613102565b7322aa24173130b630b731b2a7b31e9297189c3a8560611b815260200192915050565b6000612a9c601583613102565b742ba12a21973130b630b731b2a7b31e9297189c3a8560591b815260200192915050565b6000612acd601583613102565b743634b8bab4b234ba3ca4b72ab9b29e9297189c3a8560591b815260200192915050565b6000612afe601f83613102565b7f63616c63756c6174654c6971756964697479546f4275726e3d252e3138750a00815260200192915050565b6000612b37601883613102565b7f6c69717569646974794f662857425443293d252e3138750a0000000000000000815260200192915050565b6000612b70600983613102565b6837bbb732b91e92b08560b91b815260200192915050565b6000612b95601583613102565b743634b8bab4b234ba3ca33932b2b21e9297189c3a8560591b815260200192915050565b6000612bc6600e83613102565b6d31b932b234ba24b71e92971c3a8560911b815260200192915050565b6000612bf0601583613102565b743634b8bab4b234ba3ca0b23232b21e9297189c3a8560591b815260200192915050565b6000612c21601783613102565b7f6c697175696469747942616c616e63653d252e3138750a000000000000000000815260200192915050565b6000612c5a601b83613102565b7f6c69717569646974795769746864726177616c733d252e3138750a0000000000815260200192915050565b6000612c93600d83613102565b6c32bc3834b9329e9297189c3a8560991b815260200192915050565b6000612cbc600e83613102565b6d31b932b0ba32b21e9297189c3a8560911b815260200192915050565b6000612ce6601783613102565b7f6c69717569646974794f6628455448293d252e3138750a000000000000000000815260200192915050565b6000612d1f601883613102565b7f6c69717569646974794465706f736974733d252e3138750a0000000000000000815260200192915050565b6000612d58601083613102565b6f3130b630b731b2a7b31e9297189c3a8560811b815260200192915050565b6000612d84600e83613102565b6d31b7b63630ba32b930b61e92b08560911b815260200192915050565b6000612dae601083613102565b6f30b6b7bab73a27baba1e9297189c3a8560811b815260200192915050565b6000612dda601783613102565b7f6c697175696469747952656d6f7665643d252e3138750a000000000000000000815260200192915050565b6000612e13600c83613102565b6b38bab7ba329e9297189c3a8560a11b815260200192915050565b6000612e3b600883613102565b6737b832b71e92b10560c11b815260200192915050565b61298081613134565b602081016127248284612986565b602081016127248284612977565b60608101612e858286612986565b612e926020830185612986565b61286f60408301846129d9565b60808101612ead8287612986565b612eba6020830186612986565b612ec760408301856129d9565b612ed460608301846129d9565b95945050505050565b60408101612eeb8285612986565b6128296020830184612e52565b60208101612724828461298f565b6020810161272482846129d9565b60608082528101612f2581866129a1565b9050612f346020830185612986565b61286f6040830184612998565b60408082528101612f51816129e2565b9050818103602083015261272181846129a1565b60408082528101612f5181612a11565b60408082528101612f5181612a39565b60408082528101612f5181612a5f565b60408082528101612f5181612a8f565b60408082528101612f5181612ac0565b60408082528101612f5181612af1565b60408082528101612f5181612b2a565b60408082528101612f5181612b63565b60408082528101612f5181612b88565b60408082528101612f5181612bb9565b60408082528101612f5181612be3565b60408082528101612f5181612c14565b60408082528101612f5181612c4d565b60408082528101612f5181612c86565b60408082528101612f5181612caf565b60408082528101612f5181612cd9565b60408082528101612f5181612d12565b60408082528101612f5181612d4b565b60408082528101612f5181612d77565b60408082528101612f5181612da1565b60408082528101612f5181612dcd565b60408082528101612f5181612e06565b60408082528101612f5181612e2e565b602081016127248284612e52565b604081016130f18285612e52565b6128296020830184612977565b5190565b90815260200190565b600061272482613128565b151590565b6001600160e01b03191690565b6001600160a01b031690565b90565b60006127248261314d565b600061272482613134565b60006127248261310b565b60005b8381101561317357818101518382015260200161315b565b838111156103e75750506000910152565b601f01601f191690565b6131978161310b565b811461161c57600080fd5b61319781613116565b6131978161313456fea365627a7a723158203dcb8789e67105cb286268648b47aa2266e50322c116159e333182c1e5b0095d6c6578706572696d656e74616cf564736f6c63430005110040",
			"opcodes": "PUSH1 0x80 PUSH1 0x40 MSTORE CALLVALUE DUP1 ISZERO PUSH2 0x10 JUMPI PUSH1 0x0 DUP1 REVERT JUMPDEST POP PUSH2 0x31F7 DUP1 PUSH2 0x20 PUSH1 0x0 CODECOPY PUSH1 0x0 RETURN INVALID PUSH1 0x80 PUSH1 0x40 MSTORE PUSH1 0x4 CALLDATASIZE LT PUSH2 0x86 JUMPI PUSH1 0x0 CALLDATALOAD PUSH1 0xE0 SHR DUP1 PUSH4 0xBA0BBA40 GT PUSH2 0x59 JUMPI DUP1 PUSH4 0xBA0BBA40 EQ PUSH2 0xDC JUMPI DUP1 PUSH4 0xC0406226 EQ PUSH2 0xF1 JUMPI DUP1 PUSH4 0xCA593C59 EQ PUSH2 0x106 JUMPI DUP1 PUSH4 0xD0E30DB0 EQ PUSH2 0x11B JUMPI DUP1 PUSH4 0xD80528AE EQ PUSH2 0x130 JUMPI PUSH2 0x86 JUMP JUMPDEST DUP1 PUSH4 0x3CCFD60B EQ PUSH2 0x88 JUMPI DUP1 PUSH4 0x43D726D6 EQ PUSH2 0x9D JUMPI DUP1 PUSH4 0x775C300C EQ PUSH2 0xB2 JUMPI DUP1 PUSH4 0x999B93AF EQ PUSH2 0xC7 JUMPI JUMPDEST STOP JUMPDEST CALLVALUE DUP1 ISZERO PUSH2 0x94 JUMPI PUSH1 0x0 DUP1 REVERT JUMPDEST POP PUSH2 0x86 PUSH2 0x145 JUMP JUMPDEST CALLVALUE DUP1 ISZERO PUSH2 0xA9 JUMPI PUSH1 0x0 DUP1 REVERT JUMPDEST POP PUSH2 0x86 PUSH2 0x3ED JUMP JUMPDEST CALLVALUE DUP1 ISZERO PUSH2 0xBE JUMPI PUSH1 0x0 DUP1 REVERT JUMPDEST POP PUSH2 0x86 PUSH2 0xA70 JUMP JUMPDEST CALLVALUE DUP1 ISZERO PUSH2 0xD3 JUMPI PUSH1 0x0 DUP1 REVERT JUMPDEST POP PUSH2 0x86 PUSH2 0xB2F JUMP JUMPDEST CALLVALUE DUP1 ISZERO PUSH2 0xE8 JUMPI PUSH1 0x0 DUP1 REVERT JUMPDEST POP PUSH2 0x86 PUSH2 0xEB7 JUMP JUMPDEST CALLVALUE DUP1 ISZERO PUSH2 0xFD JUMPI PUSH1 0x0 DUP1 REVERT JUMPDEST POP PUSH2 0x86 PUSH2 0xEB9 JUMP JUMPDEST CALLVALUE DUP1 ISZERO PUSH2 0x112 JUMPI PUSH1 0x0 DUP1 REVERT JUMPDEST POP PUSH2 0x86 PUSH2 0x161F JUMP JUMPDEST CALLVALUE DUP1 ISZERO PUSH2 0x127 JUMPI PUSH1 0x0 DUP1 REVERT JUMPDEST POP PUSH2 0x86 PUSH2 0x1674 JUMP JUMPDEST CALLVALUE DUP1 ISZERO PUSH2 0x13C JUMPI PUSH1 0x0 DUP1 REVERT JUMPDEST POP PUSH2 0x86 PUSH2 0x1A69 JUMP JUMPDEST PUSH1 0x40 MLOAD PUSH4 0x70A08231 PUSH1 0xE0 SHL DUP2 MSTORE PUSH20 0x0 SWAP1 PUSH4 0xFD63594A SWAP1 PUSH20 0xBB2B8038A1640196FBE3E38816F3E67CBA72D940 SWAP1 PUSH4 0x70A08231 SWAP1 PUSH2 0x198 SWAP1 ADDRESS SWAP1 PUSH1 0x4 ADD PUSH2 0x2E69 JUMP JUMPDEST PUSH1 0x20 PUSH1 0x40 MLOAD DUP1 DUP4 SUB DUP2 DUP7 DUP1 EXTCODESIZE ISZERO DUP1 ISZERO PUSH2 0x1B0 JUMPI PUSH1 0x0 DUP1 REVERT JUMPDEST POP GAS STATICCALL ISZERO DUP1 ISZERO PUSH2 0x1C4 JUMPI RETURNDATASIZE PUSH1 0x0 DUP1 RETURNDATACOPY RETURNDATASIZE PUSH1 0x0 REVERT JUMPDEST POP POP POP POP PUSH1 0x40 MLOAD RETURNDATASIZE PUSH1 0x1F NOT PUSH1 0x1F DUP3 ADD AND DUP3 ADD DUP1 PUSH1 0x40 MSTORE POP PUSH2 0x1E8 SWAP2 SWAP1 DUP2 ADD SWAP1 PUSH2 0x2959 JUMP JUMPDEST PUSH1 0x40 MLOAD PUSH1 0x20 ADD PUSH2 0x1F8 SWAP2 SWAP1 PUSH2 0x30D5 JUMP JUMPDEST PUSH1 0x40 MLOAD PUSH1 0x20 DUP2 DUP4 SUB SUB DUP2 MSTORE SWAP1 PUSH1 0x40 MSTORE PUSH1 0x40 MLOAD DUP3 PUSH4 0xFFFFFFFF AND PUSH1 0xE0 SHL DUP2 MSTORE PUSH1 0x4 ADD PUSH2 0x223 SWAP2 SWAP1 PUSH2 0x3075 JUMP JUMPDEST PUSH1 0x0 PUSH1 0x40 MLOAD DUP1 DUP4 SUB DUP2 DUP7 DUP1 EXTCODESIZE ISZERO DUP1 ISZERO PUSH2 0x23B JUMPI PUSH1 0x0 DUP1 REVERT JUMPDEST POP GAS DELEGATECALL ISZERO DUP1 ISZERO PUSH2 0x24F JUMPI RETURNDATASIZE PUSH1 0x0 DUP1 RETURNDATACOPY RETURNDATASIZE PUSH1 0x0 REVERT JUMPDEST POP POP PUSH1 0x0 SLOAD PUSH1 0x40 MLOAD PUSH4 0x2E1A7D4D PUSH1 0xE0 SHL DUP2 MSTORE PUSH1 0x1 PUSH1 0x1 PUSH1 0xA0 SHL SUB SWAP1 SWAP2 AND SWAP3 POP PUSH4 0x2E1A7D4D SWAP2 POP PUSH2 0x28A SWAP1 PUSH7 0x5543DF729C000 SWAP1 PUSH1 0x4 ADD PUSH2 0x2F06 JUMP JUMPDEST PUSH1 0x20 PUSH1 0x40 MLOAD DUP1 DUP4 SUB DUP2 PUSH1 0x0 DUP8 DUP1 EXTCODESIZE ISZERO DUP1 ISZERO PUSH2 0x2A4 JUMPI PUSH1 0x0 DUP1 REVERT JUMPDEST POP GAS CALL ISZERO DUP1 ISZERO PUSH2 0x2B8 JUMPI RETURNDATASIZE PUSH1 0x0 DUP1 RETURNDATACOPY RETURNDATASIZE PUSH1 0x0 REVERT JUMPDEST POP POP POP POP PUSH1 0x40 MLOAD RETURNDATASIZE PUSH1 0x1F NOT PUSH1 0x1F DUP3 ADD AND DUP3 ADD DUP1 PUSH1 0x40 MSTORE POP PUSH2 0x2DC SWAP2 SWAP1 DUP2 ADD SWAP1 PUSH2 0x293B JUMP JUMPDEST POP PUSH1 0x40 MLOAD PUSH4 0x70A08231 PUSH1 0xE0 SHL DUP2 MSTORE PUSH20 0x0 SWAP1 PUSH4 0xFD63594A SWAP1 PUSH20 0xBB2B8038A1640196FBE3E38816F3E67CBA72D940 SWAP1 PUSH4 0x70A08231 SWAP1 PUSH2 0x330 SWAP1 ADDRESS SWAP1 PUSH1 0x4 ADD PUSH2 0x2E69 JUMP JUMPDEST PUSH1 0x20 PUSH1 0x40 MLOAD DUP1 DUP4 SUB DUP2 DUP7 DUP1 EXTCODESIZE ISZERO DUP1 ISZERO PUSH2 0x348 JUMPI PUSH1 0x0 DUP1 REVERT JUMPDEST POP GAS STATICCALL ISZERO DUP1 ISZERO PUSH2 0x35C JUMPI RETURNDATASIZE PUSH1 0x0 DUP1 RETURNDATACOPY RETURNDATASIZE PUSH1 0x0 REVERT JUMPDEST POP POP POP POP PUSH1 0x40 MLOAD RETURNDATASIZE PUSH1 0x1F NOT PUSH1 0x1F DUP3 ADD AND DUP3 ADD DUP1 PUSH1 0x40 MSTORE POP PUSH2 0x380 SWAP2 SWAP1 DUP2 ADD SWAP1 PUSH2 0x2959 JUMP JUMPDEST PUSH1 0x40 MLOAD PUSH1 0x20 ADD PUSH2 0x390 SWAP2 SWAP1 PUSH2 0x30D5 JUMP JUMPDEST PUSH1 0x40 MLOAD PUSH1 0x20 DUP2 DUP4 SUB SUB DUP2 MSTORE SWAP1 PUSH1 0x40 MSTORE PUSH1 0x40 MLOAD DUP3 PUSH4 0xFFFFFFFF AND PUSH1 0xE0 SHL DUP2 MSTORE PUSH1 0x4 ADD PUSH2 0x3BB SWAP2 SWAP1 PUSH2 0x3075 JUMP JUMPDEST PUSH1 0x0 PUSH1 0x40 MLOAD DUP1 DUP4 SUB DUP2 DUP7 DUP1 EXTCODESIZE ISZERO DUP1 ISZERO PUSH2 0x3D3 JUMPI PUSH1 0x0 DUP1 REVERT JUMPDEST POP GAS DELEGATECALL ISZERO DUP1 ISZERO PUSH2 0x3E7 JUMPI RETURNDATASIZE PUSH1 0x0 DUP1 RETURNDATACOPY RETURNDATASIZE PUSH1 0x0 REVERT JUMPDEST POP POP POP POP JUMP JUMPDEST PUSH1 0x0 DUP1 SLOAD PUSH1 0x40 MLOAD PUSH4 0x133F7571 PUSH1 0xE3 SHL DUP2 MSTORE DUP3 SWAP2 DUP3 SWAP2 DUP3 SWAP2 DUP3 SWAP2 DUP3 SWAP2 DUP3 SWAP2 DUP3 SWAP2 DUP3 SWAP2 PUSH1 0x1 PUSH1 0x1 PUSH1 0xA0 SHL SUB SWAP1 SWAP2 AND SWAP1 PUSH4 0x99FBAB88 SWAP1 PUSH2 0x42E SWAP1 DUP5 SWAP1 PUSH1 0x4 ADD PUSH2 0x2F06 JUMP JUMPDEST PUSH2 0x120 PUSH1 0x40 MLOAD DUP1 DUP4 SUB DUP2 DUP7 DUP1 EXTCODESIZE ISZERO DUP1 ISZERO PUSH2 0x447 JUMPI PUSH1 0x0 DUP1 REVERT JUMPDEST POP GAS STATICCALL ISZERO DUP1 ISZERO PUSH2 0x45B JUMPI RETURNDATASIZE PUSH1 0x0 DUP1 RETURNDATACOPY RETURNDATASIZE PUSH1 0x0 REVERT JUMPDEST POP POP POP POP PUSH1 0x40 MLOAD RETURNDATASIZE PUSH1 0x1F NOT PUSH1 0x1F DUP3 ADD AND DUP3 ADD DUP1 PUSH1 0x40 MSTORE POP PUSH2 0x47F SWAP2 SWAP1 DUP2 ADD SWAP1 PUSH2 0x2877 JUMP JUMPDEST SWAP9 POP SWAP9 POP SWAP9 POP SWAP9 POP SWAP9 POP SWAP9 POP SWAP9 POP SWAP9 POP SWAP9 POP PUSH1 0x0 DUP1 PUSH1 0x0 SWAP1 SLOAD SWAP1 PUSH2 0x100 EXP SWAP1 DIV PUSH1 0x1 PUSH1 0x1 PUSH1 0xA0 SHL SUB AND PUSH1 0x1 PUSH1 0x1 PUSH1 0xA0 SHL SUB AND PUSH4 0xAEBEB4E PUSH1 0x0 PUSH1 0x40 MLOAD DUP3 PUSH4 0xFFFFFFFF AND PUSH1 0xE0 SHL DUP2 MSTORE PUSH1 0x4 ADD PUSH2 0x4D4 SWAP2 SWAP1 PUSH2 0x2F06 JUMP JUMPDEST PUSH1 0x20 PUSH1 0x40 MLOAD DUP1 DUP4 SUB DUP2 PUSH1 0x0 DUP8 DUP1 EXTCODESIZE ISZERO DUP1 ISZERO PUSH2 0x4EE JUMPI PUSH1 0x0 DUP1 REVERT JUMPDEST POP GAS CALL ISZERO DUP1 ISZERO PUSH2 0x502 JUMPI RETURNDATASIZE PUSH1 0x0 DUP1 RETURNDATACOPY RETURNDATASIZE PUSH1 0x0 REVERT JUMPDEST POP POP POP POP PUSH1 0x40 MLOAD RETURNDATASIZE PUSH1 0x1F NOT PUSH1 0x1F DUP3 ADD AND DUP3 ADD DUP1 PUSH1 0x40 MSTORE POP PUSH2 0x526 SWAP2 SWAP1 DUP2 ADD SWAP1 PUSH2 0x293B JUMP JUMPDEST SWAP1 POP PUSH20 0x0 PUSH4 0xFD63594A DUP12 PUSH1 0x40 MLOAD PUSH1 0x20 ADD PUSH2 0x553 SWAP2 SWAP1 PUSH2 0x2E5B JUMP JUMPDEST PUSH1 0x40 MLOAD PUSH1 0x20 DUP2 DUP4 SUB SUB DUP2 MSTORE SWAP1 PUSH1 0x40 MSTORE PUSH1 0x40 MLOAD DUP3 PUSH4 0xFFFFFFFF AND PUSH1 0xE0 SHL DUP2 MSTORE PUSH1 0x4 ADD PUSH2 0x57E SWAP2 SWAP1 PUSH2 0x2FD5 JUMP JUMPDEST PUSH1 0x0 PUSH1 0x40 MLOAD DUP1 DUP4 SUB DUP2 DUP7 DUP1 EXTCODESIZE ISZERO DUP1 ISZERO PUSH2 0x596 JUMPI PUSH1 0x0 DUP1 REVERT JUMPDEST POP GAS DELEGATECALL ISZERO DUP1 ISZERO PUSH2 0x5AA JUMPI RETURNDATASIZE PUSH1 0x0 DUP1 RETURNDATACOPY RETURNDATASIZE PUSH1 0x0 REVERT JUMPDEST POP POP POP POP PUSH20 0x0 PUSH4 0xFD63594A DUP11 PUSH1 0x40 MLOAD PUSH1 0x20 ADD PUSH2 0x5D9 SWAP2 SWAP1 PUSH2 0x2E5B JUMP JUMPDEST PUSH1 0x40 MLOAD PUSH1 0x20 DUP2 DUP4 SUB SUB DUP2 MSTORE SWAP1 PUSH1 0x40 MSTORE PUSH1 0x40 MLOAD DUP3 PUSH4 0xFFFFFFFF AND PUSH1 0xE0 SHL DUP2 MSTORE PUSH1 0x4 ADD PUSH2 0x604 SWAP2 SWAP1 PUSH2 0x3085 JUMP JUMPDEST PUSH1 0x0 PUSH1 0x40 MLOAD DUP1 DUP4 SUB DUP2 DUP7 DUP1 EXTCODESIZE ISZERO DUP1 ISZERO PUSH2 0x61C JUMPI PUSH1 0x0 DUP1 REVERT JUMPDEST POP GAS DELEGATECALL ISZERO DUP1 ISZERO PUSH2 0x630 JUMPI RETURNDATASIZE PUSH1 0x0 DUP1 RETURNDATACOPY RETURNDATASIZE PUSH1 0x0 REVERT JUMPDEST POP POP POP POP PUSH20 0x0 PUSH4 0xFD63594A DUP10 PUSH1 0x40 MLOAD PUSH1 0x20 ADD PUSH2 0x65F SWAP2 SWAP1 PUSH2 0x2E5B JUMP JUMPDEST PUSH1 0x40 MLOAD PUSH1 0x20 DUP2 DUP4 SUB SUB DUP2 MSTORE SWAP1 PUSH1 0x40 MSTORE PUSH1 0x40 MLOAD DUP3 PUSH4 0xFFFFFFFF AND PUSH1 0xE0 SHL DUP2 MSTORE PUSH1 0x4 ADD PUSH2 0x68A SWAP2 SWAP1 PUSH2 0x2F65 JUMP JUMPDEST PUSH1 0x0 PUSH1 0x40 MLOAD DUP1 DUP4 SUB DUP2 DUP7 DUP1 EXTCODESIZE ISZERO DUP1 ISZERO PUSH2 0x6A2 JUMPI PUSH1 0x0 DUP1 REVERT JUMPDEST POP GAS DELEGATECALL ISZERO DUP1 ISZERO PUSH2 0x6B6 JUMPI RETURNDATASIZE PUSH1 0x0 DUP1 RETURNDATACOPY RETURNDATASIZE PUSH1 0x0 REVERT JUMPDEST POP POP POP POP PUSH20 0x0 PUSH4 0xFD63594A DUP9 PUSH1 0x40 MLOAD PUSH1 0x20 ADD PUSH2 0x6E5 SWAP2 SWAP1 PUSH2 0x30D5 JUMP JUMPDEST PUSH1 0x40 MLOAD PUSH1 0x20 DUP2 DUP4 SUB SUB DUP2 MSTORE SWAP1 PUSH1 0x40 MSTORE PUSH1 0x40 MLOAD DUP3 PUSH4 0xFFFFFFFF AND PUSH1 0xE0 SHL DUP2 MSTORE PUSH1 0x4 ADD PUSH2 0x710 SWAP2 SWAP1 PUSH2 0x2FF5 JUMP JUMPDEST PUSH1 0x0 PUSH1 0x40 MLOAD DUP1 DUP4 SUB DUP2 DUP7 DUP1 EXTCODESIZE ISZERO DUP1 ISZERO PUSH2 0x728 JUMPI PUSH1 0x0 DUP1 REVERT JUMPDEST POP GAS DELEGATECALL ISZERO DUP1 ISZERO PUSH2 0x73C JUMPI RETURNDATASIZE PUSH1 0x0 DUP1 RETURNDATACOPY RETURNDATASIZE PUSH1 0x0 REVERT JUMPDEST POP POP POP POP PUSH20 0x0 PUSH4 0xFD63594A DUP8 PUSH1 0x40 MLOAD PUSH1 0x20 ADD PUSH2 0x76B SWAP2 SWAP1 PUSH2 0x30D5 JUMP JUMPDEST PUSH1 0x40 MLOAD PUSH1 0x20 DUP2 DUP4 SUB SUB DUP2 MSTORE SWAP1 PUSH1 0x40 MSTORE PUSH1 0x40 MLOAD DUP3 PUSH4 0xFFFFFFFF AND PUSH1 0xE0 SHL DUP2 MSTORE PUSH1 0x4 ADD PUSH2 0x796 SWAP2 SWAP1 PUSH2 0x3095 JUMP JUMPDEST PUSH1 0x0 PUSH1 0x40 MLOAD DUP1 DUP4 SUB DUP2 DUP7 DUP1 EXTCODESIZE ISZERO DUP1 ISZERO PUSH2 0x7AE JUMPI PUSH1 0x0 DUP1 REVERT JUMPDEST POP GAS DELEGATECALL ISZERO DUP1 ISZERO PUSH2 0x7C2 JUMPI RETURNDATASIZE PUSH1 0x0 DUP1 RETURNDATACOPY RETURNDATASIZE PUSH1 0x0 REVERT JUMPDEST POP POP POP POP PUSH20 0x0 PUSH4 0xFD63594A DUP7 PUSH1 0x40 MLOAD PUSH1 0x20 ADD PUSH2 0x7F1 SWAP2 SWAP1 PUSH2 0x30D5 JUMP JUMPDEST PUSH1 0x40 MLOAD PUSH1 0x20 DUP2 DUP4 SUB SUB DUP2 MSTORE SWAP1 PUSH1 0x40 MSTORE PUSH1 0x40 MLOAD DUP3 PUSH4 0xFFFFFFFF AND PUSH1 0xE0 SHL DUP2 MSTORE PUSH1 0x4 ADD PUSH2 0x81C SWAP2 SWAP1 PUSH2 0x2FA5 JUMP JUMPDEST PUSH1 0x0 PUSH1 0x40 MLOAD DUP1 DUP4 SUB DUP2 DUP7 DUP1 EXTCODESIZE ISZERO DUP1 ISZERO PUSH2 0x834 JUMPI PUSH1 0x0 DUP1 REVERT JUMPDEST POP GAS DELEGATECALL ISZERO DUP1 ISZERO PUSH2 0x848 JUMPI RETURNDATASIZE PUSH1 0x0 DUP1 RETURNDATACOPY RETURNDATASIZE PUSH1 0x0 REVERT JUMPDEST POP POP POP POP PUSH20 0x0 PUSH4 0xFD63594A DUP6 PUSH1 0x40 MLOAD PUSH1 0x20 ADD PUSH2 0x877 SWAP2 SWAP1 PUSH2 0x30D5 JUMP JUMPDEST PUSH1 0x40 MLOAD PUSH1 0x20 DUP2 DUP4 SUB SUB DUP2 MSTORE SWAP1 PUSH1 0x40 MSTORE PUSH1 0x40 MLOAD DUP3 PUSH4 0xFFFFFFFF AND PUSH1 0xE0 SHL DUP2 MSTORE PUSH1 0x4 ADD PUSH2 0x8A2 SWAP2 SWAP1 PUSH2 0x3045 JUMP JUMPDEST PUSH1 0x0 PUSH1 0x40 MLOAD DUP1 DUP4 SUB DUP2 DUP7 DUP1 EXTCODESIZE ISZERO DUP1 ISZERO PUSH2 0x8BA JUMPI PUSH1 0x0 DUP1 REVERT JUMPDEST POP GAS DELEGATECALL ISZERO DUP1 ISZERO PUSH2 0x8CE JUMPI RETURNDATASIZE PUSH1 0x0 DUP1 RETURNDATACOPY RETURNDATASIZE PUSH1 0x0 REVERT JUMPDEST POP POP POP POP PUSH20 0x0 PUSH4 0xFD63594A DUP5 PUSH1 0x40 MLOAD PUSH1 0x20 ADD PUSH2 0x8FD SWAP2 SWAP1 PUSH2 0x30D5 JUMP JUMPDEST PUSH1 0x40 MLOAD PUSH1 0x20 DUP2 DUP4 SUB SUB DUP2 MSTORE SWAP1 PUSH1 0x40 MSTORE PUSH1 0x40 MLOAD DUP3 PUSH4 0xFFFFFFFF AND PUSH1 0xE0 SHL DUP2 MSTORE PUSH1 0x4 ADD PUSH2 0x928 SWAP2 SWAP1 PUSH2 0x3035 JUMP JUMPDEST PUSH1 0x0 PUSH1 0x40 MLOAD DUP1 DUP4 SUB DUP2 DUP7 DUP1 EXTCODESIZE ISZERO DUP1 ISZERO PUSH2 0x940 JUMPI PUSH1 0x0 DUP1 REVERT JUMPDEST POP GAS DELEGATECALL ISZERO DUP1 ISZERO PUSH2 0x954 JUMPI RETURNDATASIZE PUSH1 0x0 DUP1 RETURNDATACOPY RETURNDATASIZE PUSH1 0x0 REVERT JUMPDEST POP POP POP POP PUSH20 0x0 PUSH4 0xFD63594A DUP4 PUSH1 0x40 MLOAD PUSH1 0x20 ADD PUSH2 0x983 SWAP2 SWAP1 PUSH2 0x2EF8 JUMP JUMPDEST PUSH1 0x40 MLOAD PUSH1 0x20 DUP2 DUP4 SUB SUB DUP2 MSTORE SWAP1 PUSH1 0x40 MSTORE PUSH1 0x40 MLOAD DUP3 PUSH4 0xFFFFFFFF AND PUSH1 0xE0 SHL DUP2 MSTORE PUSH1 0x4 ADD PUSH2 0x9AE SWAP2 SWAP1 PUSH2 0x30C5 JUMP JUMPDEST PUSH1 0x0 PUSH1 0x40 MLOAD DUP1 DUP4 SUB DUP2 DUP7 DUP1 EXTCODESIZE ISZERO DUP1 ISZERO PUSH2 0x9C6 JUMPI PUSH1 0x0 DUP1 REVERT JUMPDEST POP GAS DELEGATECALL ISZERO DUP1 ISZERO PUSH2 0x9DA JUMPI RETURNDATASIZE PUSH1 0x0 DUP1 RETURNDATACOPY RETURNDATASIZE PUSH1 0x0 REVERT JUMPDEST POP POP POP POP PUSH20 0x0 PUSH4 0xFD63594A DUP3 PUSH1 0x40 MLOAD PUSH1 0x20 ADD PUSH2 0xA09 SWAP2 SWAP1 PUSH2 0x2EF8 JUMP JUMPDEST PUSH1 0x40 MLOAD PUSH1 0x20 DUP2 DUP4 SUB SUB DUP2 MSTORE SWAP1 PUSH1 0x40 MSTORE PUSH1 0x40 MLOAD DUP3 PUSH4 0xFFFFFFFF AND PUSH1 0xE0 SHL DUP2 MSTORE PUSH1 0x4 ADD PUSH2 0xA34 SWAP2 SWAP1 PUSH2 0x2F75 JUMP JUMPDEST PUSH1 0x0 PUSH1 0x40 MLOAD DUP1 DUP4 SUB DUP2 DUP7 DUP1 EXTCODESIZE ISZERO DUP1 ISZERO PUSH2 0xA4C JUMPI PUSH1 0x0 DUP1 REVERT JUMPDEST POP GAS DELEGATECALL ISZERO DUP1 ISZERO PUSH2 0xA60 JUMPI RETURNDATASIZE PUSH1 0x0 DUP1 RETURNDATACOPY RETURNDATASIZE PUSH1 0x0 REVERT JUMPDEST POP POP POP POP POP POP POP POP POP POP POP POP POP POP JUMP JUMPDEST PUSH1 0x40 MLOAD PUSH4 0x4C96A389 PUSH1 0xE0 SHL DUP2 MSTORE PUSH20 0x2DF93404574DFF883E2B35911A684DAB1760DA0D SWAP1 PUSH4 0x4C96A389 SWAP1 PUSH2 0xABB SWAP1 PUSH20 0xBB2B8038A1640196FBE3E38816F3E67CBA72D940 SWAP1 PUSH1 0x4 ADD PUSH2 0x2E5B JUMP JUMPDEST PUSH1 0x20 PUSH1 0x40 MLOAD DUP1 DUP4 SUB DUP2 PUSH1 0x0 DUP8 DUP1 EXTCODESIZE ISZERO DUP1 ISZERO PUSH2 0xAD5 JUMPI PUSH1 0x0 DUP1 REVERT JUMPDEST POP GAS CALL ISZERO DUP1 ISZERO PUSH2 0xAE9 JUMPI RETURNDATASIZE PUSH1 0x0 DUP1 RETURNDATACOPY RETURNDATASIZE PUSH1 0x0 REVERT JUMPDEST POP POP POP POP PUSH1 0x40 MLOAD RETURNDATASIZE PUSH1 0x1F NOT PUSH1 0x1F DUP3 ADD AND DUP3 ADD DUP1 PUSH1 0x40 MSTORE POP PUSH2 0xB0D SWAP2 SWAP1 DUP2 ADD SWAP1 PUSH2 0x2851 JUMP JUMPDEST PUSH1 0x0 DUP1 SLOAD PUSH1 0x1 PUSH1 0x1 PUSH1 0xA0 SHL SUB NOT AND PUSH1 0x1 PUSH1 0x1 PUSH1 0xA0 SHL SUB SWAP3 SWAP1 SWAP3 AND SWAP2 SWAP1 SWAP2 OR SWAP1 SSTORE JUMP JUMPDEST PUSH1 0x0 DUP1 SLOAD PUSH1 0x40 MLOAD PUSH4 0x2D9198E1 PUSH1 0xE2 SHL DUP2 MSTORE PUSH1 0x1 PUSH1 0x1 PUSH1 0xA0 SHL SUB SWAP1 SWAP2 AND SWAP1 PUSH4 0xB6466384 SWAP1 PUSH2 0xB90 SWAP1 PUSH20 0x2260FAC5E5542A773AA44FBCFEDF7C193BC2C599 SWAP1 PUSH20 0xC02AAA39B223FE8D0A0E5C4F27EAD9083C756CC2 SWAP1 PUSH4 0x5F5E100 SWAP1 PUSH1 0x4 ADD PUSH2 0x2E77 JUMP JUMPDEST PUSH1 0x20 PUSH1 0x40 MLOAD DUP1 DUP4 SUB DUP2 DUP7 DUP1 EXTCODESIZE ISZERO DUP1 ISZERO PUSH2 0xBA8 JUMPI PUSH1 0x0 DUP1 REVERT JUMPDEST POP GAS STATICCALL ISZERO DUP1 ISZERO PUSH2 0xBBC JUMPI RETURNDATASIZE PUSH1 0x0 DUP1 RETURNDATACOPY RETURNDATASIZE PUSH1 0x0 REVERT JUMPDEST POP POP POP POP PUSH1 0x40 MLOAD RETURNDATASIZE PUSH1 0x1F NOT PUSH1 0x1F DUP3 ADD AND DUP3 ADD DUP1 PUSH1 0x40 MSTORE POP PUSH2 0xBE0 SWAP2 SWAP1 DUP2 ADD SWAP1 PUSH2 0x2959 JUMP JUMPDEST SWAP1 POP PUSH20 0x0 PUSH4 0xFD63594A DUP3 PUSH1 0x40 MLOAD PUSH1 0x20 ADD PUSH2 0xC0D SWAP2 SWAP1 PUSH2 0x30D5 JUMP JUMPDEST PUSH1 0x40 MLOAD PUSH1 0x20 DUP2 DUP4 SUB SUB DUP2 MSTORE SWAP1 PUSH1 0x40 MSTORE PUSH1 0x40 MLOAD DUP3 PUSH4 0xFFFFFFFF AND PUSH1 0xE0 SHL DUP2 MSTORE PUSH1 0x4 ADD PUSH2 0xC38 SWAP2 SWAP1 PUSH2 0x30B5 JUMP JUMPDEST PUSH1 0x0 PUSH1 0x40 MLOAD DUP1 DUP4 SUB DUP2 DUP7 DUP1 EXTCODESIZE ISZERO DUP1 ISZERO PUSH2 0xC50 JUMPI PUSH1 0x0 DUP1 REVERT JUMPDEST POP GAS DELEGATECALL ISZERO DUP1 ISZERO PUSH2 0xC64 JUMPI RETURNDATASIZE PUSH1 0x0 DUP1 RETURNDATACOPY RETURNDATASIZE PUSH1 0x0 REVERT JUMPDEST POP POP PUSH1 0x0 SLOAD PUSH1 0x40 MLOAD PUSH4 0x95EA7B3 PUSH1 0xE0 SHL DUP2 MSTORE PUSH20 0x2260FAC5E5542A773AA44FBCFEDF7C193BC2C599 SWAP4 POP PUSH4 0x95EA7B3 SWAP3 POP PUSH2 0xCAE SWAP2 PUSH1 0x1 PUSH1 0x1 PUSH1 0xA0 SHL SUB AND SWAP1 PUSH1 0x0 NOT SWAP1 PUSH1 0x4 ADD PUSH2 0x2EDD JUMP JUMPDEST PUSH1 0x0 PUSH1 0x40 MLOAD DUP1 DUP4 SUB DUP2 PUSH1 0x0 DUP8 DUP1 EXTCODESIZE ISZERO DUP1 ISZERO PUSH2 0xCC8 JUMPI PUSH1 0x0 DUP1 REVERT JUMPDEST POP GAS CALL ISZERO DUP1 ISZERO PUSH2 0xCDC JUMPI RETURNDATASIZE PUSH1 0x0 DUP1 RETURNDATACOPY RETURNDATASIZE PUSH1 0x0 REVERT JUMPDEST POP POP PUSH1 0x0 DUP1 SLOAD PUSH1 0x40 MLOAD PUSH4 0x53DC0759 PUSH1 0xE1 SHL DUP2 MSTORE SWAP2 SWAP4 POP PUSH1 0x1 PUSH1 0x1 PUSH1 0xA0 SHL SUB AND SWAP2 POP PUSH4 0xA7B80EB2 SWAP1 PUSH2 0xD27 SWAP1 PUSH20 0xC02AAA39B223FE8D0A0E5C4F27EAD9083C756CC2 SWAP1 DUP7 SWAP1 PUSH1 0x4 ADD PUSH2 0x2EDD JUMP JUMPDEST PUSH1 0x20 PUSH1 0x40 MLOAD DUP1 DUP4 SUB DUP2 DUP7 DUP1 EXTCODESIZE ISZERO DUP1 ISZERO PUSH2 0xD3F JUMPI PUSH1 0x0 DUP1 REVERT JUMPDEST POP GAS STATICCALL ISZERO DUP1 ISZERO PUSH2 0xD53 JUMPI RETURNDATASIZE PUSH1 0x0 DUP1 RETURNDATACOPY RETURNDATASIZE PUSH1 0x0 REVERT JUMPDEST POP POP POP POP PUSH1 0x40 MLOAD RETURNDATASIZE PUSH1 0x1F NOT PUSH1 0x1F DUP3 ADD AND DUP3 ADD DUP1 PUSH1 0x40 MSTORE POP PUSH2 0xD77 SWAP2 SWAP1 DUP2 ADD SWAP1 PUSH2 0x2959 JUMP JUMPDEST SWAP1 POP PUSH20 0x0 PUSH4 0xFD63594A DUP3 PUSH1 0x40 MLOAD PUSH1 0x20 ADD PUSH2 0xDA4 SWAP2 SWAP1 PUSH2 0x30D5 JUMP JUMPDEST PUSH1 0x40 MLOAD PUSH1 0x20 DUP2 DUP4 SUB SUB DUP2 MSTORE SWAP1 PUSH1 0x40 MSTORE PUSH1 0x40 MLOAD DUP3 PUSH4 0xFFFFFFFF AND PUSH1 0xE0 SHL DUP2 MSTORE PUSH1 0x4 ADD PUSH2 0xDCF SWAP2 SWAP1 PUSH2 0x2FB5 JUMP JUMPDEST PUSH1 0x0 PUSH1 0x40 MLOAD DUP1 DUP4 SUB DUP2 DUP7 DUP1 EXTCODESIZE ISZERO DUP1 ISZERO PUSH2 0xDE7 JUMPI PUSH1 0x0 DUP1 REVERT JUMPDEST POP GAS DELEGATECALL ISZERO DUP1 ISZERO PUSH2 0xDFB JUMPI RETURNDATASIZE PUSH1 0x0 DUP1 RETURNDATACOPY RETURNDATASIZE PUSH1 0x0 REVERT JUMPDEST POP POP PUSH1 0x0 DUP1 SLOAD PUSH1 0x40 MLOAD PUSH4 0xA95FE267 PUSH1 0xE0 SHL DUP2 MSTORE PUSH1 0x1 PUSH1 0x1 PUSH1 0xA0 SHL SUB SWAP1 SWAP2 AND SWAP4 POP PUSH4 0xA95FE267 SWAP3 POP PUSH2 0xE60 SWAP2 PUSH20 0x2260FAC5E5542A773AA44FBCFEDF7C193BC2C599 SWAP2 PUSH20 0xC02AAA39B223FE8D0A0E5C4F27EAD9083C756CC2 SWAP2 PUSH4 0x5F5E100 SWAP2 PUSH1 0x4 ADD PUSH2 0x2E9F JUMP JUMPDEST PUSH1 0x20 PUSH1 0x40 MLOAD DUP1 DUP4 SUB DUP2 PUSH1 0x0 DUP8 DUP1 EXTCODESIZE ISZERO DUP1 ISZERO PUSH2 0xE7A JUMPI PUSH1 0x0 DUP1 REVERT JUMPDEST POP GAS CALL ISZERO DUP1 ISZERO PUSH2 0xE8E JUMPI RETURNDATASIZE PUSH1 0x0 DUP1 RETURNDATACOPY RETURNDATASIZE PUSH1 0x0 REVERT JUMPDEST POP POP POP POP PUSH1 0x40 MLOAD RETURNDATASIZE PUSH1 0x1F NOT PUSH1 0x1F DUP3 ADD AND DUP3 ADD DUP1 PUSH1 0x40 MSTORE POP PUSH2 0xEB2 SWAP2 SWAP1 DUP2 ADD SWAP1 PUSH2 0x2959 JUMP JUMPDEST POP POP POP JUMP JUMPDEST JUMP JUMPDEST PUSH2 0xEC7 ADDRESS PUSH4 0x775C300C PUSH2 0x2705 JUMP JUMPDEST PUSH1 0x40 MLOAD PUSH4 0xD8F3214F PUSH1 0xE0 SHL DUP2 MSTORE PUSH20 0x0 SWAP2 PUSH4 0xD8F3214F SWAP2 PUSH2 0xF13 SWAP2 SWAP1 PUSH20 0x2D407DDB06311396FE14D4B49DA5F0471447D45C SWAP1 PUSH1 0x4 ADD PUSH2 0x30E3 JUMP JUMPDEST PUSH1 0x20 PUSH1 0x40 MLOAD DUP1 DUP4 SUB DUP2 DUP7 DUP1 EXTCODESIZE ISZERO DUP1 ISZERO PUSH2 0xF2B JUMPI PUSH1 0x0 DUP1 REVERT JUMPDEST POP GAS DELEGATECALL ISZERO DUP1 ISZERO PUSH2 0xF3F JUMPI RETURNDATASIZE PUSH1 0x0 DUP1 RETURNDATACOPY RETURNDATASIZE PUSH1 0x0 REVERT JUMPDEST POP POP POP POP PUSH1 0x40 MLOAD RETURNDATASIZE PUSH1 0x1F NOT PUSH1 0x1F DUP3 ADD AND DUP3 ADD DUP1 PUSH1 0x40 MSTORE POP PUSH2 0xF63 SWAP2 SWAP1 DUP2 ADD SWAP1 PUSH2 0x2959 JUMP JUMPDEST POP PUSH2 0xF72 ADDRESS PUSH4 0xD0E30DB0 PUSH2 0x2705 JUMP JUMPDEST PUSH1 0x40 MLOAD PUSH4 0xD8F3214F PUSH1 0xE0 SHL DUP2 MSTORE PUSH20 0x0 SWAP2 PUSH4 0xD8F3214F SWAP2 PUSH2 0xFBE SWAP2 SWAP1 PUSH20 0xA6BFEDC4BF9BDB3F09A448518206023E8C009DDF SWAP1 PUSH1 0x4 ADD PUSH2 0x30E3 JUMP JUMPDEST PUSH1 0x20 PUSH1 0x40 MLOAD DUP1 DUP4 SUB DUP2 DUP7 DUP1 EXTCODESIZE ISZERO DUP1 ISZERO PUSH2 0xFD6 JUMPI PUSH1 0x0 DUP1 REVERT JUMPDEST POP GAS DELEGATECALL ISZERO DUP1 ISZERO PUSH2 0xFEA JUMPI RETURNDATASIZE PUSH1 0x0 DUP1 RETURNDATACOPY RETURNDATASIZE PUSH1 0x0 REVERT JUMPDEST POP POP POP POP PUSH1 0x40 MLOAD RETURNDATASIZE PUSH1 0x1F NOT PUSH1 0x1F DUP3 ADD AND DUP3 ADD DUP1 PUSH1 0x40 MSTORE POP PUSH2 0x100E SWAP2 SWAP1 DUP2 ADD SWAP1 PUSH2 0x2959 JUMP JUMPDEST POP PUSH2 0x101D ADDRESS PUSH4 0xD80528AE PUSH2 0x2705 JUMP JUMPDEST PUSH1 0x40 MLOAD PUSH4 0xD8F3214F PUSH1 0xE0 SHL DUP2 MSTORE PUSH20 0x0 SWAP2 PUSH4 0xD8F3214F SWAP2 PUSH2 0x1069 SWAP2 SWAP1 PUSH20 0xA6BFEDC4BF9BDB3F09A448518206023E8C009DDF SWAP1 PUSH1 0x4 ADD PUSH2 0x30E3 JUMP JUMPDEST PUSH1 0x20 PUSH1 0x40 MLOAD DUP1 DUP4 SUB DUP2 DUP7 DUP1 EXTCODESIZE ISZERO DUP1 ISZERO PUSH2 0x1081 JUMPI PUSH1 0x0 DUP1 REVERT JUMPDEST POP GAS DELEGATECALL ISZERO DUP1 ISZERO PUSH2 0x1095 JUMPI RETURNDATASIZE PUSH1 0x0 DUP1 RETURNDATACOPY RETURNDATASIZE PUSH1 0x0 REVERT JUMPDEST POP POP POP POP PUSH1 0x40 MLOAD RETURNDATASIZE PUSH1 0x1F NOT PUSH1 0x1F DUP3 ADD AND DUP3 ADD DUP1 PUSH1 0x40 MSTORE POP PUSH2 0x10B9 SWAP2 SWAP1 DUP2 ADD SWAP1 PUSH2 0x2959 JUMP JUMPDEST POP PUSH2 0x10C8 ADDRESS PUSH4 0x999B93AF PUSH2 0x2705 JUMP JUMPDEST PUSH1 0x40 MLOAD PUSH4 0xD8F3214F PUSH1 0xE0 SHL DUP2 MSTORE PUSH20 0x0 SWAP2 PUSH4 0xD8F3214F SWAP2 PUSH2 0x1114 SWAP2 SWAP1 PUSH20 0x3F5CE5FBFE3E9AF3971DD833D26BA9B5C936F0BE SWAP1 PUSH1 0x4 ADD PUSH2 0x30E3 JUMP JUMPDEST PUSH1 0x20 PUSH1 0x40 MLOAD DUP1 DUP4 SUB DUP2 DUP7 DUP1 EXTCODESIZE ISZERO DUP1 ISZERO PUSH2 0x112C JUMPI PUSH1 0x0 DUP1 REVERT JUMPDEST POP GAS DELEGATECALL ISZERO DUP1 ISZERO PUSH2 0x1140 JUMPI RETURNDATASIZE PUSH1 0x0 DUP1 RETURNDATACOPY RETURNDATASIZE PUSH1 0x0 REVERT JUMPDEST POP POP POP POP PUSH1 0x40 MLOAD RETURNDATASIZE PUSH1 0x1F NOT PUSH1 0x1F DUP3 ADD AND DUP3 ADD DUP1 PUSH1 0x40 MSTORE POP PUSH2 0x1164 SWAP2 SWAP1 DUP2 ADD SWAP1 PUSH2 0x2959 JUMP JUMPDEST POP PUSH2 0x1173 ADDRESS PUSH4 0xD80528AE PUSH2 0x2705 JUMP JUMPDEST PUSH1 0x40 MLOAD PUSH4 0xD8F3214F PUSH1 0xE0 SHL DUP2 MSTORE PUSH20 0x0 SWAP2 PUSH4 0xD8F3214F SWAP2 PUSH2 0x11BF SWAP2 SWAP1 PUSH20 0xA6BFEDC4BF9BDB3F09A448518206023E8C009DDF SWAP1 PUSH1 0x4 ADD PUSH2 0x30E3 JUMP JUMPDEST PUSH1 0x20 PUSH1 0x40 MLOAD DUP1 DUP4 SUB DUP2 DUP7 DUP1 EXTCODESIZE ISZERO DUP1 ISZERO PUSH2 0x11D7 JUMPI PUSH1 0x0 DUP1 REVERT JUMPDEST POP GAS DELEGATECALL ISZERO DUP1 ISZERO PUSH2 0x11EB JUMPI RETURNDATASIZE PUSH1 0x0 DUP1 RETURNDATACOPY RETURNDATASIZE PUSH1 0x0 REVERT JUMPDEST POP POP POP POP PUSH1 0x40 MLOAD RETURNDATASIZE PUSH1 0x1F NOT PUSH1 0x1F DUP3 ADD AND DUP3 ADD DUP1 PUSH1 0x40 MSTORE POP PUSH2 0x120F SWAP2 SWAP1 DUP2 ADD SWAP1 PUSH2 0x2959 JUMP JUMPDEST POP PUSH2 0x121B PUSH2 0x19C9 PUSH2 0x272A JUMP JUMPDEST PUSH2 0x1229 ADDRESS PUSH4 0x43D726D6 PUSH2 0x2705 JUMP JUMPDEST PUSH1 0x40 MLOAD PUSH4 0xD8F3214F PUSH1 0xE0 SHL DUP2 MSTORE PUSH20 0x0 SWAP2 PUSH4 0xD8F3214F SWAP2 PUSH2 0x1275 SWAP2 SWAP1 PUSH20 0xA6BFEDC4BF9BDB3F09A448518206023E8C009DDF SWAP1 PUSH1 0x4 ADD PUSH2 0x30E3 JUMP JUMPDEST PUSH1 0x20 PUSH1 0x40 MLOAD DUP1 DUP4 SUB DUP2 DUP7 DUP1 EXTCODESIZE ISZERO DUP1 ISZERO PUSH2 0x128D JUMPI PUSH1 0x0 DUP1 REVERT JUMPDEST POP GAS DELEGATECALL ISZERO DUP1 ISZERO PUSH2 0x12A1 JUMPI RETURNDATASIZE PUSH1 0x0 DUP1 RETURNDATACOPY RETURNDATASIZE PUSH1 0x0 REVERT JUMPDEST POP POP POP POP PUSH1 0x40 MLOAD RETURNDATASIZE PUSH1 0x1F NOT PUSH1 0x1F DUP3 ADD AND DUP3 ADD DUP1 PUSH1 0x40 MSTORE POP PUSH2 0x12C5 SWAP2 SWAP1 DUP2 ADD SWAP1 PUSH2 0x2959 JUMP JUMPDEST POP PUSH2 0x12D4 ADDRESS PUSH4 0xD80528AE PUSH2 0x2705 JUMP JUMPDEST PUSH1 0x40 MLOAD PUSH4 0xD8F3214F PUSH1 0xE0 SHL DUP2 MSTORE PUSH20 0x0 SWAP2 PUSH4 0xD8F3214F SWAP2 PUSH2 0x1320 SWAP2 SWAP1 PUSH20 0xA6BFEDC4BF9BDB3F09A448518206023E8C009DDF SWAP1 PUSH1 0x4 ADD PUSH2 0x30E3 JUMP JUMPDEST PUSH1 0x20 PUSH1 0x40 MLOAD DUP1 DUP4 SUB DUP2 DUP7 DUP1 EXTCODESIZE ISZERO DUP1 ISZERO PUSH2 0x1338 JUMPI PUSH1 0x0 DUP1 REVERT JUMPDEST POP GAS DELEGATECALL ISZERO DUP1 ISZERO PUSH2 0x134C JUMPI RETURNDATASIZE PUSH1 0x0 DUP1 RETURNDATACOPY RETURNDATASIZE PUSH1 0x0 REVERT JUMPDEST POP POP POP POP PUSH1 0x40 MLOAD RETURNDATASIZE PUSH1 0x1F NOT PUSH1 0x1F DUP3 ADD AND DUP3 ADD DUP1 PUSH1 0x40 MSTORE POP PUSH2 0x1370 SWAP2 SWAP1 DUP2 ADD SWAP1 PUSH2 0x2959 JUMP JUMPDEST POP PUSH2 0x137F ADDRESS PUSH4 0xCA593C59 PUSH2 0x2705 JUMP JUMPDEST PUSH1 0x40 MLOAD PUSH4 0xD8F3214F PUSH1 0xE0 SHL DUP2 MSTORE PUSH20 0x0 SWAP2 PUSH4 0xD8F3214F SWAP2 PUSH2 0x13CB SWAP2 SWAP1 PUSH20 0xA6BFEDC4BF9BDB3F09A448518206023E8C009DDF SWAP1 PUSH1 0x4 ADD PUSH2 0x30E3 JUMP JUMPDEST PUSH1 0x20 PUSH1 0x40 MLOAD DUP1 DUP4 SUB DUP2 DUP7 DUP1 EXTCODESIZE ISZERO DUP1 ISZERO PUSH2 0x13E3 JUMPI PUSH1 0x0 DUP1 REVERT JUMPDEST POP GAS DELEGATECALL ISZERO DUP1 ISZERO PUSH2 0x13F7 JUMPI RETURNDATASIZE PUSH1 0x0 DUP1 RETURNDATACOPY RETURNDATASIZE PUSH1 0x0 REVERT JUMPDEST POP POP POP POP PUSH1 0x40 MLOAD RETURNDATASIZE PUSH1 0x1F NOT PUSH1 0x1F DUP3 ADD AND DUP3 ADD DUP1 PUSH1 0x40 MSTORE POP PUSH2 0x141B SWAP2 SWAP1 DUP2 ADD SWAP1 PUSH2 0x2959 JUMP JUMPDEST POP PUSH2 0x142A ADDRESS PUSH4 0xD80528AE PUSH2 0x2705 JUMP JUMPDEST PUSH1 0x40 MLOAD PUSH4 0xD8F3214F PUSH1 0xE0 SHL DUP2 MSTORE PUSH20 0x0 SWAP2 PUSH4 0xD8F3214F SWAP2 PUSH2 0x1476 SWAP2 SWAP1 PUSH20 0xA6BFEDC4BF9BDB3F09A448518206023E8C009DDF SWAP1 PUSH1 0x4 ADD PUSH2 0x30E3 JUMP JUMPDEST PUSH1 0x20 PUSH1 0x40 MLOAD DUP1 DUP4 SUB DUP2 DUP7 DUP1 EXTCODESIZE ISZERO DUP1 ISZERO PUSH2 0x148E JUMPI PUSH1 0x0 DUP1 REVERT JUMPDEST POP GAS DELEGATECALL ISZERO DUP1 ISZERO PUSH2 0x14A2 JUMPI RETURNDATASIZE PUSH1 0x0 DUP1 RETURNDATACOPY RETURNDATASIZE PUSH1 0x0 REVERT JUMPDEST POP POP POP POP PUSH1 0x40 MLOAD RETURNDATASIZE PUSH1 0x1F NOT PUSH1 0x1F DUP3 ADD AND DUP3 ADD DUP1 PUSH1 0x40 MSTORE POP PUSH2 0x14C6 SWAP2 SWAP1 DUP2 ADD SWAP1 PUSH2 0x2959 JUMP JUMPDEST POP PUSH2 0x14D5 ADDRESS PUSH4 0x3CCFD60B PUSH2 0x2705 JUMP JUMPDEST PUSH1 0x40 MLOAD PUSH4 0xD8F3214F PUSH1 0xE0 SHL DUP2 MSTORE PUSH20 0x0 SWAP2 PUSH4 0xD8F3214F SWAP2 PUSH2 0x1521 SWAP2 SWAP1 PUSH20 0xA6BFEDC4BF9BDB3F09A448518206023E8C009DDF SWAP1 PUSH1 0x4 ADD PUSH2 0x30E3 JUMP JUMPDEST PUSH1 0x20 PUSH1 0x40 MLOAD DUP1 DUP4 SUB DUP2 DUP7 DUP1 EXTCODESIZE ISZERO DUP1 ISZERO PUSH2 0x1539 JUMPI PUSH1 0x0 DUP1 REVERT JUMPDEST POP GAS DELEGATECALL ISZERO DUP1 ISZERO PUSH2 0x154D JUMPI RETURNDATASIZE PUSH1 0x0 DUP1 RETURNDATACOPY RETURNDATASIZE PUSH1 0x0 REVERT JUMPDEST POP POP POP POP PUSH1 0x40 MLOAD RETURNDATASIZE PUSH1 0x1F NOT PUSH1 0x1F DUP3 ADD AND DUP3 ADD DUP1 PUSH1 0x40 MSTORE POP PUSH2 0x1571 SWAP2 SWAP1 DUP2 ADD SWAP1 PUSH2 0x2959 JUMP JUMPDEST POP PUSH2 0x1580 ADDRESS PUSH4 0xD80528AE PUSH2 0x2705 JUMP JUMPDEST PUSH1 0x40 MLOAD PUSH4 0xD8F3214F PUSH1 0xE0 SHL DUP2 MSTORE PUSH20 0x0 SWAP2 PUSH4 0xD8F3214F SWAP2 PUSH2 0x15CC SWAP2 SWAP1 PUSH20 0xA6BFEDC4BF9BDB3F09A448518206023E8C009DDF SWAP1 PUSH1 0x4 ADD PUSH2 0x30E3 JUMP JUMPDEST PUSH1 0x20 PUSH1 0x40 MLOAD DUP1 DUP4 SUB DUP2 DUP7 DUP1 EXTCODESIZE ISZERO DUP1 ISZERO PUSH2 0x15E4 JUMPI PUSH1 0x0 DUP1 REVERT JUMPDEST POP GAS DELEGATECALL ISZERO DUP1 ISZERO PUSH2 0x15F8 JUMPI RETURNDATASIZE PUSH1 0x0 DUP1 RETURNDATACOPY RETURNDATASIZE PUSH1 0x0 REVERT JUMPDEST POP POP POP POP PUSH1 0x40 MLOAD RETURNDATASIZE PUSH1 0x1F NOT PUSH1 0x1F DUP3 ADD AND DUP3 ADD DUP1 PUSH1 0x40 MSTORE POP PUSH2 0x161C SWAP2 SWAP1 DUP2 ADD SWAP1 PUSH2 0x2959 JUMP JUMPDEST POP JUMP JUMPDEST PUSH1 0x0 DUP1 SLOAD PUSH1 0x40 DUP1 MLOAD PUSH4 0xCA593C59 PUSH1 0xE0 SHL DUP2 MSTORE SWAP1 MLOAD PUSH1 0x1 PUSH1 0x1 PUSH1 0xA0 SHL SUB SWAP1 SWAP3 AND SWAP3 PUSH4 0xCA593C59 SWAP3 PUSH1 0x4 DUP1 DUP5 ADD SWAP4 DUP3 SWAP1 SUB ADD DUP2 DUP4 DUP8 DUP1 EXTCODESIZE ISZERO DUP1 ISZERO PUSH2 0x1660 JUMPI PUSH1 0x0 DUP1 REVERT JUMPDEST POP GAS CALL ISZERO DUP1 ISZERO PUSH2 0x3E7 JUMPI RETURNDATASIZE PUSH1 0x0 DUP1 RETURNDATACOPY RETURNDATASIZE PUSH1 0x0 REVERT JUMPDEST PUSH1 0x40 MLOAD PUSH4 0x70A08231 PUSH1 0xE0 SHL DUP2 MSTORE PUSH20 0x0 SWAP1 PUSH4 0xFD63594A SWAP1 PUSH20 0xBB2B8038A1640196FBE3E38816F3E67CBA72D940 SWAP1 PUSH4 0x70A08231 SWAP1 PUSH2 0x16C7 SWAP1 ADDRESS SWAP1 PUSH1 0x4 ADD PUSH2 0x2E69 JUMP JUMPDEST PUSH1 0x20 PUSH1 0x40 MLOAD DUP1 DUP4 SUB DUP2 DUP7 DUP1 EXTCODESIZE ISZERO DUP1 ISZERO PUSH2 0x16DF JUMPI PUSH1 0x0 DUP1 REVERT JUMPDEST POP GAS STATICCALL ISZERO DUP1 ISZERO PUSH2 0x16F3 JUMPI RETURNDATASIZE PUSH1 0x0 DUP1 RETURNDATACOPY RETURNDATASIZE PUSH1 0x0 REVERT JUMPDEST POP POP POP POP PUSH1 0x40 MLOAD RETURNDATASIZE PUSH1 0x1F NOT PUSH1 0x1F DUP3 ADD AND DUP3 ADD DUP1 PUSH1 0x40 MSTORE POP PUSH2 0x1717 SWAP2 SWAP1 DUP2 ADD SWAP1 PUSH2 0x2959 JUMP JUMPDEST PUSH1 0x40 MLOAD PUSH1 0x20 ADD PUSH2 0x1727 SWAP2 SWAP1 PUSH2 0x30D5 JUMP JUMPDEST PUSH1 0x40 MLOAD PUSH1 0x20 DUP2 DUP4 SUB SUB DUP2 MSTORE SWAP1 PUSH1 0x40 MSTORE PUSH1 0x40 MLOAD DUP3 PUSH4 0xFFFFFFFF AND PUSH1 0xE0 SHL DUP2 MSTORE PUSH1 0x4 ADD PUSH2 0x1752 SWAP2 SWAP1 PUSH2 0x3075 JUMP JUMPDEST PUSH1 0x0 PUSH1 0x40 MLOAD DUP1 DUP4 SUB DUP2 DUP7 DUP1 EXTCODESIZE ISZERO DUP1 ISZERO PUSH2 0x176A JUMPI PUSH1 0x0 DUP1 REVERT JUMPDEST POP GAS DELEGATECALL ISZERO DUP1 ISZERO PUSH2 0x177E JUMPI RETURNDATASIZE PUSH1 0x0 DUP1 RETURNDATACOPY RETURNDATASIZE PUSH1 0x0 REVERT JUMPDEST POP POP PUSH1 0x0 SLOAD PUSH1 0x40 MLOAD PUSH4 0x95EA7B3 PUSH1 0xE0 SHL DUP2 MSTORE PUSH20 0xBB2B8038A1640196FBE3E38816F3E67CBA72D940 SWAP4 POP PUSH4 0x95EA7B3 SWAP3 POP PUSH2 0x17C8 SWAP2 PUSH1 0x1 PUSH1 0x1 PUSH1 0xA0 SHL SUB AND SWAP1 PUSH1 0x0 NOT SWAP1 PUSH1 0x4 ADD PUSH2 0x2EDD JUMP JUMPDEST PUSH1 0x0 PUSH1 0x40 MLOAD DUP1 DUP4 SUB DUP2 PUSH1 0x0 DUP8 DUP1 EXTCODESIZE ISZERO DUP1 ISZERO PUSH2 0x17E2 JUMPI PUSH1 0x0 DUP1 REVERT JUMPDEST POP GAS CALL ISZERO DUP1 ISZERO PUSH2 0x17F6 JUMPI RETURNDATASIZE PUSH1 0x0 DUP1 RETURNDATACOPY RETURNDATASIZE PUSH1 0x0 REVERT JUMPDEST POP POP POP POP PUSH1 0x0 DUP1 SWAP1 SLOAD SWAP1 PUSH2 0x100 EXP SWAP1 DIV PUSH1 0x1 PUSH1 0x1 PUSH1 0xA0 SHL SUB AND PUSH1 0x1 PUSH1 0x1 PUSH1 0xA0 SHL SUB AND PUSH4 0xDE5F6268 PUSH1 0x40 MLOAD DUP2 PUSH4 0xFFFFFFFF AND PUSH1 0xE0 SHL DUP2 MSTORE PUSH1 0x4 ADD PUSH1 0x20 PUSH1 0x40 MLOAD DUP1 DUP4 SUB DUP2 PUSH1 0x0 DUP8 DUP1 EXTCODESIZE ISZERO DUP1 ISZERO PUSH2 0x1849 JUMPI PUSH1 0x0 DUP1 REVERT JUMPDEST POP GAS CALL ISZERO DUP1 ISZERO PUSH2 0x185D JUMPI RETURNDATASIZE PUSH1 0x0 DUP1 RETURNDATACOPY RETURNDATASIZE PUSH1 0x0 REVERT JUMPDEST POP POP POP POP PUSH1 0x40 MLOAD RETURNDATASIZE PUSH1 0x1F NOT PUSH1 0x1F DUP3 ADD AND DUP3 ADD DUP1 PUSH1 0x40 MSTORE POP PUSH2 0x1881 SWAP2 SWAP1 DUP2 ADD SWAP1 PUSH2 0x293B JUMP JUMPDEST POP PUSH1 0x40 MLOAD PUSH4 0x70A08231 PUSH1 0xE0 SHL DUP2 MSTORE PUSH20 0x0 SWAP1 PUSH4 0xFD63594A SWAP1 PUSH20 0xBB2B8038A1640196FBE3E38816F3E67CBA72D940 SWAP1 PUSH4 0x70A08231 SWAP1 PUSH2 0x18D5 SWAP1 ADDRESS SWAP1 PUSH1 0x4 ADD PUSH2 0x2E69 JUMP JUMPDEST PUSH1 0x20 PUSH1 0x40 MLOAD DUP1 DUP4 SUB DUP2 DUP7 DUP1 EXTCODESIZE ISZERO DUP1 ISZERO PUSH2 0x18ED JUMPI PUSH1 0x0 DUP1 REVERT JUMPDEST POP GAS STATICCALL ISZERO DUP1 ISZERO PUSH2 0x1901 JUMPI RETURNDATASIZE PUSH1 0x0 DUP1 RETURNDATACOPY RETURNDATASIZE PUSH1 0x0 REVERT JUMPDEST POP POP POP POP PUSH1 0x40 MLOAD RETURNDATASIZE PUSH1 0x1F NOT PUSH1 0x1F DUP3 ADD AND DUP3 ADD DUP1 PUSH1 0x40 MSTORE POP PUSH2 0x1925 SWAP2 SWAP1 DUP2 ADD SWAP1 PUSH2 0x2959 JUMP JUMPDEST PUSH1 0x40 MLOAD PUSH1 0x20 ADD PUSH2 0x1935 SWAP2 SWAP1 PUSH2 0x30D5 JUMP JUMPDEST PUSH1 0x40 MLOAD PUSH1 0x20 DUP2 DUP4 SUB SUB DUP2 MSTORE SWAP1 PUSH1 0x40 MSTORE PUSH1 0x40 MLOAD DUP3 PUSH4 0xFFFFFFFF AND PUSH1 0xE0 SHL DUP2 MSTORE PUSH1 0x4 ADD PUSH2 0x1960 SWAP2 SWAP1 PUSH2 0x3075 JUMP JUMPDEST PUSH1 0x0 PUSH1 0x40 MLOAD DUP1 DUP4 SUB DUP2 DUP7 DUP1 EXTCODESIZE ISZERO DUP1 ISZERO PUSH2 0x1978 JUMPI PUSH1 0x0 DUP1 REVERT JUMPDEST POP GAS DELEGATECALL ISZERO DUP1 ISZERO PUSH2 0x198C JUMPI RETURNDATASIZE PUSH1 0x0 DUP1 RETURNDATACOPY RETURNDATASIZE PUSH1 0x0 REVERT JUMPDEST POP POP PUSH1 0x0 SLOAD PUSH1 0x40 MLOAD PUSH4 0x70A08231 PUSH1 0xE0 SHL DUP2 MSTORE PUSH20 0x0 SWAP4 POP PUSH4 0xFD63594A SWAP3 POP PUSH1 0x1 PUSH1 0x1 PUSH1 0xA0 SHL SUB SWAP1 SWAP2 AND SWAP1 PUSH4 0x70A08231 SWAP1 PUSH2 0x19DC SWAP1 ADDRESS SWAP1 PUSH1 0x4 ADD PUSH2 0x2E69 JUMP JUMPDEST PUSH1 0x20 PUSH1 0x40 MLOAD DUP1 DUP4 SUB DUP2 PUSH1 0x0 DUP8 DUP1 EXTCODESIZE ISZERO DUP1 ISZERO PUSH2 0x19F6 JUMPI PUSH1 0x0 DUP1 REVERT JUMPDEST POP GAS CALL ISZERO DUP1 ISZERO PUSH2 0x1A0A JUMPI RETURNDATASIZE PUSH1 0x0 DUP1 RETURNDATACOPY RETURNDATASIZE PUSH1 0x0 REVERT JUMPDEST POP POP POP POP PUSH1 0x40 MLOAD RETURNDATASIZE PUSH1 0x1F NOT PUSH1 0x1F DUP3 ADD AND DUP3 ADD DUP1 PUSH1 0x40 MSTORE POP PUSH2 0x1A2E SWAP2 SWAP1 DUP2 ADD SWAP1 PUSH2 0x2959 JUMP JUMPDEST PUSH1 0x40 MLOAD PUSH1 0x20 ADD PUSH2 0x1A3E SWAP2 SWAP1 PUSH2 0x30D5 JUMP JUMPDEST PUSH1 0x40 MLOAD PUSH1 0x20 DUP2 DUP4 SUB SUB DUP2 MSTORE SWAP1 PUSH1 0x40 MSTORE PUSH1 0x40 MLOAD DUP3 PUSH4 0xFFFFFFFF AND PUSH1 0xE0 SHL DUP2 MSTORE PUSH1 0x4 ADD PUSH2 0x3BB SWAP2 SWAP1 PUSH2 0x2F41 JUMP JUMPDEST PUSH20 0x0 PUSH4 0xFD63594A PUSH1 0x0 DUP1 SWAP1 SLOAD SWAP1 PUSH2 0x100 EXP SWAP1 DIV PUSH1 0x1 PUSH1 0x1 PUSH1 0xA0 SHL SUB AND PUSH1 0x1 PUSH1 0x1 PUSH1 0xA0 SHL SUB AND PUSH4 0xD9443923 PUSH1 0x40 MLOAD DUP2 PUSH4 0xFFFFFFFF AND PUSH1 0xE0 SHL DUP2 MSTORE PUSH1 0x4 ADD PUSH1 0x20 PUSH1 0x40 MLOAD DUP1 DUP4 SUB DUP2 PUSH1 0x0 DUP8 DUP1 EXTCODESIZE ISZERO DUP1 ISZERO PUSH2 0x1AD2 JUMPI PUSH1 0x0 DUP1 REVERT JUMPDEST POP GAS CALL ISZERO DUP1 ISZERO PUSH2 0x1AE6 JUMPI RETURNDATASIZE PUSH1 0x0 DUP1 RETURNDATACOPY RETURNDATASIZE PUSH1 0x0 REVERT JUMPDEST POP POP POP POP PUSH1 0x40 MLOAD RETURNDATASIZE PUSH1 0x1F NOT PUSH1 0x1F DUP3 ADD AND DUP3 ADD DUP1 PUSH1 0x40 MSTORE POP PUSH2 0x1B0A SWAP2 SWAP1 DUP2 ADD SWAP1 PUSH2 0x2959 JUMP JUMPDEST PUSH1 0x40 MLOAD PUSH1 0x20 ADD PUSH2 0x1B1A SWAP2 SWAP1 PUSH2 0x30D5 JUMP JUMPDEST PUSH1 0x40 MLOAD PUSH1 0x20 DUP2 DUP4 SUB SUB DUP2 MSTORE SWAP1 PUSH1 0x40 MSTORE PUSH1 0x40 MLOAD DUP3 PUSH4 0xFFFFFFFF AND PUSH1 0xE0 SHL DUP2 MSTORE PUSH1 0x4 ADD PUSH2 0x1B45 SWAP2 SWAP1 PUSH2 0x3005 JUMP JUMPDEST PUSH1 0x0 PUSH1 0x40 MLOAD DUP1 DUP4 SUB DUP2 DUP7 DUP1 EXTCODESIZE ISZERO DUP1 ISZERO PUSH2 0x1B5D JUMPI PUSH1 0x0 DUP1 REVERT JUMPDEST POP GAS DELEGATECALL ISZERO DUP1 ISZERO PUSH2 0x1B71 JUMPI RETURNDATASIZE PUSH1 0x0 DUP1 RETURNDATACOPY RETURNDATASIZE PUSH1 0x0 REVERT JUMPDEST POP POP POP POP PUSH20 0x0 PUSH4 0xFD63594A PUSH1 0x0 DUP1 SWAP1 SLOAD SWAP1 PUSH2 0x100 EXP SWAP1 DIV PUSH1 0x1 PUSH1 0x1 PUSH1 0xA0 SHL SUB AND PUSH1 0x1 PUSH1 0x1 PUSH1 0xA0 SHL SUB AND PUSH4 0xC3926A29 PUSH1 0x40 MLOAD DUP2 PUSH4 0xFFFFFFFF AND PUSH1 0xE0 SHL DUP2 MSTORE PUSH1 0x4 ADD PUSH1 0x20 PUSH1 0x40 MLOAD DUP1 DUP4 SUB DUP2 PUSH1 0x0 DUP8 DUP1 EXTCODESIZE ISZERO DUP1 ISZERO PUSH2 0x1BDE JUMPI PUSH1 0x0 DUP1 REVERT JUMPDEST POP GAS CALL ISZERO DUP1 ISZERO PUSH2 0x1BF2 JUMPI RETURNDATASIZE PUSH1 0x0 DUP1 RETURNDATACOPY RETURNDATASIZE PUSH1 0x0 REVERT JUMPDEST POP POP POP POP PUSH1 0x40 MLOAD RETURNDATASIZE PUSH1 0x1F NOT PUSH1 0x1F DUP3 ADD AND DUP3 ADD DUP1 PUSH1 0x40 MSTORE POP PUSH2 0x1C16 SWAP2 SWAP1 DUP2 ADD SWAP1 PUSH2 0x2959 JUMP JUMPDEST PUSH1 0x40 MLOAD PUSH1 0x20 ADD PUSH2 0x1C26 SWAP2 SWAP1 PUSH2 0x30D5 JUMP JUMPDEST PUSH1 0x40 MLOAD PUSH1 0x20 DUP2 DUP4 SUB SUB DUP2 MSTORE SWAP1 PUSH1 0x40 MSTORE PUSH1 0x40 MLOAD DUP3 PUSH4 0xFFFFFFFF AND PUSH1 0xE0 SHL DUP2 MSTORE PUSH1 0x4 ADD PUSH2 0x1C51 SWAP2 SWAP1 PUSH2 0x3015 JUMP JUMPDEST PUSH1 0x0 PUSH1 0x40 MLOAD DUP1 DUP4 SUB DUP2 DUP7 DUP1 EXTCODESIZE ISZERO DUP1 ISZERO PUSH2 0x1C69 JUMPI PUSH1 0x0 DUP1 REVERT JUMPDEST POP GAS DELEGATECALL ISZERO DUP1 ISZERO PUSH2 0x1C7D JUMPI RETURNDATASIZE PUSH1 0x0 DUP1 RETURNDATACOPY RETURNDATASIZE PUSH1 0x0 REVERT JUMPDEST POP POP POP POP PUSH20 0x0 PUSH4 0xFD63594A PUSH1 0x0 DUP1 SWAP1 SLOAD SWAP1 PUSH2 0x100 EXP SWAP1 DIV PUSH1 0x1 PUSH1 0x1 PUSH1 0xA0 SHL SUB AND PUSH1 0x1 PUSH1 0x1 PUSH1 0xA0 SHL SUB AND PUSH4 0xD9443923 PUSH1 0x40 MLOAD DUP2 PUSH4 0xFFFFFFFF AND PUSH1 0xE0 SHL DUP2 MSTORE PUSH1 0x4 ADD PUSH1 0x20 PUSH1 0x40 MLOAD DUP1 DUP4 SUB DUP2 PUSH1 0x0 DUP8 DUP1 EXTCODESIZE ISZERO DUP1 ISZERO PUSH2 0x1CEA JUMPI PUSH1 0x0 DUP1 REVERT JUMPDEST POP GAS CALL ISZERO DUP1 ISZERO PUSH2 0x1CFE JUMPI RETURNDATASIZE PUSH1 0x0 DUP1 RETURNDATACOPY RETURNDATASIZE PUSH1 0x0 REVERT JUMPDEST POP POP POP POP PUSH1 0x40 MLOAD RETURNDATASIZE PUSH1 0x1F NOT PUSH1 0x1F DUP3 ADD AND DUP3 ADD DUP1 PUSH1 0x40 MSTORE POP PUSH2 0x1D22 SWAP2 SWAP1 DUP2 ADD SWAP1 PUSH2 0x2959 JUMP JUMPDEST PUSH1 0x40 MLOAD PUSH1 0x20 ADD PUSH2 0x1D32 SWAP2 SWAP1 PUSH2 0x30D5 JUMP JUMPDEST PUSH1 0x40 MLOAD PUSH1 0x20 DUP2 DUP4 SUB SUB DUP2 MSTORE SWAP1 PUSH1 0x40 MSTORE PUSH1 0x40 MLOAD DUP3 PUSH4 0xFFFFFFFF AND PUSH1 0xE0 SHL DUP2 MSTORE PUSH1 0x4 ADD PUSH2 0x1D5D SWAP2 SWAP1 PUSH2 0x3005 JUMP JUMPDEST PUSH1 0x0 PUSH1 0x40 MLOAD DUP1 DUP4 SUB DUP2 DUP7 DUP1 EXTCODESIZE ISZERO DUP1 ISZERO PUSH2 0x1D75 JUMPI PUSH1 0x0 DUP1 REVERT JUMPDEST POP GAS DELEGATECALL ISZERO DUP1 ISZERO PUSH2 0x1D89 JUMPI RETURNDATASIZE PUSH1 0x0 DUP1 RETURNDATACOPY RETURNDATASIZE PUSH1 0x0 REVERT JUMPDEST POP POP POP POP PUSH20 0x0 PUSH4 0xFD63594A PUSH1 0x0 DUP1 SWAP1 SLOAD SWAP1 PUSH2 0x100 EXP SWAP1 DIV PUSH1 0x1 PUSH1 0x1 PUSH1 0xA0 SHL SUB AND PUSH1 0x1 PUSH1 0x1 PUSH1 0xA0 SHL SUB AND PUSH4 0x60B4D59F PUSH1 0x40 MLOAD DUP2 PUSH4 0xFFFFFFFF AND PUSH1 0xE0 SHL DUP2 MSTORE PUSH1 0x4 ADD PUSH1 0x20 PUSH1 0x40 MLOAD DUP1 DUP4 SUB DUP2 PUSH1 0x0 DUP8 DUP1 EXTCODESIZE ISZERO DUP1 ISZERO PUSH2 0x1DF6 JUMPI PUSH1 0x0 DUP1 REVERT JUMPDEST POP GAS CALL ISZERO DUP1 ISZERO PUSH2 0x1E0A JUMPI RETURNDATASIZE PUSH1 0x0 DUP1 RETURNDATACOPY RETURNDATASIZE PUSH1 0x0 REVERT JUMPDEST POP POP POP POP PUSH1 0x40 MLOAD RETURNDATASIZE PUSH1 0x1F NOT PUSH1 0x1F DUP3 ADD AND DUP3 ADD DUP1 PUSH1 0x40 MSTORE POP PUSH2 0x1E2E SWAP2 SWAP1 DUP2 ADD SWAP1 PUSH2 0x2959 JUMP JUMPDEST PUSH1 0x40 MLOAD PUSH1 0x20 ADD PUSH2 0x1E3E SWAP2 SWAP1 PUSH2 0x30D5 JUMP JUMPDEST PUSH1 0x40 MLOAD PUSH1 0x20 DUP2 DUP4 SUB SUB DUP2 MSTORE SWAP1 PUSH1 0x40 MSTORE PUSH1 0x40 MLOAD DUP3 PUSH4 0xFFFFFFFF AND PUSH1 0xE0 SHL DUP2 MSTORE PUSH1 0x4 ADD PUSH2 0x1E69 SWAP2 SWAP1 PUSH2 0x3065 JUMP JUMPDEST PUSH1 0x0 PUSH1 0x40 MLOAD DUP1 DUP4 SUB DUP2 DUP7 DUP1 EXTCODESIZE ISZERO DUP1 ISZERO PUSH2 0x1E81 JUMPI PUSH1 0x0 DUP1 REVERT JUMPDEST POP GAS DELEGATECALL ISZERO DUP1 ISZERO PUSH2 0x1E95 JUMPI RETURNDATASIZE PUSH1 0x0 DUP1 RETURNDATACOPY RETURNDATASIZE PUSH1 0x0 REVERT JUMPDEST POP POP POP POP PUSH20 0x0 PUSH4 0xFD63594A PUSH1 0x0 DUP1 SWAP1 SLOAD SWAP1 PUSH2 0x100 EXP SWAP1 DIV PUSH1 0x1 PUSH1 0x1 PUSH1 0xA0 SHL SUB AND PUSH1 0x1 PUSH1 0x1 PUSH1 0xA0 SHL SUB AND PUSH4 0x499D1AC PUSH1 0x40 MLOAD DUP2 PUSH4 0xFFFFFFFF AND PUSH1 0xE0 SHL DUP2 MSTORE PUSH1 0x4 ADD PUSH1 0x20 PUSH1 0x40 MLOAD DUP1 DUP4 SUB DUP2 PUSH1 0x0 DUP8 DUP1 EXTCODESIZE ISZERO DUP1 ISZERO PUSH2 0x1F02 JUMPI PUSH1 0x0 DUP1 REVERT JUMPDEST POP GAS CALL ISZERO DUP1 ISZERO PUSH2 0x1F16 JUMPI RETURNDATASIZE PUSH1 0x0 DUP1 RETURNDATACOPY RETURNDATASIZE PUSH1 0x0 REVERT JUMPDEST POP POP POP POP PUSH1 0x40 MLOAD RETURNDATASIZE PUSH1 0x1F NOT PUSH1 0x1F DUP3 ADD AND DUP3 ADD DUP1 PUSH1 0x40 MSTORE POP PUSH2 0x1F3A SWAP2 SWAP1 DUP2 ADD SWAP1 PUSH2 0x2959 JUMP JUMPDEST PUSH1 0x40 MLOAD PUSH1 0x20 ADD PUSH2 0x1F4A SWAP2 SWAP1 PUSH2 0x30D5 JUMP JUMPDEST PUSH1 0x40 MLOAD PUSH1 0x20 DUP2 DUP4 SUB SUB DUP2 MSTORE SWAP1 PUSH1 0x40 MSTORE PUSH1 0x40 MLOAD DUP3 PUSH4 0xFFFFFFFF AND PUSH1 0xE0 SHL DUP2 MSTORE PUSH1 0x4 ADD PUSH2 0x1F75 SWAP2 SWAP1 PUSH2 0x2FE5 JUMP JUMPDEST PUSH1 0x0 PUSH1 0x40 MLOAD DUP1 DUP4 SUB DUP2 DUP7 DUP1 EXTCODESIZE ISZERO DUP1 ISZERO PUSH2 0x1F8D JUMPI PUSH1 0x0 DUP1 REVERT JUMPDEST POP GAS DELEGATECALL ISZERO DUP1 ISZERO PUSH2 0x1FA1 JUMPI RETURNDATASIZE PUSH1 0x0 DUP1 RETURNDATACOPY RETURNDATASIZE PUSH1 0x0 REVERT JUMPDEST POP POP POP POP PUSH20 0x0 PUSH4 0xFD63594A PUSH1 0x0 DUP1 SWAP1 SLOAD SWAP1 PUSH2 0x100 EXP SWAP1 DIV PUSH1 0x1 PUSH1 0x1 PUSH1 0xA0 SHL SUB AND PUSH1 0x1 PUSH1 0x1 PUSH1 0xA0 SHL SUB AND PUSH4 0xB6641DBD PUSH1 0x40 MLOAD DUP2 PUSH4 0xFFFFFFFF AND PUSH1 0xE0 SHL DUP2 MSTORE PUSH1 0x4 ADD PUSH1 0x20 PUSH1 0x40 MLOAD DUP1 DUP4 SUB DUP2 PUSH1 0x0 DUP8 DUP1 EXTCODESIZE ISZERO DUP1 ISZERO PUSH2 0x200E JUMPI PUSH1 0x0 DUP1 REVERT JUMPDEST POP GAS CALL ISZERO DUP1 ISZERO PUSH2 0x2022 JUMPI RETURNDATASIZE PUSH1 0x0 DUP1 RETURNDATACOPY RETURNDATASIZE PUSH1 0x0 REVERT JUMPDEST POP POP POP POP PUSH1 0x40 MLOAD RETURNDATASIZE PUSH1 0x1F NOT PUSH1 0x1F DUP3 ADD AND DUP3 ADD DUP1 PUSH1 0x40 MSTORE POP PUSH2 0x2046 SWAP2 SWAP1 DUP2 ADD SWAP1 PUSH2 0x2959 JUMP JUMPDEST PUSH1 0x40 MLOAD PUSH1 0x20 ADD PUSH2 0x2056 SWAP2 SWAP1 PUSH2 0x30D5 JUMP JUMPDEST PUSH1 0x40 MLOAD PUSH1 0x20 DUP2 DUP4 SUB SUB DUP2 MSTORE SWAP1 PUSH1 0x40 MSTORE PUSH1 0x40 MLOAD DUP3 PUSH4 0xFFFFFFFF AND PUSH1 0xE0 SHL DUP2 MSTORE PUSH1 0x4 ADD PUSH2 0x2081 SWAP2 SWAP1 PUSH2 0x2FA5 JUMP JUMPDEST PUSH1 0x0 PUSH1 0x40 MLOAD DUP1 DUP4 SUB DUP2 DUP7 DUP1 EXTCODESIZE ISZERO DUP1 ISZERO PUSH2 0x2099 JUMPI PUSH1 0x0 DUP1 REVERT JUMPDEST POP GAS DELEGATECALL ISZERO DUP1 ISZERO PUSH2 0x20AD JUMPI RETURNDATASIZE PUSH1 0x0 DUP1 RETURNDATACOPY RETURNDATASIZE PUSH1 0x0 REVERT JUMPDEST POP POP POP POP PUSH20 0x0 PUSH4 0xFD63594A PUSH1 0x0 DUP1 SWAP1 SLOAD SWAP1 PUSH2 0x100 EXP SWAP1 DIV PUSH1 0x1 PUSH1 0x1 PUSH1 0xA0 SHL SUB AND PUSH1 0x1 PUSH1 0x1 PUSH1 0xA0 SHL SUB AND PUSH4 0x916E481E PUSH1 0x40 MLOAD DUP2 PUSH4 0xFFFFFFFF AND PUSH1 0xE0 SHL DUP2 MSTORE PUSH1 0x4 ADD PUSH1 0x20 PUSH1 0x40 MLOAD DUP1 DUP4 SUB DUP2 PUSH1 0x0 DUP8 DUP1 EXTCODESIZE ISZERO DUP1 ISZERO PUSH2 0x211A JUMPI PUSH1 0x0 DUP1 REVERT JUMPDEST POP GAS CALL ISZERO DUP1 ISZERO PUSH2 0x212E JUMPI RETURNDATASIZE PUSH1 0x0 DUP1 RETURNDATACOPY RETURNDATASIZE PUSH1 0x0 REVERT JUMPDEST POP POP POP POP PUSH1 0x40 MLOAD RETURNDATASIZE PUSH1 0x1F NOT PUSH1 0x1F DUP3 ADD AND DUP3 ADD DUP1 PUSH1 0x40 MSTORE POP PUSH2 0x2152 SWAP2 SWAP1 DUP2 ADD SWAP1 PUSH2 0x2959 JUMP JUMPDEST PUSH1 0x40 MLOAD PUSH1 0x20 ADD PUSH2 0x2162 SWAP2 SWAP1 PUSH2 0x30D5 JUMP JUMPDEST PUSH1 0x40 MLOAD PUSH1 0x20 DUP2 DUP4 SUB SUB DUP2 MSTORE SWAP1 PUSH1 0x40 MSTORE PUSH1 0x40 MLOAD DUP3 PUSH4 0xFFFFFFFF AND PUSH1 0xE0 SHL DUP2 MSTORE PUSH1 0x4 ADD PUSH2 0x218D SWAP2 SWAP1 PUSH2 0x30A5 JUMP JUMPDEST PUSH1 0x0 PUSH1 0x40 MLOAD DUP1 DUP4 SUB DUP2 DUP7 DUP1 EXTCODESIZE ISZERO DUP1 ISZERO PUSH2 0x21A5 JUMPI PUSH1 0x0 DUP1 REVERT JUMPDEST POP GAS DELEGATECALL ISZERO DUP1 ISZERO PUSH2 0x21B9 JUMPI RETURNDATASIZE PUSH1 0x0 DUP1 RETURNDATACOPY RETURNDATASIZE PUSH1 0x0 REVERT JUMPDEST POP POP POP POP PUSH20 0x0 PUSH4 0xFD63594A PUSH1 0x0 DUP1 SWAP1 SLOAD SWAP1 PUSH2 0x100 EXP SWAP1 DIV PUSH1 0x1 PUSH1 0x1 PUSH1 0xA0 SHL SUB AND PUSH1 0x1 PUSH1 0x1 PUSH1 0xA0 SHL SUB AND PUSH4 0x4870827D PUSH1 0x40 MLOAD DUP2 PUSH4 0xFFFFFFFF AND PUSH1 0xE0 SHL DUP2 MSTORE PUSH1 0x4 ADD PUSH1 0x20 PUSH1 0x40 MLOAD DUP1 DUP4 SUB DUP2 PUSH1 0x0 DUP8 DUP1 EXTCODESIZE ISZERO DUP1 ISZERO PUSH2 0x2226 JUMPI PUSH1 0x0 DUP1 REVERT JUMPDEST POP GAS CALL ISZERO DUP1 ISZERO PUSH2 0x223A JUMPI RETURNDATASIZE PUSH1 0x0 DUP1 RETURNDATACOPY RETURNDATASIZE PUSH1 0x0 REVERT JUMPDEST POP POP POP POP PUSH1 0x40 MLOAD RETURNDATASIZE PUSH1 0x1F NOT PUSH1 0x1F DUP3 ADD AND DUP3 ADD DUP1 PUSH1 0x40 MSTORE POP PUSH2 0x225E SWAP2 SWAP1 DUP2 ADD SWAP1 PUSH2 0x2959 JUMP JUMPDEST PUSH1 0x40 MLOAD PUSH1 0x20 ADD PUSH2 0x226E SWAP2 SWAP1 PUSH2 0x30D5 JUMP JUMPDEST PUSH1 0x40 MLOAD PUSH1 0x20 DUP2 DUP4 SUB SUB DUP2 MSTORE SWAP1 PUSH1 0x40 MSTORE PUSH1 0x40 MLOAD DUP3 PUSH4 0xFFFFFFFF AND PUSH1 0xE0 SHL DUP2 MSTORE PUSH1 0x4 ADD PUSH2 0x2299 SWAP2 SWAP1 PUSH2 0x3025 JUMP JUMPDEST PUSH1 0x0 PUSH1 0x40 MLOAD DUP1 DUP4 SUB DUP2 DUP7 DUP1 EXTCODESIZE ISZERO DUP1 ISZERO PUSH2 0x22B1 JUMPI PUSH1 0x0 DUP1 REVERT JUMPDEST POP GAS DELEGATECALL ISZERO DUP1 ISZERO PUSH2 0x22C5 JUMPI RETURNDATASIZE PUSH1 0x0 DUP1 RETURNDATACOPY RETURNDATASIZE PUSH1 0x0 REVERT JUMPDEST POP POP PUSH1 0x0 SLOAD PUSH1 0x40 MLOAD PUSH4 0x3C4750DF PUSH1 0xE0 SHL DUP2 MSTORE PUSH20 0x0 SWAP4 POP PUSH4 0xFD63594A SWAP3 POP PUSH1 0x1 PUSH1 0x1 PUSH1 0xA0 SHL SUB SWAP1 SWAP2 AND SWAP1 PUSH4 0x3C4750DF SWAP1 PUSH2 0x2329 SWAP1 PUSH20 0xC02AAA39B223FE8D0A0E5C4F27EAD9083C756CC2 SWAP1 PUSH1 0x4 ADD PUSH2 0x2E5B JUMP JUMPDEST PUSH1 0x20 PUSH1 0x40 MLOAD DUP1 DUP4 SUB DUP2 PUSH1 0x0 DUP8 DUP1 EXTCODESIZE ISZERO DUP1 ISZERO PUSH2 0x2343 JUMPI PUSH1 0x0 DUP1 REVERT JUMPDEST POP GAS CALL ISZERO DUP1 ISZERO PUSH2 0x2357 JUMPI RETURNDATASIZE PUSH1 0x0 DUP1 RETURNDATACOPY RETURNDATASIZE PUSH1 0x0 REVERT JUMPDEST POP POP POP POP PUSH1 0x40 MLOAD RETURNDATASIZE PUSH1 0x1F NOT PUSH1 0x1F DUP3 ADD AND DUP3 ADD DUP1 PUSH1 0x40 MSTORE POP PUSH2 0x237B SWAP2 SWAP1 DUP2 ADD SWAP1 PUSH2 0x2959 JUMP JUMPDEST PUSH1 0x40 MLOAD PUSH1 0x20 ADD PUSH2 0x238B SWAP2 SWAP1 PUSH2 0x30D5 JUMP JUMPDEST PUSH1 0x40 MLOAD PUSH1 0x20 DUP2 DUP4 SUB SUB DUP2 MSTORE SWAP1 PUSH1 0x40 MSTORE PUSH1 0x40 MLOAD DUP3 PUSH4 0xFFFFFFFF AND PUSH1 0xE0 SHL DUP2 MSTORE PUSH1 0x4 ADD PUSH2 0x23B6 SWAP2 SWAP1 PUSH2 0x3055 JUMP JUMPDEST PUSH1 0x0 PUSH1 0x40 MLOAD DUP1 DUP4 SUB DUP2 DUP7 DUP1 EXTCODESIZE ISZERO DUP1 ISZERO PUSH2 0x23CE JUMPI PUSH1 0x0 DUP1 REVERT JUMPDEST POP GAS DELEGATECALL ISZERO DUP1 ISZERO PUSH2 0x23E2 JUMPI RETURNDATASIZE PUSH1 0x0 DUP1 RETURNDATACOPY RETURNDATASIZE PUSH1 0x0 REVERT JUMPDEST POP POP PUSH1 0x0 SLOAD PUSH1 0x40 MLOAD PUSH4 0x70A08231 PUSH1 0xE0 SHL DUP2 MSTORE PUSH20 0x0 SWAP4 POP PUSH4 0xFD63594A SWAP3 POP PUSH20 0xC02AAA39B223FE8D0A0E5C4F27EAD9083C756CC2 SWAP2 PUSH4 0x70A08231 SWAP2 PUSH2 0x2444 SWAP2 PUSH1 0x1 PUSH1 0x1 PUSH1 0xA0 SHL SUB AND SWAP1 PUSH1 0x4 ADD PUSH2 0x2E5B JUMP JUMPDEST PUSH1 0x20 PUSH1 0x40 MLOAD DUP1 DUP4 SUB DUP2 DUP7 DUP1 EXTCODESIZE ISZERO DUP1 ISZERO PUSH2 0x245C JUMPI PUSH1 0x0 DUP1 REVERT JUMPDEST POP GAS STATICCALL ISZERO DUP1 ISZERO PUSH2 0x2470 JUMPI RETURNDATASIZE PUSH1 0x0 DUP1 RETURNDATACOPY RETURNDATASIZE PUSH1 0x0 REVERT JUMPDEST POP POP POP POP PUSH1 0x40 MLOAD RETURNDATASIZE PUSH1 0x1F NOT PUSH1 0x1F DUP3 ADD AND DUP3 ADD DUP1 PUSH1 0x40 MSTORE POP PUSH2 0x2494 SWAP2 SWAP1 DUP2 ADD SWAP1 PUSH2 0x2959 JUMP JUMPDEST PUSH1 0x40 MLOAD PUSH1 0x20 ADD PUSH2 0x24A4 SWAP2 SWAP1 PUSH2 0x30D5 JUMP JUMPDEST PUSH1 0x40 MLOAD PUSH1 0x20 DUP2 DUP4 SUB SUB DUP2 MSTORE SWAP1 PUSH1 0x40 MSTORE PUSH1 0x40 MLOAD DUP3 PUSH4 0xFFFFFFFF AND PUSH1 0xE0 SHL DUP2 MSTORE PUSH1 0x4 ADD PUSH2 0x24CF SWAP2 SWAP1 PUSH2 0x2F85 JUMP JUMPDEST PUSH1 0x0 PUSH1 0x40 MLOAD DUP1 DUP4 SUB DUP2 DUP7 DUP1 EXTCODESIZE ISZERO DUP1 ISZERO PUSH2 0x24E7 JUMPI PUSH1 0x0 DUP1 REVERT JUMPDEST POP GAS DELEGATECALL ISZERO DUP1 ISZERO PUSH2 0x24FB JUMPI RETURNDATASIZE PUSH1 0x0 DUP1 RETURNDATACOPY RETURNDATASIZE PUSH1 0x0 REVERT JUMPDEST POP POP PUSH1 0x0 SLOAD PUSH1 0x40 MLOAD PUSH4 0x3C4750DF PUSH1 0xE0 SHL DUP2 MSTORE PUSH20 0x0 SWAP4 POP PUSH4 0xFD63594A SWAP3 POP PUSH1 0x1 PUSH1 0x1 PUSH1 0xA0 SHL SUB SWAP1 SWAP2 AND SWAP1 PUSH4 0x3C4750DF SWAP1 PUSH2 0x255F SWAP1 PUSH20 0x2260FAC5E5542A773AA44FBCFEDF7C193BC2C599 SWAP1 PUSH1 0x4 ADD PUSH2 0x2E5B JUMP JUMPDEST PUSH1 0x20 PUSH1 0x40 MLOAD DUP1 DUP4 SUB DUP2 PUSH1 0x0 DUP8 DUP1 EXTCODESIZE ISZERO DUP1 ISZERO PUSH2 0x2579 JUMPI PUSH1 0x0 DUP1 REVERT JUMPDEST POP GAS CALL ISZERO DUP1 ISZERO PUSH2 0x258D JUMPI RETURNDATASIZE PUSH1 0x0 DUP1 RETURNDATACOPY RETURNDATASIZE PUSH1 0x0 REVERT JUMPDEST POP POP POP POP PUSH1 0x40 MLOAD RETURNDATASIZE PUSH1 0x1F NOT PUSH1 0x1F DUP3 ADD AND DUP3 ADD DUP1 PUSH1 0x40 MSTORE POP PUSH2 0x25B1 SWAP2 SWAP1 DUP2 ADD SWAP1 PUSH2 0x2959 JUMP JUMPDEST PUSH1 0x40 MLOAD PUSH1 0x20 ADD PUSH2 0x25C1 SWAP2 SWAP1 PUSH2 0x30D5 JUMP JUMPDEST PUSH1 0x40 MLOAD PUSH1 0x20 DUP2 DUP4 SUB SUB DUP2 MSTORE SWAP1 PUSH1 0x40 MSTORE PUSH1 0x40 MLOAD DUP3 PUSH4 0xFFFFFFFF AND PUSH1 0xE0 SHL DUP2 MSTORE PUSH1 0x4 ADD PUSH2 0x25EC SWAP2 SWAP1 PUSH2 0x2FC5 JUMP JUMPDEST PUSH1 0x0 PUSH1 0x40 MLOAD DUP1 DUP4 SUB DUP2 DUP7 DUP1 EXTCODESIZE ISZERO DUP1 ISZERO PUSH2 0x2604 JUMPI PUSH1 0x0 DUP1 REVERT JUMPDEST POP GAS DELEGATECALL ISZERO DUP1 ISZERO PUSH2 0x2618 JUMPI RETURNDATASIZE PUSH1 0x0 DUP1 RETURNDATACOPY RETURNDATASIZE PUSH1 0x0 REVERT JUMPDEST POP POP PUSH1 0x0 SLOAD PUSH1 0x40 MLOAD PUSH4 0x70A08231 PUSH1 0xE0 SHL DUP2 MSTORE PUSH20 0x0 SWAP4 POP PUSH4 0xFD63594A SWAP3 POP PUSH20 0x2260FAC5E5542A773AA44FBCFEDF7C193BC2C599 SWAP2 PUSH4 0x70A08231 SWAP2 PUSH2 0x267A SWAP2 PUSH1 0x1 PUSH1 0x1 PUSH1 0xA0 SHL SUB AND SWAP1 PUSH1 0x4 ADD PUSH2 0x2E5B JUMP JUMPDEST PUSH1 0x20 PUSH1 0x40 MLOAD DUP1 DUP4 SUB DUP2 DUP7 DUP1 EXTCODESIZE ISZERO DUP1 ISZERO PUSH2 0x2692 JUMPI PUSH1 0x0 DUP1 REVERT JUMPDEST POP GAS STATICCALL ISZERO DUP1 ISZERO PUSH2 0x26A6 JUMPI RETURNDATASIZE PUSH1 0x0 DUP1 RETURNDATACOPY RETURNDATASIZE PUSH1 0x0 REVERT JUMPDEST POP POP POP POP PUSH1 0x40 MLOAD RETURNDATASIZE PUSH1 0x1F NOT PUSH1 0x1F DUP3 ADD AND DUP3 ADD DUP1 PUSH1 0x40 MSTORE POP PUSH2 0x26CA SWAP2 SWAP1 DUP2 ADD SWAP1 PUSH2 0x2959 JUMP JUMPDEST PUSH1 0x40 MLOAD PUSH1 0x20 ADD PUSH2 0x26DA SWAP2 SWAP1 PUSH2 0x30D5 JUMP JUMPDEST PUSH1 0x40 MLOAD PUSH1 0x20 DUP2 DUP4 SUB SUB DUP2 MSTORE SWAP1 PUSH1 0x40 MSTORE PUSH1 0x40 MLOAD DUP3 PUSH4 0xFFFFFFFF AND PUSH1 0xE0 SHL DUP2 MSTORE PUSH1 0x4 ADD PUSH2 0x3BB SWAP2 SWAP1 PUSH2 0x2F95 JUMP JUMPDEST PUSH1 0x0 PUSH2 0x2721 PUSH1 0x40 MLOAD DUP1 PUSH1 0x20 ADD PUSH1 0x40 MSTORE DUP1 PUSH1 0x0 DUP2 MSTORE POP DUP5 DUP5 PUSH2 0x2794 JUMP JUMPDEST SWAP1 POP JUMPDEST SWAP3 SWAP2 POP POP JUMP JUMPDEST PUSH1 0x40 MLOAD PUSH4 0x6C979157 PUSH1 0xE0 SHL DUP2 MSTORE PUSH20 0x0 SWAP1 PUSH4 0x6C979157 SWAP1 PUSH2 0x2761 SWAP1 DUP5 SWAP1 PUSH1 0x4 ADD PUSH2 0x30D5 JUMP JUMPDEST PUSH1 0x0 PUSH1 0x40 MLOAD DUP1 DUP4 SUB DUP2 DUP7 DUP1 EXTCODESIZE ISZERO DUP1 ISZERO PUSH2 0x2779 JUMPI PUSH1 0x0 DUP1 REVERT JUMPDEST POP GAS DELEGATECALL ISZERO DUP1 ISZERO PUSH2 0x278D JUMPI RETURNDATASIZE PUSH1 0x0 DUP1 RETURNDATACOPY RETURNDATASIZE PUSH1 0x0 REVERT JUMPDEST POP POP POP POP POP JUMP JUMPDEST PUSH1 0x40 MLOAD PUSH4 0x3F63E835 PUSH1 0xE1 SHL DUP2 MSTORE PUSH1 0x0 SWAP1 PUSH20 0x0 SWAP1 PUSH4 0x7EC7D06A SWAP1 PUSH2 0x27D6 SWAP1 DUP8 SWAP1 DUP8 SWAP1 PUSH1 0xE0 DUP9 SWAP1 SHL SWAP1 PUSH1 0x4 ADD PUSH2 0x2F14 JUMP JUMPDEST PUSH1 0x20 PUSH1 0x40 MLOAD DUP1 DUP4 SUB DUP2 DUP7 DUP1 EXTCODESIZE ISZERO DUP1 ISZERO PUSH2 0x27EE JUMPI PUSH1 0x0 DUP1 REVERT JUMPDEST POP GAS DELEGATECALL ISZERO DUP1 ISZERO PUSH2 0x2802 JUMPI RETURNDATASIZE PUSH1 0x0 DUP1 RETURNDATACOPY RETURNDATASIZE PUSH1 0x0 REVERT JUMPDEST POP POP POP POP PUSH1 0x40 MLOAD RETURNDATASIZE PUSH1 0x1F NOT PUSH1 0x1F DUP3 ADD AND DUP3 ADD DUP1 PUSH1 0x40 MSTORE POP PUSH2 0x2826 SWAP2 SWAP1 DUP2 ADD SWAP1 PUSH2 0x2959 JUMP JUMPDEST SWAP1 POP JUMPDEST SWAP4 SWAP3 POP POP POP JUMP JUMPDEST DUP1 MLOAD PUSH2 0x2724 DUP2 PUSH2 0x318E JUMP JUMPDEST DUP1 MLOAD PUSH2 0x2724 DUP2 PUSH2 0x31A2 JUMP JUMPDEST DUP1 MLOAD PUSH2 0x2724 DUP2 PUSH2 0x31AB JUMP JUMPDEST PUSH1 0x0 PUSH1 0x20 DUP3 DUP5 SUB SLT ISZERO PUSH2 0x2863 JUMPI PUSH1 0x0 DUP1 REVERT JUMPDEST PUSH1 0x0 PUSH2 0x286F DUP5 DUP5 PUSH2 0x2830 JUMP JUMPDEST SWAP5 SWAP4 POP POP POP POP JUMP JUMPDEST PUSH1 0x0 DUP1 PUSH1 0x0 DUP1 PUSH1 0x0 DUP1 PUSH1 0x0 DUP1 PUSH1 0x0 PUSH2 0x120 DUP11 DUP13 SUB SLT ISZERO PUSH2 0x2896 JUMPI PUSH1 0x0 DUP1 REVERT JUMPDEST PUSH1 0x0 PUSH2 0x28A2 DUP13 DUP13 PUSH2 0x2830 JUMP JUMPDEST SWAP10 POP POP PUSH1 0x20 PUSH2 0x28B3 DUP13 DUP3 DUP14 ADD PUSH2 0x2830 JUMP JUMPDEST SWAP9 POP POP PUSH1 0x40 PUSH2 0x28C4 DUP13 DUP3 DUP14 ADD PUSH2 0x2830 JUMP JUMPDEST SWAP8 POP POP PUSH1 0x60 PUSH2 0x28D5 DUP13 DUP3 DUP14 ADD PUSH2 0x2846 JUMP JUMPDEST SWAP7 POP POP PUSH1 0x80 PUSH2 0x28E6 DUP13 DUP3 DUP14 ADD PUSH2 0x2846 JUMP JUMPDEST SWAP6 POP POP PUSH1 0xA0 PUSH2 0x28F7 DUP13 DUP3 DUP14 ADD PUSH2 0x2846 JUMP JUMPDEST SWAP5 POP POP PUSH1 0xC0 PUSH2 0x2908 DUP13 DUP3 DUP14 ADD PUSH2 0x2846 JUMP JUMPDEST SWAP4 POP POP PUSH1 0xE0 PUSH2 0x2919 DUP13 DUP3 DUP14 ADD PUSH2 0x2846 JUMP JUMPDEST SWAP3 POP POP PUSH2 0x100 PUSH2 0x292B DUP13 DUP3 DUP14 ADD PUSH2 0x283B JUMP JUMPDEST SWAP2 POP POP SWAP3 SWAP6 SWAP9 POP SWAP3 SWAP6 SWAP9 POP SWAP3 SWAP6 SWAP9 JUMP JUMPDEST PUSH1 0x0 PUSH1 0x20 DUP3 DUP5 SUB SLT ISZERO PUSH2 0x294D JUMPI PUSH1 0x0 DUP1 REVERT JUMPDEST PUSH1 0x0 PUSH2 0x286F DUP5 DUP5 PUSH2 0x283B JUMP JUMPDEST PUSH1 0x0 PUSH1 0x20 DUP3 DUP5 SUB SLT ISZERO PUSH2 0x296B JUMPI PUSH1 0x0 DUP1 REVERT JUMPDEST PUSH1 0x0 PUSH2 0x286F DUP5 DUP5 PUSH2 0x2846 JUMP JUMPDEST PUSH2 0x2980 DUP2 PUSH2 0x3137 JUMP JUMPDEST DUP3 MSTORE POP POP JUMP JUMPDEST PUSH2 0x2980 DUP2 PUSH2 0x310B JUMP JUMPDEST PUSH2 0x2980 DUP2 PUSH2 0x3116 JUMP JUMPDEST PUSH2 0x2980 DUP2 PUSH2 0x311B JUMP JUMPDEST PUSH1 0x0 PUSH2 0x29AC DUP3 PUSH2 0x30FE JUMP JUMPDEST PUSH2 0x29B6 DUP2 DUP6 PUSH2 0x3102 JUMP JUMPDEST SWAP4 POP PUSH2 0x29C6 DUP2 DUP6 PUSH1 0x20 DUP7 ADD PUSH2 0x3158 JUMP JUMPDEST PUSH2 0x29CF DUP2 PUSH2 0x3184 JUMP JUMPDEST SWAP1 SWAP4 ADD SWAP4 SWAP3 POP POP POP JUMP JUMPDEST PUSH2 0x2980 DUP2 PUSH2 0x3142 JUMP JUMPDEST PUSH1 0x0 PUSH2 0x29EF PUSH1 0x13 DUP4 PUSH2 0x3102 JUMP JUMPDEST PUSH19 0x2A26173130B630B731B2A7B31E9297189C3A85 PUSH1 0x69 SHL DUP2 MSTORE PUSH1 0x20 ADD SWAP3 SWAP2 POP POP JUMP JUMPDEST PUSH1 0x0 PUSH2 0x2A1E PUSH1 0xC DUP4 PUSH2 0x3102 JUMP JUMPDEST PUSH12 0x3137B93937BBB2B21E92B085 PUSH1 0xA1 SHL DUP2 MSTORE PUSH1 0x20 ADD SWAP3 SWAP2 POP POP JUMP JUMPDEST PUSH1 0x0 PUSH2 0x2A46 PUSH1 0xA DUP4 PUSH2 0x3102 JUMP JUMPDEST PUSH10 0x31B637B9B2B21E92B105 PUSH1 0xB1 SHL DUP2 MSTORE PUSH1 0x20 ADD SWAP3 SWAP2 POP POP JUMP JUMPDEST PUSH1 0x0 PUSH2 0x2A6C PUSH1 0x14 DUP4 PUSH2 0x3102 JUMP JUMPDEST PUSH20 0x22AA24173130B630B731B2A7B31E9297189C3A85 PUSH1 0x61 SHL DUP2 MSTORE PUSH1 0x20 ADD SWAP3 SWAP2 POP POP JUMP JUMPDEST PUSH1 0x0 PUSH2 0x2A9C PUSH1 0x15 DUP4 PUSH2 0x3102 JUMP JUMPDEST PUSH21 0x2BA12A21973130B630B731B2A7B31E9297189C3A85 PUSH1 0x59 SHL DUP2 MSTORE PUSH1 0x20 ADD SWAP3 SWAP2 POP POP JUMP JUMPDEST PUSH1 0x0 PUSH2 0x2ACD PUSH1 0x15 DUP4 PUSH2 0x3102 JUMP JUMPDEST PUSH21 0x3634B8BAB4B234BA3CA4B72AB9B29E9297189C3A85 PUSH1 0x59 SHL DUP2 MSTORE PUSH1 0x20 ADD SWAP3 SWAP2 POP POP JUMP JUMPDEST PUSH1 0x0 PUSH2 0x2AFE PUSH1 0x1F DUP4 PUSH2 0x3102 JUMP JUMPDEST PUSH32 0x63616C63756C6174654C6971756964697479546F4275726E3D252E3138750A00 DUP2 MSTORE PUSH1 0x20 ADD SWAP3 SWAP2 POP POP JUMP JUMPDEST PUSH1 0x0 PUSH2 0x2B37 PUSH1 0x18 DUP4 PUSH2 0x3102 JUMP JUMPDEST PUSH32 0x6C69717569646974794F662857425443293D252E3138750A0000000000000000 DUP2 MSTORE PUSH1 0x20 ADD SWAP3 SWAP2 POP POP JUMP JUMPDEST PUSH1 0x0 PUSH2 0x2B70 PUSH1 0x9 DUP4 PUSH2 0x3102 JUMP JUMPDEST PUSH9 0x37BBB732B91E92B085 PUSH1 0xB9 SHL DUP2 MSTORE PUSH1 0x20 ADD SWAP3 SWAP2 POP POP JUMP JUMPDEST PUSH1 0x0 PUSH2 0x2B95 PUSH1 0x15 DUP4 PUSH2 0x3102 JUMP JUMPDEST PUSH21 0x3634B8BAB4B234BA3CA33932B2B21E9297189C3A85 PUSH1 0x59 SHL DUP2 MSTORE PUSH1 0x20 ADD SWAP3 SWAP2 POP POP JUMP JUMPDEST PUSH1 0x0 PUSH2 0x2BC6 PUSH1 0xE DUP4 PUSH2 0x3102 JUMP JUMPDEST PUSH14 0x31B932B234BA24B71E92971C3A85 PUSH1 0x91 SHL DUP2 MSTORE PUSH1 0x20 ADD SWAP3 SWAP2 POP POP JUMP JUMPDEST PUSH1 0x0 PUSH2 0x2BF0 PUSH1 0x15 DUP4 PUSH2 0x3102 JUMP JUMPDEST PUSH21 0x3634B8BAB4B234BA3CA0B23232B21E9297189C3A85 PUSH1 0x59 SHL DUP2 MSTORE PUSH1 0x20 ADD SWAP3 SWAP2 POP POP JUMP JUMPDEST PUSH1 0x0 PUSH2 0x2C21 PUSH1 0x17 DUP4 PUSH2 0x3102 JUMP JUMPDEST PUSH32 0x6C697175696469747942616C616E63653D252E3138750A000000000000000000 DUP2 MSTORE PUSH1 0x20 ADD SWAP3 SWAP2 POP POP JUMP JUMPDEST PUSH1 0x0 PUSH2 0x2C5A PUSH1 0x1B DUP4 PUSH2 0x3102 JUMP JUMPDEST PUSH32 0x6C69717569646974795769746864726177616C733D252E3138750A0000000000 DUP2 MSTORE PUSH1 0x20 ADD SWAP3 SWAP2 POP POP JUMP JUMPDEST PUSH1 0x0 PUSH2 0x2C93 PUSH1 0xD DUP4 PUSH2 0x3102 JUMP JUMPDEST PUSH13 0x32BC3834B9329E9297189C3A85 PUSH1 0x99 SHL DUP2 MSTORE PUSH1 0x20 ADD SWAP3 SWAP2 POP POP JUMP JUMPDEST PUSH1 0x0 PUSH2 0x2CBC PUSH1 0xE DUP4 PUSH2 0x3102 JUMP JUMPDEST PUSH14 0x31B932B0BA32B21E9297189C3A85 PUSH1 0x91 SHL DUP2 MSTORE PUSH1 0x20 ADD SWAP3 SWAP2 POP POP JUMP JUMPDEST PUSH1 0x0 PUSH2 0x2CE6 PUSH1 0x17 DUP4 PUSH2 0x3102 JUMP JUMPDEST PUSH32 0x6C69717569646974794F6628455448293D252E3138750A000000000000000000 DUP2 MSTORE PUSH1 0x20 ADD SWAP3 SWAP2 POP POP JUMP JUMPDEST PUSH1 0x0 PUSH2 0x2D1F PUSH1 0x18 DUP4 PUSH2 0x3102 JUMP JUMPDEST PUSH32 0x6C69717569646974794465706F736974733D252E3138750A0000000000000000 DUP2 MSTORE PUSH1 0x20 ADD SWAP3 SWAP2 POP POP JUMP JUMPDEST PUSH1 0x0 PUSH2 0x2D58 PUSH1 0x10 DUP4 PUSH2 0x3102 JUMP JUMPDEST PUSH16 0x3130B630B731B2A7B31E9297189C3A85 PUSH1 0x81 SHL DUP2 MSTORE PUSH1 0x20 ADD SWAP3 SWAP2 POP POP JUMP JUMPDEST PUSH1 0x0 PUSH2 0x2D84 PUSH1 0xE DUP4 PUSH2 0x3102 JUMP JUMPDEST PUSH14 0x31B7B63630BA32B930B61E92B085 PUSH1 0x91 SHL DUP2 MSTORE PUSH1 0x20 ADD SWAP3 SWAP2 POP POP JUMP JUMPDEST PUSH1 0x0 PUSH2 0x2DAE PUSH1 0x10 DUP4 PUSH2 0x3102 JUMP JUMPDEST PUSH16 0x30B6B7BAB73A27BABA1E9297189C3A85 PUSH1 0x81 SHL DUP2 MSTORE PUSH1 0x20 ADD SWAP3 SWAP2 POP POP JUMP JUMPDEST PUSH1 0x0 PUSH2 0x2DDA PUSH1 0x17 DUP4 PUSH2 0x3102 JUMP JUMPDEST PUSH32 0x6C697175696469747952656D6F7665643D252E3138750A000000000000000000 DUP2 MSTORE PUSH1 0x20 ADD SWAP3 SWAP2 POP POP JUMP JUMPDEST PUSH1 0x0 PUSH2 0x2E13 PUSH1 0xC DUP4 PUSH2 0x3102 JUMP JUMPDEST PUSH12 0x38BAB7BA329E9297189C3A85 PUSH1 0xA1 SHL DUP2 MSTORE PUSH1 0x20 ADD SWAP3 SWAP2 POP POP JUMP JUMPDEST PUSH1 0x0 PUSH2 0x2E3B PUSH1 0x8 DUP4 PUSH2 0x3102 JUMP JUMPDEST PUSH8 0x37B832B71E92B105 PUSH1 0xC1 SHL DUP2 MSTORE PUSH1 0x20 ADD SWAP3 SWAP2 POP POP JUMP JUMPDEST PUSH2 0x2980 DUP2 PUSH2 0x3134 JUMP JUMPDEST PUSH1 0x20 DUP2 ADD PUSH2 0x2724 DUP3 DUP5 PUSH2 0x2986 JUMP JUMPDEST PUSH1 0x20 DUP2 ADD PUSH2 0x2724 DUP3 DUP5 PUSH2 0x2977 JUMP JUMPDEST PUSH1 0x60 DUP2 ADD PUSH2 0x2E85 DUP3 DUP7 PUSH2 0x2986 JUMP JUMPDEST PUSH2 0x2E92 PUSH1 0x20 DUP4 ADD DUP6 PUSH2 0x2986 JUMP JUMPDEST PUSH2 0x286F PUSH1 0x40 DUP4 ADD DUP5 PUSH2 0x29D9 JUMP JUMPDEST PUSH1 0x80 DUP2 ADD PUSH2 0x2EAD DUP3 DUP8 PUSH2 0x2986 JUMP JUMPDEST PUSH2 0x2EBA PUSH1 0x20 DUP4 ADD DUP7 PUSH2 0x2986 JUMP JUMPDEST PUSH2 0x2EC7 PUSH1 0x40 DUP4 ADD DUP6 PUSH2 0x29D9 JUMP JUMPDEST PUSH2 0x2ED4 PUSH1 0x60 DUP4 ADD DUP5 PUSH2 0x29D9 JUMP JUMPDEST SWAP6 SWAP5 POP POP POP POP POP JUMP JUMPDEST PUSH1 0x40 DUP2 ADD PUSH2 0x2EEB DUP3 DUP6 PUSH2 0x2986 JUMP JUMPDEST PUSH2 0x2829 PUSH1 0x20 DUP4 ADD DUP5 PUSH2 0x2E52 JUMP JUMPDEST PUSH1 0x20 DUP2 ADD PUSH2 0x2724 DUP3 DUP5 PUSH2 0x298F JUMP JUMPDEST PUSH1 0x20 DUP2 ADD PUSH2 0x2724 DUP3 DUP5 PUSH2 0x29D9 JUMP JUMPDEST PUSH1 0x60 DUP1 DUP3 MSTORE DUP2 ADD PUSH2 0x2F25 DUP2 DUP7 PUSH2 0x29A1 JUMP JUMPDEST SWAP1 POP PUSH2 0x2F34 PUSH1 0x20 DUP4 ADD DUP6 PUSH2 0x2986 JUMP JUMPDEST PUSH2 0x286F PUSH1 0x40 DUP4 ADD DUP5 PUSH2 0x2998 JUMP JUMPDEST PUSH1 0x40 DUP1 DUP3 MSTORE DUP2 ADD PUSH2 0x2F51 DUP2 PUSH2 0x29E2 JUMP JUMPDEST SWAP1 POP DUP2 DUP2 SUB PUSH1 0x20 DUP4 ADD MSTORE PUSH2 0x2721 DUP2 DUP5 PUSH2 0x29A1 JUMP JUMPDEST PUSH1 0x40 DUP1 DUP3 MSTORE DUP2 ADD PUSH2 0x2F51 DUP2 PUSH2 0x2A11 JUMP JUMPDEST PUSH1 0x40 DUP1 DUP3 MSTORE DUP2 ADD PUSH2 0x2F51 DUP2 PUSH2 0x2A39 JUMP JUMPDEST PUSH1 0x40 DUP1 DUP3 MSTORE DUP2 ADD PUSH2 0x2F51 DUP2 PUSH2 0x2A5F JUMP JUMPDEST PUSH1 0x40 DUP1 DUP3 MSTORE DUP2 ADD PUSH2 0x2F51 DUP2 PUSH2 0x2A8F JUMP JUMPDEST PUSH1 0x40 DUP1 DUP3 MSTORE DUP2 ADD PUSH2 0x2F51 DUP2 PUSH2 0x2AC0 JUMP JUMPDEST PUSH1 0x40 DUP1 DUP3 MSTORE DUP2 ADD PUSH2 0x2F51 DUP2 PUSH2 0x2AF1 JUMP JUMPDEST PUSH1 0x40 DUP1 DUP3 MSTORE DUP2 ADD PUSH2 0x2F51 DUP2 PUSH2 0x2B2A JUMP JUMPDEST PUSH1 0x40 DUP1 DUP3 MSTORE DUP2 ADD PUSH2 0x2F51 DUP2 PUSH2 0x2B63 JUMP JUMPDEST PUSH1 0x40 DUP1 DUP3 MSTORE DUP2 ADD PUSH2 0x2F51 DUP2 PUSH2 0x2B88 JUMP JUMPDEST PUSH1 0x40 DUP1 DUP3 MSTORE DUP2 ADD PUSH2 0x2F51 DUP2 PUSH2 0x2BB9 JUMP JUMPDEST PUSH1 0x40 DUP1 DUP3 MSTORE DUP2 ADD PUSH2 0x2F51 DUP2 PUSH2 0x2BE3 JUMP JUMPDEST PUSH1 0x40 DUP1 DUP3 MSTORE DUP2 ADD PUSH2 0x2F51 DUP2 PUSH2 0x2C14 JUMP JUMPDEST PUSH1 0x40 DUP1 DUP3 MSTORE DUP2 ADD PUSH2 0x2F51 DUP2 PUSH2 0x2C4D JUMP JUMPDEST PUSH1 0x40 DUP1 DUP3 MSTORE DUP2 ADD PUSH2 0x2F51 DUP2 PUSH2 0x2C86 JUMP JUMPDEST PUSH1 0x40 DUP1 DUP3 MSTORE DUP2 ADD PUSH2 0x2F51 DUP2 PUSH2 0x2CAF JUMP JUMPDEST PUSH1 0x40 DUP1 DUP3 MSTORE DUP2 ADD PUSH2 0x2F51 DUP2 PUSH2 0x2CD9 JUMP JUMPDEST PUSH1 0x40 DUP1 DUP3 MSTORE DUP2 ADD PUSH2 0x2F51 DUP2 PUSH2 0x2D12 JUMP JUMPDEST PUSH1 0x40 DUP1 DUP3 MSTORE DUP2 ADD PUSH2 0x2F51 DUP2 PUSH2 0x2D4B JUMP JUMPDEST PUSH1 0x40 DUP1 DUP3 MSTORE DUP2 ADD PUSH2 0x2F51 DUP2 PUSH2 0x2D77 JUMP JUMPDEST PUSH1 0x40 DUP1 DUP3 MSTORE DUP2 ADD PUSH2 0x2F51 DUP2 PUSH2 0x2DA1 JUMP JUMPDEST PUSH1 0x40 DUP1 DUP3 MSTORE DUP2 ADD PUSH2 0x2F51 DUP2 PUSH2 0x2DCD JUMP JUMPDEST PUSH1 0x40 DUP1 DUP3 MSTORE DUP2 ADD PUSH2 0x2F51 DUP2 PUSH2 0x2E06 JUMP JUMPDEST PUSH1 0x40 DUP1 DUP3 MSTORE DUP2 ADD PUSH2 0x2F51 DUP2 PUSH2 0x2E2E JUMP JUMPDEST PUSH1 0x20 DUP2 ADD PUSH2 0x2724 DUP3 DUP5 PUSH2 0x2E52 JUMP JUMPDEST PUSH1 0x40 DUP2 ADD PUSH2 0x30F1 DUP3 DUP6 PUSH2 0x2E52 JUMP JUMPDEST PUSH2 0x2829 PUSH1 0x20 DUP4 ADD DUP5 PUSH2 0x2977 JUMP JUMPDEST MLOAD SWAP1 JUMP JUMPDEST SWAP1 DUP2 MSTORE PUSH1 0x20 ADD SWAP1 JUMP JUMPDEST PUSH1 0x0 PUSH2 0x2724 DUP3 PUSH2 0x3128 JUMP JUMPDEST ISZERO ISZERO SWAP1 JUMP JUMPDEST PUSH1 0x1 PUSH1 0x1 PUSH1 0xE0 SHL SUB NOT AND SWAP1 JUMP JUMPDEST PUSH1 0x1 PUSH1 0x1 PUSH1 0xA0 SHL SUB AND SWAP1 JUMP JUMPDEST SWAP1 JUMP JUMPDEST PUSH1 0x0 PUSH2 0x2724 DUP3 PUSH2 0x314D JUMP JUMPDEST PUSH1 0x0 PUSH2 0x2724 DUP3 PUSH2 0x3134 JUMP JUMPDEST PUSH1 0x0 PUSH2 0x2724 DUP3 PUSH2 0x310B JUMP JUMPDEST PUSH1 0x0 JUMPDEST DUP4 DUP2 LT ISZERO PUSH2 0x3173 JUMPI DUP2 DUP2 ADD MLOAD DUP4 DUP3 ADD MSTORE PUSH1 0x20 ADD PUSH2 0x315B JUMP JUMPDEST DUP4 DUP2 GT ISZERO PUSH2 0x3E7 JUMPI POP POP PUSH1 0x0 SWAP2 ADD MSTORE JUMP JUMPDEST PUSH1 0x1F ADD PUSH1 0x1F NOT AND SWAP1 JUMP JUMPDEST PUSH2 0x3197 DUP2 PUSH2 0x310B JUMP JUMPDEST DUP2 EQ PUSH2 0x161C JUMPI PUSH1 0x0 DUP1 REVERT JUMPDEST PUSH2 0x3197 DUP2 PUSH2 0x3116 JUMP JUMPDEST PUSH2 0x3197 DUP2 PUSH2 0x3134 JUMP INVALID LOG3 PUSH6 0x627A7A723158 KECCAK256 RETURNDATASIZE 0xCB DUP8 DUP10 0xE6 PUSH18 0x5CB286268648B47AA2266E50322C116159E CALLER BALANCE DUP3 0xC1 0xE5 0xB0 MULMOD 0x5D PUSH13 0x6578706572696D656E74616CF5 PUSH5 0x736F6C6343 STOP SDIV GT STOP BLOCKHASH "
		},
		"gasEstimates": {
			"creation": {
				"codeDepositCost": "2558200",
				"executionCost": "2763",
				"totalCost": "2560963"
			},
			"external": {
				"": "163",
				"close()": "infinite",
				"deploy()": "infinite",
				"deposit()": "infinite",
				"depositLiquidity()": "infinite",
				"quote()": "infinite",
				"run()": "infinite",
				"setup()": "144",
				"stats()": "infinite",
				"withdraw()": "infinite"
			}
		},
		"methodIdentifiers": {
			"close()": "43d726d6",
			"deploy()": "775c300c",
			"deposit()": "d0e30db0",
			"depositLiquidity()": "ca593c59",
			"quote()": "999b93af",
			"run()": "c0406226",
			"setup()": "ba0bba40",
			"stats()": "d80528ae",
			"withdraw()": "3ccfd60b"
		}
	},
	"abi": [
		{
			"payable": true,
			"stateMutability": "payable",
			"type": "fallback"
		},
		{
			"constant": false,
			"inputs": [],
			"name": "close",
			"outputs": [],
			"payable": false,
			"stateMutability": "nonpayable",
			"type": "function"
		},
		{
			"constant": false,
			"inputs": [],
			"name": "deploy",
			"outputs": [],
			"payable": false,
			"stateMutability": "nonpayable",
			"type": "function"
		},
		{
			"constant": false,
			"inputs": [],
			"name": "deposit",
			"outputs": [],
			"payable": false,
			"stateMutability": "nonpayable",
			"type": "function"
		},
		{
			"constant": false,
			"inputs": [],
			"name": "depositLiquidity",
			"outputs": [],
			"payable": false,
			"stateMutability": "nonpayable",
			"type": "function"
		},
		{
			"constant": false,
			"inputs": [],
			"name": "quote",
			"outputs": [],
			"payable": false,
			"stateMutability": "nonpayable",
			"type": "function"
		},
		{
			"constant": false,
			"inputs": [],
			"name": "run",
			"outputs": [],
			"payable": false,
			"stateMutability": "nonpayable",
			"type": "function"
		},
		{
			"constant": false,
			"inputs": [],
			"name": "setup",
			"outputs": [],
			"payable": false,
			"stateMutability": "nonpayable",
			"type": "function"
		},
		{
			"constant": false,
			"inputs": [],
			"name": "stats",
			"outputs": [],
			"payable": false,
			"stateMutability": "nonpayable",
			"type": "function"
		},
		{
			"constant": false,
			"inputs": [],
			"name": "withdraw",
			"outputs": [],
			"payable": false,
			"stateMutability": "nonpayable",
			"type": "function"
		}
	]
}