{
	"data": {
		"bytecode": {
			"linkReferences": {},
			"object": "608060405234801561001057600080fd5b50613e14806100206000396000f3fe608060405234801561001057600080fd5b506004361061004c5760003560e01c806315b40ec0146100515780634c96a3891461008a578063da0321cd146100b0578063fe33b30214610108575b600080fd5b61006e6004803603602081101561006757600080fd5b503561012e565b604080516001600160a01b039092168252519081900360200190f35b61006e600480360360208110156100a057600080fd5b50356001600160a01b0316610155565b6100b8610257565b60408051602080825283518183015283519192839290830191858101910280838360005b838110156100f45781810151838201526020016100dc565b505050509050019250505060405180910390f35b61006e6004803603602081101561011e57600080fd5b50356001600160a01b03166102b9565b6001818154811061013b57fe5b6000918252602090912001546001600160a01b0316905081565b6001600160a01b03818116600090815260208190526040812054909116156101ae5760405162461bcd60e51b8152600401808060200182810382526031815260200180613dae6031913960400191505060405180910390fd5b816040516101bb906102d4565b6001600160a01b03909116815260405190819003602001906000f0801580156101e8573d6000803e3d6000fd5b506001600160a01b03808416600081815260208190526040812080549484166001600160a01b0319958616178155600180548082019091557fb10e2d527612073b26eecdfd717e6a320cf44b4afac2b0732d9fcbe2b7fa0cf60180549095168317909455529054169050919050565b606060018054806020026020016040519081016040528092919081815260200182805480156102af57602002820191906000526020600020905b81546001600160a01b03168152600190910190602001808311610291575b5050505050905090565b6000602081905290815260409020546001600160a01b031681565b613acc806102e28339019056fe608060405260006001553480156200001657600080fd5b5060405162003acc38038062003acc833981810160405260208110156200003c57600080fd5b505160408051630dfe168160e01b815290516001600160a01b03831691630dfe1681916004808301926020929190829003018186803b1580156200007f57600080fd5b505afa15801562000094573d6000803e3d6000fd5b505050506040513d6020811015620000ab57600080fd5b5051604080516395d89b4160e01b815290516001600160a01b03909216916395d89b4191600480820192600092909190829003018186803b158015620000f057600080fd5b505afa15801562000105573d6000803e3d6000fd5b505050506040513d6000823e601f3d908101601f1916820160405260208110156200012f57600080fd5b81019080805160405193929190846401000000008211156200015057600080fd5b9083019060208201858111156200016657600080fd5b82516401000000008111828201881017156200018157600080fd5b82525081516020918201929091019080838360005b83811015620001b057818101518382015260200162000196565b50505050905090810190601f168015620001de5780820380516001836020036101000a031916815260200191505b50604052505050816001600160a01b031663d21220a76040518163ffffffff1660e01b815260040160206040518083038186803b1580156200021f57600080fd5b505afa15801562000234573d6000803e3d6000fd5b505050506040513d60208110156200024b57600080fd5b5051604080516395d89b4160e01b815290516001600160a01b03909216916395d89b4191600480820192600092909190829003018186803b1580156200029057600080fd5b505afa158015620002a5573d6000803e3d6000fd5b505050506040513d6000823e601f3d908101601f191682016040526020811015620002cf57600080fd5b8101908080516040519392919084640100000000821115620002f057600080fd5b9083019060208201858111156200030657600080fd5b82516401000000008111828201881017156200032157600080fd5b82525081516020918201929091019080838360005b838110156200035057818101518382015260200162000336565b50505050905090810190601f1680156200037e5780820380516001836020036101000a031916815260200191505b506040525050506040516020018083805190602001908083835b60208310620003b95780518252601f19909201916020918201910162000398565b6001836020036101000a03801982511681845116808217855250505050505090500180602d60f81b81525060010182805190602001908083835b60208310620004145780518252601f199092019160209182019101620003f3565b6001836020036101000a0380198251168184511680821785525050505050509050019250505060405160208183030381529060405260009080519060200190620004609291906200058f565b50600580546001600160a01b0319166001600160a01b03831690811790915560408051630dfe168160e01b81529051630dfe168191600480820192602092909190829003018186803b158015620004b657600080fd5b505afa158015620004cb573d6000803e3d6000fd5b505050506040513d6020811015620004e257600080fd5b5051600680546001600160a01b0319166001600160a01b039283161790556040805163d21220a760e01b815290519183169163d21220a791600480820192602092909190829003018186803b1580156200053b57600080fd5b505afa15801562000550573d6000803e3d6000fd5b505050506040513d60208110156200056757600080fd5b5051600780546001600160a01b0319166001600160a01b039092169190911790555062000634565b828054600181600116156101000203166002900490600052602060002090601f016020900481019282601f10620005d257805160ff191683800117855562000602565b8280016001018555821562000602579182015b8281111562000602578251825591602001919060010190620005e5565b506200061092915062000614565b5090565b6200063191905b808211156200061057600081556001016200061b565b90565b61348880620006446000396000f3fe608060405234801561001057600080fd5b50600436106102d65760003560e01c8063916e481e11610182578063be293168116100e9578063d66639b9116100a2578063de5f62681161007c578063de5f626814610857578063ec342ad01461085f578063fc7e9c6f14610867578063fdda918e1461086f576102d6565b8063d66639b9146107eb578063d944392314610821578063dd62ed3e14610829576102d6565b8063be29316814610742578063c3926a2914610778578063c57981b514610780578063ca593c5914610788578063d21220a714610792578063d505accf1461079a576102d6565b8063a8aa1b311161013b578063a8aa1b3114610677578063a9059cbb1461067f578063a95fe267146106ab578063b6466384146106e7578063b6641dbd1461071d578063b6b55f2514610725576102d6565b8063916e481e1461057f57806395d89b41146105875780639883fd421461058f57806398c61c37146105ac57806399fbab88146105d8578063a7b80eb21461064b576102d6565b8063313ce5671161024157806360b4d59f116101fa57806370a08231116101d457806370a08231146105235780637ecebe0014610549578063853828b61461056f5780638fbc3ecd14610577576102d6565b806360b4d59f1461050b57806362965d8e1461051357806369b411701461051b576102d6565b8063313ce56714610492578063371fd8e6146104b057806338013f02146104cd5780633c4750df146104d55780634870827d146104fb578063541bcb7614610503576102d6565b80630dfe1681116102935780630dfe16811461040357806318160ddd1461042757806320606b701461042f57806323b872dd146104375780632e1a7d4d1461046d57806330adf81f1461048a576102d6565b80630499d1ac146102db57806306fdde03146102f557806307fa901a14610372578063095ea7b31461039e5780630aebeb4e146103de5780630d6b6841146103fb575b600080fd5b6102e3610877565b60408051918252519081900360200190f35b6102fd61087d565b6040805160208082528351818301528351919283929083019185019080838360005b8381101561033757818101518382015260200161031f565b50505050905090810190601f1680156103645780820380516001836020036101000a031916815260200191505b509250505060405180910390f35b6102e36004803603604081101561038857600080fd5b506001600160a01b0381351690602001356108aa565b6103ca600480360360408110156103b457600080fd5b506001600160a01b038135169060200135610a5a565b604080519115158252519081900360200190f35b6103ca600480360360208110156103f457600080fd5b5035610ac0565b6102e3610c12565b61040b610c3f565b604080516001600160a01b039092168252519081900360200190f35b6102e3610c4e565b6102e3610c54565b6103ca6004803603606081101561044d57600080fd5b506001600160a01b03813581169160208101359091169060400135610c70565b6103ca6004803603602081101561048357600080fd5b5035610d58565b6102e3610f2b565b61049a610f46565b6040805160ff9092168252519081900360200190f35b6103ca600480360360208110156104c657600080fd5b5035610f4b565b61040b61130b565b6102e3600480360360208110156104eb57600080fd5b50356001600160a01b0316611323565b6102e3611520565b61040b611526565b6102e361153e565b6102e3611544565b6102e361154b565b6102e36004803603602081101561053957600080fd5b50356001600160a01b0316611551565b6102e36004803603602081101561055f57600080fd5b50356001600160a01b031661156c565b6103ca61157e565b6102e361159c565b6102e36115a3565b6102fd6115a9565b6102e3600480360360208110156105a557600080fd5b5035611637565b6102e3600480360360408110156105c257600080fd5b506001600160a01b038135169060200135611663565b6105f5600480360360208110156105ee57600080fd5b5035611691565b604080516001600160a01b039a8b168152988a1660208a015296909816878701526060870194909452608086019290925260a085015260c084015260e08301529115156101008201529051908190036101200190f35b6102e36004803603604081101561066157600080fd5b506001600160a01b0381351690602001356116fc565b61040b6117ce565b6103ca6004803603604081101561069557600080fd5b506001600160a01b0381351690602001356117dd565b6102e3600480360360808110156106c157600080fd5b506001600160a01b038135811691602081013590911690604081013590606001356117f3565b6102e3600480360360608110156106fd57600080fd5b506001600160a01b03813581169160208101359091169060400135611e07565b6102e3611e52565b6103ca6004803603602081101561073b57600080fd5b5035611e58565b6102e36004803603606081101561075857600080fd5b506001600160a01b03813581169160208101359091169060400135611f87565b6102e3611fb9565b6102e3612002565b610790612008565b005b61040b612478565b610790600480360360e08110156107b057600080fd5b506001600160a01b03813581169160208101359091169060408101359060608101359060ff6080820135169060a08101359060c00135612487565b6102e36004803603606081101561080157600080fd5b506001600160a01b038135811691602081013590911690604001356127bd565b6102e361285e565b6102e36004803603604081101561083f57600080fd5b506001600160a01b0381358116916020013516612864565b6103ca61288f565b6102e3612912565b6102e3612919565b6102e361291f565b60115481565b60405180604001604052806011815260200170054696d65204c6f616e2050616972204c5607c1b81525081565b6000806000600560009054906101000a90046001600160a01b03166001600160a01b0316630902f1ac6040518163ffffffff1660e01b815260040160606040518083038186803b1580156108fd57600080fd5b505afa158015610911573d6000803e3d6000fd5b505050506040513d606081101561092757600080fd5b5080516020909101516006546dffffffffffffffffffffffffffff9283169450911691506001600160a01b03868116911614156109f45760408051630153543560e21b81526004810186905260248101849052604481018390529051737a250d5630b4cf539739df2c5dacb4c659f2488d9163054d50d4916064808301926020929190829003018186803b1580156109be57600080fd5b505afa1580156109d2573d6000803e3d6000fd5b505050506040513d60208110156109e857600080fd5b50519250610a54915050565b60408051630153543560e21b81526004810186905260248101839052604481018490529051737a250d5630b4cf539739df2c5dacb4c659f2488d9163054d50d4916064808301926020929190829003018186803b1580156109be57600080fd5b92915050565b3360008181526002602090815260408083206001600160a01b038716808552908352818420869055815186815291519394909390927f8c5be1e5ebec7d5bd14f71427d1e84f3dd0314c0f7b2291e5b200ac8c7c3b925928290030190a350600192915050565b60008060088381548110610ad057fe5b6000918252602090912060099091020180549091506001600160a01b0316610afc576000915050610c0d565b600881015460ff16610b12576000915050610c0d565b4381600701541115610b28576000915050610c0d565b60088101805460ff19169055600581015460408051606081019091526029808252610b679291906132656020830139601054919063ffffffff61292516565b6010556005810154601154610b819163ffffffff6129bc16565b6011556002810154600182015482546003840154600485015460068601546007870154604080518b815260208101959095528481019390935260608401919091526080830152516001600160a01b03948516949384169392909216917fdbeffa8a7db601f3ccf50979e78f7deaae9c7af29ee9cbf8855536b7edbc78c29181900360a00190a460019150505b919050565b600a546000905b600954811015610c3557610c2c81610ac0565b50600101610c19565b600a819055905090565b6006546001600160a01b031681565b60015481565b6040518080613225604091396040019050604051809103902081565b6001600160a01b038316600081815260026020908152604080832033808552925282205491929091908214801590610caa57506000198114155b15610d41576000610cdc856040518060800160405280604281526020016133c96042913984919063ffffffff61292516565b6001600160a01b0380891660008181526002602090815260408083209489168084529482529182902085905581518581529151949550929391927f8c5be1e5ebec7d5bd14f71427d1e84f3dd0314c0f7b2291e5b200ac8c7c3b92592918290030190a3505b610d4c868686612a16565b50600195945050505050565b600080610d85600154610d7985610d6d611fb9565b9063ffffffff612bab16565b9063ffffffff612c0416565b9050610d913384612c46565b600554604080516370a0823160e01b8152306004820152905183926001600160a01b0316916370a08231916024808301926020929190829003018186803b158015610ddb57600080fd5b505afa158015610def573d6000803e3d6000fd5b505050506040513d6020811015610e0557600080fd5b505111610e435760405162461bcd60e51b815260040180806020018281038252604f815260200180613135604f913960600191505060405180910390fd5b6005546040805163a9059cbb60e01b81523360048201526024810184905290516001600160a01b039092169163a9059cbb916044808201926020929091908290030181600087803b158015610e9757600080fd5b505af1158015610eab573d6000803e3d6000fd5b505050506040513d6020811015610ec157600080fd5b5050600d54610ed6908263ffffffff6129bc16565b600d55600554604080518581526020810184905281516001600160a01b039093169233927f94946556b6f856cfa4d156a5c818935ecb2d8cc4b02c262b83747e88d6c75f20928290030190a350600192915050565b6040518060496131dc82396049019050604051809103902081565b601281565b60008060088381548110610f5b57fe5b60009182526020909120600990910201600881015490915060ff16610fb15760405162461bcd60e51b815260040180806020018281038252602c8152602001806130e2602c913960400191505060405180910390fd5b43816007015410610ff35760405162461bcd60e51b815260040180806020018281038252602a8152602001806131b2602a913960400191505060405180910390fd5b6002810154600480830154604080516323b872dd60e01b815233938101939093523060248401526044830191909152516001600160a01b03909216916323b872dd916064808201926020929091908290030181600087803b15801561105757600080fd5b505af115801561106b573d6000803e3d6000fd5b505050506040513d602081101561108157600080fd5b50506001810154604080516370a0823160e01b815230600482015290516000926001600160a01b0316916370a08231916024808301926020929190829003018186803b1580156110d057600080fd5b505afa1580156110e4573d6000803e3d6000fd5b505050506040513d60208110156110fa57600080fd5b5051600383015490915081101561113a5760018201546003830154611138916001600160a01b031690611133908463ffffffff612d4916565b612d6e565b505b600182015460038301546040805163a9059cbb60e01b81523360048201526024810192909252516001600160a01b039092169163a9059cbb916044808201926020929091908290030181600087803b15801561119557600080fd5b505af11580156111a9573d6000803e3d6000fd5b505050506040513d60208110156111bf57600080fd5b50506008808301805460ff191690558054839190869081106111dd57fe5b6000918252602091829020835460099092020180546001600160a01b03199081166001600160a01b0393841617825560018086015481840180548416918616919091179055600280870154818501805490941690861617909255600380870154818501556004808801548186015560058089015490860155600680890154818701556007808a0154818801556008998a015499909601805460ff909a16151560ff19909a169990991790985592890154918901548954918a0154938a0154978a0154948a0154604080518e81529889019590955287850198909852606087019490945260808601969096529051908316949183169391909216917f1a7a55034943b99bc89bbb5cdb0d8934813efa402b537313abe0c2cbf3fc86a79181900360a00190a45060019392505050565b730b5a6b318c39b60e7d8462f888e7fba89f75d02f81565b6000610a546114a2600560009054906101000a90046001600160a01b03166001600160a01b03166318160ddd6040518163ffffffff1660e01b815260040160206040518083038186803b15801561137957600080fd5b505afa15801561138d573d6000803e3d6000fd5b505050506040513d60208110156113a357600080fd5b5051600554604080516370a0823160e01b81523060048201529051610d79926001600160a01b0316916370a08231916024808301926020929190829003018186803b1580156113f157600080fd5b505afa158015611405573d6000803e3d6000fd5b505050506040513d602081101561141b57600080fd5b5051600554604080516370a0823160e01b81526001600160a01b0392831660048201529051918916916370a0823191602480820192602092909190829003018186803b15801561146a57600080fd5b505afa15801561147e573d6000803e3d6000fd5b505050506040513d602081101561149457600080fd5b50519063ffffffff612bab16565b604080516370a0823160e01b815230600482015290516001600160a01b038616916370a08231916024808301926020929190829003018186803b1580156114e857600080fd5b505afa1580156114fc573d6000803e3d6000fd5b505050506040513d602081101561151257600080fd5b50519063ffffffff6129bc16565b600d5481565b737a250d5630b4cf539739df2c5dacb4c659f2488d81565b600c5481565b6201388081565b6119c881565b6001600160a01b031660009081526003602052604090205490565b60046020526000908152604090205481565b3360009081526003602052604081205461159790610d58565b905090565b62019a2881565b600f5481565b6000805460408051602060026001851615610100026000190190941693909304601f8101849004840282018401909252818152929183018282801561162f5780601f106116045761010080835404028352916020019161162f565b820191906000526020600020905b81548152906001019060200180831161161257829003601f168201915b505050505081565b600a546000905b828110156116585761164f81610ac0565b5060010161163e565b600a81905592915050565b600b602052816000526040600020818154811061167c57fe5b90600052602060002001600091509150505481565b6008818154811061169e57fe5b60009182526020909120600990910201805460018201546002830154600384015460048501546005860154600687015460078801546008909801546001600160a01b0397881699509587169794909616959294919390929160ff1689565b600554604080516370a0823160e01b81526001600160a01b03928316600482015290516000926117c792908616916370a0823191602480820192602092909190829003018186803b15801561175057600080fd5b505afa158015611764573d6000803e3d6000fd5b505050506040513d602081101561177a57600080fd5b5051600554604080516318160ddd60e01b81529051610d799287926001600160a01b03909116916318160ddd91600480820192602092909190829003018186803b15801561146a57600080fd5b9392505050565b6005546001600160a01b031681565b60006117ea338484612a16565b50600192915050565b604080516370a0823160e01b8152306004820152905160009182916001600160a01b038816916370a08231916024808301926020929190829003018186803b15801561183e57600080fd5b505afa158015611852573d6000803e3d6000fd5b505050506040513d602081101561186857600080fd5b5051604080516323b872dd60e01b81523360048201523060248201526044810187905290519192506001600160a01b038816916323b872dd916064808201926020929091908290030181600087803b1580156118c357600080fd5b505af11580156118d7573d6000803e3d6000fd5b505050506040513d60208110156118ed57600080fd5b5050604080516370a0823160e01b815230600482015290516000916001600160a01b038916916370a0823191602480820192602092909190829003018186803b15801561193957600080fd5b505afa15801561194d573d6000803e3d6000fd5b505050506040513d602081101561196357600080fd5b505190506000611979828463ffffffff612d4916565b90506000611996620186a0610d798461025863ffffffff612bab16565b90506119a8828263ffffffff612d4916565b915060006119c6620186a0610d79856201388063ffffffff612bab16565b905060006119d58b8b84611f87565b905087811015611a2c576040805162461bcd60e51b815260206004820152601960248201527f54696d654c6f616e733a3a6c6f616e3a20736c69707061676500000000000000604482015290519081900360640190fd5b80611a368b611323565b11611a725760405162461bcd60e51b815260040180806020018281038252602781526020018061310e6027913960400191505060405180910390fd5b604080516370a0823160e01b815230600482015290516000916001600160a01b038d16916370a0823191602480820192602092909190829003018186803b158015611abc57600080fd5b505afa158015611ad0573d6000803e3d6000fd5b505050506040513d6020811015611ae657600080fd5b50519050600082821015611b2257611b088c611133858563ffffffff612d4916565b601054909150611b1e908263ffffffff6129bc16565b6010555b6008604051806101200160405280336001600160a01b031681526020018f6001600160a01b031681526020018e6001600160a01b03168152602001888152602001858152602001838152602001438152602001611b8a6119c8436129bc90919063ffffffff16565b815260200160011515815250908060018154018082558091505060019003906000526020600020906009020160009091909190915060008201518160000160006101000a8154816001600160a01b0302191690836001600160a01b0316021790555060208201518160010160006101000a8154816001600160a01b0302191690836001600160a01b0316021790555060408201518160020160006101000a8154816001600160a01b0302191690836001600160a01b03160217905550606082015181600301556080820151816004015560a0820151816005015560c0820151816006015560e082015181600701556101008201518160080160006101000a81548160ff0219169083151502179055505050600b6000336001600160a01b03166001600160a01b0316815260200190815260200160002060095490806001815401808255809150506001900390600052602060002001600090919091909150558b6001600160a01b031663a9059cbb33856040518363ffffffff1660e01b815260040180836001600160a01b03166001600160a01b0316815260200182815260200192505050602060405180830381600087803b158015611d4957600080fd5b505af1158015611d5d573d6000803e3d6000fd5b505050506040513d6020811015611d7357600080fd5b50506009546001600160a01b03808e1691908f169033907f0c5f8bb69e29f0b5e3cedf454f0c8688f216b44693c51a455f7906202945e3d5908a8843611dc1816119c863ffffffff6129bc16565b6040805195865260208601949094528484019290925260608401526080830152519081900360a00190a4505060098054600181019091559b9a5050505050505050505050565b600080611e3c620186a0610d7962013880610d6d611e2f84848a61025863ffffffff612bab16565b889063ffffffff612d4916565b9050611e498585836127bd565b95945050505050565b60105481565b600554604080516323b872dd60e01b81523360048201523060248201526044810184905290516000926001600160a01b0316916323b872dd91606480830192602092919082900301818787803b158015611eb157600080fd5b505af1158015611ec5573d6000803e3d6000fd5b505050506040513d6020811015611edb57600080fd5b5060009050611ee8611fb9565b611ef3575081611f15565b611f12611efe611fb9565b600154610d7990869063ffffffff612bab16565b90505b611f1f3382612f6d565b600c54611f32908463ffffffff6129bc16565b600c55600554604080518381526020810186905281516001600160a01b039093169233927ff5681f9d0db1b911ac18ee83d515a1cf1051853a9eae418316a2fdf7dea427c5928290030190a350600192915050565b600080611f958585856127bd565b90506000611fa386856108aa565b9050611faf8282613004565b9695505050505050565b6000611597601054611ff6601154611fea600f54611ff6600e54611fea600d54600c54612d4990919063ffffffff16565b9063ffffffff6129bc16565b9063ffffffff612d4916565b61025881565b3332146120465760405162461bcd60e51b815260040180806020018281038252602e815260200180613184602e913960400191505060405180910390fd5b600654604080516370a0823160e01b815230600482015290516001600160a01b039092169163095ea7b391737a250d5630b4cf539739df2c5dacb4c659f2488d9184916370a08231916024808301926020929190829003018186803b1580156120ae57600080fd5b505afa1580156120c2573d6000803e3d6000fd5b505050506040513d60208110156120d857600080fd5b5051604080516001600160e01b031960e086901b1681526001600160a01b03909316600484015260248301919091525160448083019260209291908290030181600087803b15801561212957600080fd5b505af115801561213d573d6000803e3d6000fd5b505050506040513d602081101561215357600080fd5b5050600754604080516370a0823160e01b815230600482015290516001600160a01b039092169163095ea7b391737a250d5630b4cf539739df2c5dacb4c659f2488d9184916370a08231916024808301926020929190829003018186803b1580156121bd57600080fd5b505afa1580156121d1573d6000803e3d6000fd5b505050506040513d60208110156121e757600080fd5b5051604080516001600160e01b031960e086901b1681526001600160a01b03909316600484015260248301919091525160448083019260209291908290030181600087803b15801561223857600080fd5b505af115801561224c573d6000803e3d6000fd5b505050506040513d602081101561226257600080fd5b5050600654600754604080516370a0823160e01b81523060048201529051600093737a250d5630b4cf539739df2c5dacb4c659f2488d9363e8e33700936001600160a01b0392831693929091169183916370a08231916024808301926020929190829003018186803b1580156122d757600080fd5b505afa1580156122eb573d6000803e3d6000fd5b505050506040513d602081101561230157600080fd5b5051600754604080516370a0823160e01b815230600482015290516001600160a01b03909216916370a0823191602480820192602092909190829003018186803b15801561234e57600080fd5b505afa158015612362573d6000803e3d6000fd5b505050506040513d602081101561237857600080fd5b5051600080306123904261070863ffffffff6129bc16565b6040518963ffffffff1660e01b815260040180896001600160a01b03166001600160a01b03168152602001886001600160a01b03166001600160a01b03168152602001878152602001868152602001858152602001848152602001836001600160a01b03166001600160a01b0316815260200182815260200198505050505050505050606060405180830381600087803b15801561242d57600080fd5b505af1158015612441573d6000803e3d6000fd5b505050506040513d606081101561245757600080fd5b5060400151600e54909150612472908263ffffffff6129bc16565b600e5550565b6007546001600160a01b031681565b60006040518080613225604091396040805191829003810182208282019091526011825270054696d65204c6f616e2050616972204c5607c1b60209092019190915290507f34c390d6331785fcb45c39ec85f48a9163f0e406be73aecd3bf3a9feab72cf646124f461301a565b3060405160200180858152602001848152602001838152602001826001600160a01b03166001600160a01b03168152602001945050505050604051602081830303815290604052805190602001209050600060405180806131dc60499139604080519182900360490182206001600160a01b03808e16600081815260046020908152858220805460018082019092558289019690965287870193909352928f166060870152608086018e905260a086019390935260c08086018d90528451808703909101815260e08601855280519083012061190160f01b610100870152610102860189905261012280870182905285518088039091018152610142870180875281519185019190912090859052610162870180875281905260ff8d166101828801526101a287018c90526101c287018b90529451909750939550919391926101e280840193601f198301929081900390910190855afa15801561265c573d6000803e3d6000fd5b5050604051601f1901519150506001600160a01b0381166126ae5760405162461bcd60e51b815260040180806020018281038252602481526020018061340b6024913960400191505060405180910390fd5b8a6001600160a01b0316816001600160a01b031614612714576040805162461bcd60e51b815260206004820152601f60248201527f54696d654c6f616e733a3a7065726d69743a20756e617574686f72697a656400604482015290519081900360640190fd5b874211156127535760405162461bcd60e51b815260040180806020018281038252602481526020018061342f6024913960400191505060405180910390fd5b6001600160a01b03808c166000818152600260209081526040808320948f16808452948252918290208d905581518d815291517f8c5be1e5ebec7d5bd14f71427d1e84f3dd0314c0f7b2291e5b200ac8c7c3b9259281900390910190a35050505050505050505050565b60408051632d9198e160e21b81526001600160a01b03858116600483015284166024820152604481018390529051600091730b5a6b318c39b60e7d8462f888e7fba89f75d02f9163b646638491606480820192602092909190829003018186803b15801561282a57600080fd5b505afa15801561283e573d6000803e3d6000fd5b505050506040513d602081101561285457600080fd5b5051949350505050565b600e5481565b6001600160a01b03918216600090815260026020908152604080832093909416825291909152205490565b600554604080516370a0823160e01b81523360048201529051600092611597926001600160a01b03909116916370a0823191602480820192602092909190829003018186803b1580156128e157600080fd5b505afa1580156128f5573d6000803e3d6000fd5b505050506040513d602081101561290b57600080fd5b5051611e58565b620186a081565b60095481565b600a5481565b600081848411156129b45760405162461bcd60e51b81526004018080602001828103825283818151815260200191508051906020019080838360005b83811015612979578181015183820152602001612961565b50505050905090810190601f1680156129a65780820380516001836020036101000a031916815260200191505b509250505060405180910390fd5b505050900390565b6000828201838110156117c7576040805162461bcd60e51b815260206004820152601b60248201527f536166654d6174683a206164646974696f6e206f766572666c6f770000000000604482015290519081900360640190fd5b6001600160a01b038316612a5b5760405162461bcd60e51b81526004018080602001828103825260418152602001806133886041913960600191505060405180910390fd5b6001600160a01b038216612aa05760405162461bcd60e51b815260040180806020018281038252603f81526020018061331f603f913960400191505060405180910390fd5b612ae3816040518060600160405280603b81526020016132e4603b91396001600160a01b038616600090815260036020526040902054919063ffffffff61292516565b60036000856001600160a01b03166001600160a01b0316815260200190815260200160002081905550612b4f8160405180606001604052806035815260200161328e603591396001600160a01b038516600090815260036020526040902054919063ffffffff61301e16565b6001600160a01b0380841660008181526003602090815260409182902094909455805185815290519193928716927fddf252ad1be2c89b69c2b068fc378daa952ba7f163c4a11628f55a4df523b3ef92918290030190a3505050565b600082612bba57506000610a54565b82820282848281612bc757fe5b04146117c75760405162461bcd60e51b81526004018080602001828103825260218152602001806132c36021913960400191505060405180910390fd5b60006117c783836040518060400160405280601a81526020017f536166654d6174683a206469766973696f6e206279207a65726f00000000000081525061307c565b60408051808201909152601b81527f54696d654c6f616e733a3a5f6275726e3a20756e646572666c6f7700000000006020820152600154612c8e91839063ffffffff61292516565b600155604080518082018252601b81527f54696d654c6f616e733a3a5f6275726e3a20756e646572666c6f7700000000006020808301919091526001600160a01b038516600090815260039091529190912054612cf291839063ffffffff61292516565b6001600160a01b0383166000818152600360209081526040808320949094558351858152935191937fddf252ad1be2c89b69c2b068fc378daa952ba7f163c4a11628f55a4df523b3ef929081900390910190a35050565b60006117c783836040518060600160405280602a815260200161335e602a9139612925565b6000612d7a83836116fc565b9050612d96620186a0610d798362019a2863ffffffff612bab16565b60065490915060009081906001600160a01b0386811691161415612dbc57839150612dd5565b6007546001600160a01b0386811691161415612dd55750825b6005546040805163095ea7b360e01b8152737a250d5630b4cf539739df2c5dacb4c659f2488d60048201526024810186905290516001600160a01b039092169163095ea7b3916044808201926020929091908290030181600087803b158015612e3d57600080fd5b505af1158015612e51573d6000803e3d6000fd5b505050506040513d6020811015612e6757600080fd5b5050600654600754737a250d5630b4cf539739df2c5dacb4c659f2488d9163baa2abde916001600160a01b03918216911686868630612eae4261070863ffffffff6129bc16565b604080516001600160e01b031960e08b901b1681526001600160a01b039889166004820152968816602488015260448701959095526064860193909352608485019190915290931660a483015260c4820192909252815160e480830193928290030181600087803b158015612f2257600080fd5b505af1158015612f36573d6000803e3d6000fd5b505050506040513d6040811015612f4c57600080fd5b5050600f54612f61908463ffffffff6129bc16565b600f5550909392505050565b600154612f80908263ffffffff6129bc16565b6001556001600160a01b038216600090815260036020526040902054612fac908263ffffffff6129bc16565b6001600160a01b03831660008181526003602090815260408083209490945583518581529351929391927fddf252ad1be2c89b69c2b068fc378daa952ba7f163c4a11628f55a4df523b3ef9281900390910190a35050565b600081831061301357816117c7565b5090919050565b4690565b600083830182858210156130735760405162461bcd60e51b8152602060048201818152835160248401528351909283926044909101919085019080838360008315612979578181015183820152602001612961565b50949350505050565b600081836130cb5760405162461bcd60e51b8152602060048201818152835160248401528351909283926044909101919085019080838360008315612979578181015183820152602001612961565b5060008385816130d757fe5b049594505050505056fe54696d654c6f616e733a3a72657061793a20706f736974696f6e20697320616c726561647920636c6f73656454696d654c6f616e733a3a6c6f616e3a20696e73756666696369656e74206c697175696469747954696d654c6f616e733a3a77697468647261773a20696e73756666696369656e74206c697175696469747920746f2077697468647261772c20747279206465706f7369744c6971756964697479282954696d654c6f616e733a3a6465706f7369744c69717569646974793a206e6f7420616e20454f41206b656570657254696d654c6f616e733a3a72657061793a20706f736974696f6e20616c726561647920657870697265645065726d69742861646472657373206f776e65722c61646472657373207370656e6465722c75696e742076616c75652c75696e74206e6f6e63652c75696e7420646561646c696e6529454950373132446f6d61696e28737472696e67206e616d652c75696e7420636861696e49642c6164647265737320766572696679696e67436f6e74726163742954696d654c6f616e733a3a636c6f73653a206c6971756964697479496e557365206f766572666c6f7754696d654c6f616e733a3a5f7472616e73666572546f6b656e733a207472616e7366657220616d6f756e74206f766572666c6f7773536166654d6174683a206d756c7469706c69636174696f6e206f766572666c6f7754696d654c6f616e733a3a5f7472616e73666572546f6b656e733a207472616e7366657220616d6f756e7420657863656564732062616c616e636554696d654c6f616e733a3a5f7472616e73666572546f6b656e733a2063616e6e6f74207472616e7366657220746f20746865207a65726f206164647265737354696d654c6f616e733a3a536166654d6174683a207375627472616374696f6e20756e646572666c6f7754696d654c6f616e733a3a5f7472616e73666572546f6b656e733a2063616e6e6f74207472616e736665722066726f6d20746865207a65726f206164647265737354696d654c6f616e733a3a7472616e7366657246726f6d3a207472616e7366657220616d6f756e742065786365656473207370656e64657220616c6c6f77616e636554696d654c6f616e733a3a7065726d69743a20696e76616c6964207369676e617475726554696d654c6f616e733a3a7065726d69743a207369676e61747572652065787069726564a2646970667358221220f4782f593666cb22d8c4853b2a862b99eeefa08f62831c53e20cda053027ee9664736f6c6343000606003354696d654c6f616e50616972466163746f72793a3a6465706c6f793a207061697220616c72656164792063726561746564a2646970667358221220cf0de088eb497655a7b983217348f8e059666bb70ce1c897e9d84d1329cb710364736f6c63430006060033",
			"opcodes": "PUSH1 0x80 PUSH1 0x40 MSTORE CALLVALUE DUP1 ISZERO PUSH2 0x10 JUMPI PUSH1 0x0 DUP1 REVERT JUMPDEST POP PUSH2 0x3E14 DUP1 PUSH2 0x20 PUSH1 0x0 CODECOPY PUSH1 0x0 RETURN INVALID PUSH1 0x80 PUSH1 0x40 MSTORE CALLVALUE DUP1 ISZERO PUSH2 0x10 JUMPI PUSH1 0x0 DUP1 REVERT JUMPDEST POP PUSH1 0x4 CALLDATASIZE LT PUSH2 0x4C JUMPI PUSH1 0x0 CALLDATALOAD PUSH1 0xE0 SHR DUP1 PUSH4 0x15B40EC0 EQ PUSH2 0x51 JUMPI DUP1 PUSH4 0x4C96A389 EQ PUSH2 0x8A JUMPI DUP1 PUSH4 0xDA0321CD EQ PUSH2 0xB0 JUMPI DUP1 PUSH4 0xFE33B302 EQ PUSH2 0x108 JUMPI JUMPDEST PUSH1 0x0 DUP1 REVERT JUMPDEST PUSH2 0x6E PUSH1 0x4 DUP1 CALLDATASIZE SUB PUSH1 0x20 DUP2 LT ISZERO PUSH2 0x67 JUMPI PUSH1 0x0 DUP1 REVERT JUMPDEST POP CALLDATALOAD PUSH2 0x12E JUMP JUMPDEST PUSH1 0x40 DUP1 MLOAD PUSH1 0x1 PUSH1 0x1 PUSH1 0xA0 SHL SUB SWAP1 SWAP3 AND DUP3 MSTORE MLOAD SWAP1 DUP2 SWAP1 SUB PUSH1 0x20 ADD SWAP1 RETURN JUMPDEST PUSH2 0x6E PUSH1 0x4 DUP1 CALLDATASIZE SUB PUSH1 0x20 DUP2 LT ISZERO PUSH2 0xA0 JUMPI PUSH1 0x0 DUP1 REVERT JUMPDEST POP CALLDATALOAD PUSH1 0x1 PUSH1 0x1 PUSH1 0xA0 SHL SUB AND PUSH2 0x155 JUMP JUMPDEST PUSH2 0xB8 PUSH2 0x257 JUMP JUMPDEST PUSH1 0x40 DUP1 MLOAD PUSH1 0x20 DUP1 DUP3 MSTORE DUP4 MLOAD DUP2 DUP4 ADD MSTORE DUP4 MLOAD SWAP2 SWAP3 DUP4 SWAP3 SWAP1 DUP4 ADD SWAP2 DUP6 DUP2 ADD SWAP2 MUL DUP1 DUP4 DUP4 PUSH1 0x0 JUMPDEST DUP4 DUP2 LT ISZERO PUSH2 0xF4 JUMPI DUP2 DUP2 ADD MLOAD DUP4 DUP3 ADD MSTORE PUSH1 0x20 ADD PUSH2 0xDC JUMP JUMPDEST POP POP POP POP SWAP1 POP ADD SWAP3 POP POP POP PUSH1 0x40 MLOAD DUP1 SWAP2 SUB SWAP1 RETURN JUMPDEST PUSH2 0x6E PUSH1 0x4 DUP1 CALLDATASIZE SUB PUSH1 0x20 DUP2 LT ISZERO PUSH2 0x11E JUMPI PUSH1 0x0 DUP1 REVERT JUMPDEST POP CALLDATALOAD PUSH1 0x1 PUSH1 0x1 PUSH1 0xA0 SHL SUB AND PUSH2 0x2B9 JUMP JUMPDEST PUSH1 0x1 DUP2 DUP2 SLOAD DUP2 LT PUSH2 0x13B JUMPI INVALID JUMPDEST PUSH1 0x0 SWAP2 DUP3 MSTORE PUSH1 0x20 SWAP1 SWAP2 KECCAK256 ADD SLOAD PUSH1 0x1 PUSH1 0x1 PUSH1 0xA0 SHL SUB AND SWAP1 POP DUP2 JUMP JUMPDEST PUSH1 0x1 PUSH1 0x1 PUSH1 0xA0 SHL SUB DUP2 DUP2 AND PUSH1 0x0 SWAP1 DUP2 MSTORE PUSH1 0x20 DUP2 SWAP1 MSTORE PUSH1 0x40 DUP2 KECCAK256 SLOAD SWAP1 SWAP2 AND ISZERO PUSH2 0x1AE JUMPI PUSH1 0x40 MLOAD PUSH3 0x461BCD PUSH1 0xE5 SHL DUP2 MSTORE PUSH1 0x4 ADD DUP1 DUP1 PUSH1 0x20 ADD DUP3 DUP2 SUB DUP3 MSTORE PUSH1 0x31 DUP2 MSTORE PUSH1 0x20 ADD DUP1 PUSH2 0x3DAE PUSH1 0x31 SWAP2 CODECOPY PUSH1 0x40 ADD SWAP2 POP POP PUSH1 0x40 MLOAD DUP1 SWAP2 SUB SWAP1 REVERT JUMPDEST DUP2 PUSH1 0x40 MLOAD PUSH2 0x1BB SWAP1 PUSH2 0x2D4 JUMP JUMPDEST PUSH1 0x1 PUSH1 0x1 PUSH1 0xA0 SHL SUB SWAP1 SWAP2 AND DUP2 MSTORE PUSH1 0x40 MLOAD SWAP1 DUP2 SWAP1 SUB PUSH1 0x20 ADD SWAP1 PUSH1 0x0 CREATE DUP1 ISZERO DUP1 ISZERO PUSH2 0x1E8 JUMPI RETURNDATASIZE PUSH1 0x0 DUP1 RETURNDATACOPY RETURNDATASIZE PUSH1 0x0 REVERT JUMPDEST POP PUSH1 0x1 PUSH1 0x1 PUSH1 0xA0 SHL SUB DUP1 DUP5 AND PUSH1 0x0 DUP2 DUP2 MSTORE PUSH1 0x20 DUP2 SWAP1 MSTORE PUSH1 0x40 DUP2 KECCAK256 DUP1 SLOAD SWAP5 DUP5 AND PUSH1 0x1 PUSH1 0x1 PUSH1 0xA0 SHL SUB NOT SWAP6 DUP7 AND OR DUP2 SSTORE PUSH1 0x1 DUP1 SLOAD DUP1 DUP3 ADD SWAP1 SWAP2 SSTORE PUSH32 0xB10E2D527612073B26EECDFD717E6A320CF44B4AFAC2B0732D9FCBE2B7FA0CF6 ADD DUP1 SLOAD SWAP1 SWAP6 AND DUP4 OR SWAP1 SWAP5 SSTORE MSTORE SWAP1 SLOAD AND SWAP1 POP SWAP2 SWAP1 POP JUMP JUMPDEST PUSH1 0x60 PUSH1 0x1 DUP1 SLOAD DUP1 PUSH1 0x20 MUL PUSH1 0x20 ADD PUSH1 0x40 MLOAD SWAP1 DUP2 ADD PUSH1 0x40 MSTORE DUP1 SWAP3 SWAP2 SWAP1 DUP2 DUP2 MSTORE PUSH1 0x20 ADD DUP3 DUP1 SLOAD DUP1 ISZERO PUSH2 0x2AF JUMPI PUSH1 0x20 MUL DUP3 ADD SWAP2 SWAP1 PUSH1 0x0 MSTORE PUSH1 0x20 PUSH1 0x0 KECCAK256 SWAP1 JUMPDEST DUP2 SLOAD PUSH1 0x1 PUSH1 0x1 PUSH1 0xA0 SHL SUB AND DUP2 MSTORE PUSH1 0x1 SWAP1 SWAP2 ADD SWAP1 PUSH1 0x20 ADD DUP1 DUP4 GT PUSH2 0x291 JUMPI JUMPDEST POP POP POP POP POP SWAP1 POP SWAP1 JUMP JUMPDEST PUSH1 0x0 PUSH1 0x20 DUP2 SWAP1 MSTORE SWAP1 DUP2 MSTORE PUSH1 0x40 SWAP1 KECCAK256 SLOAD PUSH1 0x1 PUSH1 0x1 PUSH1 0xA0 SHL SUB AND DUP2 JUMP JUMPDEST PUSH2 0x3ACC DUP1 PUSH2 0x2E2 DUP4 CODECOPY ADD SWAP1 JUMP INVALID PUSH1 0x80 PUSH1 0x40 MSTORE PUSH1 0x0 PUSH1 0x1 SSTORE CALLVALUE DUP1 ISZERO PUSH3 0x16 JUMPI PUSH1 0x0 DUP1 REVERT JUMPDEST POP PUSH1 0x40 MLOAD PUSH3 0x3ACC CODESIZE SUB DUP1 PUSH3 0x3ACC DUP4 CODECOPY DUP2 DUP2 ADD PUSH1 0x40 MSTORE PUSH1 0x20 DUP2 LT ISZERO PUSH3 0x3C JUMPI PUSH1 0x0 DUP1 REVERT JUMPDEST POP MLOAD PUSH1 0x40 DUP1 MLOAD PUSH4 0xDFE1681 PUSH1 0xE0 SHL DUP2 MSTORE SWAP1 MLOAD PUSH1 0x1 PUSH1 0x1 PUSH1 0xA0 SHL SUB DUP4 AND SWAP2 PUSH4 0xDFE1681 SWAP2 PUSH1 0x4 DUP1 DUP4 ADD SWAP3 PUSH1 0x20 SWAP3 SWAP2 SWAP1 DUP3 SWAP1 SUB ADD DUP2 DUP7 DUP1 EXTCODESIZE ISZERO DUP1 ISZERO PUSH3 0x7F JUMPI PUSH1 0x0 DUP1 REVERT JUMPDEST POP GAS STATICCALL ISZERO DUP1 ISZERO PUSH3 0x94 JUMPI RETURNDATASIZE PUSH1 0x0 DUP1 RETURNDATACOPY RETURNDATASIZE PUSH1 0x0 REVERT JUMPDEST POP POP POP POP PUSH1 0x40 MLOAD RETURNDATASIZE PUSH1 0x20 DUP2 LT ISZERO PUSH3 0xAB JUMPI PUSH1 0x0 DUP1 REVERT JUMPDEST POP MLOAD PUSH1 0x40 DUP1 MLOAD PUSH4 0x95D89B41 PUSH1 0xE0 SHL DUP2 MSTORE SWAP1 MLOAD PUSH1 0x1 PUSH1 0x1 PUSH1 0xA0 SHL SUB SWAP1 SWAP3 AND SWAP2 PUSH4 0x95D89B41 SWAP2 PUSH1 0x4 DUP1 DUP3 ADD SWAP3 PUSH1 0x0 SWAP3 SWAP1 SWAP2 SWAP1 DUP3 SWAP1 SUB ADD DUP2 DUP7 DUP1 EXTCODESIZE ISZERO DUP1 ISZERO PUSH3 0xF0 JUMPI PUSH1 0x0 DUP1 REVERT JUMPDEST POP GAS STATICCALL ISZERO DUP1 ISZERO PUSH3 0x105 JUMPI RETURNDATASIZE PUSH1 0x0 DUP1 RETURNDATACOPY RETURNDATASIZE PUSH1 0x0 REVERT JUMPDEST POP POP POP POP PUSH1 0x40 MLOAD RETURNDATASIZE PUSH1 0x0 DUP3 RETURNDATACOPY PUSH1 0x1F RETURNDATASIZE SWAP1 DUP2 ADD PUSH1 0x1F NOT AND DUP3 ADD PUSH1 0x40 MSTORE PUSH1 0x20 DUP2 LT ISZERO PUSH3 0x12F JUMPI PUSH1 0x0 DUP1 REVERT JUMPDEST DUP2 ADD SWAP1 DUP1 DUP1 MLOAD PUSH1 0x40 MLOAD SWAP4 SWAP3 SWAP2 SWAP1 DUP5 PUSH5 0x100000000 DUP3 GT ISZERO PUSH3 0x150 JUMPI PUSH1 0x0 DUP1 REVERT JUMPDEST SWAP1 DUP4 ADD SWAP1 PUSH1 0x20 DUP3 ADD DUP6 DUP2 GT ISZERO PUSH3 0x166 JUMPI PUSH1 0x0 DUP1 REVERT JUMPDEST DUP3 MLOAD PUSH5 0x100000000 DUP2 GT DUP3 DUP3 ADD DUP9 LT OR ISZERO PUSH3 0x181 JUMPI PUSH1 0x0 DUP1 REVERT JUMPDEST DUP3 MSTORE POP DUP2 MLOAD PUSH1 0x20 SWAP2 DUP3 ADD SWAP3 SWAP1 SWAP2 ADD SWAP1 DUP1 DUP4 DUP4 PUSH1 0x0 JUMPDEST DUP4 DUP2 LT ISZERO PUSH3 0x1B0 JUMPI DUP2 DUP2 ADD MLOAD DUP4 DUP3 ADD MSTORE PUSH1 0x20 ADD PUSH3 0x196 JUMP JUMPDEST POP POP POP POP SWAP1 POP SWAP1 DUP2 ADD SWAP1 PUSH1 0x1F AND DUP1 ISZERO PUSH3 0x1DE JUMPI DUP1 DUP3 SUB DUP1 MLOAD PUSH1 0x1 DUP4 PUSH1 0x20 SUB PUSH2 0x100 EXP SUB NOT AND DUP2 MSTORE PUSH1 0x20 ADD SWAP2 POP JUMPDEST POP PUSH1 0x40 MSTORE POP POP POP DUP2 PUSH1 0x1 PUSH1 0x1 PUSH1 0xA0 SHL SUB AND PUSH4 0xD21220A7 PUSH1 0x40 MLOAD DUP2 PUSH4 0xFFFFFFFF AND PUSH1 0xE0 SHL DUP2 MSTORE PUSH1 0x4 ADD PUSH1 0x20 PUSH1 0x40 MLOAD DUP1 DUP4 SUB DUP2 DUP7 DUP1 EXTCODESIZE ISZERO DUP1 ISZERO PUSH3 0x21F JUMPI PUSH1 0x0 DUP1 REVERT JUMPDEST POP GAS STATICCALL ISZERO DUP1 ISZERO PUSH3 0x234 JUMPI RETURNDATASIZE PUSH1 0x0 DUP1 RETURNDATACOPY RETURNDATASIZE PUSH1 0x0 REVERT JUMPDEST POP POP POP POP PUSH1 0x40 MLOAD RETURNDATASIZE PUSH1 0x20 DUP2 LT ISZERO PUSH3 0x24B JUMPI PUSH1 0x0 DUP1 REVERT JUMPDEST POP MLOAD PUSH1 0x40 DUP1 MLOAD PUSH4 0x95D89B41 PUSH1 0xE0 SHL DUP2 MSTORE SWAP1 MLOAD PUSH1 0x1 PUSH1 0x1 PUSH1 0xA0 SHL SUB SWAP1 SWAP3 AND SWAP2 PUSH4 0x95D89B41 SWAP2 PUSH1 0x4 DUP1 DUP3 ADD SWAP3 PUSH1 0x0 SWAP3 SWAP1 SWAP2 SWAP1 DUP3 SWAP1 SUB ADD DUP2 DUP7 DUP1 EXTCODESIZE ISZERO DUP1 ISZERO PUSH3 0x290 JUMPI PUSH1 0x0 DUP1 REVERT JUMPDEST POP GAS STATICCALL ISZERO DUP1 ISZERO PUSH3 0x2A5 JUMPI RETURNDATASIZE PUSH1 0x0 DUP1 RETURNDATACOPY RETURNDATASIZE PUSH1 0x0 REVERT JUMPDEST POP POP POP POP PUSH1 0x40 MLOAD RETURNDATASIZE PUSH1 0x0 DUP3 RETURNDATACOPY PUSH1 0x1F RETURNDATASIZE SWAP1 DUP2 ADD PUSH1 0x1F NOT AND DUP3 ADD PUSH1 0x40 MSTORE PUSH1 0x20 DUP2 LT ISZERO PUSH3 0x2CF JUMPI PUSH1 0x0 DUP1 REVERT JUMPDEST DUP2 ADD SWAP1 DUP1 DUP1 MLOAD PUSH1 0x40 MLOAD SWAP4 SWAP3 SWAP2 SWAP1 DUP5 PUSH5 0x100000000 DUP3 GT ISZERO PUSH3 0x2F0 JUMPI PUSH1 0x0 DUP1 REVERT JUMPDEST SWAP1 DUP4 ADD SWAP1 PUSH1 0x20 DUP3 ADD DUP6 DUP2 GT ISZERO PUSH3 0x306 JUMPI PUSH1 0x0 DUP1 REVERT JUMPDEST DUP3 MLOAD PUSH5 0x100000000 DUP2 GT DUP3 DUP3 ADD DUP9 LT OR ISZERO PUSH3 0x321 JUMPI PUSH1 0x0 DUP1 REVERT JUMPDEST DUP3 MSTORE POP DUP2 MLOAD PUSH1 0x20 SWAP2 DUP3 ADD SWAP3 SWAP1 SWAP2 ADD SWAP1 DUP1 DUP4 DUP4 PUSH1 0x0 JUMPDEST DUP4 DUP2 LT ISZERO PUSH3 0x350 JUMPI DUP2 DUP2 ADD MLOAD DUP4 DUP3 ADD MSTORE PUSH1 0x20 ADD PUSH3 0x336 JUMP JUMPDEST POP POP POP POP SWAP1 POP SWAP1 DUP2 ADD SWAP1 PUSH1 0x1F AND DUP1 ISZERO PUSH3 0x37E JUMPI DUP1 DUP3 SUB DUP1 MLOAD PUSH1 0x1 DUP4 PUSH1 0x20 SUB PUSH2 0x100 EXP SUB NOT AND DUP2 MSTORE PUSH1 0x20 ADD SWAP2 POP JUMPDEST POP PUSH1 0x40 MSTORE POP POP POP PUSH1 0x40 MLOAD PUSH1 0x20 ADD DUP1 DUP4 DUP1 MLOAD SWAP1 PUSH1 0x20 ADD SWAP1 DUP1 DUP4 DUP4 JUMPDEST PUSH1 0x20 DUP4 LT PUSH3 0x3B9 JUMPI DUP1 MLOAD DUP3 MSTORE PUSH1 0x1F NOT SWAP1 SWAP3 ADD SWAP2 PUSH1 0x20 SWAP2 DUP3 ADD SWAP2 ADD PUSH3 0x398 JUMP JUMPDEST PUSH1 0x1 DUP4 PUSH1 0x20 SUB PUSH2 0x100 EXP SUB DUP1 NOT DUP3 MLOAD AND DUP2 DUP5 MLOAD AND DUP1 DUP3 OR DUP6 MSTORE POP POP POP POP POP POP SWAP1 POP ADD DUP1 PUSH1 0x2D PUSH1 0xF8 SHL DUP2 MSTORE POP PUSH1 0x1 ADD DUP3 DUP1 MLOAD SWAP1 PUSH1 0x20 ADD SWAP1 DUP1 DUP4 DUP4 JUMPDEST PUSH1 0x20 DUP4 LT PUSH3 0x414 JUMPI DUP1 MLOAD DUP3 MSTORE PUSH1 0x1F NOT SWAP1 SWAP3 ADD SWAP2 PUSH1 0x20 SWAP2 DUP3 ADD SWAP2 ADD PUSH3 0x3F3 JUMP JUMPDEST PUSH1 0x1 DUP4 PUSH1 0x20 SUB PUSH2 0x100 EXP SUB DUP1 NOT DUP3 MLOAD AND DUP2 DUP5 MLOAD AND DUP1 DUP3 OR DUP6 MSTORE POP POP POP POP POP POP SWAP1 POP ADD SWAP3 POP POP POP PUSH1 0x40 MLOAD PUSH1 0x20 DUP2 DUP4 SUB SUB DUP2 MSTORE SWAP1 PUSH1 0x40 MSTORE PUSH1 0x0 SWAP1 DUP1 MLOAD SWAP1 PUSH1 0x20 ADD SWAP1 PUSH3 0x460 SWAP3 SWAP2 SWAP1 PUSH3 0x58F JUMP JUMPDEST POP PUSH1 0x5 DUP1 SLOAD PUSH1 0x1 PUSH1 0x1 PUSH1 0xA0 SHL SUB NOT AND PUSH1 0x1 PUSH1 0x1 PUSH1 0xA0 SHL SUB DUP4 AND SWAP1 DUP2 OR SWAP1 SWAP2 SSTORE PUSH1 0x40 DUP1 MLOAD PUSH4 0xDFE1681 PUSH1 0xE0 SHL DUP2 MSTORE SWAP1 MLOAD PUSH4 0xDFE1681 SWAP2 PUSH1 0x4 DUP1 DUP3 ADD SWAP3 PUSH1 0x20 SWAP3 SWAP1 SWAP2 SWAP1 DUP3 SWAP1 SUB ADD DUP2 DUP7 DUP1 EXTCODESIZE ISZERO DUP1 ISZERO PUSH3 0x4B6 JUMPI PUSH1 0x0 DUP1 REVERT JUMPDEST POP GAS STATICCALL ISZERO DUP1 ISZERO PUSH3 0x4CB JUMPI RETURNDATASIZE PUSH1 0x0 DUP1 RETURNDATACOPY RETURNDATASIZE PUSH1 0x0 REVERT JUMPDEST POP POP POP POP PUSH1 0x40 MLOAD RETURNDATASIZE PUSH1 0x20 DUP2 LT ISZERO PUSH3 0x4E2 JUMPI PUSH1 0x0 DUP1 REVERT JUMPDEST POP MLOAD PUSH1 0x6 DUP1 SLOAD PUSH1 0x1 PUSH1 0x1 PUSH1 0xA0 SHL SUB NOT AND PUSH1 0x1 PUSH1 0x1 PUSH1 0xA0 SHL SUB SWAP3 DUP4 AND OR SWAP1 SSTORE PUSH1 0x40 DUP1 MLOAD PUSH4 0xD21220A7 PUSH1 0xE0 SHL DUP2 MSTORE SWAP1 MLOAD SWAP2 DUP4 AND SWAP2 PUSH4 0xD21220A7 SWAP2 PUSH1 0x4 DUP1 DUP3 ADD SWAP3 PUSH1 0x20 SWAP3 SWAP1 SWAP2 SWAP1 DUP3 SWAP1 SUB ADD DUP2 DUP7 DUP1 EXTCODESIZE ISZERO DUP1 ISZERO PUSH3 0x53B JUMPI PUSH1 0x0 DUP1 REVERT JUMPDEST POP GAS STATICCALL ISZERO DUP1 ISZERO PUSH3 0x550 JUMPI RETURNDATASIZE PUSH1 0x0 DUP1 RETURNDATACOPY RETURNDATASIZE PUSH1 0x0 REVERT JUMPDEST POP POP POP POP PUSH1 0x40 MLOAD RETURNDATASIZE PUSH1 0x20 DUP2 LT ISZERO PUSH3 0x567 JUMPI PUSH1 0x0 DUP1 REVERT JUMPDEST POP MLOAD PUSH1 0x7 DUP1 SLOAD PUSH1 0x1 PUSH1 0x1 PUSH1 0xA0 SHL SUB NOT AND PUSH1 0x1 PUSH1 0x1 PUSH1 0xA0 SHL SUB SWAP1 SWAP3 AND SWAP2 SWAP1 SWAP2 OR SWAP1 SSTORE POP PUSH3 0x634 JUMP JUMPDEST DUP3 DUP1 SLOAD PUSH1 0x1 DUP2 PUSH1 0x1 AND ISZERO PUSH2 0x100 MUL SUB AND PUSH1 0x2 SWAP1 DIV SWAP1 PUSH1 0x0 MSTORE PUSH1 0x20 PUSH1 0x0 KECCAK256 SWAP1 PUSH1 0x1F ADD PUSH1 0x20 SWAP1 DIV DUP2 ADD SWAP3 DUP3 PUSH1 0x1F LT PUSH3 0x5D2 JUMPI DUP1 MLOAD PUSH1 0xFF NOT AND DUP4 DUP1 ADD OR DUP6 SSTORE PUSH3 0x602 JUMP JUMPDEST DUP3 DUP1 ADD PUSH1 0x1 ADD DUP6 SSTORE DUP3 ISZERO PUSH3 0x602 JUMPI SWAP2 DUP3 ADD JUMPDEST DUP3 DUP2 GT ISZERO PUSH3 0x602 JUMPI DUP3 MLOAD DUP3 SSTORE SWAP2 PUSH1 0x20 ADD SWAP2 SWAP1 PUSH1 0x1 ADD SWAP1 PUSH3 0x5E5 JUMP JUMPDEST POP PUSH3 0x610 SWAP3 SWAP2 POP PUSH3 0x614 JUMP JUMPDEST POP SWAP1 JUMP JUMPDEST PUSH3 0x631 SWAP2 SWAP1 JUMPDEST DUP1 DUP3 GT ISZERO PUSH3 0x610 JUMPI PUSH1 0x0 DUP2 SSTORE PUSH1 0x1 ADD PUSH3 0x61B JUMP JUMPDEST SWAP1 JUMP JUMPDEST PUSH2 0x3488 DUP1 PUSH3 0x644 PUSH1 0x0 CODECOPY PUSH1 0x0 RETURN INVALID PUSH1 0x80 PUSH1 0x40 MSTORE CALLVALUE DUP1 ISZERO PUSH2 0x10 JUMPI PUSH1 0x0 DUP1 REVERT JUMPDEST POP PUSH1 0x4 CALLDATASIZE LT PUSH2 0x2D6 JUMPI PUSH1 0x0 CALLDATALOAD PUSH1 0xE0 SHR DUP1 PUSH4 0x916E481E GT PUSH2 0x182 JUMPI DUP1 PUSH4 0xBE293168 GT PUSH2 0xE9 JUMPI DUP1 PUSH4 0xD66639B9 GT PUSH2 0xA2 JUMPI DUP1 PUSH4 0xDE5F6268 GT PUSH2 0x7C JUMPI DUP1 PUSH4 0xDE5F6268 EQ PUSH2 0x857 JUMPI DUP1 PUSH4 0xEC342AD0 EQ PUSH2 0x85F JUMPI DUP1 PUSH4 0xFC7E9C6F EQ PUSH2 0x867 JUMPI DUP1 PUSH4 0xFDDA918E EQ PUSH2 0x86F JUMPI PUSH2 0x2D6 JUMP JUMPDEST DUP1 PUSH4 0xD66639B9 EQ PUSH2 0x7EB JUMPI DUP1 PUSH4 0xD9443923 EQ PUSH2 0x821 JUMPI DUP1 PUSH4 0xDD62ED3E EQ PUSH2 0x829 JUMPI PUSH2 0x2D6 JUMP JUMPDEST DUP1 PUSH4 0xBE293168 EQ PUSH2 0x742 JUMPI DUP1 PUSH4 0xC3926A29 EQ PUSH2 0x778 JUMPI DUP1 PUSH4 0xC57981B5 EQ PUSH2 0x780 JUMPI DUP1 PUSH4 0xCA593C59 EQ PUSH2 0x788 JUMPI DUP1 PUSH4 0xD21220A7 EQ PUSH2 0x792 JUMPI DUP1 PUSH4 0xD505ACCF EQ PUSH2 0x79A JUMPI PUSH2 0x2D6 JUMP JUMPDEST DUP1 PUSH4 0xA8AA1B31 GT PUSH2 0x13B JUMPI DUP1 PUSH4 0xA8AA1B31 EQ PUSH2 0x677 JUMPI DUP1 PUSH4 0xA9059CBB EQ PUSH2 0x67F JUMPI DUP1 PUSH4 0xA95FE267 EQ PUSH2 0x6AB JUMPI DUP1 PUSH4 0xB6466384 EQ PUSH2 0x6E7 JUMPI DUP1 PUSH4 0xB6641DBD EQ PUSH2 0x71D JUMPI DUP1 PUSH4 0xB6B55F25 EQ PUSH2 0x725 JUMPI PUSH2 0x2D6 JUMP JUMPDEST DUP1 PUSH4 0x916E481E EQ PUSH2 0x57F JUMPI DUP1 PUSH4 0x95D89B41 EQ PUSH2 0x587 JUMPI DUP1 PUSH4 0x9883FD42 EQ PUSH2 0x58F JUMPI DUP1 PUSH4 0x98C61C37 EQ PUSH2 0x5AC JUMPI DUP1 PUSH4 0x99FBAB88 EQ PUSH2 0x5D8 JUMPI DUP1 PUSH4 0xA7B80EB2 EQ PUSH2 0x64B JUMPI PUSH2 0x2D6 JUMP JUMPDEST DUP1 PUSH4 0x313CE567 GT PUSH2 0x241 JUMPI DUP1 PUSH4 0x60B4D59F GT PUSH2 0x1FA JUMPI DUP1 PUSH4 0x70A08231 GT PUSH2 0x1D4 JUMPI DUP1 PUSH4 0x70A08231 EQ PUSH2 0x523 JUMPI DUP1 PUSH4 0x7ECEBE00 EQ PUSH2 0x549 JUMPI DUP1 PUSH4 0x853828B6 EQ PUSH2 0x56F JUMPI DUP1 PUSH4 0x8FBC3ECD EQ PUSH2 0x577 JUMPI PUSH2 0x2D6 JUMP JUMPDEST DUP1 PUSH4 0x60B4D59F EQ PUSH2 0x50B JUMPI DUP1 PUSH4 0x62965D8E EQ PUSH2 0x513 JUMPI DUP1 PUSH4 0x69B41170 EQ PUSH2 0x51B JUMPI PUSH2 0x2D6 JUMP JUMPDEST DUP1 PUSH4 0x313CE567 EQ PUSH2 0x492 JUMPI DUP1 PUSH4 0x371FD8E6 EQ PUSH2 0x4B0 JUMPI DUP1 PUSH4 0x38013F02 EQ PUSH2 0x4CD JUMPI DUP1 PUSH4 0x3C4750DF EQ PUSH2 0x4D5 JUMPI DUP1 PUSH4 0x4870827D EQ PUSH2 0x4FB JUMPI DUP1 PUSH4 0x541BCB76 EQ PUSH2 0x503 JUMPI PUSH2 0x2D6 JUMP JUMPDEST DUP1 PUSH4 0xDFE1681 GT PUSH2 0x293 JUMPI DUP1 PUSH4 0xDFE1681 EQ PUSH2 0x403 JUMPI DUP1 PUSH4 0x18160DDD EQ PUSH2 0x427 JUMPI DUP1 PUSH4 0x20606B70 EQ PUSH2 0x42F JUMPI DUP1 PUSH4 0x23B872DD EQ PUSH2 0x437 JUMPI DUP1 PUSH4 0x2E1A7D4D EQ PUSH2 0x46D JUMPI DUP1 PUSH4 0x30ADF81F EQ PUSH2 0x48A JUMPI PUSH2 0x2D6 JUMP JUMPDEST DUP1 PUSH4 0x499D1AC EQ PUSH2 0x2DB JUMPI DUP1 PUSH4 0x6FDDE03 EQ PUSH2 0x2F5 JUMPI DUP1 PUSH4 0x7FA901A EQ PUSH2 0x372 JUMPI DUP1 PUSH4 0x95EA7B3 EQ PUSH2 0x39E JUMPI DUP1 PUSH4 0xAEBEB4E EQ PUSH2 0x3DE JUMPI DUP1 PUSH4 0xD6B6841 EQ PUSH2 0x3FB JUMPI JUMPDEST PUSH1 0x0 DUP1 REVERT JUMPDEST PUSH2 0x2E3 PUSH2 0x877 JUMP JUMPDEST PUSH1 0x40 DUP1 MLOAD SWAP2 DUP3 MSTORE MLOAD SWAP1 DUP2 SWAP1 SUB PUSH1 0x20 ADD SWAP1 RETURN JUMPDEST PUSH2 0x2FD PUSH2 0x87D JUMP JUMPDEST PUSH1 0x40 DUP1 MLOAD PUSH1 0x20 DUP1 DUP3 MSTORE DUP4 MLOAD DUP2 DUP4 ADD MSTORE DUP4 MLOAD SWAP2 SWAP3 DUP4 SWAP3 SWAP1 DUP4 ADD SWAP2 DUP6 ADD SWAP1 DUP1 DUP4 DUP4 PUSH1 0x0 JUMPDEST DUP4 DUP2 LT ISZERO PUSH2 0x337 JUMPI DUP2 DUP2 ADD MLOAD DUP4 DUP3 ADD MSTORE PUSH1 0x20 ADD PUSH2 0x31F JUMP JUMPDEST POP POP POP POP SWAP1 POP SWAP1 DUP2 ADD SWAP1 PUSH1 0x1F AND DUP1 ISZERO PUSH2 0x364 JUMPI DUP1 DUP3 SUB DUP1 MLOAD PUSH1 0x1 DUP4 PUSH1 0x20 SUB PUSH2 0x100 EXP SUB NOT AND DUP2 MSTORE PUSH1 0x20 ADD SWAP2 POP JUMPDEST POP SWAP3 POP POP POP PUSH1 0x40 MLOAD DUP1 SWAP2 SUB SWAP1 RETURN JUMPDEST PUSH2 0x2E3 PUSH1 0x4 DUP1 CALLDATASIZE SUB PUSH1 0x40 DUP2 LT ISZERO PUSH2 0x388 JUMPI PUSH1 0x0 DUP1 REVERT JUMPDEST POP PUSH1 0x1 PUSH1 0x1 PUSH1 0xA0 SHL SUB DUP2 CALLDATALOAD AND SWAP1 PUSH1 0x20 ADD CALLDATALOAD PUSH2 0x8AA JUMP JUMPDEST PUSH2 0x3CA PUSH1 0x4 DUP1 CALLDATASIZE SUB PUSH1 0x40 DUP2 LT ISZERO PUSH2 0x3B4 JUMPI PUSH1 0x0 DUP1 REVERT JUMPDEST POP PUSH1 0x1 PUSH1 0x1 PUSH1 0xA0 SHL SUB DUP2 CALLDATALOAD AND SWAP1 PUSH1 0x20 ADD CALLDATALOAD PUSH2 0xA5A JUMP JUMPDEST PUSH1 0x40 DUP1 MLOAD SWAP2 ISZERO ISZERO DUP3 MSTORE MLOAD SWAP1 DUP2 SWAP1 SUB PUSH1 0x20 ADD SWAP1 RETURN JUMPDEST PUSH2 0x3CA PUSH1 0x4 DUP1 CALLDATASIZE SUB PUSH1 0x20 DUP2 LT ISZERO PUSH2 0x3F4 JUMPI PUSH1 0x0 DUP1 REVERT JUMPDEST POP CALLDATALOAD PUSH2 0xAC0 JUMP JUMPDEST PUSH2 0x2E3 PUSH2 0xC12 JUMP JUMPDEST PUSH2 0x40B PUSH2 0xC3F JUMP JUMPDEST PUSH1 0x40 DUP1 MLOAD PUSH1 0x1 PUSH1 0x1 PUSH1 0xA0 SHL SUB SWAP1 SWAP3 AND DUP3 MSTORE MLOAD SWAP1 DUP2 SWAP1 SUB PUSH1 0x20 ADD SWAP1 RETURN JUMPDEST PUSH2 0x2E3 PUSH2 0xC4E JUMP JUMPDEST PUSH2 0x2E3 PUSH2 0xC54 JUMP JUMPDEST PUSH2 0x3CA PUSH1 0x4 DUP1 CALLDATASIZE SUB PUSH1 0x60 DUP2 LT ISZERO PUSH2 0x44D JUMPI PUSH1 0x0 DUP1 REVERT JUMPDEST POP PUSH1 0x1 PUSH1 0x1 PUSH1 0xA0 SHL SUB DUP2 CALLDATALOAD DUP2 AND SWAP2 PUSH1 0x20 DUP2 ADD CALLDATALOAD SWAP1 SWAP2 AND SWAP1 PUSH1 0x40 ADD CALLDATALOAD PUSH2 0xC70 JUMP JUMPDEST PUSH2 0x3CA PUSH1 0x4 DUP1 CALLDATASIZE SUB PUSH1 0x20 DUP2 LT ISZERO PUSH2 0x483 JUMPI PUSH1 0x0 DUP1 REVERT JUMPDEST POP CALLDATALOAD PUSH2 0xD58 JUMP JUMPDEST PUSH2 0x2E3 PUSH2 0xF2B JUMP JUMPDEST PUSH2 0x49A PUSH2 0xF46 JUMP JUMPDEST PUSH1 0x40 DUP1 MLOAD PUSH1 0xFF SWAP1 SWAP3 AND DUP3 MSTORE MLOAD SWAP1 DUP2 SWAP1 SUB PUSH1 0x20 ADD SWAP1 RETURN JUMPDEST PUSH2 0x3CA PUSH1 0x4 DUP1 CALLDATASIZE SUB PUSH1 0x20 DUP2 LT ISZERO PUSH2 0x4C6 JUMPI PUSH1 0x0 DUP1 REVERT JUMPDEST POP CALLDATALOAD PUSH2 0xF4B JUMP JUMPDEST PUSH2 0x40B PUSH2 0x130B JUMP JUMPDEST PUSH2 0x2E3 PUSH1 0x4 DUP1 CALLDATASIZE SUB PUSH1 0x20 DUP2 LT ISZERO PUSH2 0x4EB JUMPI PUSH1 0x0 DUP1 REVERT JUMPDEST POP CALLDATALOAD PUSH1 0x1 PUSH1 0x1 PUSH1 0xA0 SHL SUB AND PUSH2 0x1323 JUMP JUMPDEST PUSH2 0x2E3 PUSH2 0x1520 JUMP JUMPDEST PUSH2 0x40B PUSH2 0x1526 JUMP JUMPDEST PUSH2 0x2E3 PUSH2 0x153E JUMP JUMPDEST PUSH2 0x2E3 PUSH2 0x1544 JUMP JUMPDEST PUSH2 0x2E3 PUSH2 0x154B JUMP JUMPDEST PUSH2 0x2E3 PUSH1 0x4 DUP1 CALLDATASIZE SUB PUSH1 0x20 DUP2 LT ISZERO PUSH2 0x539 JUMPI PUSH1 0x0 DUP1 REVERT JUMPDEST POP CALLDATALOAD PUSH1 0x1 PUSH1 0x1 PUSH1 0xA0 SHL SUB AND PUSH2 0x1551 JUMP JUMPDEST PUSH2 0x2E3 PUSH1 0x4 DUP1 CALLDATASIZE SUB PUSH1 0x20 DUP2 LT ISZERO PUSH2 0x55F JUMPI PUSH1 0x0 DUP1 REVERT JUMPDEST POP CALLDATALOAD PUSH1 0x1 PUSH1 0x1 PUSH1 0xA0 SHL SUB AND PUSH2 0x156C JUMP JUMPDEST PUSH2 0x3CA PUSH2 0x157E JUMP JUMPDEST PUSH2 0x2E3 PUSH2 0x159C JUMP JUMPDEST PUSH2 0x2E3 PUSH2 0x15A3 JUMP JUMPDEST PUSH2 0x2FD PUSH2 0x15A9 JUMP JUMPDEST PUSH2 0x2E3 PUSH1 0x4 DUP1 CALLDATASIZE SUB PUSH1 0x20 DUP2 LT ISZERO PUSH2 0x5A5 JUMPI PUSH1 0x0 DUP1 REVERT JUMPDEST POP CALLDATALOAD PUSH2 0x1637 JUMP JUMPDEST PUSH2 0x2E3 PUSH1 0x4 DUP1 CALLDATASIZE SUB PUSH1 0x40 DUP2 LT ISZERO PUSH2 0x5C2 JUMPI PUSH1 0x0 DUP1 REVERT JUMPDEST POP PUSH1 0x1 PUSH1 0x1 PUSH1 0xA0 SHL SUB DUP2 CALLDATALOAD AND SWAP1 PUSH1 0x20 ADD CALLDATALOAD PUSH2 0x1663 JUMP JUMPDEST PUSH2 0x5F5 PUSH1 0x4 DUP1 CALLDATASIZE SUB PUSH1 0x20 DUP2 LT ISZERO PUSH2 0x5EE JUMPI PUSH1 0x0 DUP1 REVERT JUMPDEST POP CALLDATALOAD PUSH2 0x1691 JUMP JUMPDEST PUSH1 0x40 DUP1 MLOAD PUSH1 0x1 PUSH1 0x1 PUSH1 0xA0 SHL SUB SWAP11 DUP12 AND DUP2 MSTORE SWAP9 DUP11 AND PUSH1 0x20 DUP11 ADD MSTORE SWAP7 SWAP1 SWAP9 AND DUP8 DUP8 ADD MSTORE PUSH1 0x60 DUP8 ADD SWAP5 SWAP1 SWAP5 MSTORE PUSH1 0x80 DUP7 ADD SWAP3 SWAP1 SWAP3 MSTORE PUSH1 0xA0 DUP6 ADD MSTORE PUSH1 0xC0 DUP5 ADD MSTORE PUSH1 0xE0 DUP4 ADD MSTORE SWAP2 ISZERO ISZERO PUSH2 0x100 DUP3 ADD MSTORE SWAP1 MLOAD SWAP1 DUP2 SWAP1 SUB PUSH2 0x120 ADD SWAP1 RETURN JUMPDEST PUSH2 0x2E3 PUSH1 0x4 DUP1 CALLDATASIZE SUB PUSH1 0x40 DUP2 LT ISZERO PUSH2 0x661 JUMPI PUSH1 0x0 DUP1 REVERT JUMPDEST POP PUSH1 0x1 PUSH1 0x1 PUSH1 0xA0 SHL SUB DUP2 CALLDATALOAD AND SWAP1 PUSH1 0x20 ADD CALLDATALOAD PUSH2 0x16FC JUMP JUMPDEST PUSH2 0x40B PUSH2 0x17CE JUMP JUMPDEST PUSH2 0x3CA PUSH1 0x4 DUP1 CALLDATASIZE SUB PUSH1 0x40 DUP2 LT ISZERO PUSH2 0x695 JUMPI PUSH1 0x0 DUP1 REVERT JUMPDEST POP PUSH1 0x1 PUSH1 0x1 PUSH1 0xA0 SHL SUB DUP2 CALLDATALOAD AND SWAP1 PUSH1 0x20 ADD CALLDATALOAD PUSH2 0x17DD JUMP JUMPDEST PUSH2 0x2E3 PUSH1 0x4 DUP1 CALLDATASIZE SUB PUSH1 0x80 DUP2 LT ISZERO PUSH2 0x6C1 JUMPI PUSH1 0x0 DUP1 REVERT JUMPDEST POP PUSH1 0x1 PUSH1 0x1 PUSH1 0xA0 SHL SUB DUP2 CALLDATALOAD DUP2 AND SWAP2 PUSH1 0x20 DUP2 ADD CALLDATALOAD SWAP1 SWAP2 AND SWAP1 PUSH1 0x40 DUP2 ADD CALLDATALOAD SWAP1 PUSH1 0x60 ADD CALLDATALOAD PUSH2 0x17F3 JUMP JUMPDEST PUSH2 0x2E3 PUSH1 0x4 DUP1 CALLDATASIZE SUB PUSH1 0x60 DUP2 LT ISZERO PUSH2 0x6FD JUMPI PUSH1 0x0 DUP1 REVERT JUMPDEST POP PUSH1 0x1 PUSH1 0x1 PUSH1 0xA0 SHL SUB DUP2 CALLDATALOAD DUP2 AND SWAP2 PUSH1 0x20 DUP2 ADD CALLDATALOAD SWAP1 SWAP2 AND SWAP1 PUSH1 0x40 ADD CALLDATALOAD PUSH2 0x1E07 JUMP JUMPDEST PUSH2 0x2E3 PUSH2 0x1E52 JUMP JUMPDEST PUSH2 0x3CA PUSH1 0x4 DUP1 CALLDATASIZE SUB PUSH1 0x20 DUP2 LT ISZERO PUSH2 0x73B JUMPI PUSH1 0x0 DUP1 REVERT JUMPDEST POP CALLDATALOAD PUSH2 0x1E58 JUMP JUMPDEST PUSH2 0x2E3 PUSH1 0x4 DUP1 CALLDATASIZE SUB PUSH1 0x60 DUP2 LT ISZERO PUSH2 0x758 JUMPI PUSH1 0x0 DUP1 REVERT JUMPDEST POP PUSH1 0x1 PUSH1 0x1 PUSH1 0xA0 SHL SUB DUP2 CALLDATALOAD DUP2 AND SWAP2 PUSH1 0x20 DUP2 ADD CALLDATALOAD SWAP1 SWAP2 AND SWAP1 PUSH1 0x40 ADD CALLDATALOAD PUSH2 0x1F87 JUMP JUMPDEST PUSH2 0x2E3 PUSH2 0x1FB9 JUMP JUMPDEST PUSH2 0x2E3 PUSH2 0x2002 JUMP JUMPDEST PUSH2 0x790 PUSH2 0x2008 JUMP JUMPDEST STOP JUMPDEST PUSH2 0x40B PUSH2 0x2478 JUMP JUMPDEST PUSH2 0x790 PUSH1 0x4 DUP1 CALLDATASIZE SUB PUSH1 0xE0 DUP2 LT ISZERO PUSH2 0x7B0 JUMPI PUSH1 0x0 DUP1 REVERT JUMPDEST POP PUSH1 0x1 PUSH1 0x1 PUSH1 0xA0 SHL SUB DUP2 CALLDATALOAD DUP2 AND SWAP2 PUSH1 0x20 DUP2 ADD CALLDATALOAD SWAP1 SWAP2 AND SWAP1 PUSH1 0x40 DUP2 ADD CALLDATALOAD SWAP1 PUSH1 0x60 DUP2 ADD CALLDATALOAD SWAP1 PUSH1 0xFF PUSH1 0x80 DUP3 ADD CALLDATALOAD AND SWAP1 PUSH1 0xA0 DUP2 ADD CALLDATALOAD SWAP1 PUSH1 0xC0 ADD CALLDATALOAD PUSH2 0x2487 JUMP JUMPDEST PUSH2 0x2E3 PUSH1 0x4 DUP1 CALLDATASIZE SUB PUSH1 0x60 DUP2 LT ISZERO PUSH2 0x801 JUMPI PUSH1 0x0 DUP1 REVERT JUMPDEST POP PUSH1 0x1 PUSH1 0x1 PUSH1 0xA0 SHL SUB DUP2 CALLDATALOAD DUP2 AND SWAP2 PUSH1 0x20 DUP2 ADD CALLDATALOAD SWAP1 SWAP2 AND SWAP1 PUSH1 0x40 ADD CALLDATALOAD PUSH2 0x27BD JUMP JUMPDEST PUSH2 0x2E3 PUSH2 0x285E JUMP JUMPDEST PUSH2 0x2E3 PUSH1 0x4 DUP1 CALLDATASIZE SUB PUSH1 0x40 DUP2 LT ISZERO PUSH2 0x83F JUMPI PUSH1 0x0 DUP1 REVERT JUMPDEST POP PUSH1 0x1 PUSH1 0x1 PUSH1 0xA0 SHL SUB DUP2 CALLDATALOAD DUP2 AND SWAP2 PUSH1 0x20 ADD CALLDATALOAD AND PUSH2 0x2864 JUMP JUMPDEST PUSH2 0x3CA PUSH2 0x288F JUMP JUMPDEST PUSH2 0x2E3 PUSH2 0x2912 JUMP JUMPDEST PUSH2 0x2E3 PUSH2 0x2919 JUMP JUMPDEST PUSH2 0x2E3 PUSH2 0x291F JUMP JUMPDEST PUSH1 0x11 SLOAD DUP2 JUMP JUMPDEST PUSH1 0x40 MLOAD DUP1 PUSH1 0x40 ADD PUSH1 0x40 MSTORE DUP1 PUSH1 0x11 DUP2 MSTORE PUSH1 0x20 ADD PUSH17 0x54696D65204C6F616E2050616972204C5 PUSH1 0x7C SHL DUP2 MSTORE POP DUP2 JUMP JUMPDEST PUSH1 0x0 DUP1 PUSH1 0x0 PUSH1 0x5 PUSH1 0x0 SWAP1 SLOAD SWAP1 PUSH2 0x100 EXP SWAP1 DIV PUSH1 0x1 PUSH1 0x1 PUSH1 0xA0 SHL SUB AND PUSH1 0x1 PUSH1 0x1 PUSH1 0xA0 SHL SUB AND PUSH4 0x902F1AC PUSH1 0x40 MLOAD DUP2 PUSH4 0xFFFFFFFF AND PUSH1 0xE0 SHL DUP2 MSTORE PUSH1 0x4 ADD PUSH1 0x60 PUSH1 0x40 MLOAD DUP1 DUP4 SUB DUP2 DUP7 DUP1 EXTCODESIZE ISZERO DUP1 ISZERO PUSH2 0x8FD JUMPI PUSH1 0x0 DUP1 REVERT JUMPDEST POP GAS STATICCALL ISZERO DUP1 ISZERO PUSH2 0x911 JUMPI RETURNDATASIZE PUSH1 0x0 DUP1 RETURNDATACOPY RETURNDATASIZE PUSH1 0x0 REVERT JUMPDEST POP POP POP POP PUSH1 0x40 MLOAD RETURNDATASIZE PUSH1 0x60 DUP2 LT ISZERO PUSH2 0x927 JUMPI PUSH1 0x0 DUP1 REVERT JUMPDEST POP DUP1 MLOAD PUSH1 0x20 SWAP1 SWAP2 ADD MLOAD PUSH1 0x6 SLOAD PUSH14 0xFFFFFFFFFFFFFFFFFFFFFFFFFFFF SWAP3 DUP4 AND SWAP5 POP SWAP2 AND SWAP2 POP PUSH1 0x1 PUSH1 0x1 PUSH1 0xA0 SHL SUB DUP7 DUP2 AND SWAP2 AND EQ ISZERO PUSH2 0x9F4 JUMPI PUSH1 0x40 DUP1 MLOAD PUSH4 0x1535435 PUSH1 0xE2 SHL DUP2 MSTORE PUSH1 0x4 DUP2 ADD DUP7 SWAP1 MSTORE PUSH1 0x24 DUP2 ADD DUP5 SWAP1 MSTORE PUSH1 0x44 DUP2 ADD DUP4 SWAP1 MSTORE SWAP1 MLOAD PUSH20 0x7A250D5630B4CF539739DF2C5DACB4C659F2488D SWAP2 PUSH4 0x54D50D4 SWAP2 PUSH1 0x64 DUP1 DUP4 ADD SWAP3 PUSH1 0x20 SWAP3 SWAP2 SWAP1 DUP3 SWAP1 SUB ADD DUP2 DUP7 DUP1 EXTCODESIZE ISZERO DUP1 ISZERO PUSH2 0x9BE JUMPI PUSH1 0x0 DUP1 REVERT JUMPDEST POP GAS STATICCALL ISZERO DUP1 ISZERO PUSH2 0x9D2 JUMPI RETURNDATASIZE PUSH1 0x0 DUP1 RETURNDATACOPY RETURNDATASIZE PUSH1 0x0 REVERT JUMPDEST POP POP POP POP PUSH1 0x40 MLOAD RETURNDATASIZE PUSH1 0x20 DUP2 LT ISZERO PUSH2 0x9E8 JUMPI PUSH1 0x0 DUP1 REVERT JUMPDEST POP MLOAD SWAP3 POP PUSH2 0xA54 SWAP2 POP POP JUMP JUMPDEST PUSH1 0x40 DUP1 MLOAD PUSH4 0x1535435 PUSH1 0xE2 SHL DUP2 MSTORE PUSH1 0x4 DUP2 ADD DUP7 SWAP1 MSTORE PUSH1 0x24 DUP2 ADD DUP4 SWAP1 MSTORE PUSH1 0x44 DUP2 ADD DUP5 SWAP1 MSTORE SWAP1 MLOAD PUSH20 0x7A250D5630B4CF539739DF2C5DACB4C659F2488D SWAP2 PUSH4 0x54D50D4 SWAP2 PUSH1 0x64 DUP1 DUP4 ADD SWAP3 PUSH1 0x20 SWAP3 SWAP2 SWAP1 DUP3 SWAP1 SUB ADD DUP2 DUP7 DUP1 EXTCODESIZE ISZERO DUP1 ISZERO PUSH2 0x9BE JUMPI PUSH1 0x0 DUP1 REVERT JUMPDEST SWAP3 SWAP2 POP POP JUMP JUMPDEST CALLER PUSH1 0x0 DUP2 DUP2 MSTORE PUSH1 0x2 PUSH1 0x20 SWAP1 DUP2 MSTORE PUSH1 0x40 DUP1 DUP4 KECCAK256 PUSH1 0x1 PUSH1 0x1 PUSH1 0xA0 SHL SUB DUP8 AND DUP1 DUP6 MSTORE SWAP1 DUP4 MSTORE DUP2 DUP5 KECCAK256 DUP7 SWAP1 SSTORE DUP2 MLOAD DUP7 DUP2 MSTORE SWAP2 MLOAD SWAP4 SWAP5 SWAP1 SWAP4 SWAP1 SWAP3 PUSH32 0x8C5BE1E5EBEC7D5BD14F71427D1E84F3DD0314C0F7B2291E5B200AC8C7C3B925 SWAP3 DUP3 SWAP1 SUB ADD SWAP1 LOG3 POP PUSH1 0x1 SWAP3 SWAP2 POP POP JUMP JUMPDEST PUSH1 0x0 DUP1 PUSH1 0x8 DUP4 DUP2 SLOAD DUP2 LT PUSH2 0xAD0 JUMPI INVALID JUMPDEST PUSH1 0x0 SWAP2 DUP3 MSTORE PUSH1 0x20 SWAP1 SWAP2 KECCAK256 PUSH1 0x9 SWAP1 SWAP2 MUL ADD DUP1 SLOAD SWAP1 SWAP2 POP PUSH1 0x1 PUSH1 0x1 PUSH1 0xA0 SHL SUB AND PUSH2 0xAFC JUMPI PUSH1 0x0 SWAP2 POP POP PUSH2 0xC0D JUMP JUMPDEST PUSH1 0x8 DUP2 ADD SLOAD PUSH1 0xFF AND PUSH2 0xB12 JUMPI PUSH1 0x0 SWAP2 POP POP PUSH2 0xC0D JUMP JUMPDEST NUMBER DUP2 PUSH1 0x7 ADD SLOAD GT ISZERO PUSH2 0xB28 JUMPI PUSH1 0x0 SWAP2 POP POP PUSH2 0xC0D JUMP JUMPDEST PUSH1 0x8 DUP2 ADD DUP1 SLOAD PUSH1 0xFF NOT AND SWAP1 SSTORE PUSH1 0x5 DUP2 ADD SLOAD PUSH1 0x40 DUP1 MLOAD PUSH1 0x60 DUP2 ADD SWAP1 SWAP2 MSTORE PUSH1 0x29 DUP1 DUP3 MSTORE PUSH2 0xB67 SWAP3 SWAP2 SWAP1 PUSH2 0x3265 PUSH1 0x20 DUP4 ADD CODECOPY PUSH1 0x10 SLOAD SWAP2 SWAP1 PUSH4 0xFFFFFFFF PUSH2 0x2925 AND JUMP JUMPDEST PUSH1 0x10 SSTORE PUSH1 0x5 DUP2 ADD SLOAD PUSH1 0x11 SLOAD PUSH2 0xB81 SWAP2 PUSH4 0xFFFFFFFF PUSH2 0x29BC AND JUMP JUMPDEST PUSH1 0x11 SSTORE PUSH1 0x2 DUP2 ADD SLOAD PUSH1 0x1 DUP3 ADD SLOAD DUP3 SLOAD PUSH1 0x3 DUP5 ADD SLOAD PUSH1 0x4 DUP6 ADD SLOAD PUSH1 0x6 DUP7 ADD SLOAD PUSH1 0x7 DUP8 ADD SLOAD PUSH1 0x40 DUP1 MLOAD DUP12 DUP2 MSTORE PUSH1 0x20 DUP2 ADD SWAP6 SWAP1 SWAP6 MSTORE DUP5 DUP2 ADD SWAP4 SWAP1 SWAP4 MSTORE PUSH1 0x60 DUP5 ADD SWAP2 SWAP1 SWAP2 MSTORE PUSH1 0x80 DUP4 ADD MSTORE MLOAD PUSH1 0x1 PUSH1 0x1 PUSH1 0xA0 SHL SUB SWAP5 DUP6 AND SWAP5 SWAP4 DUP5 AND SWAP4 SWAP3 SWAP1 SWAP3 AND SWAP2 PUSH32 0xDBEFFA8A7DB601F3CCF50979E78F7DEAAE9C7AF29EE9CBF8855536B7EDBC78C2 SWAP2 DUP2 SWAP1 SUB PUSH1 0xA0 ADD SWAP1 LOG4 PUSH1 0x1 SWAP2 POP POP JUMPDEST SWAP2 SWAP1 POP JUMP JUMPDEST PUSH1 0xA SLOAD PUSH1 0x0 SWAP1 JUMPDEST PUSH1 0x9 SLOAD DUP2 LT ISZERO PUSH2 0xC35 JUMPI PUSH2 0xC2C DUP2 PUSH2 0xAC0 JUMP JUMPDEST POP PUSH1 0x1 ADD PUSH2 0xC19 JUMP JUMPDEST PUSH1 0xA DUP2 SWAP1 SSTORE SWAP1 POP SWAP1 JUMP JUMPDEST PUSH1 0x6 SLOAD PUSH1 0x1 PUSH1 0x1 PUSH1 0xA0 SHL SUB AND DUP2 JUMP JUMPDEST PUSH1 0x1 SLOAD DUP2 JUMP JUMPDEST PUSH1 0x40 MLOAD DUP1 DUP1 PUSH2 0x3225 PUSH1 0x40 SWAP2 CODECOPY PUSH1 0x40 ADD SWAP1 POP PUSH1 0x40 MLOAD DUP1 SWAP2 SUB SWAP1 KECCAK256 DUP2 JUMP JUMPDEST PUSH1 0x1 PUSH1 0x1 PUSH1 0xA0 SHL SUB DUP4 AND PUSH1 0x0 DUP2 DUP2 MSTORE PUSH1 0x2 PUSH1 0x20 SWAP1 DUP2 MSTORE PUSH1 0x40 DUP1 DUP4 KECCAK256 CALLER DUP1 DUP6 MSTORE SWAP3 MSTORE DUP3 KECCAK256 SLOAD SWAP2 SWAP3 SWAP1 SWAP2 SWAP1 DUP3 EQ DUP1 ISZERO SWAP1 PUSH2 0xCAA JUMPI POP PUSH1 0x0 NOT DUP2 EQ ISZERO JUMPDEST ISZERO PUSH2 0xD41 JUMPI PUSH1 0x0 PUSH2 0xCDC DUP6 PUSH1 0x40 MLOAD DUP1 PUSH1 0x80 ADD PUSH1 0x40 MSTORE DUP1 PUSH1 0x42 DUP2 MSTORE PUSH1 0x20 ADD PUSH2 0x33C9 PUSH1 0x42 SWAP2 CODECOPY DUP5 SWAP2 SWAP1 PUSH4 0xFFFFFFFF PUSH2 0x2925 AND JUMP JUMPDEST PUSH1 0x1 PUSH1 0x1 PUSH1 0xA0 SHL SUB DUP1 DUP10 AND PUSH1 0x0 DUP2 DUP2 MSTORE PUSH1 0x2 PUSH1 0x20 SWAP1 DUP2 MSTORE PUSH1 0x40 DUP1 DUP4 KECCAK256 SWAP5 DUP10 AND DUP1 DUP5 MSTORE SWAP5 DUP3 MSTORE SWAP2 DUP3 SWAP1 KECCAK256 DUP6 SWAP1 SSTORE DUP2 MLOAD DUP6 DUP2 MSTORE SWAP2 MLOAD SWAP5 SWAP6 POP SWAP3 SWAP4 SWAP2 SWAP3 PUSH32 0x8C5BE1E5EBEC7D5BD14F71427D1E84F3DD0314C0F7B2291E5B200AC8C7C3B925 SWAP3 SWAP2 DUP3 SWAP1 SUB ADD SWAP1 LOG3 POP JUMPDEST PUSH2 0xD4C DUP7 DUP7 DUP7 PUSH2 0x2A16 JUMP JUMPDEST POP PUSH1 0x1 SWAP6 SWAP5 POP POP POP POP POP JUMP JUMPDEST PUSH1 0x0 DUP1 PUSH2 0xD85 PUSH1 0x1 SLOAD PUSH2 0xD79 DUP6 PUSH2 0xD6D PUSH2 0x1FB9 JUMP JUMPDEST SWAP1 PUSH4 0xFFFFFFFF PUSH2 0x2BAB AND JUMP JUMPDEST SWAP1 PUSH4 0xFFFFFFFF PUSH2 0x2C04 AND JUMP JUMPDEST SWAP1 POP PUSH2 0xD91 CALLER DUP5 PUSH2 0x2C46 JUMP JUMPDEST PUSH1 0x5 SLOAD PUSH1 0x40 DUP1 MLOAD PUSH4 0x70A08231 PUSH1 0xE0 SHL DUP2 MSTORE ADDRESS PUSH1 0x4 DUP3 ADD MSTORE SWAP1 MLOAD DUP4 SWAP3 PUSH1 0x1 PUSH1 0x1 PUSH1 0xA0 SHL SUB AND SWAP2 PUSH4 0x70A08231 SWAP2 PUSH1 0x24 DUP1 DUP4 ADD SWAP3 PUSH1 0x20 SWAP3 SWAP2 SWAP1 DUP3 SWAP1 SUB ADD DUP2 DUP7 DUP1 EXTCODESIZE ISZERO DUP1 ISZERO PUSH2 0xDDB JUMPI PUSH1 0x0 DUP1 REVERT JUMPDEST POP GAS STATICCALL ISZERO DUP1 ISZERO PUSH2 0xDEF JUMPI RETURNDATASIZE PUSH1 0x0 DUP1 RETURNDATACOPY RETURNDATASIZE PUSH1 0x0 REVERT JUMPDEST POP POP POP POP PUSH1 0x40 MLOAD RETURNDATASIZE PUSH1 0x20 DUP2 LT ISZERO PUSH2 0xE05 JUMPI PUSH1 0x0 DUP1 REVERT JUMPDEST POP MLOAD GT PUSH2 0xE43 JUMPI PUSH1 0x40 MLOAD PUSH3 0x461BCD PUSH1 0xE5 SHL DUP2 MSTORE PUSH1 0x4 ADD DUP1 DUP1 PUSH1 0x20 ADD DUP3 DUP2 SUB DUP3 MSTORE PUSH1 0x4F DUP2 MSTORE PUSH1 0x20 ADD DUP1 PUSH2 0x3135 PUSH1 0x4F SWAP2 CODECOPY PUSH1 0x60 ADD SWAP2 POP POP PUSH1 0x40 MLOAD DUP1 SWAP2 SUB SWAP1 REVERT JUMPDEST PUSH1 0x5 SLOAD PUSH1 0x40 DUP1 MLOAD PUSH4 0xA9059CBB PUSH1 0xE0 SHL DUP2 MSTORE CALLER PUSH1 0x4 DUP3 ADD MSTORE PUSH1 0x24 DUP2 ADD DUP5 SWAP1 MSTORE SWAP1 MLOAD PUSH1 0x1 PUSH1 0x1 PUSH1 0xA0 SHL SUB SWAP1 SWAP3 AND SWAP2 PUSH4 0xA9059CBB SWAP2 PUSH1 0x44 DUP1 DUP3 ADD SWAP3 PUSH1 0x20 SWAP3 SWAP1 SWAP2 SWAP1 DUP3 SWAP1 SUB ADD DUP2 PUSH1 0x0 DUP8 DUP1 EXTCODESIZE ISZERO DUP1 ISZERO PUSH2 0xE97 JUMPI PUSH1 0x0 DUP1 REVERT JUMPDEST POP GAS CALL ISZERO DUP1 ISZERO PUSH2 0xEAB JUMPI RETURNDATASIZE PUSH1 0x0 DUP1 RETURNDATACOPY RETURNDATASIZE PUSH1 0x0 REVERT JUMPDEST POP POP POP POP PUSH1 0x40 MLOAD RETURNDATASIZE PUSH1 0x20 DUP2 LT ISZERO PUSH2 0xEC1 JUMPI PUSH1 0x0 DUP1 REVERT JUMPDEST POP POP PUSH1 0xD SLOAD PUSH2 0xED6 SWAP1 DUP3 PUSH4 0xFFFFFFFF PUSH2 0x29BC AND JUMP JUMPDEST PUSH1 0xD SSTORE PUSH1 0x5 SLOAD PUSH1 0x40 DUP1 MLOAD DUP6 DUP2 MSTORE PUSH1 0x20 DUP2 ADD DUP5 SWAP1 MSTORE DUP2 MLOAD PUSH1 0x1 PUSH1 0x1 PUSH1 0xA0 SHL SUB SWAP1 SWAP4 AND SWAP3 CALLER SWAP3 PUSH32 0x94946556B6F856CFA4D156A5C818935ECB2D8CC4B02C262B83747E88D6C75F20 SWAP3 DUP3 SWAP1 SUB ADD SWAP1 LOG3 POP PUSH1 0x1 SWAP3 SWAP2 POP POP JUMP JUMPDEST PUSH1 0x40 MLOAD DUP1 PUSH1 0x49 PUSH2 0x31DC DUP3 CODECOPY PUSH1 0x49 ADD SWAP1 POP PUSH1 0x40 MLOAD DUP1 SWAP2 SUB SWAP1 KECCAK256 DUP2 JUMP JUMPDEST PUSH1 0x12 DUP2 JUMP JUMPDEST PUSH1 0x0 DUP1 PUSH1 0x8 DUP4 DUP2 SLOAD DUP2 LT PUSH2 0xF5B JUMPI INVALID JUMPDEST PUSH1 0x0 SWAP2 DUP3 MSTORE PUSH1 0x20 SWAP1 SWAP2 KECCAK256 PUSH1 0x9 SWAP1 SWAP2 MUL ADD PUSH1 0x8 DUP2 ADD SLOAD SWAP1 SWAP2 POP PUSH1 0xFF AND PUSH2 0xFB1 JUMPI PUSH1 0x40 MLOAD PUSH3 0x461BCD PUSH1 0xE5 SHL DUP2 MSTORE PUSH1 0x4 ADD DUP1 DUP1 PUSH1 0x20 ADD DUP3 DUP2 SUB DUP3 MSTORE PUSH1 0x2C DUP2 MSTORE PUSH1 0x20 ADD DUP1 PUSH2 0x30E2 PUSH1 0x2C SWAP2 CODECOPY PUSH1 0x40 ADD SWAP2 POP POP PUSH1 0x40 MLOAD DUP1 SWAP2 SUB SWAP1 REVERT JUMPDEST NUMBER DUP2 PUSH1 0x7 ADD SLOAD LT PUSH2 0xFF3 JUMPI PUSH1 0x40 MLOAD PUSH3 0x461BCD PUSH1 0xE5 SHL DUP2 MSTORE PUSH1 0x4 ADD DUP1 DUP1 PUSH1 0x20 ADD DUP3 DUP2 SUB DUP3 MSTORE PUSH1 0x2A DUP2 MSTORE PUSH1 0x20 ADD DUP1 PUSH2 0x31B2 PUSH1 0x2A SWAP2 CODECOPY PUSH1 0x40 ADD SWAP2 POP POP PUSH1 0x40 MLOAD DUP1 SWAP2 SUB SWAP1 REVERT JUMPDEST PUSH1 0x2 DUP2 ADD SLOAD PUSH1 0x4 DUP1 DUP4 ADD SLOAD PUSH1 0x40 DUP1 MLOAD PUSH4 0x23B872DD PUSH1 0xE0 SHL DUP2 MSTORE CALLER SWAP4 DUP2 ADD SWAP4 SWAP1 SWAP4 MSTORE ADDRESS PUSH1 0x24 DUP5 ADD MSTORE PUSH1 0x44 DUP4 ADD SWAP2 SWAP1 SWAP2 MSTORE MLOAD PUSH1 0x1 PUSH1 0x1 PUSH1 0xA0 SHL SUB SWAP1 SWAP3 AND SWAP2 PUSH4 0x23B872DD SWAP2 PUSH1 0x64 DUP1 DUP3 ADD SWAP3 PUSH1 0x20 SWAP3 SWAP1 SWAP2 SWAP1 DUP3 SWAP1 SUB ADD DUP2 PUSH1 0x0 DUP8 DUP1 EXTCODESIZE ISZERO DUP1 ISZERO PUSH2 0x1057 JUMPI PUSH1 0x0 DUP1 REVERT JUMPDEST POP GAS CALL ISZERO DUP1 ISZERO PUSH2 0x106B JUMPI RETURNDATASIZE PUSH1 0x0 DUP1 RETURNDATACOPY RETURNDATASIZE PUSH1 0x0 REVERT JUMPDEST POP POP POP POP PUSH1 0x40 MLOAD RETURNDATASIZE PUSH1 0x20 DUP2 LT ISZERO PUSH2 0x1081 JUMPI PUSH1 0x0 DUP1 REVERT JUMPDEST POP POP PUSH1 0x1 DUP2 ADD SLOAD PUSH1 0x40 DUP1 MLOAD PUSH4 0x70A08231 PUSH1 0xE0 SHL DUP2 MSTORE ADDRESS PUSH1 0x4 DUP3 ADD MSTORE SWAP1 MLOAD PUSH1 0x0 SWAP3 PUSH1 0x1 PUSH1 0x1 PUSH1 0xA0 SHL SUB AND SWAP2 PUSH4 0x70A08231 SWAP2 PUSH1 0x24 DUP1 DUP4 ADD SWAP3 PUSH1 0x20 SWAP3 SWAP2 SWAP1 DUP3 SWAP1 SUB ADD DUP2 DUP7 DUP1 EXTCODESIZE ISZERO DUP1 ISZERO PUSH2 0x10D0 JUMPI PUSH1 0x0 DUP1 REVERT JUMPDEST POP GAS STATICCALL ISZERO DUP1 ISZERO PUSH2 0x10E4 JUMPI RETURNDATASIZE PUSH1 0x0 DUP1 RETURNDATACOPY RETURNDATASIZE PUSH1 0x0 REVERT JUMPDEST POP POP POP POP PUSH1 0x40 MLOAD RETURNDATASIZE PUSH1 0x20 DUP2 LT ISZERO PUSH2 0x10FA JUMPI PUSH1 0x0 DUP1 REVERT JUMPDEST POP MLOAD PUSH1 0x3 DUP4 ADD SLOAD SWAP1 SWAP2 POP DUP2 LT ISZERO PUSH2 0x113A JUMPI PUSH1 0x1 DUP3 ADD SLOAD PUSH1 0x3 DUP4 ADD SLOAD PUSH2 0x1138 SWAP2 PUSH1 0x1 PUSH1 0x1 PUSH1 0xA0 SHL SUB AND SWAP1 PUSH2 0x1133 SWAP1 DUP5 PUSH4 0xFFFFFFFF PUSH2 0x2D49 AND JUMP JUMPDEST PUSH2 0x2D6E JUMP JUMPDEST POP JUMPDEST PUSH1 0x1 DUP3 ADD SLOAD PUSH1 0x3 DUP4 ADD SLOAD PUSH1 0x40 DUP1 MLOAD PUSH4 0xA9059CBB PUSH1 0xE0 SHL DUP2 MSTORE CALLER PUSH1 0x4 DUP3 ADD MSTORE PUSH1 0x24 DUP2 ADD SWAP3 SWAP1 SWAP3 MSTORE MLOAD PUSH1 0x1 PUSH1 0x1 PUSH1 0xA0 SHL SUB SWAP1 SWAP3 AND SWAP2 PUSH4 0xA9059CBB SWAP2 PUSH1 0x44 DUP1 DUP3 ADD SWAP3 PUSH1 0x20 SWAP3 SWAP1 SWAP2 SWAP1 DUP3 SWAP1 SUB ADD DUP2 PUSH1 0x0 DUP8 DUP1 EXTCODESIZE ISZERO DUP1 ISZERO PUSH2 0x1195 JUMPI PUSH1 0x0 DUP1 REVERT JUMPDEST POP GAS CALL ISZERO DUP1 ISZERO PUSH2 0x11A9 JUMPI RETURNDATASIZE PUSH1 0x0 DUP1 RETURNDATACOPY RETURNDATASIZE PUSH1 0x0 REVERT JUMPDEST POP POP POP POP PUSH1 0x40 MLOAD RETURNDATASIZE PUSH1 0x20 DUP2 LT ISZERO PUSH2 0x11BF JUMPI PUSH1 0x0 DUP1 REVERT JUMPDEST POP POP PUSH1 0x8 DUP1 DUP4 ADD DUP1 SLOAD PUSH1 0xFF NOT AND SWAP1 SSTORE DUP1 SLOAD DUP4 SWAP2 SWAP1 DUP7 SWAP1 DUP2 LT PUSH2 0x11DD JUMPI INVALID JUMPDEST PUSH1 0x0 SWAP2 DUP3 MSTORE PUSH1 0x20 SWAP2 DUP3 SWAP1 KECCAK256 DUP4 SLOAD PUSH1 0x9 SWAP1 SWAP3 MUL ADD DUP1 SLOAD PUSH1 0x1 PUSH1 0x1 PUSH1 0xA0 SHL SUB NOT SWAP1 DUP2 AND PUSH1 0x1 PUSH1 0x1 PUSH1 0xA0 SHL SUB SWAP4 DUP5 AND OR DUP3 SSTORE PUSH1 0x1 DUP1 DUP7 ADD SLOAD DUP2 DUP5 ADD DUP1 SLOAD DUP5 AND SWAP2 DUP7 AND SWAP2 SWAP1 SWAP2 OR SWAP1 SSTORE PUSH1 0x2 DUP1 DUP8 ADD SLOAD DUP2 DUP6 ADD DUP1 SLOAD SWAP1 SWAP5 AND SWAP1 DUP7 AND OR SWAP1 SWAP3 SSTORE PUSH1 0x3 DUP1 DUP8 ADD SLOAD DUP2 DUP6 ADD SSTORE PUSH1 0x4 DUP1 DUP9 ADD SLOAD DUP2 DUP7 ADD SSTORE PUSH1 0x5 DUP1 DUP10 ADD SLOAD SWAP1 DUP7 ADD SSTORE PUSH1 0x6 DUP1 DUP10 ADD SLOAD DUP2 DUP8 ADD SSTORE PUSH1 0x7 DUP1 DUP11 ADD SLOAD DUP2 DUP9 ADD SSTORE PUSH1 0x8 SWAP10 DUP11 ADD SLOAD SWAP10 SWAP1 SWAP7 ADD DUP1 SLOAD PUSH1 0xFF SWAP1 SWAP11 AND ISZERO ISZERO PUSH1 0xFF NOT SWAP1 SWAP11 AND SWAP10 SWAP1 SWAP10 OR SWAP1 SWAP9 SSTORE SWAP3 DUP10 ADD SLOAD SWAP2 DUP10 ADD SLOAD DUP10 SLOAD SWAP2 DUP11 ADD SLOAD SWAP4 DUP11 ADD SLOAD SWAP8 DUP11 ADD SLOAD SWAP5 DUP11 ADD SLOAD PUSH1 0x40 DUP1 MLOAD DUP15 DUP2 MSTORE SWAP9 DUP10 ADD SWAP6 SWAP1 SWAP6 MSTORE DUP8 DUP6 ADD SWAP9 SWAP1 SWAP9 MSTORE PUSH1 0x60 DUP8 ADD SWAP5 SWAP1 SWAP5 MSTORE PUSH1 0x80 DUP7 ADD SWAP7 SWAP1 SWAP7 MSTORE SWAP1 MLOAD SWAP1 DUP4 AND SWAP5 SWAP2 DUP4 AND SWAP4 SWAP2 SWAP1 SWAP3 AND SWAP2 PUSH32 0x1A7A55034943B99BC89BBB5CDB0D8934813EFA402B537313ABE0C2CBF3FC86A7 SWAP2 DUP2 SWAP1 SUB PUSH1 0xA0 ADD SWAP1 LOG4 POP PUSH1 0x1 SWAP4 SWAP3 POP POP POP JUMP JUMPDEST PUSH20 0xB5A6B318C39B60E7D8462F888E7FBA89F75D02F DUP2 JUMP JUMPDEST PUSH1 0x0 PUSH2 0xA54 PUSH2 0x14A2 PUSH1 0x5 PUSH1 0x0 SWAP1 SLOAD SWAP1 PUSH2 0x100 EXP SWAP1 DIV PUSH1 0x1 PUSH1 0x1 PUSH1 0xA0 SHL SUB AND PUSH1 0x1 PUSH1 0x1 PUSH1 0xA0 SHL SUB AND PUSH4 0x18160DDD PUSH1 0x40 MLOAD DUP2 PUSH4 0xFFFFFFFF AND PUSH1 0xE0 SHL DUP2 MSTORE PUSH1 0x4 ADD PUSH1 0x20 PUSH1 0x40 MLOAD DUP1 DUP4 SUB DUP2 DUP7 DUP1 EXTCODESIZE ISZERO DUP1 ISZERO PUSH2 0x1379 JUMPI PUSH1 0x0 DUP1 REVERT JUMPDEST POP GAS STATICCALL ISZERO DUP1 ISZERO PUSH2 0x138D JUMPI RETURNDATASIZE PUSH1 0x0 DUP1 RETURNDATACOPY RETURNDATASIZE PUSH1 0x0 REVERT JUMPDEST POP POP POP POP PUSH1 0x40 MLOAD RETURNDATASIZE PUSH1 0x20 DUP2 LT ISZERO PUSH2 0x13A3 JUMPI PUSH1 0x0 DUP1 REVERT JUMPDEST POP MLOAD PUSH1 0x5 SLOAD PUSH1 0x40 DUP1 MLOAD PUSH4 0x70A08231 PUSH1 0xE0 SHL DUP2 MSTORE ADDRESS PUSH1 0x4 DUP3 ADD MSTORE SWAP1 MLOAD PUSH2 0xD79 SWAP3 PUSH1 0x1 PUSH1 0x1 PUSH1 0xA0 SHL SUB AND SWAP2 PUSH4 0x70A08231 SWAP2 PUSH1 0x24 DUP1 DUP4 ADD SWAP3 PUSH1 0x20 SWAP3 SWAP2 SWAP1 DUP3 SWAP1 SUB ADD DUP2 DUP7 DUP1 EXTCODESIZE ISZERO DUP1 ISZERO PUSH2 0x13F1 JUMPI PUSH1 0x0 DUP1 REVERT JUMPDEST POP GAS STATICCALL ISZERO DUP1 ISZERO PUSH2 0x1405 JUMPI RETURNDATASIZE PUSH1 0x0 DUP1 RETURNDATACOPY RETURNDATASIZE PUSH1 0x0 REVERT JUMPDEST POP POP POP POP PUSH1 0x40 MLOAD RETURNDATASIZE PUSH1 0x20 DUP2 LT ISZERO PUSH2 0x141B JUMPI PUSH1 0x0 DUP1 REVERT JUMPDEST POP MLOAD PUSH1 0x5 SLOAD PUSH1 0x40 DUP1 MLOAD PUSH4 0x70A08231 PUSH1 0xE0 SHL DUP2 MSTORE PUSH1 0x1 PUSH1 0x1 PUSH1 0xA0 SHL SUB SWAP3 DUP4 AND PUSH1 0x4 DUP3 ADD MSTORE SWAP1 MLOAD SWAP2 DUP10 AND SWAP2 PUSH4 0x70A08231 SWAP2 PUSH1 0x24 DUP1 DUP3 ADD SWAP3 PUSH1 0x20 SWAP3 SWAP1 SWAP2 SWAP1 DUP3 SWAP1 SUB ADD DUP2 DUP7 DUP1 EXTCODESIZE ISZERO DUP1 ISZERO PUSH2 0x146A JUMPI PUSH1 0x0 DUP1 REVERT JUMPDEST POP GAS STATICCALL ISZERO DUP1 ISZERO PUSH2 0x147E JUMPI RETURNDATASIZE PUSH1 0x0 DUP1 RETURNDATACOPY RETURNDATASIZE PUSH1 0x0 REVERT JUMPDEST POP POP POP POP PUSH1 0x40 MLOAD RETURNDATASIZE PUSH1 0x20 DUP2 LT ISZERO PUSH2 0x1494 JUMPI PUSH1 0x0 DUP1 REVERT JUMPDEST POP MLOAD SWAP1 PUSH4 0xFFFFFFFF PUSH2 0x2BAB AND JUMP JUMPDEST PUSH1 0x40 DUP1 MLOAD PUSH4 0x70A08231 PUSH1 0xE0 SHL DUP2 MSTORE ADDRESS PUSH1 0x4 DUP3 ADD MSTORE SWAP1 MLOAD PUSH1 0x1 PUSH1 0x1 PUSH1 0xA0 SHL SUB DUP7 AND SWAP2 PUSH4 0x70A08231 SWAP2 PUSH1 0x24 DUP1 DUP4 ADD SWAP3 PUSH1 0x20 SWAP3 SWAP2 SWAP1 DUP3 SWAP1 SUB ADD DUP2 DUP7 DUP1 EXTCODESIZE ISZERO DUP1 ISZERO PUSH2 0x14E8 JUMPI PUSH1 0x0 DUP1 REVERT JUMPDEST POP GAS STATICCALL ISZERO DUP1 ISZERO PUSH2 0x14FC JUMPI RETURNDATASIZE PUSH1 0x0 DUP1 RETURNDATACOPY RETURNDATASIZE PUSH1 0x0 REVERT JUMPDEST POP POP POP POP PUSH1 0x40 MLOAD RETURNDATASIZE PUSH1 0x20 DUP2 LT ISZERO PUSH2 0x1512 JUMPI PUSH1 0x0 DUP1 REVERT JUMPDEST POP MLOAD SWAP1 PUSH4 0xFFFFFFFF PUSH2 0x29BC AND JUMP JUMPDEST PUSH1 0xD SLOAD DUP2 JUMP JUMPDEST PUSH20 0x7A250D5630B4CF539739DF2C5DACB4C659F2488D DUP2 JUMP JUMPDEST PUSH1 0xC SLOAD DUP2 JUMP JUMPDEST PUSH3 0x13880 DUP2 JUMP JUMPDEST PUSH2 0x19C8 DUP2 JUMP JUMPDEST PUSH1 0x1 PUSH1 0x1 PUSH1 0xA0 SHL SUB AND PUSH1 0x0 SWAP1 DUP2 MSTORE PUSH1 0x3 PUSH1 0x20 MSTORE PUSH1 0x40 SWAP1 KECCAK256 SLOAD SWAP1 JUMP JUMPDEST PUSH1 0x4 PUSH1 0x20 MSTORE PUSH1 0x0 SWAP1 DUP2 MSTORE PUSH1 0x40 SWAP1 KECCAK256 SLOAD DUP2 JUMP JUMPDEST CALLER PUSH1 0x0 SWAP1 DUP2 MSTORE PUSH1 0x3 PUSH1 0x20 MSTORE PUSH1 0x40 DUP2 KECCAK256 SLOAD PUSH2 0x1597 SWAP1 PUSH2 0xD58 JUMP JUMPDEST SWAP1 POP SWAP1 JUMP JUMPDEST PUSH3 0x19A28 DUP2 JUMP JUMPDEST PUSH1 0xF SLOAD DUP2 JUMP JUMPDEST PUSH1 0x0 DUP1 SLOAD PUSH1 0x40 DUP1 MLOAD PUSH1 0x20 PUSH1 0x2 PUSH1 0x1 DUP6 AND ISZERO PUSH2 0x100 MUL PUSH1 0x0 NOT ADD SWAP1 SWAP5 AND SWAP4 SWAP1 SWAP4 DIV PUSH1 0x1F DUP2 ADD DUP5 SWAP1 DIV DUP5 MUL DUP3 ADD DUP5 ADD SWAP1 SWAP3 MSTORE DUP2 DUP2 MSTORE SWAP3 SWAP2 DUP4 ADD DUP3 DUP3 DUP1 ISZERO PUSH2 0x162F JUMPI DUP1 PUSH1 0x1F LT PUSH2 0x1604 JUMPI PUSH2 0x100 DUP1 DUP4 SLOAD DIV MUL DUP4 MSTORE SWAP2 PUSH1 0x20 ADD SWAP2 PUSH2 0x162F JUMP JUMPDEST DUP3 ADD SWAP2 SWAP1 PUSH1 0x0 MSTORE PUSH1 0x20 PUSH1 0x0 KECCAK256 SWAP1 JUMPDEST DUP2 SLOAD DUP2 MSTORE SWAP1 PUSH1 0x1 ADD SWAP1 PUSH1 0x20 ADD DUP1 DUP4 GT PUSH2 0x1612 JUMPI DUP3 SWAP1 SUB PUSH1 0x1F AND DUP3 ADD SWAP2 JUMPDEST POP POP POP POP POP DUP2 JUMP JUMPDEST PUSH1 0xA SLOAD PUSH1 0x0 SWAP1 JUMPDEST DUP3 DUP2 LT ISZERO PUSH2 0x1658 JUMPI PUSH2 0x164F DUP2 PUSH2 0xAC0 JUMP JUMPDEST POP PUSH1 0x1 ADD PUSH2 0x163E JUMP JUMPDEST PUSH1 0xA DUP2 SWAP1 SSTORE SWAP3 SWAP2 POP POP JUMP JUMPDEST PUSH1 0xB PUSH1 0x20 MSTORE DUP2 PUSH1 0x0 MSTORE PUSH1 0x40 PUSH1 0x0 KECCAK256 DUP2 DUP2 SLOAD DUP2 LT PUSH2 0x167C JUMPI INVALID JUMPDEST SWAP1 PUSH1 0x0 MSTORE PUSH1 0x20 PUSH1 0x0 KECCAK256 ADD PUSH1 0x0 SWAP2 POP SWAP2 POP POP SLOAD DUP2 JUMP JUMPDEST PUSH1 0x8 DUP2 DUP2 SLOAD DUP2 LT PUSH2 0x169E JUMPI INVALID JUMPDEST PUSH1 0x0 SWAP2 DUP3 MSTORE PUSH1 0x20 SWAP1 SWAP2 KECCAK256 PUSH1 0x9 SWAP1 SWAP2 MUL ADD DUP1 SLOAD PUSH1 0x1 DUP3 ADD SLOAD PUSH1 0x2 DUP4 ADD SLOAD PUSH1 0x3 DUP5 ADD SLOAD PUSH1 0x4 DUP6 ADD SLOAD PUSH1 0x5 DUP7 ADD SLOAD PUSH1 0x6 DUP8 ADD SLOAD PUSH1 0x7 DUP9 ADD SLOAD PUSH1 0x8 SWAP1 SWAP9 ADD SLOAD PUSH1 0x1 PUSH1 0x1 PUSH1 0xA0 SHL SUB SWAP8 DUP9 AND SWAP10 POP SWAP6 DUP8 AND SWAP8 SWAP5 SWAP1 SWAP7 AND SWAP6 SWAP3 SWAP5 SWAP2 SWAP4 SWAP1 SWAP3 SWAP2 PUSH1 0xFF AND DUP10 JUMP JUMPDEST PUSH1 0x5 SLOAD PUSH1 0x40 DUP1 MLOAD PUSH4 0x70A08231 PUSH1 0xE0 SHL DUP2 MSTORE PUSH1 0x1 PUSH1 0x1 PUSH1 0xA0 SHL SUB SWAP3 DUP4 AND PUSH1 0x4 DUP3 ADD MSTORE SWAP1 MLOAD PUSH1 0x0 SWAP3 PUSH2 0x17C7 SWAP3 SWAP1 DUP7 AND SWAP2 PUSH4 0x70A08231 SWAP2 PUSH1 0x24 DUP1 DUP3 ADD SWAP3 PUSH1 0x20 SWAP3 SWAP1 SWAP2 SWAP1 DUP3 SWAP1 SUB ADD DUP2 DUP7 DUP1 EXTCODESIZE ISZERO DUP1 ISZERO PUSH2 0x1750 JUMPI PUSH1 0x0 DUP1 REVERT JUMPDEST POP GAS STATICCALL ISZERO DUP1 ISZERO PUSH2 0x1764 JUMPI RETURNDATASIZE PUSH1 0x0 DUP1 RETURNDATACOPY RETURNDATASIZE PUSH1 0x0 REVERT JUMPDEST POP POP POP POP PUSH1 0x40 MLOAD RETURNDATASIZE PUSH1 0x20 DUP2 LT ISZERO PUSH2 0x177A JUMPI PUSH1 0x0 DUP1 REVERT JUMPDEST POP MLOAD PUSH1 0x5 SLOAD PUSH1 0x40 DUP1 MLOAD PUSH4 0x18160DDD PUSH1 0xE0 SHL DUP2 MSTORE SWAP1 MLOAD PUSH2 0xD79 SWAP3 DUP8 SWAP3 PUSH1 0x1 PUSH1 0x1 PUSH1 0xA0 SHL SUB SWAP1 SWAP2 AND SWAP2 PUSH4 0x18160DDD SWAP2 PUSH1 0x4 DUP1 DUP3 ADD SWAP3 PUSH1 0x20 SWAP3 SWAP1 SWAP2 SWAP1 DUP3 SWAP1 SUB ADD DUP2 DUP7 DUP1 EXTCODESIZE ISZERO DUP1 ISZERO PUSH2 0x146A JUMPI PUSH1 0x0 DUP1 REVERT JUMPDEST SWAP4 SWAP3 POP POP POP JUMP JUMPDEST PUSH1 0x5 SLOAD PUSH1 0x1 PUSH1 0x1 PUSH1 0xA0 SHL SUB AND DUP2 JUMP JUMPDEST PUSH1 0x0 PUSH2 0x17EA CALLER DUP5 DUP5 PUSH2 0x2A16 JUMP JUMPDEST POP PUSH1 0x1 SWAP3 SWAP2 POP POP JUMP JUMPDEST PUSH1 0x40 DUP1 MLOAD PUSH4 0x70A08231 PUSH1 0xE0 SHL DUP2 MSTORE ADDRESS PUSH1 0x4 DUP3 ADD MSTORE SWAP1 MLOAD PUSH1 0x0 SWAP2 DUP3 SWAP2 PUSH1 0x1 PUSH1 0x1 PUSH1 0xA0 SHL SUB DUP9 AND SWAP2 PUSH4 0x70A08231 SWAP2 PUSH1 0x24 DUP1 DUP4 ADD SWAP3 PUSH1 0x20 SWAP3 SWAP2 SWAP1 DUP3 SWAP1 SUB ADD DUP2 DUP7 DUP1 EXTCODESIZE ISZERO DUP1 ISZERO PUSH2 0x183E JUMPI PUSH1 0x0 DUP1 REVERT JUMPDEST POP GAS STATICCALL ISZERO DUP1 ISZERO PUSH2 0x1852 JUMPI RETURNDATASIZE PUSH1 0x0 DUP1 RETURNDATACOPY RETURNDATASIZE PUSH1 0x0 REVERT JUMPDEST POP POP POP POP PUSH1 0x40 MLOAD RETURNDATASIZE PUSH1 0x20 DUP2 LT ISZERO PUSH2 0x1868 JUMPI PUSH1 0x0 DUP1 REVERT JUMPDEST POP MLOAD PUSH1 0x40 DUP1 MLOAD PUSH4 0x23B872DD PUSH1 0xE0 SHL DUP2 MSTORE CALLER PUSH1 0x4 DUP3 ADD MSTORE ADDRESS PUSH1 0x24 DUP3 ADD MSTORE PUSH1 0x44 DUP2 ADD DUP8 SWAP1 MSTORE SWAP1 MLOAD SWAP2 SWAP3 POP PUSH1 0x1 PUSH1 0x1 PUSH1 0xA0 SHL SUB DUP9 AND SWAP2 PUSH4 0x23B872DD SWAP2 PUSH1 0x64 DUP1 DUP3 ADD SWAP3 PUSH1 0x20 SWAP3 SWAP1 SWAP2 SWAP1 DUP3 SWAP1 SUB ADD DUP2 PUSH1 0x0 DUP8 DUP1 EXTCODESIZE ISZERO DUP1 ISZERO PUSH2 0x18C3 JUMPI PUSH1 0x0 DUP1 REVERT JUMPDEST POP GAS CALL ISZERO DUP1 ISZERO PUSH2 0x18D7 JUMPI RETURNDATASIZE PUSH1 0x0 DUP1 RETURNDATACOPY RETURNDATASIZE PUSH1 0x0 REVERT JUMPDEST POP POP POP POP PUSH1 0x40 MLOAD RETURNDATASIZE PUSH1 0x20 DUP2 LT ISZERO PUSH2 0x18ED JUMPI PUSH1 0x0 DUP1 REVERT JUMPDEST POP POP PUSH1 0x40 DUP1 MLOAD PUSH4 0x70A08231 PUSH1 0xE0 SHL DUP2 MSTORE ADDRESS PUSH1 0x4 DUP3 ADD MSTORE SWAP1 MLOAD PUSH1 0x0 SWAP2 PUSH1 0x1 PUSH1 0x1 PUSH1 0xA0 SHL SUB DUP10 AND SWAP2 PUSH4 0x70A08231 SWAP2 PUSH1 0x24 DUP1 DUP3 ADD SWAP3 PUSH1 0x20 SWAP3 SWAP1 SWAP2 SWAP1 DUP3 SWAP1 SUB ADD DUP2 DUP7 DUP1 EXTCODESIZE ISZERO DUP1 ISZERO PUSH2 0x1939 JUMPI PUSH1 0x0 DUP1 REVERT JUMPDEST POP GAS STATICCALL ISZERO DUP1 ISZERO PUSH2 0x194D JUMPI RETURNDATASIZE PUSH1 0x0 DUP1 RETURNDATACOPY RETURNDATASIZE PUSH1 0x0 REVERT JUMPDEST POP POP POP POP PUSH1 0x40 MLOAD RETURNDATASIZE PUSH1 0x20 DUP2 LT ISZERO PUSH2 0x1963 JUMPI PUSH1 0x0 DUP1 REVERT JUMPDEST POP MLOAD SWAP1 POP PUSH1 0x0 PUSH2 0x1979 DUP3 DUP5 PUSH4 0xFFFFFFFF PUSH2 0x2D49 AND JUMP JUMPDEST SWAP1 POP PUSH1 0x0 PUSH2 0x1996 PUSH3 0x186A0 PUSH2 0xD79 DUP5 PUSH2 0x258 PUSH4 0xFFFFFFFF PUSH2 0x2BAB AND JUMP JUMPDEST SWAP1 POP PUSH2 0x19A8 DUP3 DUP3 PUSH4 0xFFFFFFFF PUSH2 0x2D49 AND JUMP JUMPDEST SWAP2 POP PUSH1 0x0 PUSH2 0x19C6 PUSH3 0x186A0 PUSH2 0xD79 DUP6 PUSH3 0x13880 PUSH4 0xFFFFFFFF PUSH2 0x2BAB AND JUMP JUMPDEST SWAP1 POP PUSH1 0x0 PUSH2 0x19D5 DUP12 DUP12 DUP5 PUSH2 0x1F87 JUMP JUMPDEST SWAP1 POP DUP8 DUP2 LT ISZERO PUSH2 0x1A2C JUMPI PUSH1 0x40 DUP1 MLOAD PUSH3 0x461BCD PUSH1 0xE5 SHL DUP2 MSTORE PUSH1 0x20 PUSH1 0x4 DUP3 ADD MSTORE PUSH1 0x19 PUSH1 0x24 DUP3 ADD MSTORE PUSH32 0x54696D654C6F616E733A3A6C6F616E3A20736C69707061676500000000000000 PUSH1 0x44 DUP3 ADD MSTORE SWAP1 MLOAD SWAP1 DUP2 SWAP1 SUB PUSH1 0x64 ADD SWAP1 REVERT JUMPDEST DUP1 PUSH2 0x1A36 DUP12 PUSH2 0x1323 JUMP JUMPDEST GT PUSH2 0x1A72 JUMPI PUSH1 0x40 MLOAD PUSH3 0x461BCD PUSH1 0xE5 SHL DUP2 MSTORE PUSH1 0x4 ADD DUP1 DUP1 PUSH1 0x20 ADD DUP3 DUP2 SUB DUP3 MSTORE PUSH1 0x27 DUP2 MSTORE PUSH1 0x20 ADD DUP1 PUSH2 0x310E PUSH1 0x27 SWAP2 CODECOPY PUSH1 0x40 ADD SWAP2 POP POP PUSH1 0x40 MLOAD DUP1 SWAP2 SUB SWAP1 REVERT JUMPDEST PUSH1 0x40 DUP1 MLOAD PUSH4 0x70A08231 PUSH1 0xE0 SHL DUP2 MSTORE ADDRESS PUSH1 0x4 DUP3 ADD MSTORE SWAP1 MLOAD PUSH1 0x0 SWAP2 PUSH1 0x1 PUSH1 0x1 PUSH1 0xA0 SHL SUB DUP14 AND SWAP2 PUSH4 0x70A08231 SWAP2 PUSH1 0x24 DUP1 DUP3 ADD SWAP3 PUSH1 0x20 SWAP3 SWAP1 SWAP2 SWAP1 DUP3 SWAP1 SUB ADD DUP2 DUP7 DUP1 EXTCODESIZE ISZERO DUP1 ISZERO PUSH2 0x1ABC JUMPI PUSH1 0x0 DUP1 REVERT JUMPDEST POP GAS STATICCALL ISZERO DUP1 ISZERO PUSH2 0x1AD0 JUMPI RETURNDATASIZE PUSH1 0x0 DUP1 RETURNDATACOPY RETURNDATASIZE PUSH1 0x0 REVERT JUMPDEST POP POP POP POP PUSH1 0x40 MLOAD RETURNDATASIZE PUSH1 0x20 DUP2 LT ISZERO PUSH2 0x1AE6 JUMPI PUSH1 0x0 DUP1 REVERT JUMPDEST POP MLOAD SWAP1 POP PUSH1 0x0 DUP3 DUP3 LT ISZERO PUSH2 0x1B22 JUMPI PUSH2 0x1B08 DUP13 PUSH2 0x1133 DUP6 DUP6 PUSH4 0xFFFFFFFF PUSH2 0x2D49 AND JUMP JUMPDEST PUSH1 0x10 SLOAD SWAP1 SWAP2 POP PUSH2 0x1B1E SWAP1 DUP3 PUSH4 0xFFFFFFFF PUSH2 0x29BC AND JUMP JUMPDEST PUSH1 0x10 SSTORE JUMPDEST PUSH1 0x8 PUSH1 0x40 MLOAD DUP1 PUSH2 0x120 ADD PUSH1 0x40 MSTORE DUP1 CALLER PUSH1 0x1 PUSH1 0x1 PUSH1 0xA0 SHL SUB AND DUP2 MSTORE PUSH1 0x20 ADD DUP16 PUSH1 0x1 PUSH1 0x1 PUSH1 0xA0 SHL SUB AND DUP2 MSTORE PUSH1 0x20 ADD DUP15 PUSH1 0x1 PUSH1 0x1 PUSH1 0xA0 SHL SUB AND DUP2 MSTORE PUSH1 0x20 ADD DUP9 DUP2 MSTORE PUSH1 0x20 ADD DUP6 DUP2 MSTORE PUSH1 0x20 ADD DUP4 DUP2 MSTORE PUSH1 0x20 ADD NUMBER DUP2 MSTORE PUSH1 0x20 ADD PUSH2 0x1B8A PUSH2 0x19C8 NUMBER PUSH2 0x29BC SWAP1 SWAP2 SWAP1 PUSH4 0xFFFFFFFF AND JUMP JUMPDEST DUP2 MSTORE PUSH1 0x20 ADD PUSH1 0x1 ISZERO ISZERO DUP2 MSTORE POP SWAP1 DUP1 PUSH1 0x1 DUP2 SLOAD ADD DUP1 DUP3 SSTORE DUP1 SWAP2 POP POP PUSH1 0x1 SWAP1 SUB SWAP1 PUSH1 0x0 MSTORE PUSH1 0x20 PUSH1 0x0 KECCAK256 SWAP1 PUSH1 0x9 MUL ADD PUSH1 0x0 SWAP1 SWAP2 SWAP1 SWAP2 SWAP1 SWAP2 POP PUSH1 0x0 DUP3 ADD MLOAD DUP2 PUSH1 0x0 ADD PUSH1 0x0 PUSH2 0x100 EXP DUP2 SLOAD DUP2 PUSH1 0x1 PUSH1 0x1 PUSH1 0xA0 SHL SUB MUL NOT AND SWAP1 DUP4 PUSH1 0x1 PUSH1 0x1 PUSH1 0xA0 SHL SUB AND MUL OR SWAP1 SSTORE POP PUSH1 0x20 DUP3 ADD MLOAD DUP2 PUSH1 0x1 ADD PUSH1 0x0 PUSH2 0x100 EXP DUP2 SLOAD DUP2 PUSH1 0x1 PUSH1 0x1 PUSH1 0xA0 SHL SUB MUL NOT AND SWAP1 DUP4 PUSH1 0x1 PUSH1 0x1 PUSH1 0xA0 SHL SUB AND MUL OR SWAP1 SSTORE POP PUSH1 0x40 DUP3 ADD MLOAD DUP2 PUSH1 0x2 ADD PUSH1 0x0 PUSH2 0x100 EXP DUP2 SLOAD DUP2 PUSH1 0x1 PUSH1 0x1 PUSH1 0xA0 SHL SUB MUL NOT AND SWAP1 DUP4 PUSH1 0x1 PUSH1 0x1 PUSH1 0xA0 SHL SUB AND MUL OR SWAP1 SSTORE POP PUSH1 0x60 DUP3 ADD MLOAD DUP2 PUSH1 0x3 ADD SSTORE PUSH1 0x80 DUP3 ADD MLOAD DUP2 PUSH1 0x4 ADD SSTORE PUSH1 0xA0 DUP3 ADD MLOAD DUP2 PUSH1 0x5 ADD SSTORE PUSH1 0xC0 DUP3 ADD MLOAD DUP2 PUSH1 0x6 ADD SSTORE PUSH1 0xE0 DUP3 ADD MLOAD DUP2 PUSH1 0x7 ADD SSTORE PUSH2 0x100 DUP3 ADD MLOAD DUP2 PUSH1 0x8 ADD PUSH1 0x0 PUSH2 0x100 EXP DUP2 SLOAD DUP2 PUSH1 0xFF MUL NOT AND SWAP1 DUP4 ISZERO ISZERO MUL OR SWAP1 SSTORE POP POP POP PUSH1 0xB PUSH1 0x0 CALLER PUSH1 0x1 PUSH1 0x1 PUSH1 0xA0 SHL SUB AND PUSH1 0x1 PUSH1 0x1 PUSH1 0xA0 SHL SUB AND DUP2 MSTORE PUSH1 0x20 ADD SWAP1 DUP2 MSTORE PUSH1 0x20 ADD PUSH1 0x0 KECCAK256 PUSH1 0x9 SLOAD SWAP1 DUP1 PUSH1 0x1 DUP2 SLOAD ADD DUP1 DUP3 SSTORE DUP1 SWAP2 POP POP PUSH1 0x1 SWAP1 SUB SWAP1 PUSH1 0x0 MSTORE PUSH1 0x20 PUSH1 0x0 KECCAK256 ADD PUSH1 0x0 SWAP1 SWAP2 SWAP1 SWAP2 SWAP1 SWAP2 POP SSTORE DUP12 PUSH1 0x1 PUSH1 0x1 PUSH1 0xA0 SHL SUB AND PUSH4 0xA9059CBB CALLER DUP6 PUSH1 0x40 MLOAD DUP4 PUSH4 0xFFFFFFFF AND PUSH1 0xE0 SHL DUP2 MSTORE PUSH1 0x4 ADD DUP1 DUP4 PUSH1 0x1 PUSH1 0x1 PUSH1 0xA0 SHL SUB AND PUSH1 0x1 PUSH1 0x1 PUSH1 0xA0 SHL SUB AND DUP2 MSTORE PUSH1 0x20 ADD DUP3 DUP2 MSTORE PUSH1 0x20 ADD SWAP3 POP POP POP PUSH1 0x20 PUSH1 0x40 MLOAD DUP1 DUP4 SUB DUP2 PUSH1 0x0 DUP8 DUP1 EXTCODESIZE ISZERO DUP1 ISZERO PUSH2 0x1D49 JUMPI PUSH1 0x0 DUP1 REVERT JUMPDEST POP GAS CALL ISZERO DUP1 ISZERO PUSH2 0x1D5D JUMPI RETURNDATASIZE PUSH1 0x0 DUP1 RETURNDATACOPY RETURNDATASIZE PUSH1 0x0 REVERT JUMPDEST POP POP POP POP PUSH1 0x40 MLOAD RETURNDATASIZE PUSH1 0x20 DUP2 LT ISZERO PUSH2 0x1D73 JUMPI PUSH1 0x0 DUP1 REVERT JUMPDEST POP POP PUSH1 0x9 SLOAD PUSH1 0x1 PUSH1 0x1 PUSH1 0xA0 SHL SUB DUP1 DUP15 AND SWAP2 SWAP1 DUP16 AND SWAP1 CALLER SWAP1 PUSH32 0xC5F8BB69E29F0B5E3CEDF454F0C8688F216B44693C51A455F7906202945E3D5 SWAP1 DUP11 DUP9 NUMBER PUSH2 0x1DC1 DUP2 PUSH2 0x19C8 PUSH4 0xFFFFFFFF PUSH2 0x29BC AND JUMP JUMPDEST PUSH1 0x40 DUP1 MLOAD SWAP6 DUP7 MSTORE PUSH1 0x20 DUP7 ADD SWAP5 SWAP1 SWAP5 MSTORE DUP5 DUP5 ADD SWAP3 SWAP1 SWAP3 MSTORE PUSH1 0x60 DUP5 ADD MSTORE PUSH1 0x80 DUP4 ADD MSTORE MLOAD SWAP1 DUP2 SWAP1 SUB PUSH1 0xA0 ADD SWAP1 LOG4 POP POP PUSH1 0x9 DUP1 SLOAD PUSH1 0x1 DUP2 ADD SWAP1 SWAP2 SSTORE SWAP12 SWAP11 POP POP POP POP POP POP POP POP POP POP POP JUMP JUMPDEST PUSH1 0x0 DUP1 PUSH2 0x1E3C PUSH3 0x186A0 PUSH2 0xD79 PUSH3 0x13880 PUSH2 0xD6D PUSH2 0x1E2F DUP5 DUP5 DUP11 PUSH2 0x258 PUSH4 0xFFFFFFFF PUSH2 0x2BAB AND JUMP JUMPDEST DUP9 SWAP1 PUSH4 0xFFFFFFFF PUSH2 0x2D49 AND JUMP JUMPDEST SWAP1 POP PUSH2 0x1E49 DUP6 DUP6 DUP4 PUSH2 0x27BD JUMP JUMPDEST SWAP6 SWAP5 POP POP POP POP POP JUMP JUMPDEST PUSH1 0x10 SLOAD DUP2 JUMP JUMPDEST PUSH1 0x5 SLOAD PUSH1 0x40 DUP1 MLOAD PUSH4 0x23B872DD PUSH1 0xE0 SHL DUP2 MSTORE CALLER PUSH1 0x4 DUP3 ADD MSTORE ADDRESS PUSH1 0x24 DUP3 ADD MSTORE PUSH1 0x44 DUP2 ADD DUP5 SWAP1 MSTORE SWAP1 MLOAD PUSH1 0x0 SWAP3 PUSH1 0x1 PUSH1 0x1 PUSH1 0xA0 SHL SUB AND SWAP2 PUSH4 0x23B872DD SWAP2 PUSH1 0x64 DUP1 DUP4 ADD SWAP3 PUSH1 0x20 SWAP3 SWAP2 SWAP1 DUP3 SWAP1 SUB ADD DUP2 DUP8 DUP8 DUP1 EXTCODESIZE ISZERO DUP1 ISZERO PUSH2 0x1EB1 JUMPI PUSH1 0x0 DUP1 REVERT JUMPDEST POP GAS CALL ISZERO DUP1 ISZERO PUSH2 0x1EC5 JUMPI RETURNDATASIZE PUSH1 0x0 DUP1 RETURNDATACOPY RETURNDATASIZE PUSH1 0x0 REVERT JUMPDEST POP POP POP POP PUSH1 0x40 MLOAD RETURNDATASIZE PUSH1 0x20 DUP2 LT ISZERO PUSH2 0x1EDB JUMPI PUSH1 0x0 DUP1 REVERT JUMPDEST POP PUSH1 0x0 SWAP1 POP PUSH2 0x1EE8 PUSH2 0x1FB9 JUMP JUMPDEST PUSH2 0x1EF3 JUMPI POP DUP2 PUSH2 0x1F15 JUMP JUMPDEST PUSH2 0x1F12 PUSH2 0x1EFE PUSH2 0x1FB9 JUMP JUMPDEST PUSH1 0x1 SLOAD PUSH2 0xD79 SWAP1 DUP7 SWAP1 PUSH4 0xFFFFFFFF PUSH2 0x2BAB AND JUMP JUMPDEST SWAP1 POP JUMPDEST PUSH2 0x1F1F CALLER DUP3 PUSH2 0x2F6D JUMP JUMPDEST PUSH1 0xC SLOAD PUSH2 0x1F32 SWAP1 DUP5 PUSH4 0xFFFFFFFF PUSH2 0x29BC AND JUMP JUMPDEST PUSH1 0xC SSTORE PUSH1 0x5 SLOAD PUSH1 0x40 DUP1 MLOAD DUP4 DUP2 MSTORE PUSH1 0x20 DUP2 ADD DUP7 SWAP1 MSTORE DUP2 MLOAD PUSH1 0x1 PUSH1 0x1 PUSH1 0xA0 SHL SUB SWAP1 SWAP4 AND SWAP3 CALLER SWAP3 PUSH32 0xF5681F9D0DB1B911AC18EE83D515A1CF1051853A9EAE418316A2FDF7DEA427C5 SWAP3 DUP3 SWAP1 SUB ADD SWAP1 LOG3 POP PUSH1 0x1 SWAP3 SWAP2 POP POP JUMP JUMPDEST PUSH1 0x0 DUP1 PUSH2 0x1F95 DUP6 DUP6 DUP6 PUSH2 0x27BD JUMP JUMPDEST SWAP1 POP PUSH1 0x0 PUSH2 0x1FA3 DUP7 DUP6 PUSH2 0x8AA JUMP JUMPDEST SWAP1 POP PUSH2 0x1FAF DUP3 DUP3 PUSH2 0x3004 JUMP JUMPDEST SWAP7 SWAP6 POP POP POP POP POP POP JUMP JUMPDEST PUSH1 0x0 PUSH2 0x1597 PUSH1 0x10 SLOAD PUSH2 0x1FF6 PUSH1 0x11 SLOAD PUSH2 0x1FEA PUSH1 0xF SLOAD PUSH2 0x1FF6 PUSH1 0xE SLOAD PUSH2 0x1FEA PUSH1 0xD SLOAD PUSH1 0xC SLOAD PUSH2 0x2D49 SWAP1 SWAP2 SWAP1 PUSH4 0xFFFFFFFF AND JUMP JUMPDEST SWAP1 PUSH4 0xFFFFFFFF PUSH2 0x29BC AND JUMP JUMPDEST SWAP1 PUSH4 0xFFFFFFFF PUSH2 0x2D49 AND JUMP JUMPDEST PUSH2 0x258 DUP2 JUMP JUMPDEST CALLER ORIGIN EQ PUSH2 0x2046 JUMPI PUSH1 0x40 MLOAD PUSH3 0x461BCD PUSH1 0xE5 SHL DUP2 MSTORE PUSH1 0x4 ADD DUP1 DUP1 PUSH1 0x20 ADD DUP3 DUP2 SUB DUP3 MSTORE PUSH1 0x2E DUP2 MSTORE PUSH1 0x20 ADD DUP1 PUSH2 0x3184 PUSH1 0x2E SWAP2 CODECOPY PUSH1 0x40 ADD SWAP2 POP POP PUSH1 0x40 MLOAD DUP1 SWAP2 SUB SWAP1 REVERT JUMPDEST PUSH1 0x6 SLOAD PUSH1 0x40 DUP1 MLOAD PUSH4 0x70A08231 PUSH1 0xE0 SHL DUP2 MSTORE ADDRESS PUSH1 0x4 DUP3 ADD MSTORE SWAP1 MLOAD PUSH1 0x1 PUSH1 0x1 PUSH1 0xA0 SHL SUB SWAP1 SWAP3 AND SWAP2 PUSH4 0x95EA7B3 SWAP2 PUSH20 0x7A250D5630B4CF539739DF2C5DACB4C659F2488D SWAP2 DUP5 SWAP2 PUSH4 0x70A08231 SWAP2 PUSH1 0x24 DUP1 DUP4 ADD SWAP3 PUSH1 0x20 SWAP3 SWAP2 SWAP1 DUP3 SWAP1 SUB ADD DUP2 DUP7 DUP1 EXTCODESIZE ISZERO DUP1 ISZERO PUSH2 0x20AE JUMPI PUSH1 0x0 DUP1 REVERT JUMPDEST POP GAS STATICCALL ISZERO DUP1 ISZERO PUSH2 0x20C2 JUMPI RETURNDATASIZE PUSH1 0x0 DUP1 RETURNDATACOPY RETURNDATASIZE PUSH1 0x0 REVERT JUMPDEST POP POP POP POP PUSH1 0x40 MLOAD RETURNDATASIZE PUSH1 0x20 DUP2 LT ISZERO PUSH2 0x20D8 JUMPI PUSH1 0x0 DUP1 REVERT JUMPDEST POP MLOAD PUSH1 0x40 DUP1 MLOAD PUSH1 0x1 PUSH1 0x1 PUSH1 0xE0 SHL SUB NOT PUSH1 0xE0 DUP7 SWAP1 SHL AND DUP2 MSTORE PUSH1 0x1 PUSH1 0x1 PUSH1 0xA0 SHL SUB SWAP1 SWAP4 AND PUSH1 0x4 DUP5 ADD MSTORE PUSH1 0x24 DUP4 ADD SWAP2 SWAP1 SWAP2 MSTORE MLOAD PUSH1 0x44 DUP1 DUP4 ADD SWAP3 PUSH1 0x20 SWAP3 SWAP2 SWAP1 DUP3 SWAP1 SUB ADD DUP2 PUSH1 0x0 DUP8 DUP1 EXTCODESIZE ISZERO DUP1 ISZERO PUSH2 0x2129 JUMPI PUSH1 0x0 DUP1 REVERT JUMPDEST POP GAS CALL ISZERO DUP1 ISZERO PUSH2 0x213D JUMPI RETURNDATASIZE PUSH1 0x0 DUP1 RETURNDATACOPY RETURNDATASIZE PUSH1 0x0 REVERT JUMPDEST POP POP POP POP PUSH1 0x40 MLOAD RETURNDATASIZE PUSH1 0x20 DUP2 LT ISZERO PUSH2 0x2153 JUMPI PUSH1 0x0 DUP1 REVERT JUMPDEST POP POP PUSH1 0x7 SLOAD PUSH1 0x40 DUP1 MLOAD PUSH4 0x70A08231 PUSH1 0xE0 SHL DUP2 MSTORE ADDRESS PUSH1 0x4 DUP3 ADD MSTORE SWAP1 MLOAD PUSH1 0x1 PUSH1 0x1 PUSH1 0xA0 SHL SUB SWAP1 SWAP3 AND SWAP2 PUSH4 0x95EA7B3 SWAP2 PUSH20 0x7A250D5630B4CF539739DF2C5DACB4C659F2488D SWAP2 DUP5 SWAP2 PUSH4 0x70A08231 SWAP2 PUSH1 0x24 DUP1 DUP4 ADD SWAP3 PUSH1 0x20 SWAP3 SWAP2 SWAP1 DUP3 SWAP1 SUB ADD DUP2 DUP7 DUP1 EXTCODESIZE ISZERO DUP1 ISZERO PUSH2 0x21BD JUMPI PUSH1 0x0 DUP1 REVERT JUMPDEST POP GAS STATICCALL ISZERO DUP1 ISZERO PUSH2 0x21D1 JUMPI RETURNDATASIZE PUSH1 0x0 DUP1 RETURNDATACOPY RETURNDATASIZE PUSH1 0x0 REVERT JUMPDEST POP POP POP POP PUSH1 0x40 MLOAD RETURNDATASIZE PUSH1 0x20 DUP2 LT ISZERO PUSH2 0x21E7 JUMPI PUSH1 0x0 DUP1 REVERT JUMPDEST POP MLOAD PUSH1 0x40 DUP1 MLOAD PUSH1 0x1 PUSH1 0x1 PUSH1 0xE0 SHL SUB NOT PUSH1 0xE0 DUP7 SWAP1 SHL AND DUP2 MSTORE PUSH1 0x1 PUSH1 0x1 PUSH1 0xA0 SHL SUB SWAP1 SWAP4 AND PUSH1 0x4 DUP5 ADD MSTORE PUSH1 0x24 DUP4 ADD SWAP2 SWAP1 SWAP2 MSTORE MLOAD PUSH1 0x44 DUP1 DUP4 ADD SWAP3 PUSH1 0x20 SWAP3 SWAP2 SWAP1 DUP3 SWAP1 SUB ADD DUP2 PUSH1 0x0 DUP8 DUP1 EXTCODESIZE ISZERO DUP1 ISZERO PUSH2 0x2238 JUMPI PUSH1 0x0 DUP1 REVERT JUMPDEST POP GAS CALL ISZERO DUP1 ISZERO PUSH2 0x224C JUMPI RETURNDATASIZE PUSH1 0x0 DUP1 RETURNDATACOPY RETURNDATASIZE PUSH1 0x0 REVERT JUMPDEST POP POP POP POP PUSH1 0x40 MLOAD RETURNDATASIZE PUSH1 0x20 DUP2 LT ISZERO PUSH2 0x2262 JUMPI PUSH1 0x0 DUP1 REVERT JUMPDEST POP POP PUSH1 0x6 SLOAD PUSH1 0x7 SLOAD PUSH1 0x40 DUP1 MLOAD PUSH4 0x70A08231 PUSH1 0xE0 SHL DUP2 MSTORE ADDRESS PUSH1 0x4 DUP3 ADD MSTORE SWAP1 MLOAD PUSH1 0x0 SWAP4 PUSH20 0x7A250D5630B4CF539739DF2C5DACB4C659F2488D SWAP4 PUSH4 0xE8E33700 SWAP4 PUSH1 0x1 PUSH1 0x1 PUSH1 0xA0 SHL SUB SWAP3 DUP4 AND SWAP4 SWAP3 SWAP1 SWAP2 AND SWAP2 DUP4 SWAP2 PUSH4 0x70A08231 SWAP2 PUSH1 0x24 DUP1 DUP4 ADD SWAP3 PUSH1 0x20 SWAP3 SWAP2 SWAP1 DUP3 SWAP1 SUB ADD DUP2 DUP7 DUP1 EXTCODESIZE ISZERO DUP1 ISZERO PUSH2 0x22D7 JUMPI PUSH1 0x0 DUP1 REVERT JUMPDEST POP GAS STATICCALL ISZERO DUP1 ISZERO PUSH2 0x22EB JUMPI RETURNDATASIZE PUSH1 0x0 DUP1 RETURNDATACOPY RETURNDATASIZE PUSH1 0x0 REVERT JUMPDEST POP POP POP POP PUSH1 0x40 MLOAD RETURNDATASIZE PUSH1 0x20 DUP2 LT ISZERO PUSH2 0x2301 JUMPI PUSH1 0x0 DUP1 REVERT JUMPDEST POP MLOAD PUSH1 0x7 SLOAD PUSH1 0x40 DUP1 MLOAD PUSH4 0x70A08231 PUSH1 0xE0 SHL DUP2 MSTORE ADDRESS PUSH1 0x4 DUP3 ADD MSTORE SWAP1 MLOAD PUSH1 0x1 PUSH1 0x1 PUSH1 0xA0 SHL SUB SWAP1 SWAP3 AND SWAP2 PUSH4 0x70A08231 SWAP2 PUSH1 0x24 DUP1 DUP3 ADD SWAP3 PUSH1 0x20 SWAP3 SWAP1 SWAP2 SWAP1 DUP3 SWAP1 SUB ADD DUP2 DUP7 DUP1 EXTCODESIZE ISZERO DUP1 ISZERO PUSH2 0x234E JUMPI PUSH1 0x0 DUP1 REVERT JUMPDEST POP GAS STATICCALL ISZERO DUP1 ISZERO PUSH2 0x2362 JUMPI RETURNDATASIZE PUSH1 0x0 DUP1 RETURNDATACOPY RETURNDATASIZE PUSH1 0x0 REVERT JUMPDEST POP POP POP POP PUSH1 0x40 MLOAD RETURNDATASIZE PUSH1 0x20 DUP2 LT ISZERO PUSH2 0x2378 JUMPI PUSH1 0x0 DUP1 REVERT JUMPDEST POP MLOAD PUSH1 0x0 DUP1 ADDRESS PUSH2 0x2390 TIMESTAMP PUSH2 0x708 PUSH4 0xFFFFFFFF PUSH2 0x29BC AND JUMP JUMPDEST PUSH1 0x40 MLOAD DUP10 PUSH4 0xFFFFFFFF AND PUSH1 0xE0 SHL DUP2 MSTORE PUSH1 0x4 ADD DUP1 DUP10 PUSH1 0x1 PUSH1 0x1 PUSH1 0xA0 SHL SUB AND PUSH1 0x1 PUSH1 0x1 PUSH1 0xA0 SHL SUB AND DUP2 MSTORE PUSH1 0x20 ADD DUP9 PUSH1 0x1 PUSH1 0x1 PUSH1 0xA0 SHL SUB AND PUSH1 0x1 PUSH1 0x1 PUSH1 0xA0 SHL SUB AND DUP2 MSTORE PUSH1 0x20 ADD DUP8 DUP2 MSTORE PUSH1 0x20 ADD DUP7 DUP2 MSTORE PUSH1 0x20 ADD DUP6 DUP2 MSTORE PUSH1 0x20 ADD DUP5 DUP2 MSTORE PUSH1 0x20 ADD DUP4 PUSH1 0x1 PUSH1 0x1 PUSH1 0xA0 SHL SUB AND PUSH1 0x1 PUSH1 0x1 PUSH1 0xA0 SHL SUB AND DUP2 MSTORE PUSH1 0x20 ADD DUP3 DUP2 MSTORE PUSH1 0x20 ADD SWAP9 POP POP POP POP POP POP POP POP POP PUSH1 0x60 PUSH1 0x40 MLOAD DUP1 DUP4 SUB DUP2 PUSH1 0x0 DUP8 DUP1 EXTCODESIZE ISZERO DUP1 ISZERO PUSH2 0x242D JUMPI PUSH1 0x0 DUP1 REVERT JUMPDEST POP GAS CALL ISZERO DUP1 ISZERO PUSH2 0x2441 JUMPI RETURNDATASIZE PUSH1 0x0 DUP1 RETURNDATACOPY RETURNDATASIZE PUSH1 0x0 REVERT JUMPDEST POP POP POP POP PUSH1 0x40 MLOAD RETURNDATASIZE PUSH1 0x60 DUP2 LT ISZERO PUSH2 0x2457 JUMPI PUSH1 0x0 DUP1 REVERT JUMPDEST POP PUSH1 0x40 ADD MLOAD PUSH1 0xE SLOAD SWAP1 SWAP2 POP PUSH2 0x2472 SWAP1 DUP3 PUSH4 0xFFFFFFFF PUSH2 0x29BC AND JUMP JUMPDEST PUSH1 0xE SSTORE POP JUMP JUMPDEST PUSH1 0x7 SLOAD PUSH1 0x1 PUSH1 0x1 PUSH1 0xA0 SHL SUB AND DUP2 JUMP JUMPDEST PUSH1 0x0 PUSH1 0x40 MLOAD DUP1 DUP1 PUSH2 0x3225 PUSH1 0x40 SWAP2 CODECOPY PUSH1 0x40 DUP1 MLOAD SWAP2 DUP3 SWAP1 SUB DUP2 ADD DUP3 KECCAK256 DUP3 DUP3 ADD SWAP1 SWAP2 MSTORE PUSH1 0x11 DUP3 MSTORE PUSH17 0x54696D65204C6F616E2050616972204C5 PUSH1 0x7C SHL PUSH1 0x20 SWAP1 SWAP3 ADD SWAP2 SWAP1 SWAP2 MSTORE SWAP1 POP PUSH32 0x34C390D6331785FCB45C39EC85F48A9163F0E406BE73AECD3BF3A9FEAB72CF64 PUSH2 0x24F4 PUSH2 0x301A JUMP JUMPDEST ADDRESS PUSH1 0x40 MLOAD PUSH1 0x20 ADD DUP1 DUP6 DUP2 MSTORE PUSH1 0x20 ADD DUP5 DUP2 MSTORE PUSH1 0x20 ADD DUP4 DUP2 MSTORE PUSH1 0x20 ADD DUP3 PUSH1 0x1 PUSH1 0x1 PUSH1 0xA0 SHL SUB AND PUSH1 0x1 PUSH1 0x1 PUSH1 0xA0 SHL SUB AND DUP2 MSTORE PUSH1 0x20 ADD SWAP5 POP POP POP POP POP PUSH1 0x40 MLOAD PUSH1 0x20 DUP2 DUP4 SUB SUB DUP2 MSTORE SWAP1 PUSH1 0x40 MSTORE DUP1 MLOAD SWAP1 PUSH1 0x20 ADD KECCAK256 SWAP1 POP PUSH1 0x0 PUSH1 0x40 MLOAD DUP1 DUP1 PUSH2 0x31DC PUSH1 0x49 SWAP2 CODECOPY PUSH1 0x40 DUP1 MLOAD SWAP2 DUP3 SWAP1 SUB PUSH1 0x49 ADD DUP3 KECCAK256 PUSH1 0x1 PUSH1 0x1 PUSH1 0xA0 SHL SUB DUP1 DUP15 AND PUSH1 0x0 DUP2 DUP2 MSTORE PUSH1 0x4 PUSH1 0x20 SWAP1 DUP2 MSTORE DUP6 DUP3 KECCAK256 DUP1 SLOAD PUSH1 0x1 DUP1 DUP3 ADD SWAP1 SWAP3 SSTORE DUP3 DUP10 ADD SWAP7 SWAP1 SWAP7 MSTORE DUP8 DUP8 ADD SWAP4 SWAP1 SWAP4 MSTORE SWAP3 DUP16 AND PUSH1 0x60 DUP8 ADD MSTORE PUSH1 0x80 DUP7 ADD DUP15 SWAP1 MSTORE PUSH1 0xA0 DUP7 ADD SWAP4 SWAP1 SWAP4 MSTORE PUSH1 0xC0 DUP1 DUP7 ADD DUP14 SWAP1 MSTORE DUP5 MLOAD DUP1 DUP8 SUB SWAP1 SWAP2 ADD DUP2 MSTORE PUSH1 0xE0 DUP7 ADD DUP6 MSTORE DUP1 MLOAD SWAP1 DUP4 ADD KECCAK256 PUSH2 0x1901 PUSH1 0xF0 SHL PUSH2 0x100 DUP8 ADD MSTORE PUSH2 0x102 DUP7 ADD DUP10 SWAP1 MSTORE PUSH2 0x122 DUP1 DUP8 ADD DUP3 SWAP1 MSTORE DUP6 MLOAD DUP1 DUP9 SUB SWAP1 SWAP2 ADD DUP2 MSTORE PUSH2 0x142 DUP8 ADD DUP1 DUP8 MSTORE DUP2 MLOAD SWAP2 DUP6 ADD SWAP2 SWAP1 SWAP2 KECCAK256 SWAP1 DUP6 SWAP1 MSTORE PUSH2 0x162 DUP8 ADD DUP1 DUP8 MSTORE DUP2 SWAP1 MSTORE PUSH1 0xFF DUP14 AND PUSH2 0x182 DUP9 ADD MSTORE PUSH2 0x1A2 DUP8 ADD DUP13 SWAP1 MSTORE PUSH2 0x1C2 DUP8 ADD DUP12 SWAP1 MSTORE SWAP5 MLOAD SWAP1 SWAP8 POP SWAP4 SWAP6 POP SWAP2 SWAP4 SWAP2 SWAP3 PUSH2 0x1E2 DUP1 DUP5 ADD SWAP4 PUSH1 0x1F NOT DUP4 ADD SWAP3 SWAP1 DUP2 SWAP1 SUB SWAP1 SWAP2 ADD SWAP1 DUP6 GAS STATICCALL ISZERO DUP1 ISZERO PUSH2 0x265C JUMPI RETURNDATASIZE PUSH1 0x0 DUP1 RETURNDATACOPY RETURNDATASIZE PUSH1 0x0 REVERT JUMPDEST POP POP PUSH1 0x40 MLOAD PUSH1 0x1F NOT ADD MLOAD SWAP2 POP POP PUSH1 0x1 PUSH1 0x1 PUSH1 0xA0 SHL SUB DUP2 AND PUSH2 0x26AE JUMPI PUSH1 0x40 MLOAD PUSH3 0x461BCD PUSH1 0xE5 SHL DUP2 MSTORE PUSH1 0x4 ADD DUP1 DUP1 PUSH1 0x20 ADD DUP3 DUP2 SUB DUP3 MSTORE PUSH1 0x24 DUP2 MSTORE PUSH1 0x20 ADD DUP1 PUSH2 0x340B PUSH1 0x24 SWAP2 CODECOPY PUSH1 0x40 ADD SWAP2 POP POP PUSH1 0x40 MLOAD DUP1 SWAP2 SUB SWAP1 REVERT JUMPDEST DUP11 PUSH1 0x1 PUSH1 0x1 PUSH1 0xA0 SHL SUB AND DUP2 PUSH1 0x1 PUSH1 0x1 PUSH1 0xA0 SHL SUB AND EQ PUSH2 0x2714 JUMPI PUSH1 0x40 DUP1 MLOAD PUSH3 0x461BCD PUSH1 0xE5 SHL DUP2 MSTORE PUSH1 0x20 PUSH1 0x4 DUP3 ADD MSTORE PUSH1 0x1F PUSH1 0x24 DUP3 ADD MSTORE PUSH32 0x54696D654C6F616E733A3A7065726D69743A20756E617574686F72697A656400 PUSH1 0x44 DUP3 ADD MSTORE SWAP1 MLOAD SWAP1 DUP2 SWAP1 SUB PUSH1 0x64 ADD SWAP1 REVERT JUMPDEST DUP8 TIMESTAMP GT ISZERO PUSH2 0x2753 JUMPI PUSH1 0x40 MLOAD PUSH3 0x461BCD PUSH1 0xE5 SHL DUP2 MSTORE PUSH1 0x4 ADD DUP1 DUP1 PUSH1 0x20 ADD DUP3 DUP2 SUB DUP3 MSTORE PUSH1 0x24 DUP2 MSTORE PUSH1 0x20 ADD DUP1 PUSH2 0x342F PUSH1 0x24 SWAP2 CODECOPY PUSH1 0x40 ADD SWAP2 POP POP PUSH1 0x40 MLOAD DUP1 SWAP2 SUB SWAP1 REVERT JUMPDEST PUSH1 0x1 PUSH1 0x1 PUSH1 0xA0 SHL SUB DUP1 DUP13 AND PUSH1 0x0 DUP2 DUP2 MSTORE PUSH1 0x2 PUSH1 0x20 SWAP1 DUP2 MSTORE PUSH1 0x40 DUP1 DUP4 KECCAK256 SWAP5 DUP16 AND DUP1 DUP5 MSTORE SWAP5 DUP3 MSTORE SWAP2 DUP3 SWAP1 KECCAK256 DUP14 SWAP1 SSTORE DUP2 MLOAD DUP14 DUP2 MSTORE SWAP2 MLOAD PUSH32 0x8C5BE1E5EBEC7D5BD14F71427D1E84F3DD0314C0F7B2291E5B200AC8C7C3B925 SWAP3 DUP2 SWAP1 SUB SWAP1 SWAP2 ADD SWAP1 LOG3 POP POP POP POP POP POP POP POP POP POP POP JUMP JUMPDEST PUSH1 0x40 DUP1 MLOAD PUSH4 0x2D9198E1 PUSH1 0xE2 SHL DUP2 MSTORE PUSH1 0x1 PUSH1 0x1 PUSH1 0xA0 SHL SUB DUP6 DUP2 AND PUSH1 0x4 DUP4 ADD MSTORE DUP5 AND PUSH1 0x24 DUP3 ADD MSTORE PUSH1 0x44 DUP2 ADD DUP4 SWAP1 MSTORE SWAP1 MLOAD PUSH1 0x0 SWAP2 PUSH20 0xB5A6B318C39B60E7D8462F888E7FBA89F75D02F SWAP2 PUSH4 0xB6466384 SWAP2 PUSH1 0x64 DUP1 DUP3 ADD SWAP3 PUSH1 0x20 SWAP3 SWAP1 SWAP2 SWAP1 DUP3 SWAP1 SUB ADD DUP2 DUP7 DUP1 EXTCODESIZE ISZERO DUP1 ISZERO PUSH2 0x282A JUMPI PUSH1 0x0 DUP1 REVERT JUMPDEST POP GAS STATICCALL ISZERO DUP1 ISZERO PUSH2 0x283E JUMPI RETURNDATASIZE PUSH1 0x0 DUP1 RETURNDATACOPY RETURNDATASIZE PUSH1 0x0 REVERT JUMPDEST POP POP POP POP PUSH1 0x40 MLOAD RETURNDATASIZE PUSH1 0x20 DUP2 LT ISZERO PUSH2 0x2854 JUMPI PUSH1 0x0 DUP1 REVERT JUMPDEST POP MLOAD SWAP5 SWAP4 POP POP POP POP JUMP JUMPDEST PUSH1 0xE SLOAD DUP2 JUMP JUMPDEST PUSH1 0x1 PUSH1 0x1 PUSH1 0xA0 SHL SUB SWAP2 DUP3 AND PUSH1 0x0 SWAP1 DUP2 MSTORE PUSH1 0x2 PUSH1 0x20 SWAP1 DUP2 MSTORE PUSH1 0x40 DUP1 DUP4 KECCAK256 SWAP4 SWAP1 SWAP5 AND DUP3 MSTORE SWAP2 SWAP1 SWAP2 MSTORE KECCAK256 SLOAD SWAP1 JUMP JUMPDEST PUSH1 0x5 SLOAD PUSH1 0x40 DUP1 MLOAD PUSH4 0x70A08231 PUSH1 0xE0 SHL DUP2 MSTORE CALLER PUSH1 0x4 DUP3 ADD MSTORE SWAP1 MLOAD PUSH1 0x0 SWAP3 PUSH2 0x1597 SWAP3 PUSH1 0x1 PUSH1 0x1 PUSH1 0xA0 SHL SUB SWAP1 SWAP2 AND SWAP2 PUSH4 0x70A08231 SWAP2 PUSH1 0x24 DUP1 DUP3 ADD SWAP3 PUSH1 0x20 SWAP3 SWAP1 SWAP2 SWAP1 DUP3 SWAP1 SUB ADD DUP2 DUP7 DUP1 EXTCODESIZE ISZERO DUP1 ISZERO PUSH2 0x28E1 JUMPI PUSH1 0x0 DUP1 REVERT JUMPDEST POP GAS STATICCALL ISZERO DUP1 ISZERO PUSH2 0x28F5 JUMPI RETURNDATASIZE PUSH1 0x0 DUP1 RETURNDATACOPY RETURNDATASIZE PUSH1 0x0 REVERT JUMPDEST POP POP POP POP PUSH1 0x40 MLOAD RETURNDATASIZE PUSH1 0x20 DUP2 LT ISZERO PUSH2 0x290B JUMPI PUSH1 0x0 DUP1 REVERT JUMPDEST POP MLOAD PUSH2 0x1E58 JUMP JUMPDEST PUSH3 0x186A0 DUP2 JUMP JUMPDEST PUSH1 0x9 SLOAD DUP2 JUMP JUMPDEST PUSH1 0xA SLOAD DUP2 JUMP JUMPDEST PUSH1 0x0 DUP2 DUP5 DUP5 GT ISZERO PUSH2 0x29B4 JUMPI PUSH1 0x40 MLOAD PUSH3 0x461BCD PUSH1 0xE5 SHL DUP2 MSTORE PUSH1 0x4 ADD DUP1 DUP1 PUSH1 0x20 ADD DUP3 DUP2 SUB DUP3 MSTORE DUP4 DUP2 DUP2 MLOAD DUP2 MSTORE PUSH1 0x20 ADD SWAP2 POP DUP1 MLOAD SWAP1 PUSH1 0x20 ADD SWAP1 DUP1 DUP4 DUP4 PUSH1 0x0 JUMPDEST DUP4 DUP2 LT ISZERO PUSH2 0x2979 JUMPI DUP2 DUP2 ADD MLOAD DUP4 DUP3 ADD MSTORE PUSH1 0x20 ADD PUSH2 0x2961 JUMP JUMPDEST POP POP POP POP SWAP1 POP SWAP1 DUP2 ADD SWAP1 PUSH1 0x1F AND DUP1 ISZERO PUSH2 0x29A6 JUMPI DUP1 DUP3 SUB DUP1 MLOAD PUSH1 0x1 DUP4 PUSH1 0x20 SUB PUSH2 0x100 EXP SUB NOT AND DUP2 MSTORE PUSH1 0x20 ADD SWAP2 POP JUMPDEST POP SWAP3 POP POP POP PUSH1 0x40 MLOAD DUP1 SWAP2 SUB SWAP1 REVERT JUMPDEST POP POP POP SWAP1 SUB SWAP1 JUMP JUMPDEST PUSH1 0x0 DUP3 DUP3 ADD DUP4 DUP2 LT ISZERO PUSH2 0x17C7 JUMPI PUSH1 0x40 DUP1 MLOAD PUSH3 0x461BCD PUSH1 0xE5 SHL DUP2 MSTORE PUSH1 0x20 PUSH1 0x4 DUP3 ADD MSTORE PUSH1 0x1B PUSH1 0x24 DUP3 ADD MSTORE PUSH32 0x536166654D6174683A206164646974696F6E206F766572666C6F770000000000 PUSH1 0x44 DUP3 ADD MSTORE SWAP1 MLOAD SWAP1 DUP2 SWAP1 SUB PUSH1 0x64 ADD SWAP1 REVERT JUMPDEST PUSH1 0x1 PUSH1 0x1 PUSH1 0xA0 SHL SUB DUP4 AND PUSH2 0x2A5B JUMPI PUSH1 0x40 MLOAD PUSH3 0x461BCD PUSH1 0xE5 SHL DUP2 MSTORE PUSH1 0x4 ADD DUP1 DUP1 PUSH1 0x20 ADD DUP3 DUP2 SUB DUP3 MSTORE PUSH1 0x41 DUP2 MSTORE PUSH1 0x20 ADD DUP1 PUSH2 0x3388 PUSH1 0x41 SWAP2 CODECOPY PUSH1 0x60 ADD SWAP2 POP POP PUSH1 0x40 MLOAD DUP1 SWAP2 SUB SWAP1 REVERT JUMPDEST PUSH1 0x1 PUSH1 0x1 PUSH1 0xA0 SHL SUB DUP3 AND PUSH2 0x2AA0 JUMPI PUSH1 0x40 MLOAD PUSH3 0x461BCD PUSH1 0xE5 SHL DUP2 MSTORE PUSH1 0x4 ADD DUP1 DUP1 PUSH1 0x20 ADD DUP3 DUP2 SUB DUP3 MSTORE PUSH1 0x3F DUP2 MSTORE PUSH1 0x20 ADD DUP1 PUSH2 0x331F PUSH1 0x3F SWAP2 CODECOPY PUSH1 0x40 ADD SWAP2 POP POP PUSH1 0x40 MLOAD DUP1 SWAP2 SUB SWAP1 REVERT JUMPDEST PUSH2 0x2AE3 DUP2 PUSH1 0x40 MLOAD DUP1 PUSH1 0x60 ADD PUSH1 0x40 MSTORE DUP1 PUSH1 0x3B DUP2 MSTORE PUSH1 0x20 ADD PUSH2 0x32E4 PUSH1 0x3B SWAP2 CODECOPY PUSH1 0x1 PUSH1 0x1 PUSH1 0xA0 SHL SUB DUP7 AND PUSH1 0x0 SWAP1 DUP2 MSTORE PUSH1 0x3 PUSH1 0x20 MSTORE PUSH1 0x40 SWAP1 KECCAK256 SLOAD SWAP2 SWAP1 PUSH4 0xFFFFFFFF PUSH2 0x2925 AND JUMP JUMPDEST PUSH1 0x3 PUSH1 0x0 DUP6 PUSH1 0x1 PUSH1 0x1 PUSH1 0xA0 SHL SUB AND PUSH1 0x1 PUSH1 0x1 PUSH1 0xA0 SHL SUB AND DUP2 MSTORE PUSH1 0x20 ADD SWAP1 DUP2 MSTORE PUSH1 0x20 ADD PUSH1 0x0 KECCAK256 DUP2 SWAP1 SSTORE POP PUSH2 0x2B4F DUP2 PUSH1 0x40 MLOAD DUP1 PUSH1 0x60 ADD PUSH1 0x40 MSTORE DUP1 PUSH1 0x35 DUP2 MSTORE PUSH1 0x20 ADD PUSH2 0x328E PUSH1 0x35 SWAP2 CODECOPY PUSH1 0x1 PUSH1 0x1 PUSH1 0xA0 SHL SUB DUP6 AND PUSH1 0x0 SWAP1 DUP2 MSTORE PUSH1 0x3 PUSH1 0x20 MSTORE PUSH1 0x40 SWAP1 KECCAK256 SLOAD SWAP2 SWAP1 PUSH4 0xFFFFFFFF PUSH2 0x301E AND JUMP JUMPDEST PUSH1 0x1 PUSH1 0x1 PUSH1 0xA0 SHL SUB DUP1 DUP5 AND PUSH1 0x0 DUP2 DUP2 MSTORE PUSH1 0x3 PUSH1 0x20 SWAP1 DUP2 MSTORE PUSH1 0x40 SWAP2 DUP3 SWAP1 KECCAK256 SWAP5 SWAP1 SWAP5 SSTORE DUP1 MLOAD DUP6 DUP2 MSTORE SWAP1 MLOAD SWAP2 SWAP4 SWAP3 DUP8 AND SWAP3 PUSH32 0xDDF252AD1BE2C89B69C2B068FC378DAA952BA7F163C4A11628F55A4DF523B3EF SWAP3 SWAP2 DUP3 SWAP1 SUB ADD SWAP1 LOG3 POP POP POP JUMP JUMPDEST PUSH1 0x0 DUP3 PUSH2 0x2BBA JUMPI POP PUSH1 0x0 PUSH2 0xA54 JUMP JUMPDEST DUP3 DUP3 MUL DUP3 DUP5 DUP3 DUP2 PUSH2 0x2BC7 JUMPI INVALID JUMPDEST DIV EQ PUSH2 0x17C7 JUMPI PUSH1 0x40 MLOAD PUSH3 0x461BCD PUSH1 0xE5 SHL DUP2 MSTORE PUSH1 0x4 ADD DUP1 DUP1 PUSH1 0x20 ADD DUP3 DUP2 SUB DUP3 MSTORE PUSH1 0x21 DUP2 MSTORE PUSH1 0x20 ADD DUP1 PUSH2 0x32C3 PUSH1 0x21 SWAP2 CODECOPY PUSH1 0x40 ADD SWAP2 POP POP PUSH1 0x40 MLOAD DUP1 SWAP2 SUB SWAP1 REVERT JUMPDEST PUSH1 0x0 PUSH2 0x17C7 DUP4 DUP4 PUSH1 0x40 MLOAD DUP1 PUSH1 0x40 ADD PUSH1 0x40 MSTORE DUP1 PUSH1 0x1A DUP2 MSTORE PUSH1 0x20 ADD PUSH32 0x536166654D6174683A206469766973696F6E206279207A65726F000000000000 DUP2 MSTORE POP PUSH2 0x307C JUMP JUMPDEST PUSH1 0x40 DUP1 MLOAD DUP1 DUP3 ADD SWAP1 SWAP2 MSTORE PUSH1 0x1B DUP2 MSTORE PUSH32 0x54696D654C6F616E733A3A5F6275726E3A20756E646572666C6F770000000000 PUSH1 0x20 DUP3 ADD MSTORE PUSH1 0x1 SLOAD PUSH2 0x2C8E SWAP2 DUP4 SWAP1 PUSH4 0xFFFFFFFF PUSH2 0x2925 AND JUMP JUMPDEST PUSH1 0x1 SSTORE PUSH1 0x40 DUP1 MLOAD DUP1 DUP3 ADD DUP3 MSTORE PUSH1 0x1B DUP2 MSTORE PUSH32 0x54696D654C6F616E733A3A5F6275726E3A20756E646572666C6F770000000000 PUSH1 0x20 DUP1 DUP4 ADD SWAP2 SWAP1 SWAP2 MSTORE PUSH1 0x1 PUSH1 0x1 PUSH1 0xA0 SHL SUB DUP6 AND PUSH1 0x0 SWAP1 DUP2 MSTORE PUSH1 0x3 SWAP1 SWAP2 MSTORE SWAP2 SWAP1 SWAP2 KECCAK256 SLOAD PUSH2 0x2CF2 SWAP2 DUP4 SWAP1 PUSH4 0xFFFFFFFF PUSH2 0x2925 AND JUMP JUMPDEST PUSH1 0x1 PUSH1 0x1 PUSH1 0xA0 SHL SUB DUP4 AND PUSH1 0x0 DUP2 DUP2 MSTORE PUSH1 0x3 PUSH1 0x20 SWAP1 DUP2 MSTORE PUSH1 0x40 DUP1 DUP4 KECCAK256 SWAP5 SWAP1 SWAP5 SSTORE DUP4 MLOAD DUP6 DUP2 MSTORE SWAP4 MLOAD SWAP2 SWAP4 PUSH32 0xDDF252AD1BE2C89B69C2B068FC378DAA952BA7F163C4A11628F55A4DF523B3EF SWAP3 SWAP1 DUP2 SWAP1 SUB SWAP1 SWAP2 ADD SWAP1 LOG3 POP POP JUMP JUMPDEST PUSH1 0x0 PUSH2 0x17C7 DUP4 DUP4 PUSH1 0x40 MLOAD DUP1 PUSH1 0x60 ADD PUSH1 0x40 MSTORE DUP1 PUSH1 0x2A DUP2 MSTORE PUSH1 0x20 ADD PUSH2 0x335E PUSH1 0x2A SWAP2 CODECOPY PUSH2 0x2925 JUMP JUMPDEST PUSH1 0x0 PUSH2 0x2D7A DUP4 DUP4 PUSH2 0x16FC JUMP JUMPDEST SWAP1 POP PUSH2 0x2D96 PUSH3 0x186A0 PUSH2 0xD79 DUP4 PUSH3 0x19A28 PUSH4 0xFFFFFFFF PUSH2 0x2BAB AND JUMP JUMPDEST PUSH1 0x6 SLOAD SWAP1 SWAP2 POP PUSH1 0x0 SWAP1 DUP2 SWAP1 PUSH1 0x1 PUSH1 0x1 PUSH1 0xA0 SHL SUB DUP7 DUP2 AND SWAP2 AND EQ ISZERO PUSH2 0x2DBC JUMPI DUP4 SWAP2 POP PUSH2 0x2DD5 JUMP JUMPDEST PUSH1 0x7 SLOAD PUSH1 0x1 PUSH1 0x1 PUSH1 0xA0 SHL SUB DUP7 DUP2 AND SWAP2 AND EQ ISZERO PUSH2 0x2DD5 JUMPI POP DUP3 JUMPDEST PUSH1 0x5 SLOAD PUSH1 0x40 DUP1 MLOAD PUSH4 0x95EA7B3 PUSH1 0xE0 SHL DUP2 MSTORE PUSH20 0x7A250D5630B4CF539739DF2C5DACB4C659F2488D PUSH1 0x4 DUP3 ADD MSTORE PUSH1 0x24 DUP2 ADD DUP7 SWAP1 MSTORE SWAP1 MLOAD PUSH1 0x1 PUSH1 0x1 PUSH1 0xA0 SHL SUB SWAP1 SWAP3 AND SWAP2 PUSH4 0x95EA7B3 SWAP2 PUSH1 0x44 DUP1 DUP3 ADD SWAP3 PUSH1 0x20 SWAP3 SWAP1 SWAP2 SWAP1 DUP3 SWAP1 SUB ADD DUP2 PUSH1 0x0 DUP8 DUP1 EXTCODESIZE ISZERO DUP1 ISZERO PUSH2 0x2E3D JUMPI PUSH1 0x0 DUP1 REVERT JUMPDEST POP GAS CALL ISZERO DUP1 ISZERO PUSH2 0x2E51 JUMPI RETURNDATASIZE PUSH1 0x0 DUP1 RETURNDATACOPY RETURNDATASIZE PUSH1 0x0 REVERT JUMPDEST POP POP POP POP PUSH1 0x40 MLOAD RETURNDATASIZE PUSH1 0x20 DUP2 LT ISZERO PUSH2 0x2E67 JUMPI PUSH1 0x0 DUP1 REVERT JUMPDEST POP POP PUSH1 0x6 SLOAD PUSH1 0x7 SLOAD PUSH20 0x7A250D5630B4CF539739DF2C5DACB4C659F2488D SWAP2 PUSH4 0xBAA2ABDE SWAP2 PUSH1 0x1 PUSH1 0x1 PUSH1 0xA0 SHL SUB SWAP2 DUP3 AND SWAP2 AND DUP7 DUP7 DUP7 ADDRESS PUSH2 0x2EAE TIMESTAMP PUSH2 0x708 PUSH4 0xFFFFFFFF PUSH2 0x29BC AND JUMP JUMPDEST PUSH1 0x40 DUP1 MLOAD PUSH1 0x1 PUSH1 0x1 PUSH1 0xE0 SHL SUB NOT PUSH1 0xE0 DUP12 SWAP1 SHL AND DUP2 MSTORE PUSH1 0x1 PUSH1 0x1 PUSH1 0xA0 SHL SUB SWAP9 DUP10 AND PUSH1 0x4 DUP3 ADD MSTORE SWAP7 DUP9 AND PUSH1 0x24 DUP9 ADD MSTORE PUSH1 0x44 DUP8 ADD SWAP6 SWAP1 SWAP6 MSTORE PUSH1 0x64 DUP7 ADD SWAP4 SWAP1 SWAP4 MSTORE PUSH1 0x84 DUP6 ADD SWAP2 SWAP1 SWAP2 MSTORE SWAP1 SWAP4 AND PUSH1 0xA4 DUP4 ADD MSTORE PUSH1 0xC4 DUP3 ADD SWAP3 SWAP1 SWAP3 MSTORE DUP2 MLOAD PUSH1 0xE4 DUP1 DUP4 ADD SWAP4 SWAP3 DUP3 SWAP1 SUB ADD DUP2 PUSH1 0x0 DUP8 DUP1 EXTCODESIZE ISZERO DUP1 ISZERO PUSH2 0x2F22 JUMPI PUSH1 0x0 DUP1 REVERT JUMPDEST POP GAS CALL ISZERO DUP1 ISZERO PUSH2 0x2F36 JUMPI RETURNDATASIZE PUSH1 0x0 DUP1 RETURNDATACOPY RETURNDATASIZE PUSH1 0x0 REVERT JUMPDEST POP POP POP POP PUSH1 0x40 MLOAD RETURNDATASIZE PUSH1 0x40 DUP2 LT ISZERO PUSH2 0x2F4C JUMPI PUSH1 0x0 DUP1 REVERT JUMPDEST POP POP PUSH1 0xF SLOAD PUSH2 0x2F61 SWAP1 DUP5 PUSH4 0xFFFFFFFF PUSH2 0x29BC AND JUMP JUMPDEST PUSH1 0xF SSTORE POP SWAP1 SWAP4 SWAP3 POP POP POP JUMP JUMPDEST PUSH1 0x1 SLOAD PUSH2 0x2F80 SWAP1 DUP3 PUSH4 0xFFFFFFFF PUSH2 0x29BC AND JUMP JUMPDEST PUSH1 0x1 SSTORE PUSH1 0x1 PUSH1 0x1 PUSH1 0xA0 SHL SUB DUP3 AND PUSH1 0x0 SWAP1 DUP2 MSTORE PUSH1 0x3 PUSH1 0x20 MSTORE PUSH1 0x40 SWAP1 KECCAK256 SLOAD PUSH2 0x2FAC SWAP1 DUP3 PUSH4 0xFFFFFFFF PUSH2 0x29BC AND JUMP JUMPDEST PUSH1 0x1 PUSH1 0x1 PUSH1 0xA0 SHL SUB DUP4 AND PUSH1 0x0 DUP2 DUP2 MSTORE PUSH1 0x3 PUSH1 0x20 SWAP1 DUP2 MSTORE PUSH1 0x40 DUP1 DUP4 KECCAK256 SWAP5 SWAP1 SWAP5 SSTORE DUP4 MLOAD DUP6 DUP2 MSTORE SWAP4 MLOAD SWAP3 SWAP4 SWAP2 SWAP3 PUSH32 0xDDF252AD1BE2C89B69C2B068FC378DAA952BA7F163C4A11628F55A4DF523B3EF SWAP3 DUP2 SWAP1 SUB SWAP1 SWAP2 ADD SWAP1 LOG3 POP POP JUMP JUMPDEST PUSH1 0x0 DUP2 DUP4 LT PUSH2 0x3013 JUMPI DUP2 PUSH2 0x17C7 JUMP JUMPDEST POP SWAP1 SWAP2 SWAP1 POP JUMP JUMPDEST CHAINID SWAP1 JUMP JUMPDEST PUSH1 0x0 DUP4 DUP4 ADD DUP3 DUP6 DUP3 LT ISZERO PUSH2 0x3073 JUMPI PUSH1 0x40 MLOAD PUSH3 0x461BCD PUSH1 0xE5 SHL DUP2 MSTORE PUSH1 0x20 PUSH1 0x4 DUP3 ADD DUP2 DUP2 MSTORE DUP4 MLOAD PUSH1 0x24 DUP5 ADD MSTORE DUP4 MLOAD SWAP1 SWAP3 DUP4 SWAP3 PUSH1 0x44 SWAP1 SWAP2 ADD SWAP2 SWAP1 DUP6 ADD SWAP1 DUP1 DUP4 DUP4 PUSH1 0x0 DUP4 ISZERO PUSH2 0x2979 JUMPI DUP2 DUP2 ADD MLOAD DUP4 DUP3 ADD MSTORE PUSH1 0x20 ADD PUSH2 0x2961 JUMP JUMPDEST POP SWAP5 SWAP4 POP POP POP POP JUMP JUMPDEST PUSH1 0x0 DUP2 DUP4 PUSH2 0x30CB JUMPI PUSH1 0x40 MLOAD PUSH3 0x461BCD PUSH1 0xE5 SHL DUP2 MSTORE PUSH1 0x20 PUSH1 0x4 DUP3 ADD DUP2 DUP2 MSTORE DUP4 MLOAD PUSH1 0x24 DUP5 ADD MSTORE DUP4 MLOAD SWAP1 SWAP3 DUP4 SWAP3 PUSH1 0x44 SWAP1 SWAP2 ADD SWAP2 SWAP1 DUP6 ADD SWAP1 DUP1 DUP4 DUP4 PUSH1 0x0 DUP4 ISZERO PUSH2 0x2979 JUMPI DUP2 DUP2 ADD MLOAD DUP4 DUP3 ADD MSTORE PUSH1 0x20 ADD PUSH2 0x2961 JUMP JUMPDEST POP PUSH1 0x0 DUP4 DUP6 DUP2 PUSH2 0x30D7 JUMPI INVALID JUMPDEST DIV SWAP6 SWAP5 POP POP POP POP POP JUMP INVALID SLOAD PUSH10 0x6D654C6F616E733A3A72 PUSH6 0x7061793A2070 PUSH16 0x736974696F6E20697320616C72656164 PUSH26 0x20636C6F73656454696D654C6F616E733A3A6C6F616E3A20696E PUSH20 0x756666696369656E74206C697175696469747954 PUSH10 0x6D654C6F616E733A3A77 PUSH10 0x7468647261773A20696E PUSH20 0x756666696369656E74206C697175696469747920 PUSH21 0x6F2077697468647261772C20747279206465706F73 PUSH10 0x744C6971756964697479 0x28 0x29 SLOAD PUSH10 0x6D654C6F616E733A3A64 PUSH6 0x706F7369744C PUSH10 0x717569646974793A206E PUSH16 0x7420616E20454F41206B656570657254 PUSH10 0x6D654C6F616E733A3A72 PUSH6 0x7061793A2070 PUSH16 0x736974696F6E20616C72656164792065 PUSH25 0x70697265645065726D69742861646472657373206F776E6572 0x2C PUSH2 0x6464 PUSH19 0x657373207370656E6465722C75696E74207661 PUSH13 0x75652C75696E74206E6F6E6365 0x2C PUSH22 0x696E7420646561646C696E6529454950373132446F6D PUSH2 0x696E 0x28 PUSH20 0x7472696E67206E616D652C75696E742063686169 PUSH15 0x49642C616464726573732076657269 PUSH7 0x79696E67436F6E PUSH21 0x726163742954696D654C6F616E733A3A636C6F7365 GASPRICE KECCAK256 PUSH13 0x6971756964697479496E557365 KECCAK256 PUSH16 0x766572666C6F7754696D654C6F616E73 GASPRICE GASPRICE 0x5F PUSH21 0x72616E73666572546F6B656E733A207472616E7366 PUSH6 0x7220616D6F75 PUSH15 0x74206F766572666C6F777353616665 0x4D PUSH2 0x7468 GASPRICE KECCAK256 PUSH14 0x756C7469706C69636174696F6E20 PUSH16 0x766572666C6F7754696D654C6F616E73 GASPRICE GASPRICE 0x5F PUSH21 0x72616E73666572546F6B656E733A207472616E7366 PUSH6 0x7220616D6F75 PUSH15 0x7420657863656564732062616C616E PUSH4 0x6554696D PUSH6 0x4C6F616E733A GASPRICE 0x5F PUSH21 0x72616E73666572546F6B656E733A2063616E6E6F74 KECCAK256 PUSH21 0x72616E7366657220746F20746865207A65726F2061 PUSH5 0x6472657373 SLOAD PUSH10 0x6D654C6F616E733A3A53 PUSH2 0x6665 0x4D PUSH2 0x7468 GASPRICE KECCAK256 PUSH20 0x75627472616374696F6E20756E646572666C6F77 SLOAD PUSH10 0x6D654C6F616E733A3A5F PUSH21 0x72616E73666572546F6B656E733A2063616E6E6F74 KECCAK256 PUSH21 0x72616E736665722066726F6D20746865207A65726F KECCAK256 PUSH2 0x6464 PUSH19 0x65737354696D654C6F616E733A3A7472616E73 PUSH7 0x657246726F6D3A KECCAK256 PUSH21 0x72616E7366657220616D6F756E7420657863656564 PUSH20 0x207370656E64657220616C6C6F77616E63655469 PUSH14 0x654C6F616E733A3A7065726D6974 GASPRICE KECCAK256 PUSH10 0x6E76616C696420736967 PUSH15 0x617475726554696D654C6F616E733A GASPRICE PUSH17 0x65726D69743A207369676E617475726520 PUSH6 0x787069726564 LOG2 PUSH5 0x6970667358 0x22 SLT KECCAK256 DELEGATECALL PUSH25 0x2F593666CB22D8C4853B2A862B99EEEFA08F62831C53E20CDA SDIV ADDRESS 0x27 0xEE SWAP7 PUSH5 0x736F6C6343 STOP MOD MOD STOP CALLER SLOAD PUSH10 0x6D654C6F616E50616972 CHAINID PUSH2 0x6374 PUSH16 0x72793A3A6465706C6F793A2070616972 KECCAK256 PUSH2 0x6C72 PUSH6 0x616479206372 PUSH6 0x61746564A264 PUSH10 0x70667358221220CF0DE0 DUP9 0xEB 0x49 PUSH23 0x55A7B983217348F8E059666BB70CE1C897E9D84D1329CB PUSH18 0x364736F6C63430006060033000000000000 "
		},
		"gasEstimates": {
			"creation": {
				"codeDepositCost": "3178400",
				"executionCost": "3515",
				"totalCost": "3181915"
			},
			"external": {
				"addresses()": "infinite",
				"deploy(address)": "infinite",
				"deployed(uint256)": "1948",
				"pairs(address)": "1210"
			}
		},
		"methodIdentifiers": {
			"addresses()": "da0321cd",
			"deploy(address)": "4c96a389",
			"deployed(uint256)": "15b40ec0",
			"pairs(address)": "fe33b302"
		}
	},
	"abi": [
		{
			"inputs": [],
			"name": "addresses",
			"outputs": [
				{
					"internalType": "address[]",
					"name": "",
					"type": "address[]"
				}
			],
			"stateMutability": "view",
			"type": "function"
		},
		{
			"inputs": [
				{
					"internalType": "contract IUniswapV2Pair",
					"name": "_pair",
					"type": "address"
				}
			],
			"name": "deploy",
			"outputs": [
				{
					"internalType": "address",
					"name": "",
					"type": "address"
				}
			],
			"stateMutability": "nonpayable",
			"type": "function"
		},
		{
			"inputs": [
				{
					"internalType": "uint256",
					"name": "",
					"type": "uint256"
				}
			],
			"name": "deployed",
			"outputs": [
				{
					"internalType": "address",
					"name": "",
					"type": "address"
				}
			],
			"stateMutability": "view",
			"type": "function"
		},
		{
			"inputs": [
				{
					"internalType": "address",
					"name": "",
					"type": "address"
				}
			],
			"name": "pairs",
			"outputs": [
				{
					"internalType": "address",
					"name": "",
					"type": "address"
				}
			],
			"stateMutability": "view",
			"type": "function"
		}
	]
}