{
	"data": {
		"bytecode": {
			"linkReferences": {},
			"object": "608060405234801561001057600080fd5b50613deb806100206000396000f3fe608060405234801561001057600080fd5b506004361061004c5760003560e01c806315b40ec0146100515780634c96a3891461008a578063da0321cd146100b0578063fe33b30214610108575b600080fd5b61006e6004803603602081101561006757600080fd5b503561012e565b604080516001600160a01b039092168252519081900360200190f35b61006e600480360360208110156100a057600080fd5b50356001600160a01b0316610155565b6100b8610257565b60408051602080825283518183015283519192839290830191858101910280838360005b838110156100f45781810151838201526020016100dc565b505050509050019250505060405180910390f35b61006e6004803603602081101561011e57600080fd5b50356001600160a01b03166102b9565b6001818154811061013b57fe5b6000918252602090912001546001600160a01b0316905081565b6001600160a01b03818116600090815260208190526040812054909116156101ae5760405162461bcd60e51b8152600401808060200182810382526030815260200180613d866030913960400191505060405180910390fd5b816040516101bb906102d4565b6001600160a01b03909116815260405190819003602001906000f0801580156101e8573d6000803e3d6000fd5b506001600160a01b03808416600081815260208190526040812080549484166001600160a01b0319958616178155600180548082019091557fb10e2d527612073b26eecdfd717e6a320cf44b4afac2b0732d9fcbe2b7fa0cf60180549095168317909455529054169050919050565b606060018054806020026020016040519081016040528092919081815260200182805480156102af57602002820191906000526020600020905b81546001600160a01b03168152600190910190602001808311610291575b5050505050905090565b6000602081905290815260409020546001600160a01b031681565b613aa4806102e28339019056fe608060405260006001553480156200001657600080fd5b5060405162003aa438038062003aa4833981810160405260208110156200003c57600080fd5b505160408051630dfe168160e01b815290516001600160a01b03831691630dfe1681916004808301926020929190829003018186803b1580156200007f57600080fd5b505afa15801562000094573d6000803e3d6000fd5b505050506040513d6020811015620000ab57600080fd5b5051604080516395d89b4160e01b815290516001600160a01b03909216916395d89b4191600480820192600092909190829003018186803b158015620000f057600080fd5b505afa15801562000105573d6000803e3d6000fd5b505050506040513d6000823e601f3d908101601f1916820160405260208110156200012f57600080fd5b81019080805160405193929190846401000000008211156200015057600080fd5b9083019060208201858111156200016657600080fd5b82516401000000008111828201881017156200018157600080fd5b82525081516020918201929091019080838360005b83811015620001b057818101518382015260200162000196565b50505050905090810190601f168015620001de5780820380516001836020036101000a031916815260200191505b50604052505050816001600160a01b031663d21220a76040518163ffffffff1660e01b815260040160206040518083038186803b1580156200021f57600080fd5b505afa15801562000234573d6000803e3d6000fd5b505050506040513d60208110156200024b57600080fd5b5051604080516395d89b4160e01b815290516001600160a01b03909216916395d89b4191600480820192600092909190829003018186803b1580156200029057600080fd5b505afa158015620002a5573d6000803e3d6000fd5b505050506040513d6000823e601f3d908101601f191682016040526020811015620002cf57600080fd5b8101908080516040519392919084640100000000821115620002f057600080fd5b9083019060208201858111156200030657600080fd5b82516401000000008111828201881017156200032157600080fd5b82525081516020918201929091019080838360005b838110156200035057818101518382015260200162000336565b50505050905090810190601f1680156200037e5780820380516001836020036101000a031916815260200191505b506040525050506040516020018083805190602001908083835b60208310620003b95780518252601f19909201916020918201910162000398565b6001836020036101000a03801982511681845116808217855250505050505090500180602d60f81b81525060010182805190602001908083835b60208310620004145780518252601f199092019160209182019101620003f3565b6001836020036101000a0380198251168184511680821785525050505050509050019250505060405160208183030381529060405260009080519060200190620004609291906200058f565b50600580546001600160a01b0319166001600160a01b03831690811790915560408051630dfe168160e01b81529051630dfe168191600480820192602092909190829003018186803b158015620004b657600080fd5b505afa158015620004cb573d6000803e3d6000fd5b505050506040513d6020811015620004e257600080fd5b5051600680546001600160a01b0319166001600160a01b039283161790556040805163d21220a760e01b815290519183169163d21220a791600480820192602092909190829003018186803b1580156200053b57600080fd5b505afa15801562000550573d6000803e3d6000fd5b505050506040513d60208110156200056757600080fd5b5051600780546001600160a01b0319166001600160a01b039092169190911790555062000634565b828054600181600116156101000203166002900490600052602060002090601f016020900481019282601f10620005d257805160ff191683800117855562000602565b8280016001018555821562000602579182015b8281111562000602578251825591602001919060010190620005e5565b506200061092915062000614565b5090565b6200063191905b808211156200061057600081556001016200061b565b90565b61346080620006446000396000f3fe608060405234801561001057600080fd5b50600436106102d65760003560e01c8063916e481e11610182578063be293168116100e9578063d66639b9116100a2578063de5f62681161007c578063de5f626814610857578063ec342ad01461085f578063fc7e9c6f14610867578063fdda918e1461086f576102d6565b8063d66639b9146107eb578063d944392314610821578063dd62ed3e14610829576102d6565b8063be29316814610742578063c3926a2914610778578063c57981b514610780578063ca593c5914610788578063d21220a714610792578063d505accf1461079a576102d6565b8063a8aa1b311161013b578063a8aa1b3114610677578063a9059cbb1461067f578063a95fe267146106ab578063b6466384146106e7578063b6641dbd1461071d578063b6b55f2514610725576102d6565b8063916e481e1461057f57806395d89b41146105875780639883fd421461058f57806398c61c37146105ac57806399fbab88146105d8578063a7b80eb21461064b576102d6565b8063313ce5671161024157806360b4d59f116101fa57806370a08231116101d457806370a08231146105235780637ecebe0014610549578063853828b61461056f5780638fbc3ecd14610577576102d6565b806360b4d59f1461050b57806362965d8e1461051357806369b411701461051b576102d6565b8063313ce56714610492578063371fd8e6146104b057806338013f02146104cd5780633c4750df146104d55780634870827d146104fb578063541bcb7614610503576102d6565b80630dfe1681116102935780630dfe16811461040357806318160ddd1461042757806320606b701461042f57806323b872dd146104375780632e1a7d4d1461046d57806330adf81f1461048a576102d6565b80630499d1ac146102db57806306fdde03146102f557806307fa901a14610372578063095ea7b31461039e5780630aebeb4e146103de5780630d6b6841146103fb575b600080fd5b6102e3610877565b60408051918252519081900360200190f35b6102fd61087d565b6040805160208082528351818301528351919283929083019185019080838360005b8381101561033757818101518382015260200161031f565b50505050905090810190601f1680156103645780820380516001836020036101000a031916815260200191505b509250505060405180910390f35b6102e36004803603604081101561038857600080fd5b506001600160a01b0381351690602001356108a8565b6103ca600480360360408110156103b457600080fd5b506001600160a01b038135169060200135610a58565b604080519115158252519081900360200190f35b6103ca600480360360208110156103f457600080fd5b5035610abe565b6102e3610c10565b61040b610c3d565b604080516001600160a01b039092168252519081900360200190f35b6102e3610c4c565b6102e3610c52565b6103ca6004803603606081101561044d57600080fd5b506001600160a01b03813581169160208101359091169060400135610c6e565b6103ca6004803603602081101561048357600080fd5b5035610d56565b6102e3610f29565b61049a610f44565b6040805160ff9092168252519081900360200190f35b6103ca600480360360208110156104c657600080fd5b5035610f49565b61040b611309565b6102e3600480360360208110156104eb57600080fd5b50356001600160a01b0316611321565b6102e361151e565b61040b611524565b6102e361153c565b6102e3611542565b6102e3611549565b6102e36004803603602081101561053957600080fd5b50356001600160a01b031661154f565b6102e36004803603602081101561055f57600080fd5b50356001600160a01b031661156a565b6103ca61157c565b6102e361159a565b6102e36115a1565b6102fd6115a7565b6102e3600480360360208110156105a557600080fd5b5035611635565b6102e3600480360360408110156105c257600080fd5b506001600160a01b038135169060200135611661565b6105f5600480360360208110156105ee57600080fd5b503561168f565b604080516001600160a01b039a8b168152988a1660208a015296909816878701526060870194909452608086019290925260a085015260c084015260e08301529115156101008201529051908190036101200190f35b6102e36004803603604081101561066157600080fd5b506001600160a01b0381351690602001356116fa565b61040b6117cc565b6103ca6004803603604081101561069557600080fd5b506001600160a01b0381351690602001356117db565b6102e3600480360360808110156106c157600080fd5b506001600160a01b038135811691602081013590911690604081013590606001356117f1565b6102e3600480360360608110156106fd57600080fd5b506001600160a01b03813581169160208101359091169060400135611e05565b6102e3611e50565b6103ca6004803603602081101561073b57600080fd5b5035611e56565b6102e36004803603606081101561075857600080fd5b506001600160a01b03813581169160208101359091169060400135611f85565b6102e3611fb7565b6102e3612000565b610790612006565b005b61040b612476565b610790600480360360e08110156107b057600080fd5b506001600160a01b03813581169160208101359091169060408101359060608101359060ff6080820135169060a08101359060c00135612485565b6102e36004803603606081101561080157600080fd5b506001600160a01b038135811691602081013590911690604001356127b9565b6102e361285a565b6102e36004803603604081101561083f57600080fd5b506001600160a01b0381358116916020013516612860565b6103ca61288b565b6102e361290e565b6102e3612915565b6102e361291b565b60115481565b6040518060400160405280600f81526020016e0556e696c6f616e2050616972204c5608c1b81525081565b6000806000600560009054906101000a90046001600160a01b03166001600160a01b0316630902f1ac6040518163ffffffff1660e01b815260040160606040518083038186803b1580156108fb57600080fd5b505afa15801561090f573d6000803e3d6000fd5b505050506040513d606081101561092557600080fd5b5080516020909101516006546dffffffffffffffffffffffffffff9283169450911691506001600160a01b03868116911614156109f25760408051630153543560e21b81526004810186905260248101849052604481018390529051737a250d5630b4cf539739df2c5dacb4c659f2488d9163054d50d4916064808301926020929190829003018186803b1580156109bc57600080fd5b505afa1580156109d0573d6000803e3d6000fd5b505050506040513d60208110156109e657600080fd5b50519250610a52915050565b60408051630153543560e21b81526004810186905260248101839052604481018490529051737a250d5630b4cf539739df2c5dacb4c659f2488d9163054d50d4916064808301926020929190829003018186803b1580156109bc57600080fd5b92915050565b3360008181526002602090815260408083206001600160a01b038716808552908352818420869055815186815291519394909390927f8c5be1e5ebec7d5bd14f71427d1e84f3dd0314c0f7b2291e5b200ac8c7c3b925928290030190a350600192915050565b60008060088381548110610ace57fe5b6000918252602090912060099091020180549091506001600160a01b0316610afa576000915050610c0b565b600881015460ff16610b10576000915050610c0b565b4381600701541115610b26576000915050610c0b565b60088101805460ff19169055600581015460408051606081019091526027808252610b659291906131676020830139601054919063ffffffff61292116565b6010556005810154601154610b7f9163ffffffff6129b816565b6011556002810154600182015482546003840154600485015460068601546007870154604080518b815260208101959095528481019390935260608401919091526080830152516001600160a01b03948516949384169392909216917fdbeffa8a7db601f3ccf50979e78f7deaae9c7af29ee9cbf8855536b7edbc78c29181900360a00190a460019150505b919050565b600a546000905b600954811015610c3357610c2a81610abe565b50600101610c17565b600a819055905090565b6006546001600160a01b031681565b60015481565b6040518080613286604091396040019050604051809103902081565b6001600160a01b038316600081815260026020908152604080832033808552925282205491929091908214801590610ca857506000198114155b15610d3f576000610cda856040518060600160405280604081526020016130d66040913984919063ffffffff61292116565b6001600160a01b0380891660008181526002602090815260408083209489168084529482529182902085905581518581529151949550929391927f8c5be1e5ebec7d5bd14f71427d1e84f3dd0314c0f7b2291e5b200ac8c7c3b92592918290030190a3505b610d4a868686612a12565b50600195945050505050565b600080610d83600154610d7785610d6b611fb7565b9063ffffffff612ba716565b9063ffffffff612c0016565b9050610d8f3384612c42565b600554604080516370a0823160e01b8152306004820152905183926001600160a01b0316916370a08231916024808301926020929190829003018186803b158015610dd957600080fd5b505afa158015610ded573d6000803e3d6000fd5b505050506040513d6020811015610e0357600080fd5b505111610e415760405162461bcd60e51b815260040180806020018281038252604d815260200180613366604d913960600191505060405180910390fd5b6005546040805163a9059cbb60e01b81523360048201526024810184905290516001600160a01b039092169163a9059cbb916044808201926020929091908290030181600087803b158015610e9557600080fd5b505af1158015610ea9573d6000803e3d6000fd5b505050506040513d6020811015610ebf57600080fd5b5050600d54610ed4908263ffffffff6129b816565b600d55600554604080518581526020810184905281516001600160a01b039093169233927f94946556b6f856cfa4d156a5c818935ecb2d8cc4b02c262b83747e88d6c75f20928290030190a350600192915050565b60405180604961318e82396049019050604051809103902081565b601281565b60008060088381548110610f5957fe5b60009182526020909120600990910201600881015490915060ff16610faf5760405162461bcd60e51b815260040180806020018281038252602a8152602001806132c6602a913960400191505060405180910390fd5b43816007015410610ff15760405162461bcd60e51b81526004018080602001828103825260288152602001806131ff6028913960400191505060405180910390fd5b6002810154600480830154604080516323b872dd60e01b815233938101939093523060248401526044830191909152516001600160a01b03909216916323b872dd916064808201926020929091908290030181600087803b15801561105557600080fd5b505af1158015611069573d6000803e3d6000fd5b505050506040513d602081101561107f57600080fd5b50506001810154604080516370a0823160e01b815230600482015290516000926001600160a01b0316916370a08231916024808301926020929190829003018186803b1580156110ce57600080fd5b505afa1580156110e2573d6000803e3d6000fd5b505050506040513d60208110156110f857600080fd5b505160038301549091508110156111385760018201546003830154611136916001600160a01b031690611131908463ffffffff612d3d16565b612d62565b505b600182015460038301546040805163a9059cbb60e01b81523360048201526024810192909252516001600160a01b039092169163a9059cbb916044808201926020929091908290030181600087803b15801561119357600080fd5b505af11580156111a7573d6000803e3d6000fd5b505050506040513d60208110156111bd57600080fd5b50506008808301805460ff191690558054839190869081106111db57fe5b6000918252602091829020835460099092020180546001600160a01b03199081166001600160a01b0393841617825560018086015481840180548416918616919091179055600280870154818501805490941690861617909255600380870154818501556004808801548186015560058089015490860155600680890154818701556007808a0154818801556008998a015499909601805460ff909a16151560ff19909a169990991790985592890154918901548954918a0154938a0154978a0154948a0154604080518e81529889019590955287850198909852606087019490945260808601969096529051908316949183169391909216917f1a7a55034943b99bc89bbb5cdb0d8934813efa402b537313abe0c2cbf3fc86a79181900360a00190a45060019392505050565b730b5a6b318c39b60e7d8462f888e7fba89f75d02f81565b6000610a526114a0600560009054906101000a90046001600160a01b03166001600160a01b03166318160ddd6040518163ffffffff1660e01b815260040160206040518083038186803b15801561137757600080fd5b505afa15801561138b573d6000803e3d6000fd5b505050506040513d60208110156113a157600080fd5b5051600554604080516370a0823160e01b81523060048201529051610d77926001600160a01b0316916370a08231916024808301926020929190829003018186803b1580156113ef57600080fd5b505afa158015611403573d6000803e3d6000fd5b505050506040513d602081101561141957600080fd5b5051600554604080516370a0823160e01b81526001600160a01b0392831660048201529051918916916370a0823191602480820192602092909190829003018186803b15801561146857600080fd5b505afa15801561147c573d6000803e3d6000fd5b505050506040513d602081101561149257600080fd5b50519063ffffffff612ba716565b604080516370a0823160e01b815230600482015290516001600160a01b038616916370a08231916024808301926020929190829003018186803b1580156114e657600080fd5b505afa1580156114fa573d6000803e3d6000fd5b505050506040513d602081101561151057600080fd5b50519063ffffffff6129b816565b600d5481565b737a250d5630b4cf539739df2c5dacb4c659f2488d81565b600c5481565b6201388081565b6119c881565b6001600160a01b031660009081526003602052604090205490565b60046020526000908152604090205481565b3360009081526003602052604081205461159590610d56565b905090565b62019a2881565b600f5481565b6000805460408051602060026001851615610100026000190190941693909304601f8101849004840282018401909252818152929183018282801561162d5780601f106116025761010080835404028352916020019161162d565b820191906000526020600020905b81548152906001019060200180831161161057829003601f168201915b505050505081565b600a546000905b828110156116565761164d81610abe565b5060010161163c565b600a81905592915050565b600b602052816000526040600020818154811061167a57fe5b90600052602060002001600091509150505481565b6008818154811061169c57fe5b60009182526020909120600990910201805460018201546002830154600384015460048501546005860154600687015460078801546008909801546001600160a01b0397881699509587169794909616959294919390929160ff1689565b600554604080516370a0823160e01b81526001600160a01b03928316600482015290516000926117c592908616916370a0823191602480820192602092909190829003018186803b15801561174e57600080fd5b505afa158015611762573d6000803e3d6000fd5b505050506040513d602081101561177857600080fd5b5051600554604080516318160ddd60e01b81529051610d779287926001600160a01b03909116916318160ddd91600480820192602092909190829003018186803b15801561146857600080fd5b9392505050565b6005546001600160a01b031681565b60006117e8338484612a12565b50600192915050565b604080516370a0823160e01b8152306004820152905160009182916001600160a01b038816916370a08231916024808301926020929190829003018186803b15801561183c57600080fd5b505afa158015611850573d6000803e3d6000fd5b505050506040513d602081101561186657600080fd5b5051604080516323b872dd60e01b81523360048201523060248201526044810187905290519192506001600160a01b038816916323b872dd916064808201926020929091908290030181600087803b1580156118c157600080fd5b505af11580156118d5573d6000803e3d6000fd5b505050506040513d60208110156118eb57600080fd5b5050604080516370a0823160e01b815230600482015290516000916001600160a01b038916916370a0823191602480820192602092909190829003018186803b15801561193757600080fd5b505afa15801561194b573d6000803e3d6000fd5b505050506040513d602081101561196157600080fd5b505190506000611977828463ffffffff612d3d16565b90506000611994620186a0610d778461025863ffffffff612ba716565b90506119a6828263ffffffff612d3d16565b915060006119c4620186a0610d77856201388063ffffffff612ba716565b905060006119d38b8b84611f85565b905087811015611a2a576040805162461bcd60e51b815260206004820152601760248201527f556e696c6f616e3a3a6c6f616e3a20736c697070616765000000000000000000604482015290519081900360640190fd5b80611a348b611321565b11611a705760405162461bcd60e51b81526004018080602001828103825260258152602001806131426025913960400191505060405180910390fd5b604080516370a0823160e01b815230600482015290516000916001600160a01b038d16916370a0823191602480820192602092909190829003018186803b158015611aba57600080fd5b505afa158015611ace573d6000803e3d6000fd5b505050506040513d6020811015611ae457600080fd5b50519050600082821015611b2057611b068c611131858563ffffffff612d3d16565b601054909150611b1c908263ffffffff6129b816565b6010555b6008604051806101200160405280336001600160a01b031681526020018f6001600160a01b031681526020018e6001600160a01b03168152602001888152602001858152602001838152602001438152602001611b886119c8436129b890919063ffffffff16565b815260200160011515815250908060018154018082558091505060019003906000526020600020906009020160009091909190915060008201518160000160006101000a8154816001600160a01b0302191690836001600160a01b0316021790555060208201518160010160006101000a8154816001600160a01b0302191690836001600160a01b0316021790555060408201518160020160006101000a8154816001600160a01b0302191690836001600160a01b03160217905550606082015181600301556080820151816004015560a0820151816005015560c0820151816006015560e082015181600701556101008201518160080160006101000a81548160ff0219169083151502179055505050600b6000336001600160a01b03166001600160a01b0316815260200190815260200160002060095490806001815401808255809150506001900390600052602060002001600090919091909150558b6001600160a01b031663a9059cbb33856040518363ffffffff1660e01b815260040180836001600160a01b03166001600160a01b0316815260200182815260200192505050602060405180830381600087803b158015611d4757600080fd5b505af1158015611d5b573d6000803e3d6000fd5b505050506040513d6020811015611d7157600080fd5b50506009546001600160a01b03808e1691908f169033907f0c5f8bb69e29f0b5e3cedf454f0c8688f216b44693c51a455f7906202945e3d5908a8843611dbf816119c863ffffffff6129b816565b6040805195865260208601949094528484019290925260608401526080830152519081900360a00190a4505060098054600181019091559b9a5050505050505050505050565b600080611e3a620186a0610d7762013880610d6b611e2d84848a61025863ffffffff612ba716565b889063ffffffff612d3d16565b9050611e478585836127b9565b95945050505050565b60105481565b600554604080516323b872dd60e01b81523360048201523060248201526044810184905290516000926001600160a01b0316916323b872dd91606480830192602092919082900301818787803b158015611eaf57600080fd5b505af1158015611ec3573d6000803e3d6000fd5b505050506040513d6020811015611ed957600080fd5b5060009050611ee6611fb7565b611ef1575081611f13565b611f10611efc611fb7565b600154610d7790869063ffffffff612ba716565b90505b611f1d3382612f61565b600c54611f30908463ffffffff6129b816565b600c55600554604080518381526020810186905281516001600160a01b039093169233927ff5681f9d0db1b911ac18ee83d515a1cf1051853a9eae418316a2fdf7dea427c5928290030190a350600192915050565b600080611f938585856127b9565b90506000611fa186856108a8565b9050611fad8282612ff8565b9695505050505050565b6000611595601054611ff4601154611fe8600f54611ff4600e54611fe8600d54600c54612d3d90919063ffffffff16565b9063ffffffff6129b816565b9063ffffffff612d3d16565b61025881565b3332146120445760405162461bcd60e51b815260040180806020018281038252602c815260200180613116602c913960400191505060405180910390fd5b600654604080516370a0823160e01b815230600482015290516001600160a01b039092169163095ea7b391737a250d5630b4cf539739df2c5dacb4c659f2488d9184916370a08231916024808301926020929190829003018186803b1580156120ac57600080fd5b505afa1580156120c0573d6000803e3d6000fd5b505050506040513d60208110156120d657600080fd5b5051604080516001600160e01b031960e086901b1681526001600160a01b03909316600484015260248301919091525160448083019260209291908290030181600087803b15801561212757600080fd5b505af115801561213b573d6000803e3d6000fd5b505050506040513d602081101561215157600080fd5b5050600754604080516370a0823160e01b815230600482015290516001600160a01b039092169163095ea7b391737a250d5630b4cf539739df2c5dacb4c659f2488d9184916370a08231916024808301926020929190829003018186803b1580156121bb57600080fd5b505afa1580156121cf573d6000803e3d6000fd5b505050506040513d60208110156121e557600080fd5b5051604080516001600160e01b031960e086901b1681526001600160a01b03909316600484015260248301919091525160448083019260209291908290030181600087803b15801561223657600080fd5b505af115801561224a573d6000803e3d6000fd5b505050506040513d602081101561226057600080fd5b5050600654600754604080516370a0823160e01b81523060048201529051600093737a250d5630b4cf539739df2c5dacb4c659f2488d9363e8e33700936001600160a01b0392831693929091169183916370a08231916024808301926020929190829003018186803b1580156122d557600080fd5b505afa1580156122e9573d6000803e3d6000fd5b505050506040513d60208110156122ff57600080fd5b5051600754604080516370a0823160e01b815230600482015290516001600160a01b03909216916370a0823191602480820192602092909190829003018186803b15801561234c57600080fd5b505afa158015612360573d6000803e3d6000fd5b505050506040513d602081101561237657600080fd5b50516000803061238e4261070863ffffffff6129b816565b6040518963ffffffff1660e01b815260040180896001600160a01b03166001600160a01b03168152602001886001600160a01b03166001600160a01b03168152602001878152602001868152602001858152602001848152602001836001600160a01b03166001600160a01b0316815260200182815260200198505050505050505050606060405180830381600087803b15801561242b57600080fd5b505af115801561243f573d6000803e3d6000fd5b505050506040513d606081101561245557600080fd5b5060400151600e54909150612470908263ffffffff6129b816565b600e5550565b6007546001600160a01b031681565b6000604051808061328660409139604080519182900381018220828201909152600f82526e0556e696c6f616e2050616972204c5608c1b60209092019190915290507faace3cbf2422c8cbd6ff54ff4b8468cc948b62ae207db9d074f6ce3d38c6b58b6124f061300e565b3060405160200180858152602001848152602001838152602001826001600160a01b03166001600160a01b031681526020019450505050506040516020818303038152906040528051906020012090506000604051808061318e60499139604080519182900360490182206001600160a01b03808e16600081815260046020908152858220805460018082019092558289019690965287870193909352928f166060870152608086018e905260a086019390935260c08086018d90528451808703909101815260e08601855280519083012061190160f01b610100870152610102860189905261012280870182905285518088039091018152610142870180875281519185019190912090859052610162870180875281905260ff8d166101828801526101a287018c90526101c287018b90529451909750939550919391926101e280840193601f198301929081900390910190855afa158015612658573d6000803e3d6000fd5b5050604051601f1901519150506001600160a01b0381166126aa5760405162461bcd60e51b81526004018080602001828103825260228152602001806133116022913960400191505060405180910390fd5b8a6001600160a01b0316816001600160a01b031614612710576040805162461bcd60e51b815260206004820152601d60248201527f556e696c6f616e3a3a7065726d69743a20756e617574686f72697a6564000000604482015290519081900360640190fd5b8742111561274f5760405162461bcd60e51b81526004018080602001828103825260228152602001806132276022913960400191505060405180910390fd5b6001600160a01b03808c166000818152600260209081526040808320948f16808452948252918290208d905581518d815291517f8c5be1e5ebec7d5bd14f71427d1e84f3dd0314c0f7b2291e5b200ac8c7c3b9259281900390910190a35050505050505050505050565b60408051632d9198e160e21b81526001600160a01b03858116600483015284166024820152604481018390529051600091730b5a6b318c39b60e7d8462f888e7fba89f75d02f9163b646638491606480820192602092909190829003018186803b15801561282657600080fd5b505afa15801561283a573d6000803e3d6000fd5b505050506040513d602081101561285057600080fd5b5051949350505050565b600e5481565b6001600160a01b03918216600090815260026020908152604080832093909416825291909152205490565b600554604080516370a0823160e01b81523360048201529051600092611595926001600160a01b03909116916370a0823191602480820192602092909190829003018186803b1580156128dd57600080fd5b505afa1580156128f1573d6000803e3d6000fd5b505050506040513d602081101561290757600080fd5b5051611e56565b620186a081565b60095481565b600a5481565b600081848411156129b05760405162461bcd60e51b81526004018080602001828103825283818151815260200191508051906020019080838360005b8381101561297557818101518382015260200161295d565b50505050905090810190601f1680156129a25780820380516001836020036101000a031916815260200191505b509250505060405180910390fd5b505050900390565b6000828201838110156117c5576040805162461bcd60e51b815260206004820152601b60248201527f536166654d6174683a206164646974696f6e206f766572666c6f770000000000604482015290519081900360640190fd5b6001600160a01b038316612a575760405162461bcd60e51b815260040180806020018281038252603f8152602001806133b3603f913960400191505060405180910390fd5b6001600160a01b038216612a9c5760405162461bcd60e51b815260040180806020018281038252603d815260200180613249603d913960400191505060405180910390fd5b612adf816040518060600160405280603981526020016133f2603991396001600160a01b038616600090815260036020526040902054919063ffffffff61292116565b60036000856001600160a01b03166001600160a01b0316815260200190815260200160002081905550612b4b81604051806060016040528060338152602001613333603391396001600160a01b038516600090815260036020526040902054919063ffffffff61301216565b6001600160a01b0380841660008181526003602090815260409182902094909455805185815290519193928716927fddf252ad1be2c89b69c2b068fc378daa952ba7f163c4a11628f55a4df523b3ef92918290030190a3505050565b600082612bb657506000610a52565b82820282848281612bc357fe5b04146117c55760405162461bcd60e51b81526004018080602001828103825260218152602001806132f06021913960400191505060405180910390fd5b60006117c583836040518060400160405280601a81526020017f536166654d6174683a206469766973696f6e206279207a65726f000000000000815250613070565b604080518082019091526019815278556e696c6f616e3a3a5f6275726e3a20756e646572666c6f7760381b6020820152600154612c8691839063ffffffff61292116565b6001556040805180820182526019815278556e696c6f616e3a3a5f6275726e3a20756e646572666c6f7760381b6020808301919091526001600160a01b038516600090815260039091529190912054612ce691839063ffffffff61292116565b6001600160a01b0383166000818152600360209081526040808320949094558351858152935191937fddf252ad1be2c89b69c2b068fc378daa952ba7f163c4a11628f55a4df523b3ef929081900390910190a35050565b60006117c583836040518060600160405280602881526020016131d760289139612921565b6000612d6e83836116fa565b9050612d8a620186a0610d778362019a2863ffffffff612ba716565b60065490915060009081906001600160a01b0386811691161415612db057839150612dc9565b6007546001600160a01b0386811691161415612dc95750825b6005546040805163095ea7b360e01b8152737a250d5630b4cf539739df2c5dacb4c659f2488d60048201526024810186905290516001600160a01b039092169163095ea7b3916044808201926020929091908290030181600087803b158015612e3157600080fd5b505af1158015612e45573d6000803e3d6000fd5b505050506040513d6020811015612e5b57600080fd5b5050600654600754737a250d5630b4cf539739df2c5dacb4c659f2488d9163baa2abde916001600160a01b03918216911686868630612ea24261070863ffffffff6129b816565b604080516001600160e01b031960e08b901b1681526001600160a01b039889166004820152968816602488015260448701959095526064860193909352608485019190915290931660a483015260c4820192909252815160e480830193928290030181600087803b158015612f1657600080fd5b505af1158015612f2a573d6000803e3d6000fd5b505050506040513d6040811015612f4057600080fd5b5050600f54612f55908463ffffffff6129b816565b600f5550909392505050565b600154612f74908263ffffffff6129b816565b6001556001600160a01b038216600090815260036020526040902054612fa0908263ffffffff6129b816565b6001600160a01b03831660008181526003602090815260408083209490945583518581529351929391927fddf252ad1be2c89b69c2b068fc378daa952ba7f163c4a11628f55a4df523b3ef9281900390910190a35050565b600081831061300757816117c5565b5090919050565b4690565b600083830182858210156130675760405162461bcd60e51b815260206004820181815283516024840152835190928392604490910191908501908083836000831561297557818101518382015260200161295d565b50949350505050565b600081836130bf5760405162461bcd60e51b815260206004820181815283516024840152835190928392604490910191908501908083836000831561297557818101518382015260200161295d565b5060008385816130cb57fe5b049594505050505056fe556e696c6f616e3a3a7472616e7366657246726f6d3a207472616e7366657220616d6f756e742065786365656473207370656e64657220616c6c6f77616e6365556e696c6f616e3a3a6465706f7369744c69717569646974793a206e6f7420616e20454f41206b6565706572556e696c6f616e3a3a6c6f616e3a20696e73756666696369656e74206c6971756964697479556e696c6f616e3a3a636c6f73653a206c6971756964697479496e557365206f766572666c6f775065726d69742861646472657373206f776e65722c61646472657373207370656e6465722c75696e742076616c75652c75696e74206e6f6e63652c75696e7420646561646c696e6529556e696c6f616e3a3a536166654d6174683a207375627472616374696f6e20756e646572666c6f77556e696c6f616e3a3a72657061793a20706f736974696f6e20616c72656164792065787069726564556e696c6f616e3a3a7065726d69743a207369676e61747572652065787069726564556e696c6f616e3a3a5f7472616e73666572546f6b656e733a2063616e6e6f74207472616e7366657220746f20746865207a65726f2061646472657373454950373132446f6d61696e28737472696e67206e616d652c75696e7420636861696e49642c6164647265737320766572696679696e67436f6e747261637429556e696c6f616e3a3a72657061793a20706f736974696f6e20697320616c726561647920636c6f736564536166654d6174683a206d756c7469706c69636174696f6e206f766572666c6f77556e696c6f616e3a3a7065726d69743a20696e76616c6964207369676e6174757265556e696c6f616e3a3a5f7472616e73666572546f6b656e733a207472616e7366657220616d6f756e74206f766572666c6f7773556e696c6f616e3a3a77697468647261773a20696e73756666696369656e74206c697175696469747920746f2077697468647261772c20747279206465706f7369744c69717569646974792829556e696c6f616e3a3a5f7472616e73666572546f6b656e733a2063616e6e6f74207472616e736665722066726f6d20746865207a65726f2061646472657373556e696c6f616e3a3a5f7472616e73666572546f6b656e733a207472616e7366657220616d6f756e7420657863656564732062616c616e6365a26469706673582212209ed54a842433eea9a2f0309ca8d5744db71e2fd92a8d4e1c9d4246e84fcb60ee64736f6c63430006060033556e696c6f616e50616972466163746f72793a3a6465706c6f793a207061697220616c72656164792063726561746564a264697066735822122051340976739f4d938a2e89d39de2409ff904ab8e3935205b328f8dffb509a50964736f6c63430006060033",
			"opcodes": "PUSH1 0x80 PUSH1 0x40 MSTORE CALLVALUE DUP1 ISZERO PUSH2 0x10 JUMPI PUSH1 0x0 DUP1 REVERT JUMPDEST POP PUSH2 0x3DEB DUP1 PUSH2 0x20 PUSH1 0x0 CODECOPY PUSH1 0x0 RETURN INVALID PUSH1 0x80 PUSH1 0x40 MSTORE CALLVALUE DUP1 ISZERO PUSH2 0x10 JUMPI PUSH1 0x0 DUP1 REVERT JUMPDEST POP PUSH1 0x4 CALLDATASIZE LT PUSH2 0x4C JUMPI PUSH1 0x0 CALLDATALOAD PUSH1 0xE0 SHR DUP1 PUSH4 0x15B40EC0 EQ PUSH2 0x51 JUMPI DUP1 PUSH4 0x4C96A389 EQ PUSH2 0x8A JUMPI DUP1 PUSH4 0xDA0321CD EQ PUSH2 0xB0 JUMPI DUP1 PUSH4 0xFE33B302 EQ PUSH2 0x108 JUMPI JUMPDEST PUSH1 0x0 DUP1 REVERT JUMPDEST PUSH2 0x6E PUSH1 0x4 DUP1 CALLDATASIZE SUB PUSH1 0x20 DUP2 LT ISZERO PUSH2 0x67 JUMPI PUSH1 0x0 DUP1 REVERT JUMPDEST POP CALLDATALOAD PUSH2 0x12E JUMP JUMPDEST PUSH1 0x40 DUP1 MLOAD PUSH1 0x1 PUSH1 0x1 PUSH1 0xA0 SHL SUB SWAP1 SWAP3 AND DUP3 MSTORE MLOAD SWAP1 DUP2 SWAP1 SUB PUSH1 0x20 ADD SWAP1 RETURN JUMPDEST PUSH2 0x6E PUSH1 0x4 DUP1 CALLDATASIZE SUB PUSH1 0x20 DUP2 LT ISZERO PUSH2 0xA0 JUMPI PUSH1 0x0 DUP1 REVERT JUMPDEST POP CALLDATALOAD PUSH1 0x1 PUSH1 0x1 PUSH1 0xA0 SHL SUB AND PUSH2 0x155 JUMP JUMPDEST PUSH2 0xB8 PUSH2 0x257 JUMP JUMPDEST PUSH1 0x40 DUP1 MLOAD PUSH1 0x20 DUP1 DUP3 MSTORE DUP4 MLOAD DUP2 DUP4 ADD MSTORE DUP4 MLOAD SWAP2 SWAP3 DUP4 SWAP3 SWAP1 DUP4 ADD SWAP2 DUP6 DUP2 ADD SWAP2 MUL DUP1 DUP4 DUP4 PUSH1 0x0 JUMPDEST DUP4 DUP2 LT ISZERO PUSH2 0xF4 JUMPI DUP2 DUP2 ADD MLOAD DUP4 DUP3 ADD MSTORE PUSH1 0x20 ADD PUSH2 0xDC JUMP JUMPDEST POP POP POP POP SWAP1 POP ADD SWAP3 POP POP POP PUSH1 0x40 MLOAD DUP1 SWAP2 SUB SWAP1 RETURN JUMPDEST PUSH2 0x6E PUSH1 0x4 DUP1 CALLDATASIZE SUB PUSH1 0x20 DUP2 LT ISZERO PUSH2 0x11E JUMPI PUSH1 0x0 DUP1 REVERT JUMPDEST POP CALLDATALOAD PUSH1 0x1 PUSH1 0x1 PUSH1 0xA0 SHL SUB AND PUSH2 0x2B9 JUMP JUMPDEST PUSH1 0x1 DUP2 DUP2 SLOAD DUP2 LT PUSH2 0x13B JUMPI INVALID JUMPDEST PUSH1 0x0 SWAP2 DUP3 MSTORE PUSH1 0x20 SWAP1 SWAP2 KECCAK256 ADD SLOAD PUSH1 0x1 PUSH1 0x1 PUSH1 0xA0 SHL SUB AND SWAP1 POP DUP2 JUMP JUMPDEST PUSH1 0x1 PUSH1 0x1 PUSH1 0xA0 SHL SUB DUP2 DUP2 AND PUSH1 0x0 SWAP1 DUP2 MSTORE PUSH1 0x20 DUP2 SWAP1 MSTORE PUSH1 0x40 DUP2 KECCAK256 SLOAD SWAP1 SWAP2 AND ISZERO PUSH2 0x1AE JUMPI PUSH1 0x40 MLOAD PUSH3 0x461BCD PUSH1 0xE5 SHL DUP2 MSTORE PUSH1 0x4 ADD DUP1 DUP1 PUSH1 0x20 ADD DUP3 DUP2 SUB DUP3 MSTORE PUSH1 0x30 DUP2 MSTORE PUSH1 0x20 ADD DUP1 PUSH2 0x3D86 PUSH1 0x30 SWAP2 CODECOPY PUSH1 0x40 ADD SWAP2 POP POP PUSH1 0x40 MLOAD DUP1 SWAP2 SUB SWAP1 REVERT JUMPDEST DUP2 PUSH1 0x40 MLOAD PUSH2 0x1BB SWAP1 PUSH2 0x2D4 JUMP JUMPDEST PUSH1 0x1 PUSH1 0x1 PUSH1 0xA0 SHL SUB SWAP1 SWAP2 AND DUP2 MSTORE PUSH1 0x40 MLOAD SWAP1 DUP2 SWAP1 SUB PUSH1 0x20 ADD SWAP1 PUSH1 0x0 CREATE DUP1 ISZERO DUP1 ISZERO PUSH2 0x1E8 JUMPI RETURNDATASIZE PUSH1 0x0 DUP1 RETURNDATACOPY RETURNDATASIZE PUSH1 0x0 REVERT JUMPDEST POP PUSH1 0x1 PUSH1 0x1 PUSH1 0xA0 SHL SUB DUP1 DUP5 AND PUSH1 0x0 DUP2 DUP2 MSTORE PUSH1 0x20 DUP2 SWAP1 MSTORE PUSH1 0x40 DUP2 KECCAK256 DUP1 SLOAD SWAP5 DUP5 AND PUSH1 0x1 PUSH1 0x1 PUSH1 0xA0 SHL SUB NOT SWAP6 DUP7 AND OR DUP2 SSTORE PUSH1 0x1 DUP1 SLOAD DUP1 DUP3 ADD SWAP1 SWAP2 SSTORE PUSH32 0xB10E2D527612073B26EECDFD717E6A320CF44B4AFAC2B0732D9FCBE2B7FA0CF6 ADD DUP1 SLOAD SWAP1 SWAP6 AND DUP4 OR SWAP1 SWAP5 SSTORE MSTORE SWAP1 SLOAD AND SWAP1 POP SWAP2 SWAP1 POP JUMP JUMPDEST PUSH1 0x60 PUSH1 0x1 DUP1 SLOAD DUP1 PUSH1 0x20 MUL PUSH1 0x20 ADD PUSH1 0x40 MLOAD SWAP1 DUP2 ADD PUSH1 0x40 MSTORE DUP1 SWAP3 SWAP2 SWAP1 DUP2 DUP2 MSTORE PUSH1 0x20 ADD DUP3 DUP1 SLOAD DUP1 ISZERO PUSH2 0x2AF JUMPI PUSH1 0x20 MUL DUP3 ADD SWAP2 SWAP1 PUSH1 0x0 MSTORE PUSH1 0x20 PUSH1 0x0 KECCAK256 SWAP1 JUMPDEST DUP2 SLOAD PUSH1 0x1 PUSH1 0x1 PUSH1 0xA0 SHL SUB AND DUP2 MSTORE PUSH1 0x1 SWAP1 SWAP2 ADD SWAP1 PUSH1 0x20 ADD DUP1 DUP4 GT PUSH2 0x291 JUMPI JUMPDEST POP POP POP POP POP SWAP1 POP SWAP1 JUMP JUMPDEST PUSH1 0x0 PUSH1 0x20 DUP2 SWAP1 MSTORE SWAP1 DUP2 MSTORE PUSH1 0x40 SWAP1 KECCAK256 SLOAD PUSH1 0x1 PUSH1 0x1 PUSH1 0xA0 SHL SUB AND DUP2 JUMP JUMPDEST PUSH2 0x3AA4 DUP1 PUSH2 0x2E2 DUP4 CODECOPY ADD SWAP1 JUMP INVALID PUSH1 0x80 PUSH1 0x40 MSTORE PUSH1 0x0 PUSH1 0x1 SSTORE CALLVALUE DUP1 ISZERO PUSH3 0x16 JUMPI PUSH1 0x0 DUP1 REVERT JUMPDEST POP PUSH1 0x40 MLOAD PUSH3 0x3AA4 CODESIZE SUB DUP1 PUSH3 0x3AA4 DUP4 CODECOPY DUP2 DUP2 ADD PUSH1 0x40 MSTORE PUSH1 0x20 DUP2 LT ISZERO PUSH3 0x3C JUMPI PUSH1 0x0 DUP1 REVERT JUMPDEST POP MLOAD PUSH1 0x40 DUP1 MLOAD PUSH4 0xDFE1681 PUSH1 0xE0 SHL DUP2 MSTORE SWAP1 MLOAD PUSH1 0x1 PUSH1 0x1 PUSH1 0xA0 SHL SUB DUP4 AND SWAP2 PUSH4 0xDFE1681 SWAP2 PUSH1 0x4 DUP1 DUP4 ADD SWAP3 PUSH1 0x20 SWAP3 SWAP2 SWAP1 DUP3 SWAP1 SUB ADD DUP2 DUP7 DUP1 EXTCODESIZE ISZERO DUP1 ISZERO PUSH3 0x7F JUMPI PUSH1 0x0 DUP1 REVERT JUMPDEST POP GAS STATICCALL ISZERO DUP1 ISZERO PUSH3 0x94 JUMPI RETURNDATASIZE PUSH1 0x0 DUP1 RETURNDATACOPY RETURNDATASIZE PUSH1 0x0 REVERT JUMPDEST POP POP POP POP PUSH1 0x40 MLOAD RETURNDATASIZE PUSH1 0x20 DUP2 LT ISZERO PUSH3 0xAB JUMPI PUSH1 0x0 DUP1 REVERT JUMPDEST POP MLOAD PUSH1 0x40 DUP1 MLOAD PUSH4 0x95D89B41 PUSH1 0xE0 SHL DUP2 MSTORE SWAP1 MLOAD PUSH1 0x1 PUSH1 0x1 PUSH1 0xA0 SHL SUB SWAP1 SWAP3 AND SWAP2 PUSH4 0x95D89B41 SWAP2 PUSH1 0x4 DUP1 DUP3 ADD SWAP3 PUSH1 0x0 SWAP3 SWAP1 SWAP2 SWAP1 DUP3 SWAP1 SUB ADD DUP2 DUP7 DUP1 EXTCODESIZE ISZERO DUP1 ISZERO PUSH3 0xF0 JUMPI PUSH1 0x0 DUP1 REVERT JUMPDEST POP GAS STATICCALL ISZERO DUP1 ISZERO PUSH3 0x105 JUMPI RETURNDATASIZE PUSH1 0x0 DUP1 RETURNDATACOPY RETURNDATASIZE PUSH1 0x0 REVERT JUMPDEST POP POP POP POP PUSH1 0x40 MLOAD RETURNDATASIZE PUSH1 0x0 DUP3 RETURNDATACOPY PUSH1 0x1F RETURNDATASIZE SWAP1 DUP2 ADD PUSH1 0x1F NOT AND DUP3 ADD PUSH1 0x40 MSTORE PUSH1 0x20 DUP2 LT ISZERO PUSH3 0x12F JUMPI PUSH1 0x0 DUP1 REVERT JUMPDEST DUP2 ADD SWAP1 DUP1 DUP1 MLOAD PUSH1 0x40 MLOAD SWAP4 SWAP3 SWAP2 SWAP1 DUP5 PUSH5 0x100000000 DUP3 GT ISZERO PUSH3 0x150 JUMPI PUSH1 0x0 DUP1 REVERT JUMPDEST SWAP1 DUP4 ADD SWAP1 PUSH1 0x20 DUP3 ADD DUP6 DUP2 GT ISZERO PUSH3 0x166 JUMPI PUSH1 0x0 DUP1 REVERT JUMPDEST DUP3 MLOAD PUSH5 0x100000000 DUP2 GT DUP3 DUP3 ADD DUP9 LT OR ISZERO PUSH3 0x181 JUMPI PUSH1 0x0 DUP1 REVERT JUMPDEST DUP3 MSTORE POP DUP2 MLOAD PUSH1 0x20 SWAP2 DUP3 ADD SWAP3 SWAP1 SWAP2 ADD SWAP1 DUP1 DUP4 DUP4 PUSH1 0x0 JUMPDEST DUP4 DUP2 LT ISZERO PUSH3 0x1B0 JUMPI DUP2 DUP2 ADD MLOAD DUP4 DUP3 ADD MSTORE PUSH1 0x20 ADD PUSH3 0x196 JUMP JUMPDEST POP POP POP POP SWAP1 POP SWAP1 DUP2 ADD SWAP1 PUSH1 0x1F AND DUP1 ISZERO PUSH3 0x1DE JUMPI DUP1 DUP3 SUB DUP1 MLOAD PUSH1 0x1 DUP4 PUSH1 0x20 SUB PUSH2 0x100 EXP SUB NOT AND DUP2 MSTORE PUSH1 0x20 ADD SWAP2 POP JUMPDEST POP PUSH1 0x40 MSTORE POP POP POP DUP2 PUSH1 0x1 PUSH1 0x1 PUSH1 0xA0 SHL SUB AND PUSH4 0xD21220A7 PUSH1 0x40 MLOAD DUP2 PUSH4 0xFFFFFFFF AND PUSH1 0xE0 SHL DUP2 MSTORE PUSH1 0x4 ADD PUSH1 0x20 PUSH1 0x40 MLOAD DUP1 DUP4 SUB DUP2 DUP7 DUP1 EXTCODESIZE ISZERO DUP1 ISZERO PUSH3 0x21F JUMPI PUSH1 0x0 DUP1 REVERT JUMPDEST POP GAS STATICCALL ISZERO DUP1 ISZERO PUSH3 0x234 JUMPI RETURNDATASIZE PUSH1 0x0 DUP1 RETURNDATACOPY RETURNDATASIZE PUSH1 0x0 REVERT JUMPDEST POP POP POP POP PUSH1 0x40 MLOAD RETURNDATASIZE PUSH1 0x20 DUP2 LT ISZERO PUSH3 0x24B JUMPI PUSH1 0x0 DUP1 REVERT JUMPDEST POP MLOAD PUSH1 0x40 DUP1 MLOAD PUSH4 0x95D89B41 PUSH1 0xE0 SHL DUP2 MSTORE SWAP1 MLOAD PUSH1 0x1 PUSH1 0x1 PUSH1 0xA0 SHL SUB SWAP1 SWAP3 AND SWAP2 PUSH4 0x95D89B41 SWAP2 PUSH1 0x4 DUP1 DUP3 ADD SWAP3 PUSH1 0x0 SWAP3 SWAP1 SWAP2 SWAP1 DUP3 SWAP1 SUB ADD DUP2 DUP7 DUP1 EXTCODESIZE ISZERO DUP1 ISZERO PUSH3 0x290 JUMPI PUSH1 0x0 DUP1 REVERT JUMPDEST POP GAS STATICCALL ISZERO DUP1 ISZERO PUSH3 0x2A5 JUMPI RETURNDATASIZE PUSH1 0x0 DUP1 RETURNDATACOPY RETURNDATASIZE PUSH1 0x0 REVERT JUMPDEST POP POP POP POP PUSH1 0x40 MLOAD RETURNDATASIZE PUSH1 0x0 DUP3 RETURNDATACOPY PUSH1 0x1F RETURNDATASIZE SWAP1 DUP2 ADD PUSH1 0x1F NOT AND DUP3 ADD PUSH1 0x40 MSTORE PUSH1 0x20 DUP2 LT ISZERO PUSH3 0x2CF JUMPI PUSH1 0x0 DUP1 REVERT JUMPDEST DUP2 ADD SWAP1 DUP1 DUP1 MLOAD PUSH1 0x40 MLOAD SWAP4 SWAP3 SWAP2 SWAP1 DUP5 PUSH5 0x100000000 DUP3 GT ISZERO PUSH3 0x2F0 JUMPI PUSH1 0x0 DUP1 REVERT JUMPDEST SWAP1 DUP4 ADD SWAP1 PUSH1 0x20 DUP3 ADD DUP6 DUP2 GT ISZERO PUSH3 0x306 JUMPI PUSH1 0x0 DUP1 REVERT JUMPDEST DUP3 MLOAD PUSH5 0x100000000 DUP2 GT DUP3 DUP3 ADD DUP9 LT OR ISZERO PUSH3 0x321 JUMPI PUSH1 0x0 DUP1 REVERT JUMPDEST DUP3 MSTORE POP DUP2 MLOAD PUSH1 0x20 SWAP2 DUP3 ADD SWAP3 SWAP1 SWAP2 ADD SWAP1 DUP1 DUP4 DUP4 PUSH1 0x0 JUMPDEST DUP4 DUP2 LT ISZERO PUSH3 0x350 JUMPI DUP2 DUP2 ADD MLOAD DUP4 DUP3 ADD MSTORE PUSH1 0x20 ADD PUSH3 0x336 JUMP JUMPDEST POP POP POP POP SWAP1 POP SWAP1 DUP2 ADD SWAP1 PUSH1 0x1F AND DUP1 ISZERO PUSH3 0x37E JUMPI DUP1 DUP3 SUB DUP1 MLOAD PUSH1 0x1 DUP4 PUSH1 0x20 SUB PUSH2 0x100 EXP SUB NOT AND DUP2 MSTORE PUSH1 0x20 ADD SWAP2 POP JUMPDEST POP PUSH1 0x40 MSTORE POP POP POP PUSH1 0x40 MLOAD PUSH1 0x20 ADD DUP1 DUP4 DUP1 MLOAD SWAP1 PUSH1 0x20 ADD SWAP1 DUP1 DUP4 DUP4 JUMPDEST PUSH1 0x20 DUP4 LT PUSH3 0x3B9 JUMPI DUP1 MLOAD DUP3 MSTORE PUSH1 0x1F NOT SWAP1 SWAP3 ADD SWAP2 PUSH1 0x20 SWAP2 DUP3 ADD SWAP2 ADD PUSH3 0x398 JUMP JUMPDEST PUSH1 0x1 DUP4 PUSH1 0x20 SUB PUSH2 0x100 EXP SUB DUP1 NOT DUP3 MLOAD AND DUP2 DUP5 MLOAD AND DUP1 DUP3 OR DUP6 MSTORE POP POP POP POP POP POP SWAP1 POP ADD DUP1 PUSH1 0x2D PUSH1 0xF8 SHL DUP2 MSTORE POP PUSH1 0x1 ADD DUP3 DUP1 MLOAD SWAP1 PUSH1 0x20 ADD SWAP1 DUP1 DUP4 DUP4 JUMPDEST PUSH1 0x20 DUP4 LT PUSH3 0x414 JUMPI DUP1 MLOAD DUP3 MSTORE PUSH1 0x1F NOT SWAP1 SWAP3 ADD SWAP2 PUSH1 0x20 SWAP2 DUP3 ADD SWAP2 ADD PUSH3 0x3F3 JUMP JUMPDEST PUSH1 0x1 DUP4 PUSH1 0x20 SUB PUSH2 0x100 EXP SUB DUP1 NOT DUP3 MLOAD AND DUP2 DUP5 MLOAD AND DUP1 DUP3 OR DUP6 MSTORE POP POP POP POP POP POP SWAP1 POP ADD SWAP3 POP POP POP PUSH1 0x40 MLOAD PUSH1 0x20 DUP2 DUP4 SUB SUB DUP2 MSTORE SWAP1 PUSH1 0x40 MSTORE PUSH1 0x0 SWAP1 DUP1 MLOAD SWAP1 PUSH1 0x20 ADD SWAP1 PUSH3 0x460 SWAP3 SWAP2 SWAP1 PUSH3 0x58F JUMP JUMPDEST POP PUSH1 0x5 DUP1 SLOAD PUSH1 0x1 PUSH1 0x1 PUSH1 0xA0 SHL SUB NOT AND PUSH1 0x1 PUSH1 0x1 PUSH1 0xA0 SHL SUB DUP4 AND SWAP1 DUP2 OR SWAP1 SWAP2 SSTORE PUSH1 0x40 DUP1 MLOAD PUSH4 0xDFE1681 PUSH1 0xE0 SHL DUP2 MSTORE SWAP1 MLOAD PUSH4 0xDFE1681 SWAP2 PUSH1 0x4 DUP1 DUP3 ADD SWAP3 PUSH1 0x20 SWAP3 SWAP1 SWAP2 SWAP1 DUP3 SWAP1 SUB ADD DUP2 DUP7 DUP1 EXTCODESIZE ISZERO DUP1 ISZERO PUSH3 0x4B6 JUMPI PUSH1 0x0 DUP1 REVERT JUMPDEST POP GAS STATICCALL ISZERO DUP1 ISZERO PUSH3 0x4CB JUMPI RETURNDATASIZE PUSH1 0x0 DUP1 RETURNDATACOPY RETURNDATASIZE PUSH1 0x0 REVERT JUMPDEST POP POP POP POP PUSH1 0x40 MLOAD RETURNDATASIZE PUSH1 0x20 DUP2 LT ISZERO PUSH3 0x4E2 JUMPI PUSH1 0x0 DUP1 REVERT JUMPDEST POP MLOAD PUSH1 0x6 DUP1 SLOAD PUSH1 0x1 PUSH1 0x1 PUSH1 0xA0 SHL SUB NOT AND PUSH1 0x1 PUSH1 0x1 PUSH1 0xA0 SHL SUB SWAP3 DUP4 AND OR SWAP1 SSTORE PUSH1 0x40 DUP1 MLOAD PUSH4 0xD21220A7 PUSH1 0xE0 SHL DUP2 MSTORE SWAP1 MLOAD SWAP2 DUP4 AND SWAP2 PUSH4 0xD21220A7 SWAP2 PUSH1 0x4 DUP1 DUP3 ADD SWAP3 PUSH1 0x20 SWAP3 SWAP1 SWAP2 SWAP1 DUP3 SWAP1 SUB ADD DUP2 DUP7 DUP1 EXTCODESIZE ISZERO DUP1 ISZERO PUSH3 0x53B JUMPI PUSH1 0x0 DUP1 REVERT JUMPDEST POP GAS STATICCALL ISZERO DUP1 ISZERO PUSH3 0x550 JUMPI RETURNDATASIZE PUSH1 0x0 DUP1 RETURNDATACOPY RETURNDATASIZE PUSH1 0x0 REVERT JUMPDEST POP POP POP POP PUSH1 0x40 MLOAD RETURNDATASIZE PUSH1 0x20 DUP2 LT ISZERO PUSH3 0x567 JUMPI PUSH1 0x0 DUP1 REVERT JUMPDEST POP MLOAD PUSH1 0x7 DUP1 SLOAD PUSH1 0x1 PUSH1 0x1 PUSH1 0xA0 SHL SUB NOT AND PUSH1 0x1 PUSH1 0x1 PUSH1 0xA0 SHL SUB SWAP1 SWAP3 AND SWAP2 SWAP1 SWAP2 OR SWAP1 SSTORE POP PUSH3 0x634 JUMP JUMPDEST DUP3 DUP1 SLOAD PUSH1 0x1 DUP2 PUSH1 0x1 AND ISZERO PUSH2 0x100 MUL SUB AND PUSH1 0x2 SWAP1 DIV SWAP1 PUSH1 0x0 MSTORE PUSH1 0x20 PUSH1 0x0 KECCAK256 SWAP1 PUSH1 0x1F ADD PUSH1 0x20 SWAP1 DIV DUP2 ADD SWAP3 DUP3 PUSH1 0x1F LT PUSH3 0x5D2 JUMPI DUP1 MLOAD PUSH1 0xFF NOT AND DUP4 DUP1 ADD OR DUP6 SSTORE PUSH3 0x602 JUMP JUMPDEST DUP3 DUP1 ADD PUSH1 0x1 ADD DUP6 SSTORE DUP3 ISZERO PUSH3 0x602 JUMPI SWAP2 DUP3 ADD JUMPDEST DUP3 DUP2 GT ISZERO PUSH3 0x602 JUMPI DUP3 MLOAD DUP3 SSTORE SWAP2 PUSH1 0x20 ADD SWAP2 SWAP1 PUSH1 0x1 ADD SWAP1 PUSH3 0x5E5 JUMP JUMPDEST POP PUSH3 0x610 SWAP3 SWAP2 POP PUSH3 0x614 JUMP JUMPDEST POP SWAP1 JUMP JUMPDEST PUSH3 0x631 SWAP2 SWAP1 JUMPDEST DUP1 DUP3 GT ISZERO PUSH3 0x610 JUMPI PUSH1 0x0 DUP2 SSTORE PUSH1 0x1 ADD PUSH3 0x61B JUMP JUMPDEST SWAP1 JUMP JUMPDEST PUSH2 0x3460 DUP1 PUSH3 0x644 PUSH1 0x0 CODECOPY PUSH1 0x0 RETURN INVALID PUSH1 0x80 PUSH1 0x40 MSTORE CALLVALUE DUP1 ISZERO PUSH2 0x10 JUMPI PUSH1 0x0 DUP1 REVERT JUMPDEST POP PUSH1 0x4 CALLDATASIZE LT PUSH2 0x2D6 JUMPI PUSH1 0x0 CALLDATALOAD PUSH1 0xE0 SHR DUP1 PUSH4 0x916E481E GT PUSH2 0x182 JUMPI DUP1 PUSH4 0xBE293168 GT PUSH2 0xE9 JUMPI DUP1 PUSH4 0xD66639B9 GT PUSH2 0xA2 JUMPI DUP1 PUSH4 0xDE5F6268 GT PUSH2 0x7C JUMPI DUP1 PUSH4 0xDE5F6268 EQ PUSH2 0x857 JUMPI DUP1 PUSH4 0xEC342AD0 EQ PUSH2 0x85F JUMPI DUP1 PUSH4 0xFC7E9C6F EQ PUSH2 0x867 JUMPI DUP1 PUSH4 0xFDDA918E EQ PUSH2 0x86F JUMPI PUSH2 0x2D6 JUMP JUMPDEST DUP1 PUSH4 0xD66639B9 EQ PUSH2 0x7EB JUMPI DUP1 PUSH4 0xD9443923 EQ PUSH2 0x821 JUMPI DUP1 PUSH4 0xDD62ED3E EQ PUSH2 0x829 JUMPI PUSH2 0x2D6 JUMP JUMPDEST DUP1 PUSH4 0xBE293168 EQ PUSH2 0x742 JUMPI DUP1 PUSH4 0xC3926A29 EQ PUSH2 0x778 JUMPI DUP1 PUSH4 0xC57981B5 EQ PUSH2 0x780 JUMPI DUP1 PUSH4 0xCA593C59 EQ PUSH2 0x788 JUMPI DUP1 PUSH4 0xD21220A7 EQ PUSH2 0x792 JUMPI DUP1 PUSH4 0xD505ACCF EQ PUSH2 0x79A JUMPI PUSH2 0x2D6 JUMP JUMPDEST DUP1 PUSH4 0xA8AA1B31 GT PUSH2 0x13B JUMPI DUP1 PUSH4 0xA8AA1B31 EQ PUSH2 0x677 JUMPI DUP1 PUSH4 0xA9059CBB EQ PUSH2 0x67F JUMPI DUP1 PUSH4 0xA95FE267 EQ PUSH2 0x6AB JUMPI DUP1 PUSH4 0xB6466384 EQ PUSH2 0x6E7 JUMPI DUP1 PUSH4 0xB6641DBD EQ PUSH2 0x71D JUMPI DUP1 PUSH4 0xB6B55F25 EQ PUSH2 0x725 JUMPI PUSH2 0x2D6 JUMP JUMPDEST DUP1 PUSH4 0x916E481E EQ PUSH2 0x57F JUMPI DUP1 PUSH4 0x95D89B41 EQ PUSH2 0x587 JUMPI DUP1 PUSH4 0x9883FD42 EQ PUSH2 0x58F JUMPI DUP1 PUSH4 0x98C61C37 EQ PUSH2 0x5AC JUMPI DUP1 PUSH4 0x99FBAB88 EQ PUSH2 0x5D8 JUMPI DUP1 PUSH4 0xA7B80EB2 EQ PUSH2 0x64B JUMPI PUSH2 0x2D6 JUMP JUMPDEST DUP1 PUSH4 0x313CE567 GT PUSH2 0x241 JUMPI DUP1 PUSH4 0x60B4D59F GT PUSH2 0x1FA JUMPI DUP1 PUSH4 0x70A08231 GT PUSH2 0x1D4 JUMPI DUP1 PUSH4 0x70A08231 EQ PUSH2 0x523 JUMPI DUP1 PUSH4 0x7ECEBE00 EQ PUSH2 0x549 JUMPI DUP1 PUSH4 0x853828B6 EQ PUSH2 0x56F JUMPI DUP1 PUSH4 0x8FBC3ECD EQ PUSH2 0x577 JUMPI PUSH2 0x2D6 JUMP JUMPDEST DUP1 PUSH4 0x60B4D59F EQ PUSH2 0x50B JUMPI DUP1 PUSH4 0x62965D8E EQ PUSH2 0x513 JUMPI DUP1 PUSH4 0x69B41170 EQ PUSH2 0x51B JUMPI PUSH2 0x2D6 JUMP JUMPDEST DUP1 PUSH4 0x313CE567 EQ PUSH2 0x492 JUMPI DUP1 PUSH4 0x371FD8E6 EQ PUSH2 0x4B0 JUMPI DUP1 PUSH4 0x38013F02 EQ PUSH2 0x4CD JUMPI DUP1 PUSH4 0x3C4750DF EQ PUSH2 0x4D5 JUMPI DUP1 PUSH4 0x4870827D EQ PUSH2 0x4FB JUMPI DUP1 PUSH4 0x541BCB76 EQ PUSH2 0x503 JUMPI PUSH2 0x2D6 JUMP JUMPDEST DUP1 PUSH4 0xDFE1681 GT PUSH2 0x293 JUMPI DUP1 PUSH4 0xDFE1681 EQ PUSH2 0x403 JUMPI DUP1 PUSH4 0x18160DDD EQ PUSH2 0x427 JUMPI DUP1 PUSH4 0x20606B70 EQ PUSH2 0x42F JUMPI DUP1 PUSH4 0x23B872DD EQ PUSH2 0x437 JUMPI DUP1 PUSH4 0x2E1A7D4D EQ PUSH2 0x46D JUMPI DUP1 PUSH4 0x30ADF81F EQ PUSH2 0x48A JUMPI PUSH2 0x2D6 JUMP JUMPDEST DUP1 PUSH4 0x499D1AC EQ PUSH2 0x2DB JUMPI DUP1 PUSH4 0x6FDDE03 EQ PUSH2 0x2F5 JUMPI DUP1 PUSH4 0x7FA901A EQ PUSH2 0x372 JUMPI DUP1 PUSH4 0x95EA7B3 EQ PUSH2 0x39E JUMPI DUP1 PUSH4 0xAEBEB4E EQ PUSH2 0x3DE JUMPI DUP1 PUSH4 0xD6B6841 EQ PUSH2 0x3FB JUMPI JUMPDEST PUSH1 0x0 DUP1 REVERT JUMPDEST PUSH2 0x2E3 PUSH2 0x877 JUMP JUMPDEST PUSH1 0x40 DUP1 MLOAD SWAP2 DUP3 MSTORE MLOAD SWAP1 DUP2 SWAP1 SUB PUSH1 0x20 ADD SWAP1 RETURN JUMPDEST PUSH2 0x2FD PUSH2 0x87D JUMP JUMPDEST PUSH1 0x40 DUP1 MLOAD PUSH1 0x20 DUP1 DUP3 MSTORE DUP4 MLOAD DUP2 DUP4 ADD MSTORE DUP4 MLOAD SWAP2 SWAP3 DUP4 SWAP3 SWAP1 DUP4 ADD SWAP2 DUP6 ADD SWAP1 DUP1 DUP4 DUP4 PUSH1 0x0 JUMPDEST DUP4 DUP2 LT ISZERO PUSH2 0x337 JUMPI DUP2 DUP2 ADD MLOAD DUP4 DUP3 ADD MSTORE PUSH1 0x20 ADD PUSH2 0x31F JUMP JUMPDEST POP POP POP POP SWAP1 POP SWAP1 DUP2 ADD SWAP1 PUSH1 0x1F AND DUP1 ISZERO PUSH2 0x364 JUMPI DUP1 DUP3 SUB DUP1 MLOAD PUSH1 0x1 DUP4 PUSH1 0x20 SUB PUSH2 0x100 EXP SUB NOT AND DUP2 MSTORE PUSH1 0x20 ADD SWAP2 POP JUMPDEST POP SWAP3 POP POP POP PUSH1 0x40 MLOAD DUP1 SWAP2 SUB SWAP1 RETURN JUMPDEST PUSH2 0x2E3 PUSH1 0x4 DUP1 CALLDATASIZE SUB PUSH1 0x40 DUP2 LT ISZERO PUSH2 0x388 JUMPI PUSH1 0x0 DUP1 REVERT JUMPDEST POP PUSH1 0x1 PUSH1 0x1 PUSH1 0xA0 SHL SUB DUP2 CALLDATALOAD AND SWAP1 PUSH1 0x20 ADD CALLDATALOAD PUSH2 0x8A8 JUMP JUMPDEST PUSH2 0x3CA PUSH1 0x4 DUP1 CALLDATASIZE SUB PUSH1 0x40 DUP2 LT ISZERO PUSH2 0x3B4 JUMPI PUSH1 0x0 DUP1 REVERT JUMPDEST POP PUSH1 0x1 PUSH1 0x1 PUSH1 0xA0 SHL SUB DUP2 CALLDATALOAD AND SWAP1 PUSH1 0x20 ADD CALLDATALOAD PUSH2 0xA58 JUMP JUMPDEST PUSH1 0x40 DUP1 MLOAD SWAP2 ISZERO ISZERO DUP3 MSTORE MLOAD SWAP1 DUP2 SWAP1 SUB PUSH1 0x20 ADD SWAP1 RETURN JUMPDEST PUSH2 0x3CA PUSH1 0x4 DUP1 CALLDATASIZE SUB PUSH1 0x20 DUP2 LT ISZERO PUSH2 0x3F4 JUMPI PUSH1 0x0 DUP1 REVERT JUMPDEST POP CALLDATALOAD PUSH2 0xABE JUMP JUMPDEST PUSH2 0x2E3 PUSH2 0xC10 JUMP JUMPDEST PUSH2 0x40B PUSH2 0xC3D JUMP JUMPDEST PUSH1 0x40 DUP1 MLOAD PUSH1 0x1 PUSH1 0x1 PUSH1 0xA0 SHL SUB SWAP1 SWAP3 AND DUP3 MSTORE MLOAD SWAP1 DUP2 SWAP1 SUB PUSH1 0x20 ADD SWAP1 RETURN JUMPDEST PUSH2 0x2E3 PUSH2 0xC4C JUMP JUMPDEST PUSH2 0x2E3 PUSH2 0xC52 JUMP JUMPDEST PUSH2 0x3CA PUSH1 0x4 DUP1 CALLDATASIZE SUB PUSH1 0x60 DUP2 LT ISZERO PUSH2 0x44D JUMPI PUSH1 0x0 DUP1 REVERT JUMPDEST POP PUSH1 0x1 PUSH1 0x1 PUSH1 0xA0 SHL SUB DUP2 CALLDATALOAD DUP2 AND SWAP2 PUSH1 0x20 DUP2 ADD CALLDATALOAD SWAP1 SWAP2 AND SWAP1 PUSH1 0x40 ADD CALLDATALOAD PUSH2 0xC6E JUMP JUMPDEST PUSH2 0x3CA PUSH1 0x4 DUP1 CALLDATASIZE SUB PUSH1 0x20 DUP2 LT ISZERO PUSH2 0x483 JUMPI PUSH1 0x0 DUP1 REVERT JUMPDEST POP CALLDATALOAD PUSH2 0xD56 JUMP JUMPDEST PUSH2 0x2E3 PUSH2 0xF29 JUMP JUMPDEST PUSH2 0x49A PUSH2 0xF44 JUMP JUMPDEST PUSH1 0x40 DUP1 MLOAD PUSH1 0xFF SWAP1 SWAP3 AND DUP3 MSTORE MLOAD SWAP1 DUP2 SWAP1 SUB PUSH1 0x20 ADD SWAP1 RETURN JUMPDEST PUSH2 0x3CA PUSH1 0x4 DUP1 CALLDATASIZE SUB PUSH1 0x20 DUP2 LT ISZERO PUSH2 0x4C6 JUMPI PUSH1 0x0 DUP1 REVERT JUMPDEST POP CALLDATALOAD PUSH2 0xF49 JUMP JUMPDEST PUSH2 0x40B PUSH2 0x1309 JUMP JUMPDEST PUSH2 0x2E3 PUSH1 0x4 DUP1 CALLDATASIZE SUB PUSH1 0x20 DUP2 LT ISZERO PUSH2 0x4EB JUMPI PUSH1 0x0 DUP1 REVERT JUMPDEST POP CALLDATALOAD PUSH1 0x1 PUSH1 0x1 PUSH1 0xA0 SHL SUB AND PUSH2 0x1321 JUMP JUMPDEST PUSH2 0x2E3 PUSH2 0x151E JUMP JUMPDEST PUSH2 0x40B PUSH2 0x1524 JUMP JUMPDEST PUSH2 0x2E3 PUSH2 0x153C JUMP JUMPDEST PUSH2 0x2E3 PUSH2 0x1542 JUMP JUMPDEST PUSH2 0x2E3 PUSH2 0x1549 JUMP JUMPDEST PUSH2 0x2E3 PUSH1 0x4 DUP1 CALLDATASIZE SUB PUSH1 0x20 DUP2 LT ISZERO PUSH2 0x539 JUMPI PUSH1 0x0 DUP1 REVERT JUMPDEST POP CALLDATALOAD PUSH1 0x1 PUSH1 0x1 PUSH1 0xA0 SHL SUB AND PUSH2 0x154F JUMP JUMPDEST PUSH2 0x2E3 PUSH1 0x4 DUP1 CALLDATASIZE SUB PUSH1 0x20 DUP2 LT ISZERO PUSH2 0x55F JUMPI PUSH1 0x0 DUP1 REVERT JUMPDEST POP CALLDATALOAD PUSH1 0x1 PUSH1 0x1 PUSH1 0xA0 SHL SUB AND PUSH2 0x156A JUMP JUMPDEST PUSH2 0x3CA PUSH2 0x157C JUMP JUMPDEST PUSH2 0x2E3 PUSH2 0x159A JUMP JUMPDEST PUSH2 0x2E3 PUSH2 0x15A1 JUMP JUMPDEST PUSH2 0x2FD PUSH2 0x15A7 JUMP JUMPDEST PUSH2 0x2E3 PUSH1 0x4 DUP1 CALLDATASIZE SUB PUSH1 0x20 DUP2 LT ISZERO PUSH2 0x5A5 JUMPI PUSH1 0x0 DUP1 REVERT JUMPDEST POP CALLDATALOAD PUSH2 0x1635 JUMP JUMPDEST PUSH2 0x2E3 PUSH1 0x4 DUP1 CALLDATASIZE SUB PUSH1 0x40 DUP2 LT ISZERO PUSH2 0x5C2 JUMPI PUSH1 0x0 DUP1 REVERT JUMPDEST POP PUSH1 0x1 PUSH1 0x1 PUSH1 0xA0 SHL SUB DUP2 CALLDATALOAD AND SWAP1 PUSH1 0x20 ADD CALLDATALOAD PUSH2 0x1661 JUMP JUMPDEST PUSH2 0x5F5 PUSH1 0x4 DUP1 CALLDATASIZE SUB PUSH1 0x20 DUP2 LT ISZERO PUSH2 0x5EE JUMPI PUSH1 0x0 DUP1 REVERT JUMPDEST POP CALLDATALOAD PUSH2 0x168F JUMP JUMPDEST PUSH1 0x40 DUP1 MLOAD PUSH1 0x1 PUSH1 0x1 PUSH1 0xA0 SHL SUB SWAP11 DUP12 AND DUP2 MSTORE SWAP9 DUP11 AND PUSH1 0x20 DUP11 ADD MSTORE SWAP7 SWAP1 SWAP9 AND DUP8 DUP8 ADD MSTORE PUSH1 0x60 DUP8 ADD SWAP5 SWAP1 SWAP5 MSTORE PUSH1 0x80 DUP7 ADD SWAP3 SWAP1 SWAP3 MSTORE PUSH1 0xA0 DUP6 ADD MSTORE PUSH1 0xC0 DUP5 ADD MSTORE PUSH1 0xE0 DUP4 ADD MSTORE SWAP2 ISZERO ISZERO PUSH2 0x100 DUP3 ADD MSTORE SWAP1 MLOAD SWAP1 DUP2 SWAP1 SUB PUSH2 0x120 ADD SWAP1 RETURN JUMPDEST PUSH2 0x2E3 PUSH1 0x4 DUP1 CALLDATASIZE SUB PUSH1 0x40 DUP2 LT ISZERO PUSH2 0x661 JUMPI PUSH1 0x0 DUP1 REVERT JUMPDEST POP PUSH1 0x1 PUSH1 0x1 PUSH1 0xA0 SHL SUB DUP2 CALLDATALOAD AND SWAP1 PUSH1 0x20 ADD CALLDATALOAD PUSH2 0x16FA JUMP JUMPDEST PUSH2 0x40B PUSH2 0x17CC JUMP JUMPDEST PUSH2 0x3CA PUSH1 0x4 DUP1 CALLDATASIZE SUB PUSH1 0x40 DUP2 LT ISZERO PUSH2 0x695 JUMPI PUSH1 0x0 DUP1 REVERT JUMPDEST POP PUSH1 0x1 PUSH1 0x1 PUSH1 0xA0 SHL SUB DUP2 CALLDATALOAD AND SWAP1 PUSH1 0x20 ADD CALLDATALOAD PUSH2 0x17DB JUMP JUMPDEST PUSH2 0x2E3 PUSH1 0x4 DUP1 CALLDATASIZE SUB PUSH1 0x80 DUP2 LT ISZERO PUSH2 0x6C1 JUMPI PUSH1 0x0 DUP1 REVERT JUMPDEST POP PUSH1 0x1 PUSH1 0x1 PUSH1 0xA0 SHL SUB DUP2 CALLDATALOAD DUP2 AND SWAP2 PUSH1 0x20 DUP2 ADD CALLDATALOAD SWAP1 SWAP2 AND SWAP1 PUSH1 0x40 DUP2 ADD CALLDATALOAD SWAP1 PUSH1 0x60 ADD CALLDATALOAD PUSH2 0x17F1 JUMP JUMPDEST PUSH2 0x2E3 PUSH1 0x4 DUP1 CALLDATASIZE SUB PUSH1 0x60 DUP2 LT ISZERO PUSH2 0x6FD JUMPI PUSH1 0x0 DUP1 REVERT JUMPDEST POP PUSH1 0x1 PUSH1 0x1 PUSH1 0xA0 SHL SUB DUP2 CALLDATALOAD DUP2 AND SWAP2 PUSH1 0x20 DUP2 ADD CALLDATALOAD SWAP1 SWAP2 AND SWAP1 PUSH1 0x40 ADD CALLDATALOAD PUSH2 0x1E05 JUMP JUMPDEST PUSH2 0x2E3 PUSH2 0x1E50 JUMP JUMPDEST PUSH2 0x3CA PUSH1 0x4 DUP1 CALLDATASIZE SUB PUSH1 0x20 DUP2 LT ISZERO PUSH2 0x73B JUMPI PUSH1 0x0 DUP1 REVERT JUMPDEST POP CALLDATALOAD PUSH2 0x1E56 JUMP JUMPDEST PUSH2 0x2E3 PUSH1 0x4 DUP1 CALLDATASIZE SUB PUSH1 0x60 DUP2 LT ISZERO PUSH2 0x758 JUMPI PUSH1 0x0 DUP1 REVERT JUMPDEST POP PUSH1 0x1 PUSH1 0x1 PUSH1 0xA0 SHL SUB DUP2 CALLDATALOAD DUP2 AND SWAP2 PUSH1 0x20 DUP2 ADD CALLDATALOAD SWAP1 SWAP2 AND SWAP1 PUSH1 0x40 ADD CALLDATALOAD PUSH2 0x1F85 JUMP JUMPDEST PUSH2 0x2E3 PUSH2 0x1FB7 JUMP JUMPDEST PUSH2 0x2E3 PUSH2 0x2000 JUMP JUMPDEST PUSH2 0x790 PUSH2 0x2006 JUMP JUMPDEST STOP JUMPDEST PUSH2 0x40B PUSH2 0x2476 JUMP JUMPDEST PUSH2 0x790 PUSH1 0x4 DUP1 CALLDATASIZE SUB PUSH1 0xE0 DUP2 LT ISZERO PUSH2 0x7B0 JUMPI PUSH1 0x0 DUP1 REVERT JUMPDEST POP PUSH1 0x1 PUSH1 0x1 PUSH1 0xA0 SHL SUB DUP2 CALLDATALOAD DUP2 AND SWAP2 PUSH1 0x20 DUP2 ADD CALLDATALOAD SWAP1 SWAP2 AND SWAP1 PUSH1 0x40 DUP2 ADD CALLDATALOAD SWAP1 PUSH1 0x60 DUP2 ADD CALLDATALOAD SWAP1 PUSH1 0xFF PUSH1 0x80 DUP3 ADD CALLDATALOAD AND SWAP1 PUSH1 0xA0 DUP2 ADD CALLDATALOAD SWAP1 PUSH1 0xC0 ADD CALLDATALOAD PUSH2 0x2485 JUMP JUMPDEST PUSH2 0x2E3 PUSH1 0x4 DUP1 CALLDATASIZE SUB PUSH1 0x60 DUP2 LT ISZERO PUSH2 0x801 JUMPI PUSH1 0x0 DUP1 REVERT JUMPDEST POP PUSH1 0x1 PUSH1 0x1 PUSH1 0xA0 SHL SUB DUP2 CALLDATALOAD DUP2 AND SWAP2 PUSH1 0x20 DUP2 ADD CALLDATALOAD SWAP1 SWAP2 AND SWAP1 PUSH1 0x40 ADD CALLDATALOAD PUSH2 0x27B9 JUMP JUMPDEST PUSH2 0x2E3 PUSH2 0x285A JUMP JUMPDEST PUSH2 0x2E3 PUSH1 0x4 DUP1 CALLDATASIZE SUB PUSH1 0x40 DUP2 LT ISZERO PUSH2 0x83F JUMPI PUSH1 0x0 DUP1 REVERT JUMPDEST POP PUSH1 0x1 PUSH1 0x1 PUSH1 0xA0 SHL SUB DUP2 CALLDATALOAD DUP2 AND SWAP2 PUSH1 0x20 ADD CALLDATALOAD AND PUSH2 0x2860 JUMP JUMPDEST PUSH2 0x3CA PUSH2 0x288B JUMP JUMPDEST PUSH2 0x2E3 PUSH2 0x290E JUMP JUMPDEST PUSH2 0x2E3 PUSH2 0x2915 JUMP JUMPDEST PUSH2 0x2E3 PUSH2 0x291B JUMP JUMPDEST PUSH1 0x11 SLOAD DUP2 JUMP JUMPDEST PUSH1 0x40 MLOAD DUP1 PUSH1 0x40 ADD PUSH1 0x40 MSTORE DUP1 PUSH1 0xF DUP2 MSTORE PUSH1 0x20 ADD PUSH15 0x556E696C6F616E2050616972204C5 PUSH1 0x8C SHL DUP2 MSTORE POP DUP2 JUMP JUMPDEST PUSH1 0x0 DUP1 PUSH1 0x0 PUSH1 0x5 PUSH1 0x0 SWAP1 SLOAD SWAP1 PUSH2 0x100 EXP SWAP1 DIV PUSH1 0x1 PUSH1 0x1 PUSH1 0xA0 SHL SUB AND PUSH1 0x1 PUSH1 0x1 PUSH1 0xA0 SHL SUB AND PUSH4 0x902F1AC PUSH1 0x40 MLOAD DUP2 PUSH4 0xFFFFFFFF AND PUSH1 0xE0 SHL DUP2 MSTORE PUSH1 0x4 ADD PUSH1 0x60 PUSH1 0x40 MLOAD DUP1 DUP4 SUB DUP2 DUP7 DUP1 EXTCODESIZE ISZERO DUP1 ISZERO PUSH2 0x8FB JUMPI PUSH1 0x0 DUP1 REVERT JUMPDEST POP GAS STATICCALL ISZERO DUP1 ISZERO PUSH2 0x90F JUMPI RETURNDATASIZE PUSH1 0x0 DUP1 RETURNDATACOPY RETURNDATASIZE PUSH1 0x0 REVERT JUMPDEST POP POP POP POP PUSH1 0x40 MLOAD RETURNDATASIZE PUSH1 0x60 DUP2 LT ISZERO PUSH2 0x925 JUMPI PUSH1 0x0 DUP1 REVERT JUMPDEST POP DUP1 MLOAD PUSH1 0x20 SWAP1 SWAP2 ADD MLOAD PUSH1 0x6 SLOAD PUSH14 0xFFFFFFFFFFFFFFFFFFFFFFFFFFFF SWAP3 DUP4 AND SWAP5 POP SWAP2 AND SWAP2 POP PUSH1 0x1 PUSH1 0x1 PUSH1 0xA0 SHL SUB DUP7 DUP2 AND SWAP2 AND EQ ISZERO PUSH2 0x9F2 JUMPI PUSH1 0x40 DUP1 MLOAD PUSH4 0x1535435 PUSH1 0xE2 SHL DUP2 MSTORE PUSH1 0x4 DUP2 ADD DUP7 SWAP1 MSTORE PUSH1 0x24 DUP2 ADD DUP5 SWAP1 MSTORE PUSH1 0x44 DUP2 ADD DUP4 SWAP1 MSTORE SWAP1 MLOAD PUSH20 0x7A250D5630B4CF539739DF2C5DACB4C659F2488D SWAP2 PUSH4 0x54D50D4 SWAP2 PUSH1 0x64 DUP1 DUP4 ADD SWAP3 PUSH1 0x20 SWAP3 SWAP2 SWAP1 DUP3 SWAP1 SUB ADD DUP2 DUP7 DUP1 EXTCODESIZE ISZERO DUP1 ISZERO PUSH2 0x9BC JUMPI PUSH1 0x0 DUP1 REVERT JUMPDEST POP GAS STATICCALL ISZERO DUP1 ISZERO PUSH2 0x9D0 JUMPI RETURNDATASIZE PUSH1 0x0 DUP1 RETURNDATACOPY RETURNDATASIZE PUSH1 0x0 REVERT JUMPDEST POP POP POP POP PUSH1 0x40 MLOAD RETURNDATASIZE PUSH1 0x20 DUP2 LT ISZERO PUSH2 0x9E6 JUMPI PUSH1 0x0 DUP1 REVERT JUMPDEST POP MLOAD SWAP3 POP PUSH2 0xA52 SWAP2 POP POP JUMP JUMPDEST PUSH1 0x40 DUP1 MLOAD PUSH4 0x1535435 PUSH1 0xE2 SHL DUP2 MSTORE PUSH1 0x4 DUP2 ADD DUP7 SWAP1 MSTORE PUSH1 0x24 DUP2 ADD DUP4 SWAP1 MSTORE PUSH1 0x44 DUP2 ADD DUP5 SWAP1 MSTORE SWAP1 MLOAD PUSH20 0x7A250D5630B4CF539739DF2C5DACB4C659F2488D SWAP2 PUSH4 0x54D50D4 SWAP2 PUSH1 0x64 DUP1 DUP4 ADD SWAP3 PUSH1 0x20 SWAP3 SWAP2 SWAP1 DUP3 SWAP1 SUB ADD DUP2 DUP7 DUP1 EXTCODESIZE ISZERO DUP1 ISZERO PUSH2 0x9BC JUMPI PUSH1 0x0 DUP1 REVERT JUMPDEST SWAP3 SWAP2 POP POP JUMP JUMPDEST CALLER PUSH1 0x0 DUP2 DUP2 MSTORE PUSH1 0x2 PUSH1 0x20 SWAP1 DUP2 MSTORE PUSH1 0x40 DUP1 DUP4 KECCAK256 PUSH1 0x1 PUSH1 0x1 PUSH1 0xA0 SHL SUB DUP8 AND DUP1 DUP6 MSTORE SWAP1 DUP4 MSTORE DUP2 DUP5 KECCAK256 DUP7 SWAP1 SSTORE DUP2 MLOAD DUP7 DUP2 MSTORE SWAP2 MLOAD SWAP4 SWAP5 SWAP1 SWAP4 SWAP1 SWAP3 PUSH32 0x8C5BE1E5EBEC7D5BD14F71427D1E84F3DD0314C0F7B2291E5B200AC8C7C3B925 SWAP3 DUP3 SWAP1 SUB ADD SWAP1 LOG3 POP PUSH1 0x1 SWAP3 SWAP2 POP POP JUMP JUMPDEST PUSH1 0x0 DUP1 PUSH1 0x8 DUP4 DUP2 SLOAD DUP2 LT PUSH2 0xACE JUMPI INVALID JUMPDEST PUSH1 0x0 SWAP2 DUP3 MSTORE PUSH1 0x20 SWAP1 SWAP2 KECCAK256 PUSH1 0x9 SWAP1 SWAP2 MUL ADD DUP1 SLOAD SWAP1 SWAP2 POP PUSH1 0x1 PUSH1 0x1 PUSH1 0xA0 SHL SUB AND PUSH2 0xAFA JUMPI PUSH1 0x0 SWAP2 POP POP PUSH2 0xC0B JUMP JUMPDEST PUSH1 0x8 DUP2 ADD SLOAD PUSH1 0xFF AND PUSH2 0xB10 JUMPI PUSH1 0x0 SWAP2 POP POP PUSH2 0xC0B JUMP JUMPDEST NUMBER DUP2 PUSH1 0x7 ADD SLOAD GT ISZERO PUSH2 0xB26 JUMPI PUSH1 0x0 SWAP2 POP POP PUSH2 0xC0B JUMP JUMPDEST PUSH1 0x8 DUP2 ADD DUP1 SLOAD PUSH1 0xFF NOT AND SWAP1 SSTORE PUSH1 0x5 DUP2 ADD SLOAD PUSH1 0x40 DUP1 MLOAD PUSH1 0x60 DUP2 ADD SWAP1 SWAP2 MSTORE PUSH1 0x27 DUP1 DUP3 MSTORE PUSH2 0xB65 SWAP3 SWAP2 SWAP1 PUSH2 0x3167 PUSH1 0x20 DUP4 ADD CODECOPY PUSH1 0x10 SLOAD SWAP2 SWAP1 PUSH4 0xFFFFFFFF PUSH2 0x2921 AND JUMP JUMPDEST PUSH1 0x10 SSTORE PUSH1 0x5 DUP2 ADD SLOAD PUSH1 0x11 SLOAD PUSH2 0xB7F SWAP2 PUSH4 0xFFFFFFFF PUSH2 0x29B8 AND JUMP JUMPDEST PUSH1 0x11 SSTORE PUSH1 0x2 DUP2 ADD SLOAD PUSH1 0x1 DUP3 ADD SLOAD DUP3 SLOAD PUSH1 0x3 DUP5 ADD SLOAD PUSH1 0x4 DUP6 ADD SLOAD PUSH1 0x6 DUP7 ADD SLOAD PUSH1 0x7 DUP8 ADD SLOAD PUSH1 0x40 DUP1 MLOAD DUP12 DUP2 MSTORE PUSH1 0x20 DUP2 ADD SWAP6 SWAP1 SWAP6 MSTORE DUP5 DUP2 ADD SWAP4 SWAP1 SWAP4 MSTORE PUSH1 0x60 DUP5 ADD SWAP2 SWAP1 SWAP2 MSTORE PUSH1 0x80 DUP4 ADD MSTORE MLOAD PUSH1 0x1 PUSH1 0x1 PUSH1 0xA0 SHL SUB SWAP5 DUP6 AND SWAP5 SWAP4 DUP5 AND SWAP4 SWAP3 SWAP1 SWAP3 AND SWAP2 PUSH32 0xDBEFFA8A7DB601F3CCF50979E78F7DEAAE9C7AF29EE9CBF8855536B7EDBC78C2 SWAP2 DUP2 SWAP1 SUB PUSH1 0xA0 ADD SWAP1 LOG4 PUSH1 0x1 SWAP2 POP POP JUMPDEST SWAP2 SWAP1 POP JUMP JUMPDEST PUSH1 0xA SLOAD PUSH1 0x0 SWAP1 JUMPDEST PUSH1 0x9 SLOAD DUP2 LT ISZERO PUSH2 0xC33 JUMPI PUSH2 0xC2A DUP2 PUSH2 0xABE JUMP JUMPDEST POP PUSH1 0x1 ADD PUSH2 0xC17 JUMP JUMPDEST PUSH1 0xA DUP2 SWAP1 SSTORE SWAP1 POP SWAP1 JUMP JUMPDEST PUSH1 0x6 SLOAD PUSH1 0x1 PUSH1 0x1 PUSH1 0xA0 SHL SUB AND DUP2 JUMP JUMPDEST PUSH1 0x1 SLOAD DUP2 JUMP JUMPDEST PUSH1 0x40 MLOAD DUP1 DUP1 PUSH2 0x3286 PUSH1 0x40 SWAP2 CODECOPY PUSH1 0x40 ADD SWAP1 POP PUSH1 0x40 MLOAD DUP1 SWAP2 SUB SWAP1 KECCAK256 DUP2 JUMP JUMPDEST PUSH1 0x1 PUSH1 0x1 PUSH1 0xA0 SHL SUB DUP4 AND PUSH1 0x0 DUP2 DUP2 MSTORE PUSH1 0x2 PUSH1 0x20 SWAP1 DUP2 MSTORE PUSH1 0x40 DUP1 DUP4 KECCAK256 CALLER DUP1 DUP6 MSTORE SWAP3 MSTORE DUP3 KECCAK256 SLOAD SWAP2 SWAP3 SWAP1 SWAP2 SWAP1 DUP3 EQ DUP1 ISZERO SWAP1 PUSH2 0xCA8 JUMPI POP PUSH1 0x0 NOT DUP2 EQ ISZERO JUMPDEST ISZERO PUSH2 0xD3F JUMPI PUSH1 0x0 PUSH2 0xCDA DUP6 PUSH1 0x40 MLOAD DUP1 PUSH1 0x60 ADD PUSH1 0x40 MSTORE DUP1 PUSH1 0x40 DUP2 MSTORE PUSH1 0x20 ADD PUSH2 0x30D6 PUSH1 0x40 SWAP2 CODECOPY DUP5 SWAP2 SWAP1 PUSH4 0xFFFFFFFF PUSH2 0x2921 AND JUMP JUMPDEST PUSH1 0x1 PUSH1 0x1 PUSH1 0xA0 SHL SUB DUP1 DUP10 AND PUSH1 0x0 DUP2 DUP2 MSTORE PUSH1 0x2 PUSH1 0x20 SWAP1 DUP2 MSTORE PUSH1 0x40 DUP1 DUP4 KECCAK256 SWAP5 DUP10 AND DUP1 DUP5 MSTORE SWAP5 DUP3 MSTORE SWAP2 DUP3 SWAP1 KECCAK256 DUP6 SWAP1 SSTORE DUP2 MLOAD DUP6 DUP2 MSTORE SWAP2 MLOAD SWAP5 SWAP6 POP SWAP3 SWAP4 SWAP2 SWAP3 PUSH32 0x8C5BE1E5EBEC7D5BD14F71427D1E84F3DD0314C0F7B2291E5B200AC8C7C3B925 SWAP3 SWAP2 DUP3 SWAP1 SUB ADD SWAP1 LOG3 POP JUMPDEST PUSH2 0xD4A DUP7 DUP7 DUP7 PUSH2 0x2A12 JUMP JUMPDEST POP PUSH1 0x1 SWAP6 SWAP5 POP POP POP POP POP JUMP JUMPDEST PUSH1 0x0 DUP1 PUSH2 0xD83 PUSH1 0x1 SLOAD PUSH2 0xD77 DUP6 PUSH2 0xD6B PUSH2 0x1FB7 JUMP JUMPDEST SWAP1 PUSH4 0xFFFFFFFF PUSH2 0x2BA7 AND JUMP JUMPDEST SWAP1 PUSH4 0xFFFFFFFF PUSH2 0x2C00 AND JUMP JUMPDEST SWAP1 POP PUSH2 0xD8F CALLER DUP5 PUSH2 0x2C42 JUMP JUMPDEST PUSH1 0x5 SLOAD PUSH1 0x40 DUP1 MLOAD PUSH4 0x70A08231 PUSH1 0xE0 SHL DUP2 MSTORE ADDRESS PUSH1 0x4 DUP3 ADD MSTORE SWAP1 MLOAD DUP4 SWAP3 PUSH1 0x1 PUSH1 0x1 PUSH1 0xA0 SHL SUB AND SWAP2 PUSH4 0x70A08231 SWAP2 PUSH1 0x24 DUP1 DUP4 ADD SWAP3 PUSH1 0x20 SWAP3 SWAP2 SWAP1 DUP3 SWAP1 SUB ADD DUP2 DUP7 DUP1 EXTCODESIZE ISZERO DUP1 ISZERO PUSH2 0xDD9 JUMPI PUSH1 0x0 DUP1 REVERT JUMPDEST POP GAS STATICCALL ISZERO DUP1 ISZERO PUSH2 0xDED JUMPI RETURNDATASIZE PUSH1 0x0 DUP1 RETURNDATACOPY RETURNDATASIZE PUSH1 0x0 REVERT JUMPDEST POP POP POP POP PUSH1 0x40 MLOAD RETURNDATASIZE PUSH1 0x20 DUP2 LT ISZERO PUSH2 0xE03 JUMPI PUSH1 0x0 DUP1 REVERT JUMPDEST POP MLOAD GT PUSH2 0xE41 JUMPI PUSH1 0x40 MLOAD PUSH3 0x461BCD PUSH1 0xE5 SHL DUP2 MSTORE PUSH1 0x4 ADD DUP1 DUP1 PUSH1 0x20 ADD DUP3 DUP2 SUB DUP3 MSTORE PUSH1 0x4D DUP2 MSTORE PUSH1 0x20 ADD DUP1 PUSH2 0x3366 PUSH1 0x4D SWAP2 CODECOPY PUSH1 0x60 ADD SWAP2 POP POP PUSH1 0x40 MLOAD DUP1 SWAP2 SUB SWAP1 REVERT JUMPDEST PUSH1 0x5 SLOAD PUSH1 0x40 DUP1 MLOAD PUSH4 0xA9059CBB PUSH1 0xE0 SHL DUP2 MSTORE CALLER PUSH1 0x4 DUP3 ADD MSTORE PUSH1 0x24 DUP2 ADD DUP5 SWAP1 MSTORE SWAP1 MLOAD PUSH1 0x1 PUSH1 0x1 PUSH1 0xA0 SHL SUB SWAP1 SWAP3 AND SWAP2 PUSH4 0xA9059CBB SWAP2 PUSH1 0x44 DUP1 DUP3 ADD SWAP3 PUSH1 0x20 SWAP3 SWAP1 SWAP2 SWAP1 DUP3 SWAP1 SUB ADD DUP2 PUSH1 0x0 DUP8 DUP1 EXTCODESIZE ISZERO DUP1 ISZERO PUSH2 0xE95 JUMPI PUSH1 0x0 DUP1 REVERT JUMPDEST POP GAS CALL ISZERO DUP1 ISZERO PUSH2 0xEA9 JUMPI RETURNDATASIZE PUSH1 0x0 DUP1 RETURNDATACOPY RETURNDATASIZE PUSH1 0x0 REVERT JUMPDEST POP POP POP POP PUSH1 0x40 MLOAD RETURNDATASIZE PUSH1 0x20 DUP2 LT ISZERO PUSH2 0xEBF JUMPI PUSH1 0x0 DUP1 REVERT JUMPDEST POP POP PUSH1 0xD SLOAD PUSH2 0xED4 SWAP1 DUP3 PUSH4 0xFFFFFFFF PUSH2 0x29B8 AND JUMP JUMPDEST PUSH1 0xD SSTORE PUSH1 0x5 SLOAD PUSH1 0x40 DUP1 MLOAD DUP6 DUP2 MSTORE PUSH1 0x20 DUP2 ADD DUP5 SWAP1 MSTORE DUP2 MLOAD PUSH1 0x1 PUSH1 0x1 PUSH1 0xA0 SHL SUB SWAP1 SWAP4 AND SWAP3 CALLER SWAP3 PUSH32 0x94946556B6F856CFA4D156A5C818935ECB2D8CC4B02C262B83747E88D6C75F20 SWAP3 DUP3 SWAP1 SUB ADD SWAP1 LOG3 POP PUSH1 0x1 SWAP3 SWAP2 POP POP JUMP JUMPDEST PUSH1 0x40 MLOAD DUP1 PUSH1 0x49 PUSH2 0x318E DUP3 CODECOPY PUSH1 0x49 ADD SWAP1 POP PUSH1 0x40 MLOAD DUP1 SWAP2 SUB SWAP1 KECCAK256 DUP2 JUMP JUMPDEST PUSH1 0x12 DUP2 JUMP JUMPDEST PUSH1 0x0 DUP1 PUSH1 0x8 DUP4 DUP2 SLOAD DUP2 LT PUSH2 0xF59 JUMPI INVALID JUMPDEST PUSH1 0x0 SWAP2 DUP3 MSTORE PUSH1 0x20 SWAP1 SWAP2 KECCAK256 PUSH1 0x9 SWAP1 SWAP2 MUL ADD PUSH1 0x8 DUP2 ADD SLOAD SWAP1 SWAP2 POP PUSH1 0xFF AND PUSH2 0xFAF JUMPI PUSH1 0x40 MLOAD PUSH3 0x461BCD PUSH1 0xE5 SHL DUP2 MSTORE PUSH1 0x4 ADD DUP1 DUP1 PUSH1 0x20 ADD DUP3 DUP2 SUB DUP3 MSTORE PUSH1 0x2A DUP2 MSTORE PUSH1 0x20 ADD DUP1 PUSH2 0x32C6 PUSH1 0x2A SWAP2 CODECOPY PUSH1 0x40 ADD SWAP2 POP POP PUSH1 0x40 MLOAD DUP1 SWAP2 SUB SWAP1 REVERT JUMPDEST NUMBER DUP2 PUSH1 0x7 ADD SLOAD LT PUSH2 0xFF1 JUMPI PUSH1 0x40 MLOAD PUSH3 0x461BCD PUSH1 0xE5 SHL DUP2 MSTORE PUSH1 0x4 ADD DUP1 DUP1 PUSH1 0x20 ADD DUP3 DUP2 SUB DUP3 MSTORE PUSH1 0x28 DUP2 MSTORE PUSH1 0x20 ADD DUP1 PUSH2 0x31FF PUSH1 0x28 SWAP2 CODECOPY PUSH1 0x40 ADD SWAP2 POP POP PUSH1 0x40 MLOAD DUP1 SWAP2 SUB SWAP1 REVERT JUMPDEST PUSH1 0x2 DUP2 ADD SLOAD PUSH1 0x4 DUP1 DUP4 ADD SLOAD PUSH1 0x40 DUP1 MLOAD PUSH4 0x23B872DD PUSH1 0xE0 SHL DUP2 MSTORE CALLER SWAP4 DUP2 ADD SWAP4 SWAP1 SWAP4 MSTORE ADDRESS PUSH1 0x24 DUP5 ADD MSTORE PUSH1 0x44 DUP4 ADD SWAP2 SWAP1 SWAP2 MSTORE MLOAD PUSH1 0x1 PUSH1 0x1 PUSH1 0xA0 SHL SUB SWAP1 SWAP3 AND SWAP2 PUSH4 0x23B872DD SWAP2 PUSH1 0x64 DUP1 DUP3 ADD SWAP3 PUSH1 0x20 SWAP3 SWAP1 SWAP2 SWAP1 DUP3 SWAP1 SUB ADD DUP2 PUSH1 0x0 DUP8 DUP1 EXTCODESIZE ISZERO DUP1 ISZERO PUSH2 0x1055 JUMPI PUSH1 0x0 DUP1 REVERT JUMPDEST POP GAS CALL ISZERO DUP1 ISZERO PUSH2 0x1069 JUMPI RETURNDATASIZE PUSH1 0x0 DUP1 RETURNDATACOPY RETURNDATASIZE PUSH1 0x0 REVERT JUMPDEST POP POP POP POP PUSH1 0x40 MLOAD RETURNDATASIZE PUSH1 0x20 DUP2 LT ISZERO PUSH2 0x107F JUMPI PUSH1 0x0 DUP1 REVERT JUMPDEST POP POP PUSH1 0x1 DUP2 ADD SLOAD PUSH1 0x40 DUP1 MLOAD PUSH4 0x70A08231 PUSH1 0xE0 SHL DUP2 MSTORE ADDRESS PUSH1 0x4 DUP3 ADD MSTORE SWAP1 MLOAD PUSH1 0x0 SWAP3 PUSH1 0x1 PUSH1 0x1 PUSH1 0xA0 SHL SUB AND SWAP2 PUSH4 0x70A08231 SWAP2 PUSH1 0x24 DUP1 DUP4 ADD SWAP3 PUSH1 0x20 SWAP3 SWAP2 SWAP1 DUP3 SWAP1 SUB ADD DUP2 DUP7 DUP1 EXTCODESIZE ISZERO DUP1 ISZERO PUSH2 0x10CE JUMPI PUSH1 0x0 DUP1 REVERT JUMPDEST POP GAS STATICCALL ISZERO DUP1 ISZERO PUSH2 0x10E2 JUMPI RETURNDATASIZE PUSH1 0x0 DUP1 RETURNDATACOPY RETURNDATASIZE PUSH1 0x0 REVERT JUMPDEST POP POP POP POP PUSH1 0x40 MLOAD RETURNDATASIZE PUSH1 0x20 DUP2 LT ISZERO PUSH2 0x10F8 JUMPI PUSH1 0x0 DUP1 REVERT JUMPDEST POP MLOAD PUSH1 0x3 DUP4 ADD SLOAD SWAP1 SWAP2 POP DUP2 LT ISZERO PUSH2 0x1138 JUMPI PUSH1 0x1 DUP3 ADD SLOAD PUSH1 0x3 DUP4 ADD SLOAD PUSH2 0x1136 SWAP2 PUSH1 0x1 PUSH1 0x1 PUSH1 0xA0 SHL SUB AND SWAP1 PUSH2 0x1131 SWAP1 DUP5 PUSH4 0xFFFFFFFF PUSH2 0x2D3D AND JUMP JUMPDEST PUSH2 0x2D62 JUMP JUMPDEST POP JUMPDEST PUSH1 0x1 DUP3 ADD SLOAD PUSH1 0x3 DUP4 ADD SLOAD PUSH1 0x40 DUP1 MLOAD PUSH4 0xA9059CBB PUSH1 0xE0 SHL DUP2 MSTORE CALLER PUSH1 0x4 DUP3 ADD MSTORE PUSH1 0x24 DUP2 ADD SWAP3 SWAP1 SWAP3 MSTORE MLOAD PUSH1 0x1 PUSH1 0x1 PUSH1 0xA0 SHL SUB SWAP1 SWAP3 AND SWAP2 PUSH4 0xA9059CBB SWAP2 PUSH1 0x44 DUP1 DUP3 ADD SWAP3 PUSH1 0x20 SWAP3 SWAP1 SWAP2 SWAP1 DUP3 SWAP1 SUB ADD DUP2 PUSH1 0x0 DUP8 DUP1 EXTCODESIZE ISZERO DUP1 ISZERO PUSH2 0x1193 JUMPI PUSH1 0x0 DUP1 REVERT JUMPDEST POP GAS CALL ISZERO DUP1 ISZERO PUSH2 0x11A7 JUMPI RETURNDATASIZE PUSH1 0x0 DUP1 RETURNDATACOPY RETURNDATASIZE PUSH1 0x0 REVERT JUMPDEST POP POP POP POP PUSH1 0x40 MLOAD RETURNDATASIZE PUSH1 0x20 DUP2 LT ISZERO PUSH2 0x11BD JUMPI PUSH1 0x0 DUP1 REVERT JUMPDEST POP POP PUSH1 0x8 DUP1 DUP4 ADD DUP1 SLOAD PUSH1 0xFF NOT AND SWAP1 SSTORE DUP1 SLOAD DUP4 SWAP2 SWAP1 DUP7 SWAP1 DUP2 LT PUSH2 0x11DB JUMPI INVALID JUMPDEST PUSH1 0x0 SWAP2 DUP3 MSTORE PUSH1 0x20 SWAP2 DUP3 SWAP1 KECCAK256 DUP4 SLOAD PUSH1 0x9 SWAP1 SWAP3 MUL ADD DUP1 SLOAD PUSH1 0x1 PUSH1 0x1 PUSH1 0xA0 SHL SUB NOT SWAP1 DUP2 AND PUSH1 0x1 PUSH1 0x1 PUSH1 0xA0 SHL SUB SWAP4 DUP5 AND OR DUP3 SSTORE PUSH1 0x1 DUP1 DUP7 ADD SLOAD DUP2 DUP5 ADD DUP1 SLOAD DUP5 AND SWAP2 DUP7 AND SWAP2 SWAP1 SWAP2 OR SWAP1 SSTORE PUSH1 0x2 DUP1 DUP8 ADD SLOAD DUP2 DUP6 ADD DUP1 SLOAD SWAP1 SWAP5 AND SWAP1 DUP7 AND OR SWAP1 SWAP3 SSTORE PUSH1 0x3 DUP1 DUP8 ADD SLOAD DUP2 DUP6 ADD SSTORE PUSH1 0x4 DUP1 DUP9 ADD SLOAD DUP2 DUP7 ADD SSTORE PUSH1 0x5 DUP1 DUP10 ADD SLOAD SWAP1 DUP7 ADD SSTORE PUSH1 0x6 DUP1 DUP10 ADD SLOAD DUP2 DUP8 ADD SSTORE PUSH1 0x7 DUP1 DUP11 ADD SLOAD DUP2 DUP9 ADD SSTORE PUSH1 0x8 SWAP10 DUP11 ADD SLOAD SWAP10 SWAP1 SWAP7 ADD DUP1 SLOAD PUSH1 0xFF SWAP1 SWAP11 AND ISZERO ISZERO PUSH1 0xFF NOT SWAP1 SWAP11 AND SWAP10 SWAP1 SWAP10 OR SWAP1 SWAP9 SSTORE SWAP3 DUP10 ADD SLOAD SWAP2 DUP10 ADD SLOAD DUP10 SLOAD SWAP2 DUP11 ADD SLOAD SWAP4 DUP11 ADD SLOAD SWAP8 DUP11 ADD SLOAD SWAP5 DUP11 ADD SLOAD PUSH1 0x40 DUP1 MLOAD DUP15 DUP2 MSTORE SWAP9 DUP10 ADD SWAP6 SWAP1 SWAP6 MSTORE DUP8 DUP6 ADD SWAP9 SWAP1 SWAP9 MSTORE PUSH1 0x60 DUP8 ADD SWAP5 SWAP1 SWAP5 MSTORE PUSH1 0x80 DUP7 ADD SWAP7 SWAP1 SWAP7 MSTORE SWAP1 MLOAD SWAP1 DUP4 AND SWAP5 SWAP2 DUP4 AND SWAP4 SWAP2 SWAP1 SWAP3 AND SWAP2 PUSH32 0x1A7A55034943B99BC89BBB5CDB0D8934813EFA402B537313ABE0C2CBF3FC86A7 SWAP2 DUP2 SWAP1 SUB PUSH1 0xA0 ADD SWAP1 LOG4 POP PUSH1 0x1 SWAP4 SWAP3 POP POP POP JUMP JUMPDEST PUSH20 0xB5A6B318C39B60E7D8462F888E7FBA89F75D02F DUP2 JUMP JUMPDEST PUSH1 0x0 PUSH2 0xA52 PUSH2 0x14A0 PUSH1 0x5 PUSH1 0x0 SWAP1 SLOAD SWAP1 PUSH2 0x100 EXP SWAP1 DIV PUSH1 0x1 PUSH1 0x1 PUSH1 0xA0 SHL SUB AND PUSH1 0x1 PUSH1 0x1 PUSH1 0xA0 SHL SUB AND PUSH4 0x18160DDD PUSH1 0x40 MLOAD DUP2 PUSH4 0xFFFFFFFF AND PUSH1 0xE0 SHL DUP2 MSTORE PUSH1 0x4 ADD PUSH1 0x20 PUSH1 0x40 MLOAD DUP1 DUP4 SUB DUP2 DUP7 DUP1 EXTCODESIZE ISZERO DUP1 ISZERO PUSH2 0x1377 JUMPI PUSH1 0x0 DUP1 REVERT JUMPDEST POP GAS STATICCALL ISZERO DUP1 ISZERO PUSH2 0x138B JUMPI RETURNDATASIZE PUSH1 0x0 DUP1 RETURNDATACOPY RETURNDATASIZE PUSH1 0x0 REVERT JUMPDEST POP POP POP POP PUSH1 0x40 MLOAD RETURNDATASIZE PUSH1 0x20 DUP2 LT ISZERO PUSH2 0x13A1 JUMPI PUSH1 0x0 DUP1 REVERT JUMPDEST POP MLOAD PUSH1 0x5 SLOAD PUSH1 0x40 DUP1 MLOAD PUSH4 0x70A08231 PUSH1 0xE0 SHL DUP2 MSTORE ADDRESS PUSH1 0x4 DUP3 ADD MSTORE SWAP1 MLOAD PUSH2 0xD77 SWAP3 PUSH1 0x1 PUSH1 0x1 PUSH1 0xA0 SHL SUB AND SWAP2 PUSH4 0x70A08231 SWAP2 PUSH1 0x24 DUP1 DUP4 ADD SWAP3 PUSH1 0x20 SWAP3 SWAP2 SWAP1 DUP3 SWAP1 SUB ADD DUP2 DUP7 DUP1 EXTCODESIZE ISZERO DUP1 ISZERO PUSH2 0x13EF JUMPI PUSH1 0x0 DUP1 REVERT JUMPDEST POP GAS STATICCALL ISZERO DUP1 ISZERO PUSH2 0x1403 JUMPI RETURNDATASIZE PUSH1 0x0 DUP1 RETURNDATACOPY RETURNDATASIZE PUSH1 0x0 REVERT JUMPDEST POP POP POP POP PUSH1 0x40 MLOAD RETURNDATASIZE PUSH1 0x20 DUP2 LT ISZERO PUSH2 0x1419 JUMPI PUSH1 0x0 DUP1 REVERT JUMPDEST POP MLOAD PUSH1 0x5 SLOAD PUSH1 0x40 DUP1 MLOAD PUSH4 0x70A08231 PUSH1 0xE0 SHL DUP2 MSTORE PUSH1 0x1 PUSH1 0x1 PUSH1 0xA0 SHL SUB SWAP3 DUP4 AND PUSH1 0x4 DUP3 ADD MSTORE SWAP1 MLOAD SWAP2 DUP10 AND SWAP2 PUSH4 0x70A08231 SWAP2 PUSH1 0x24 DUP1 DUP3 ADD SWAP3 PUSH1 0x20 SWAP3 SWAP1 SWAP2 SWAP1 DUP3 SWAP1 SUB ADD DUP2 DUP7 DUP1 EXTCODESIZE ISZERO DUP1 ISZERO PUSH2 0x1468 JUMPI PUSH1 0x0 DUP1 REVERT JUMPDEST POP GAS STATICCALL ISZERO DUP1 ISZERO PUSH2 0x147C JUMPI RETURNDATASIZE PUSH1 0x0 DUP1 RETURNDATACOPY RETURNDATASIZE PUSH1 0x0 REVERT JUMPDEST POP POP POP POP PUSH1 0x40 MLOAD RETURNDATASIZE PUSH1 0x20 DUP2 LT ISZERO PUSH2 0x1492 JUMPI PUSH1 0x0 DUP1 REVERT JUMPDEST POP MLOAD SWAP1 PUSH4 0xFFFFFFFF PUSH2 0x2BA7 AND JUMP JUMPDEST PUSH1 0x40 DUP1 MLOAD PUSH4 0x70A08231 PUSH1 0xE0 SHL DUP2 MSTORE ADDRESS PUSH1 0x4 DUP3 ADD MSTORE SWAP1 MLOAD PUSH1 0x1 PUSH1 0x1 PUSH1 0xA0 SHL SUB DUP7 AND SWAP2 PUSH4 0x70A08231 SWAP2 PUSH1 0x24 DUP1 DUP4 ADD SWAP3 PUSH1 0x20 SWAP3 SWAP2 SWAP1 DUP3 SWAP1 SUB ADD DUP2 DUP7 DUP1 EXTCODESIZE ISZERO DUP1 ISZERO PUSH2 0x14E6 JUMPI PUSH1 0x0 DUP1 REVERT JUMPDEST POP GAS STATICCALL ISZERO DUP1 ISZERO PUSH2 0x14FA JUMPI RETURNDATASIZE PUSH1 0x0 DUP1 RETURNDATACOPY RETURNDATASIZE PUSH1 0x0 REVERT JUMPDEST POP POP POP POP PUSH1 0x40 MLOAD RETURNDATASIZE PUSH1 0x20 DUP2 LT ISZERO PUSH2 0x1510 JUMPI PUSH1 0x0 DUP1 REVERT JUMPDEST POP MLOAD SWAP1 PUSH4 0xFFFFFFFF PUSH2 0x29B8 AND JUMP JUMPDEST PUSH1 0xD SLOAD DUP2 JUMP JUMPDEST PUSH20 0x7A250D5630B4CF539739DF2C5DACB4C659F2488D DUP2 JUMP JUMPDEST PUSH1 0xC SLOAD DUP2 JUMP JUMPDEST PUSH3 0x13880 DUP2 JUMP JUMPDEST PUSH2 0x19C8 DUP2 JUMP JUMPDEST PUSH1 0x1 PUSH1 0x1 PUSH1 0xA0 SHL SUB AND PUSH1 0x0 SWAP1 DUP2 MSTORE PUSH1 0x3 PUSH1 0x20 MSTORE PUSH1 0x40 SWAP1 KECCAK256 SLOAD SWAP1 JUMP JUMPDEST PUSH1 0x4 PUSH1 0x20 MSTORE PUSH1 0x0 SWAP1 DUP2 MSTORE PUSH1 0x40 SWAP1 KECCAK256 SLOAD DUP2 JUMP JUMPDEST CALLER PUSH1 0x0 SWAP1 DUP2 MSTORE PUSH1 0x3 PUSH1 0x20 MSTORE PUSH1 0x40 DUP2 KECCAK256 SLOAD PUSH2 0x1595 SWAP1 PUSH2 0xD56 JUMP JUMPDEST SWAP1 POP SWAP1 JUMP JUMPDEST PUSH3 0x19A28 DUP2 JUMP JUMPDEST PUSH1 0xF SLOAD DUP2 JUMP JUMPDEST PUSH1 0x0 DUP1 SLOAD PUSH1 0x40 DUP1 MLOAD PUSH1 0x20 PUSH1 0x2 PUSH1 0x1 DUP6 AND ISZERO PUSH2 0x100 MUL PUSH1 0x0 NOT ADD SWAP1 SWAP5 AND SWAP4 SWAP1 SWAP4 DIV PUSH1 0x1F DUP2 ADD DUP5 SWAP1 DIV DUP5 MUL DUP3 ADD DUP5 ADD SWAP1 SWAP3 MSTORE DUP2 DUP2 MSTORE SWAP3 SWAP2 DUP4 ADD DUP3 DUP3 DUP1 ISZERO PUSH2 0x162D JUMPI DUP1 PUSH1 0x1F LT PUSH2 0x1602 JUMPI PUSH2 0x100 DUP1 DUP4 SLOAD DIV MUL DUP4 MSTORE SWAP2 PUSH1 0x20 ADD SWAP2 PUSH2 0x162D JUMP JUMPDEST DUP3 ADD SWAP2 SWAP1 PUSH1 0x0 MSTORE PUSH1 0x20 PUSH1 0x0 KECCAK256 SWAP1 JUMPDEST DUP2 SLOAD DUP2 MSTORE SWAP1 PUSH1 0x1 ADD SWAP1 PUSH1 0x20 ADD DUP1 DUP4 GT PUSH2 0x1610 JUMPI DUP3 SWAP1 SUB PUSH1 0x1F AND DUP3 ADD SWAP2 JUMPDEST POP POP POP POP POP DUP2 JUMP JUMPDEST PUSH1 0xA SLOAD PUSH1 0x0 SWAP1 JUMPDEST DUP3 DUP2 LT ISZERO PUSH2 0x1656 JUMPI PUSH2 0x164D DUP2 PUSH2 0xABE JUMP JUMPDEST POP PUSH1 0x1 ADD PUSH2 0x163C JUMP JUMPDEST PUSH1 0xA DUP2 SWAP1 SSTORE SWAP3 SWAP2 POP POP JUMP JUMPDEST PUSH1 0xB PUSH1 0x20 MSTORE DUP2 PUSH1 0x0 MSTORE PUSH1 0x40 PUSH1 0x0 KECCAK256 DUP2 DUP2 SLOAD DUP2 LT PUSH2 0x167A JUMPI INVALID JUMPDEST SWAP1 PUSH1 0x0 MSTORE PUSH1 0x20 PUSH1 0x0 KECCAK256 ADD PUSH1 0x0 SWAP2 POP SWAP2 POP POP SLOAD DUP2 JUMP JUMPDEST PUSH1 0x8 DUP2 DUP2 SLOAD DUP2 LT PUSH2 0x169C JUMPI INVALID JUMPDEST PUSH1 0x0 SWAP2 DUP3 MSTORE PUSH1 0x20 SWAP1 SWAP2 KECCAK256 PUSH1 0x9 SWAP1 SWAP2 MUL ADD DUP1 SLOAD PUSH1 0x1 DUP3 ADD SLOAD PUSH1 0x2 DUP4 ADD SLOAD PUSH1 0x3 DUP5 ADD SLOAD PUSH1 0x4 DUP6 ADD SLOAD PUSH1 0x5 DUP7 ADD SLOAD PUSH1 0x6 DUP8 ADD SLOAD PUSH1 0x7 DUP9 ADD SLOAD PUSH1 0x8 SWAP1 SWAP9 ADD SLOAD PUSH1 0x1 PUSH1 0x1 PUSH1 0xA0 SHL SUB SWAP8 DUP9 AND SWAP10 POP SWAP6 DUP8 AND SWAP8 SWAP5 SWAP1 SWAP7 AND SWAP6 SWAP3 SWAP5 SWAP2 SWAP4 SWAP1 SWAP3 SWAP2 PUSH1 0xFF AND DUP10 JUMP JUMPDEST PUSH1 0x5 SLOAD PUSH1 0x40 DUP1 MLOAD PUSH4 0x70A08231 PUSH1 0xE0 SHL DUP2 MSTORE PUSH1 0x1 PUSH1 0x1 PUSH1 0xA0 SHL SUB SWAP3 DUP4 AND PUSH1 0x4 DUP3 ADD MSTORE SWAP1 MLOAD PUSH1 0x0 SWAP3 PUSH2 0x17C5 SWAP3 SWAP1 DUP7 AND SWAP2 PUSH4 0x70A08231 SWAP2 PUSH1 0x24 DUP1 DUP3 ADD SWAP3 PUSH1 0x20 SWAP3 SWAP1 SWAP2 SWAP1 DUP3 SWAP1 SUB ADD DUP2 DUP7 DUP1 EXTCODESIZE ISZERO DUP1 ISZERO PUSH2 0x174E JUMPI PUSH1 0x0 DUP1 REVERT JUMPDEST POP GAS STATICCALL ISZERO DUP1 ISZERO PUSH2 0x1762 JUMPI RETURNDATASIZE PUSH1 0x0 DUP1 RETURNDATACOPY RETURNDATASIZE PUSH1 0x0 REVERT JUMPDEST POP POP POP POP PUSH1 0x40 MLOAD RETURNDATASIZE PUSH1 0x20 DUP2 LT ISZERO PUSH2 0x1778 JUMPI PUSH1 0x0 DUP1 REVERT JUMPDEST POP MLOAD PUSH1 0x5 SLOAD PUSH1 0x40 DUP1 MLOAD PUSH4 0x18160DDD PUSH1 0xE0 SHL DUP2 MSTORE SWAP1 MLOAD PUSH2 0xD77 SWAP3 DUP8 SWAP3 PUSH1 0x1 PUSH1 0x1 PUSH1 0xA0 SHL SUB SWAP1 SWAP2 AND SWAP2 PUSH4 0x18160DDD SWAP2 PUSH1 0x4 DUP1 DUP3 ADD SWAP3 PUSH1 0x20 SWAP3 SWAP1 SWAP2 SWAP1 DUP3 SWAP1 SUB ADD DUP2 DUP7 DUP1 EXTCODESIZE ISZERO DUP1 ISZERO PUSH2 0x1468 JUMPI PUSH1 0x0 DUP1 REVERT JUMPDEST SWAP4 SWAP3 POP POP POP JUMP JUMPDEST PUSH1 0x5 SLOAD PUSH1 0x1 PUSH1 0x1 PUSH1 0xA0 SHL SUB AND DUP2 JUMP JUMPDEST PUSH1 0x0 PUSH2 0x17E8 CALLER DUP5 DUP5 PUSH2 0x2A12 JUMP JUMPDEST POP PUSH1 0x1 SWAP3 SWAP2 POP POP JUMP JUMPDEST PUSH1 0x40 DUP1 MLOAD PUSH4 0x70A08231 PUSH1 0xE0 SHL DUP2 MSTORE ADDRESS PUSH1 0x4 DUP3 ADD MSTORE SWAP1 MLOAD PUSH1 0x0 SWAP2 DUP3 SWAP2 PUSH1 0x1 PUSH1 0x1 PUSH1 0xA0 SHL SUB DUP9 AND SWAP2 PUSH4 0x70A08231 SWAP2 PUSH1 0x24 DUP1 DUP4 ADD SWAP3 PUSH1 0x20 SWAP3 SWAP2 SWAP1 DUP3 SWAP1 SUB ADD DUP2 DUP7 DUP1 EXTCODESIZE ISZERO DUP1 ISZERO PUSH2 0x183C JUMPI PUSH1 0x0 DUP1 REVERT JUMPDEST POP GAS STATICCALL ISZERO DUP1 ISZERO PUSH2 0x1850 JUMPI RETURNDATASIZE PUSH1 0x0 DUP1 RETURNDATACOPY RETURNDATASIZE PUSH1 0x0 REVERT JUMPDEST POP POP POP POP PUSH1 0x40 MLOAD RETURNDATASIZE PUSH1 0x20 DUP2 LT ISZERO PUSH2 0x1866 JUMPI PUSH1 0x0 DUP1 REVERT JUMPDEST POP MLOAD PUSH1 0x40 DUP1 MLOAD PUSH4 0x23B872DD PUSH1 0xE0 SHL DUP2 MSTORE CALLER PUSH1 0x4 DUP3 ADD MSTORE ADDRESS PUSH1 0x24 DUP3 ADD MSTORE PUSH1 0x44 DUP2 ADD DUP8 SWAP1 MSTORE SWAP1 MLOAD SWAP2 SWAP3 POP PUSH1 0x1 PUSH1 0x1 PUSH1 0xA0 SHL SUB DUP9 AND SWAP2 PUSH4 0x23B872DD SWAP2 PUSH1 0x64 DUP1 DUP3 ADD SWAP3 PUSH1 0x20 SWAP3 SWAP1 SWAP2 SWAP1 DUP3 SWAP1 SUB ADD DUP2 PUSH1 0x0 DUP8 DUP1 EXTCODESIZE ISZERO DUP1 ISZERO PUSH2 0x18C1 JUMPI PUSH1 0x0 DUP1 REVERT JUMPDEST POP GAS CALL ISZERO DUP1 ISZERO PUSH2 0x18D5 JUMPI RETURNDATASIZE PUSH1 0x0 DUP1 RETURNDATACOPY RETURNDATASIZE PUSH1 0x0 REVERT JUMPDEST POP POP POP POP PUSH1 0x40 MLOAD RETURNDATASIZE PUSH1 0x20 DUP2 LT ISZERO PUSH2 0x18EB JUMPI PUSH1 0x0 DUP1 REVERT JUMPDEST POP POP PUSH1 0x40 DUP1 MLOAD PUSH4 0x70A08231 PUSH1 0xE0 SHL DUP2 MSTORE ADDRESS PUSH1 0x4 DUP3 ADD MSTORE SWAP1 MLOAD PUSH1 0x0 SWAP2 PUSH1 0x1 PUSH1 0x1 PUSH1 0xA0 SHL SUB DUP10 AND SWAP2 PUSH4 0x70A08231 SWAP2 PUSH1 0x24 DUP1 DUP3 ADD SWAP3 PUSH1 0x20 SWAP3 SWAP1 SWAP2 SWAP1 DUP3 SWAP1 SUB ADD DUP2 DUP7 DUP1 EXTCODESIZE ISZERO DUP1 ISZERO PUSH2 0x1937 JUMPI PUSH1 0x0 DUP1 REVERT JUMPDEST POP GAS STATICCALL ISZERO DUP1 ISZERO PUSH2 0x194B JUMPI RETURNDATASIZE PUSH1 0x0 DUP1 RETURNDATACOPY RETURNDATASIZE PUSH1 0x0 REVERT JUMPDEST POP POP POP POP PUSH1 0x40 MLOAD RETURNDATASIZE PUSH1 0x20 DUP2 LT ISZERO PUSH2 0x1961 JUMPI PUSH1 0x0 DUP1 REVERT JUMPDEST POP MLOAD SWAP1 POP PUSH1 0x0 PUSH2 0x1977 DUP3 DUP5 PUSH4 0xFFFFFFFF PUSH2 0x2D3D AND JUMP JUMPDEST SWAP1 POP PUSH1 0x0 PUSH2 0x1994 PUSH3 0x186A0 PUSH2 0xD77 DUP5 PUSH2 0x258 PUSH4 0xFFFFFFFF PUSH2 0x2BA7 AND JUMP JUMPDEST SWAP1 POP PUSH2 0x19A6 DUP3 DUP3 PUSH4 0xFFFFFFFF PUSH2 0x2D3D AND JUMP JUMPDEST SWAP2 POP PUSH1 0x0 PUSH2 0x19C4 PUSH3 0x186A0 PUSH2 0xD77 DUP6 PUSH3 0x13880 PUSH4 0xFFFFFFFF PUSH2 0x2BA7 AND JUMP JUMPDEST SWAP1 POP PUSH1 0x0 PUSH2 0x19D3 DUP12 DUP12 DUP5 PUSH2 0x1F85 JUMP JUMPDEST SWAP1 POP DUP8 DUP2 LT ISZERO PUSH2 0x1A2A JUMPI PUSH1 0x40 DUP1 MLOAD PUSH3 0x461BCD PUSH1 0xE5 SHL DUP2 MSTORE PUSH1 0x20 PUSH1 0x4 DUP3 ADD MSTORE PUSH1 0x17 PUSH1 0x24 DUP3 ADD MSTORE PUSH32 0x556E696C6F616E3A3A6C6F616E3A20736C697070616765000000000000000000 PUSH1 0x44 DUP3 ADD MSTORE SWAP1 MLOAD SWAP1 DUP2 SWAP1 SUB PUSH1 0x64 ADD SWAP1 REVERT JUMPDEST DUP1 PUSH2 0x1A34 DUP12 PUSH2 0x1321 JUMP JUMPDEST GT PUSH2 0x1A70 JUMPI PUSH1 0x40 MLOAD PUSH3 0x461BCD PUSH1 0xE5 SHL DUP2 MSTORE PUSH1 0x4 ADD DUP1 DUP1 PUSH1 0x20 ADD DUP3 DUP2 SUB DUP3 MSTORE PUSH1 0x25 DUP2 MSTORE PUSH1 0x20 ADD DUP1 PUSH2 0x3142 PUSH1 0x25 SWAP2 CODECOPY PUSH1 0x40 ADD SWAP2 POP POP PUSH1 0x40 MLOAD DUP1 SWAP2 SUB SWAP1 REVERT JUMPDEST PUSH1 0x40 DUP1 MLOAD PUSH4 0x70A08231 PUSH1 0xE0 SHL DUP2 MSTORE ADDRESS PUSH1 0x4 DUP3 ADD MSTORE SWAP1 MLOAD PUSH1 0x0 SWAP2 PUSH1 0x1 PUSH1 0x1 PUSH1 0xA0 SHL SUB DUP14 AND SWAP2 PUSH4 0x70A08231 SWAP2 PUSH1 0x24 DUP1 DUP3 ADD SWAP3 PUSH1 0x20 SWAP3 SWAP1 SWAP2 SWAP1 DUP3 SWAP1 SUB ADD DUP2 DUP7 DUP1 EXTCODESIZE ISZERO DUP1 ISZERO PUSH2 0x1ABA JUMPI PUSH1 0x0 DUP1 REVERT JUMPDEST POP GAS STATICCALL ISZERO DUP1 ISZERO PUSH2 0x1ACE JUMPI RETURNDATASIZE PUSH1 0x0 DUP1 RETURNDATACOPY RETURNDATASIZE PUSH1 0x0 REVERT JUMPDEST POP POP POP POP PUSH1 0x40 MLOAD RETURNDATASIZE PUSH1 0x20 DUP2 LT ISZERO PUSH2 0x1AE4 JUMPI PUSH1 0x0 DUP1 REVERT JUMPDEST POP MLOAD SWAP1 POP PUSH1 0x0 DUP3 DUP3 LT ISZERO PUSH2 0x1B20 JUMPI PUSH2 0x1B06 DUP13 PUSH2 0x1131 DUP6 DUP6 PUSH4 0xFFFFFFFF PUSH2 0x2D3D AND JUMP JUMPDEST PUSH1 0x10 SLOAD SWAP1 SWAP2 POP PUSH2 0x1B1C SWAP1 DUP3 PUSH4 0xFFFFFFFF PUSH2 0x29B8 AND JUMP JUMPDEST PUSH1 0x10 SSTORE JUMPDEST PUSH1 0x8 PUSH1 0x40 MLOAD DUP1 PUSH2 0x120 ADD PUSH1 0x40 MSTORE DUP1 CALLER PUSH1 0x1 PUSH1 0x1 PUSH1 0xA0 SHL SUB AND DUP2 MSTORE PUSH1 0x20 ADD DUP16 PUSH1 0x1 PUSH1 0x1 PUSH1 0xA0 SHL SUB AND DUP2 MSTORE PUSH1 0x20 ADD DUP15 PUSH1 0x1 PUSH1 0x1 PUSH1 0xA0 SHL SUB AND DUP2 MSTORE PUSH1 0x20 ADD DUP9 DUP2 MSTORE PUSH1 0x20 ADD DUP6 DUP2 MSTORE PUSH1 0x20 ADD DUP4 DUP2 MSTORE PUSH1 0x20 ADD NUMBER DUP2 MSTORE PUSH1 0x20 ADD PUSH2 0x1B88 PUSH2 0x19C8 NUMBER PUSH2 0x29B8 SWAP1 SWAP2 SWAP1 PUSH4 0xFFFFFFFF AND JUMP JUMPDEST DUP2 MSTORE PUSH1 0x20 ADD PUSH1 0x1 ISZERO ISZERO DUP2 MSTORE POP SWAP1 DUP1 PUSH1 0x1 DUP2 SLOAD ADD DUP1 DUP3 SSTORE DUP1 SWAP2 POP POP PUSH1 0x1 SWAP1 SUB SWAP1 PUSH1 0x0 MSTORE PUSH1 0x20 PUSH1 0x0 KECCAK256 SWAP1 PUSH1 0x9 MUL ADD PUSH1 0x0 SWAP1 SWAP2 SWAP1 SWAP2 SWAP1 SWAP2 POP PUSH1 0x0 DUP3 ADD MLOAD DUP2 PUSH1 0x0 ADD PUSH1 0x0 PUSH2 0x100 EXP DUP2 SLOAD DUP2 PUSH1 0x1 PUSH1 0x1 PUSH1 0xA0 SHL SUB MUL NOT AND SWAP1 DUP4 PUSH1 0x1 PUSH1 0x1 PUSH1 0xA0 SHL SUB AND MUL OR SWAP1 SSTORE POP PUSH1 0x20 DUP3 ADD MLOAD DUP2 PUSH1 0x1 ADD PUSH1 0x0 PUSH2 0x100 EXP DUP2 SLOAD DUP2 PUSH1 0x1 PUSH1 0x1 PUSH1 0xA0 SHL SUB MUL NOT AND SWAP1 DUP4 PUSH1 0x1 PUSH1 0x1 PUSH1 0xA0 SHL SUB AND MUL OR SWAP1 SSTORE POP PUSH1 0x40 DUP3 ADD MLOAD DUP2 PUSH1 0x2 ADD PUSH1 0x0 PUSH2 0x100 EXP DUP2 SLOAD DUP2 PUSH1 0x1 PUSH1 0x1 PUSH1 0xA0 SHL SUB MUL NOT AND SWAP1 DUP4 PUSH1 0x1 PUSH1 0x1 PUSH1 0xA0 SHL SUB AND MUL OR SWAP1 SSTORE POP PUSH1 0x60 DUP3 ADD MLOAD DUP2 PUSH1 0x3 ADD SSTORE PUSH1 0x80 DUP3 ADD MLOAD DUP2 PUSH1 0x4 ADD SSTORE PUSH1 0xA0 DUP3 ADD MLOAD DUP2 PUSH1 0x5 ADD SSTORE PUSH1 0xC0 DUP3 ADD MLOAD DUP2 PUSH1 0x6 ADD SSTORE PUSH1 0xE0 DUP3 ADD MLOAD DUP2 PUSH1 0x7 ADD SSTORE PUSH2 0x100 DUP3 ADD MLOAD DUP2 PUSH1 0x8 ADD PUSH1 0x0 PUSH2 0x100 EXP DUP2 SLOAD DUP2 PUSH1 0xFF MUL NOT AND SWAP1 DUP4 ISZERO ISZERO MUL OR SWAP1 SSTORE POP POP POP PUSH1 0xB PUSH1 0x0 CALLER PUSH1 0x1 PUSH1 0x1 PUSH1 0xA0 SHL SUB AND PUSH1 0x1 PUSH1 0x1 PUSH1 0xA0 SHL SUB AND DUP2 MSTORE PUSH1 0x20 ADD SWAP1 DUP2 MSTORE PUSH1 0x20 ADD PUSH1 0x0 KECCAK256 PUSH1 0x9 SLOAD SWAP1 DUP1 PUSH1 0x1 DUP2 SLOAD ADD DUP1 DUP3 SSTORE DUP1 SWAP2 POP POP PUSH1 0x1 SWAP1 SUB SWAP1 PUSH1 0x0 MSTORE PUSH1 0x20 PUSH1 0x0 KECCAK256 ADD PUSH1 0x0 SWAP1 SWAP2 SWAP1 SWAP2 SWAP1 SWAP2 POP SSTORE DUP12 PUSH1 0x1 PUSH1 0x1 PUSH1 0xA0 SHL SUB AND PUSH4 0xA9059CBB CALLER DUP6 PUSH1 0x40 MLOAD DUP4 PUSH4 0xFFFFFFFF AND PUSH1 0xE0 SHL DUP2 MSTORE PUSH1 0x4 ADD DUP1 DUP4 PUSH1 0x1 PUSH1 0x1 PUSH1 0xA0 SHL SUB AND PUSH1 0x1 PUSH1 0x1 PUSH1 0xA0 SHL SUB AND DUP2 MSTORE PUSH1 0x20 ADD DUP3 DUP2 MSTORE PUSH1 0x20 ADD SWAP3 POP POP POP PUSH1 0x20 PUSH1 0x40 MLOAD DUP1 DUP4 SUB DUP2 PUSH1 0x0 DUP8 DUP1 EXTCODESIZE ISZERO DUP1 ISZERO PUSH2 0x1D47 JUMPI PUSH1 0x0 DUP1 REVERT JUMPDEST POP GAS CALL ISZERO DUP1 ISZERO PUSH2 0x1D5B JUMPI RETURNDATASIZE PUSH1 0x0 DUP1 RETURNDATACOPY RETURNDATASIZE PUSH1 0x0 REVERT JUMPDEST POP POP POP POP PUSH1 0x40 MLOAD RETURNDATASIZE PUSH1 0x20 DUP2 LT ISZERO PUSH2 0x1D71 JUMPI PUSH1 0x0 DUP1 REVERT JUMPDEST POP POP PUSH1 0x9 SLOAD PUSH1 0x1 PUSH1 0x1 PUSH1 0xA0 SHL SUB DUP1 DUP15 AND SWAP2 SWAP1 DUP16 AND SWAP1 CALLER SWAP1 PUSH32 0xC5F8BB69E29F0B5E3CEDF454F0C8688F216B44693C51A455F7906202945E3D5 SWAP1 DUP11 DUP9 NUMBER PUSH2 0x1DBF DUP2 PUSH2 0x19C8 PUSH4 0xFFFFFFFF PUSH2 0x29B8 AND JUMP JUMPDEST PUSH1 0x40 DUP1 MLOAD SWAP6 DUP7 MSTORE PUSH1 0x20 DUP7 ADD SWAP5 SWAP1 SWAP5 MSTORE DUP5 DUP5 ADD SWAP3 SWAP1 SWAP3 MSTORE PUSH1 0x60 DUP5 ADD MSTORE PUSH1 0x80 DUP4 ADD MSTORE MLOAD SWAP1 DUP2 SWAP1 SUB PUSH1 0xA0 ADD SWAP1 LOG4 POP POP PUSH1 0x9 DUP1 SLOAD PUSH1 0x1 DUP2 ADD SWAP1 SWAP2 SSTORE SWAP12 SWAP11 POP POP POP POP POP POP POP POP POP POP POP JUMP JUMPDEST PUSH1 0x0 DUP1 PUSH2 0x1E3A PUSH3 0x186A0 PUSH2 0xD77 PUSH3 0x13880 PUSH2 0xD6B PUSH2 0x1E2D DUP5 DUP5 DUP11 PUSH2 0x258 PUSH4 0xFFFFFFFF PUSH2 0x2BA7 AND JUMP JUMPDEST DUP9 SWAP1 PUSH4 0xFFFFFFFF PUSH2 0x2D3D AND JUMP JUMPDEST SWAP1 POP PUSH2 0x1E47 DUP6 DUP6 DUP4 PUSH2 0x27B9 JUMP JUMPDEST SWAP6 SWAP5 POP POP POP POP POP JUMP JUMPDEST PUSH1 0x10 SLOAD DUP2 JUMP JUMPDEST PUSH1 0x5 SLOAD PUSH1 0x40 DUP1 MLOAD PUSH4 0x23B872DD PUSH1 0xE0 SHL DUP2 MSTORE CALLER PUSH1 0x4 DUP3 ADD MSTORE ADDRESS PUSH1 0x24 DUP3 ADD MSTORE PUSH1 0x44 DUP2 ADD DUP5 SWAP1 MSTORE SWAP1 MLOAD PUSH1 0x0 SWAP3 PUSH1 0x1 PUSH1 0x1 PUSH1 0xA0 SHL SUB AND SWAP2 PUSH4 0x23B872DD SWAP2 PUSH1 0x64 DUP1 DUP4 ADD SWAP3 PUSH1 0x20 SWAP3 SWAP2 SWAP1 DUP3 SWAP1 SUB ADD DUP2 DUP8 DUP8 DUP1 EXTCODESIZE ISZERO DUP1 ISZERO PUSH2 0x1EAF JUMPI PUSH1 0x0 DUP1 REVERT JUMPDEST POP GAS CALL ISZERO DUP1 ISZERO PUSH2 0x1EC3 JUMPI RETURNDATASIZE PUSH1 0x0 DUP1 RETURNDATACOPY RETURNDATASIZE PUSH1 0x0 REVERT JUMPDEST POP POP POP POP PUSH1 0x40 MLOAD RETURNDATASIZE PUSH1 0x20 DUP2 LT ISZERO PUSH2 0x1ED9 JUMPI PUSH1 0x0 DUP1 REVERT JUMPDEST POP PUSH1 0x0 SWAP1 POP PUSH2 0x1EE6 PUSH2 0x1FB7 JUMP JUMPDEST PUSH2 0x1EF1 JUMPI POP DUP2 PUSH2 0x1F13 JUMP JUMPDEST PUSH2 0x1F10 PUSH2 0x1EFC PUSH2 0x1FB7 JUMP JUMPDEST PUSH1 0x1 SLOAD PUSH2 0xD77 SWAP1 DUP7 SWAP1 PUSH4 0xFFFFFFFF PUSH2 0x2BA7 AND JUMP JUMPDEST SWAP1 POP JUMPDEST PUSH2 0x1F1D CALLER DUP3 PUSH2 0x2F61 JUMP JUMPDEST PUSH1 0xC SLOAD PUSH2 0x1F30 SWAP1 DUP5 PUSH4 0xFFFFFFFF PUSH2 0x29B8 AND JUMP JUMPDEST PUSH1 0xC SSTORE PUSH1 0x5 SLOAD PUSH1 0x40 DUP1 MLOAD DUP4 DUP2 MSTORE PUSH1 0x20 DUP2 ADD DUP7 SWAP1 MSTORE DUP2 MLOAD PUSH1 0x1 PUSH1 0x1 PUSH1 0xA0 SHL SUB SWAP1 SWAP4 AND SWAP3 CALLER SWAP3 PUSH32 0xF5681F9D0DB1B911AC18EE83D515A1CF1051853A9EAE418316A2FDF7DEA427C5 SWAP3 DUP3 SWAP1 SUB ADD SWAP1 LOG3 POP PUSH1 0x1 SWAP3 SWAP2 POP POP JUMP JUMPDEST PUSH1 0x0 DUP1 PUSH2 0x1F93 DUP6 DUP6 DUP6 PUSH2 0x27B9 JUMP JUMPDEST SWAP1 POP PUSH1 0x0 PUSH2 0x1FA1 DUP7 DUP6 PUSH2 0x8A8 JUMP JUMPDEST SWAP1 POP PUSH2 0x1FAD DUP3 DUP3 PUSH2 0x2FF8 JUMP JUMPDEST SWAP7 SWAP6 POP POP POP POP POP POP JUMP JUMPDEST PUSH1 0x0 PUSH2 0x1595 PUSH1 0x10 SLOAD PUSH2 0x1FF4 PUSH1 0x11 SLOAD PUSH2 0x1FE8 PUSH1 0xF SLOAD PUSH2 0x1FF4 PUSH1 0xE SLOAD PUSH2 0x1FE8 PUSH1 0xD SLOAD PUSH1 0xC SLOAD PUSH2 0x2D3D SWAP1 SWAP2 SWAP1 PUSH4 0xFFFFFFFF AND JUMP JUMPDEST SWAP1 PUSH4 0xFFFFFFFF PUSH2 0x29B8 AND JUMP JUMPDEST SWAP1 PUSH4 0xFFFFFFFF PUSH2 0x2D3D AND JUMP JUMPDEST PUSH2 0x258 DUP2 JUMP JUMPDEST CALLER ORIGIN EQ PUSH2 0x2044 JUMPI PUSH1 0x40 MLOAD PUSH3 0x461BCD PUSH1 0xE5 SHL DUP2 MSTORE PUSH1 0x4 ADD DUP1 DUP1 PUSH1 0x20 ADD DUP3 DUP2 SUB DUP3 MSTORE PUSH1 0x2C DUP2 MSTORE PUSH1 0x20 ADD DUP1 PUSH2 0x3116 PUSH1 0x2C SWAP2 CODECOPY PUSH1 0x40 ADD SWAP2 POP POP PUSH1 0x40 MLOAD DUP1 SWAP2 SUB SWAP1 REVERT JUMPDEST PUSH1 0x6 SLOAD PUSH1 0x40 DUP1 MLOAD PUSH4 0x70A08231 PUSH1 0xE0 SHL DUP2 MSTORE ADDRESS PUSH1 0x4 DUP3 ADD MSTORE SWAP1 MLOAD PUSH1 0x1 PUSH1 0x1 PUSH1 0xA0 SHL SUB SWAP1 SWAP3 AND SWAP2 PUSH4 0x95EA7B3 SWAP2 PUSH20 0x7A250D5630B4CF539739DF2C5DACB4C659F2488D SWAP2 DUP5 SWAP2 PUSH4 0x70A08231 SWAP2 PUSH1 0x24 DUP1 DUP4 ADD SWAP3 PUSH1 0x20 SWAP3 SWAP2 SWAP1 DUP3 SWAP1 SUB ADD DUP2 DUP7 DUP1 EXTCODESIZE ISZERO DUP1 ISZERO PUSH2 0x20AC JUMPI PUSH1 0x0 DUP1 REVERT JUMPDEST POP GAS STATICCALL ISZERO DUP1 ISZERO PUSH2 0x20C0 JUMPI RETURNDATASIZE PUSH1 0x0 DUP1 RETURNDATACOPY RETURNDATASIZE PUSH1 0x0 REVERT JUMPDEST POP POP POP POP PUSH1 0x40 MLOAD RETURNDATASIZE PUSH1 0x20 DUP2 LT ISZERO PUSH2 0x20D6 JUMPI PUSH1 0x0 DUP1 REVERT JUMPDEST POP MLOAD PUSH1 0x40 DUP1 MLOAD PUSH1 0x1 PUSH1 0x1 PUSH1 0xE0 SHL SUB NOT PUSH1 0xE0 DUP7 SWAP1 SHL AND DUP2 MSTORE PUSH1 0x1 PUSH1 0x1 PUSH1 0xA0 SHL SUB SWAP1 SWAP4 AND PUSH1 0x4 DUP5 ADD MSTORE PUSH1 0x24 DUP4 ADD SWAP2 SWAP1 SWAP2 MSTORE MLOAD PUSH1 0x44 DUP1 DUP4 ADD SWAP3 PUSH1 0x20 SWAP3 SWAP2 SWAP1 DUP3 SWAP1 SUB ADD DUP2 PUSH1 0x0 DUP8 DUP1 EXTCODESIZE ISZERO DUP1 ISZERO PUSH2 0x2127 JUMPI PUSH1 0x0 DUP1 REVERT JUMPDEST POP GAS CALL ISZERO DUP1 ISZERO PUSH2 0x213B JUMPI RETURNDATASIZE PUSH1 0x0 DUP1 RETURNDATACOPY RETURNDATASIZE PUSH1 0x0 REVERT JUMPDEST POP POP POP POP PUSH1 0x40 MLOAD RETURNDATASIZE PUSH1 0x20 DUP2 LT ISZERO PUSH2 0x2151 JUMPI PUSH1 0x0 DUP1 REVERT JUMPDEST POP POP PUSH1 0x7 SLOAD PUSH1 0x40 DUP1 MLOAD PUSH4 0x70A08231 PUSH1 0xE0 SHL DUP2 MSTORE ADDRESS PUSH1 0x4 DUP3 ADD MSTORE SWAP1 MLOAD PUSH1 0x1 PUSH1 0x1 PUSH1 0xA0 SHL SUB SWAP1 SWAP3 AND SWAP2 PUSH4 0x95EA7B3 SWAP2 PUSH20 0x7A250D5630B4CF539739DF2C5DACB4C659F2488D SWAP2 DUP5 SWAP2 PUSH4 0x70A08231 SWAP2 PUSH1 0x24 DUP1 DUP4 ADD SWAP3 PUSH1 0x20 SWAP3 SWAP2 SWAP1 DUP3 SWAP1 SUB ADD DUP2 DUP7 DUP1 EXTCODESIZE ISZERO DUP1 ISZERO PUSH2 0x21BB JUMPI PUSH1 0x0 DUP1 REVERT JUMPDEST POP GAS STATICCALL ISZERO DUP1 ISZERO PUSH2 0x21CF JUMPI RETURNDATASIZE PUSH1 0x0 DUP1 RETURNDATACOPY RETURNDATASIZE PUSH1 0x0 REVERT JUMPDEST POP POP POP POP PUSH1 0x40 MLOAD RETURNDATASIZE PUSH1 0x20 DUP2 LT ISZERO PUSH2 0x21E5 JUMPI PUSH1 0x0 DUP1 REVERT JUMPDEST POP MLOAD PUSH1 0x40 DUP1 MLOAD PUSH1 0x1 PUSH1 0x1 PUSH1 0xE0 SHL SUB NOT PUSH1 0xE0 DUP7 SWAP1 SHL AND DUP2 MSTORE PUSH1 0x1 PUSH1 0x1 PUSH1 0xA0 SHL SUB SWAP1 SWAP4 AND PUSH1 0x4 DUP5 ADD MSTORE PUSH1 0x24 DUP4 ADD SWAP2 SWAP1 SWAP2 MSTORE MLOAD PUSH1 0x44 DUP1 DUP4 ADD SWAP3 PUSH1 0x20 SWAP3 SWAP2 SWAP1 DUP3 SWAP1 SUB ADD DUP2 PUSH1 0x0 DUP8 DUP1 EXTCODESIZE ISZERO DUP1 ISZERO PUSH2 0x2236 JUMPI PUSH1 0x0 DUP1 REVERT JUMPDEST POP GAS CALL ISZERO DUP1 ISZERO PUSH2 0x224A JUMPI RETURNDATASIZE PUSH1 0x0 DUP1 RETURNDATACOPY RETURNDATASIZE PUSH1 0x0 REVERT JUMPDEST POP POP POP POP PUSH1 0x40 MLOAD RETURNDATASIZE PUSH1 0x20 DUP2 LT ISZERO PUSH2 0x2260 JUMPI PUSH1 0x0 DUP1 REVERT JUMPDEST POP POP PUSH1 0x6 SLOAD PUSH1 0x7 SLOAD PUSH1 0x40 DUP1 MLOAD PUSH4 0x70A08231 PUSH1 0xE0 SHL DUP2 MSTORE ADDRESS PUSH1 0x4 DUP3 ADD MSTORE SWAP1 MLOAD PUSH1 0x0 SWAP4 PUSH20 0x7A250D5630B4CF539739DF2C5DACB4C659F2488D SWAP4 PUSH4 0xE8E33700 SWAP4 PUSH1 0x1 PUSH1 0x1 PUSH1 0xA0 SHL SUB SWAP3 DUP4 AND SWAP4 SWAP3 SWAP1 SWAP2 AND SWAP2 DUP4 SWAP2 PUSH4 0x70A08231 SWAP2 PUSH1 0x24 DUP1 DUP4 ADD SWAP3 PUSH1 0x20 SWAP3 SWAP2 SWAP1 DUP3 SWAP1 SUB ADD DUP2 DUP7 DUP1 EXTCODESIZE ISZERO DUP1 ISZERO PUSH2 0x22D5 JUMPI PUSH1 0x0 DUP1 REVERT JUMPDEST POP GAS STATICCALL ISZERO DUP1 ISZERO PUSH2 0x22E9 JUMPI RETURNDATASIZE PUSH1 0x0 DUP1 RETURNDATACOPY RETURNDATASIZE PUSH1 0x0 REVERT JUMPDEST POP POP POP POP PUSH1 0x40 MLOAD RETURNDATASIZE PUSH1 0x20 DUP2 LT ISZERO PUSH2 0x22FF JUMPI PUSH1 0x0 DUP1 REVERT JUMPDEST POP MLOAD PUSH1 0x7 SLOAD PUSH1 0x40 DUP1 MLOAD PUSH4 0x70A08231 PUSH1 0xE0 SHL DUP2 MSTORE ADDRESS PUSH1 0x4 DUP3 ADD MSTORE SWAP1 MLOAD PUSH1 0x1 PUSH1 0x1 PUSH1 0xA0 SHL SUB SWAP1 SWAP3 AND SWAP2 PUSH4 0x70A08231 SWAP2 PUSH1 0x24 DUP1 DUP3 ADD SWAP3 PUSH1 0x20 SWAP3 SWAP1 SWAP2 SWAP1 DUP3 SWAP1 SUB ADD DUP2 DUP7 DUP1 EXTCODESIZE ISZERO DUP1 ISZERO PUSH2 0x234C JUMPI PUSH1 0x0 DUP1 REVERT JUMPDEST POP GAS STATICCALL ISZERO DUP1 ISZERO PUSH2 0x2360 JUMPI RETURNDATASIZE PUSH1 0x0 DUP1 RETURNDATACOPY RETURNDATASIZE PUSH1 0x0 REVERT JUMPDEST POP POP POP POP PUSH1 0x40 MLOAD RETURNDATASIZE PUSH1 0x20 DUP2 LT ISZERO PUSH2 0x2376 JUMPI PUSH1 0x0 DUP1 REVERT JUMPDEST POP MLOAD PUSH1 0x0 DUP1 ADDRESS PUSH2 0x238E TIMESTAMP PUSH2 0x708 PUSH4 0xFFFFFFFF PUSH2 0x29B8 AND JUMP JUMPDEST PUSH1 0x40 MLOAD DUP10 PUSH4 0xFFFFFFFF AND PUSH1 0xE0 SHL DUP2 MSTORE PUSH1 0x4 ADD DUP1 DUP10 PUSH1 0x1 PUSH1 0x1 PUSH1 0xA0 SHL SUB AND PUSH1 0x1 PUSH1 0x1 PUSH1 0xA0 SHL SUB AND DUP2 MSTORE PUSH1 0x20 ADD DUP9 PUSH1 0x1 PUSH1 0x1 PUSH1 0xA0 SHL SUB AND PUSH1 0x1 PUSH1 0x1 PUSH1 0xA0 SHL SUB AND DUP2 MSTORE PUSH1 0x20 ADD DUP8 DUP2 MSTORE PUSH1 0x20 ADD DUP7 DUP2 MSTORE PUSH1 0x20 ADD DUP6 DUP2 MSTORE PUSH1 0x20 ADD DUP5 DUP2 MSTORE PUSH1 0x20 ADD DUP4 PUSH1 0x1 PUSH1 0x1 PUSH1 0xA0 SHL SUB AND PUSH1 0x1 PUSH1 0x1 PUSH1 0xA0 SHL SUB AND DUP2 MSTORE PUSH1 0x20 ADD DUP3 DUP2 MSTORE PUSH1 0x20 ADD SWAP9 POP POP POP POP POP POP POP POP POP PUSH1 0x60 PUSH1 0x40 MLOAD DUP1 DUP4 SUB DUP2 PUSH1 0x0 DUP8 DUP1 EXTCODESIZE ISZERO DUP1 ISZERO PUSH2 0x242B JUMPI PUSH1 0x0 DUP1 REVERT JUMPDEST POP GAS CALL ISZERO DUP1 ISZERO PUSH2 0x243F JUMPI RETURNDATASIZE PUSH1 0x0 DUP1 RETURNDATACOPY RETURNDATASIZE PUSH1 0x0 REVERT JUMPDEST POP POP POP POP PUSH1 0x40 MLOAD RETURNDATASIZE PUSH1 0x60 DUP2 LT ISZERO PUSH2 0x2455 JUMPI PUSH1 0x0 DUP1 REVERT JUMPDEST POP PUSH1 0x40 ADD MLOAD PUSH1 0xE SLOAD SWAP1 SWAP2 POP PUSH2 0x2470 SWAP1 DUP3 PUSH4 0xFFFFFFFF PUSH2 0x29B8 AND JUMP JUMPDEST PUSH1 0xE SSTORE POP JUMP JUMPDEST PUSH1 0x7 SLOAD PUSH1 0x1 PUSH1 0x1 PUSH1 0xA0 SHL SUB AND DUP2 JUMP JUMPDEST PUSH1 0x0 PUSH1 0x40 MLOAD DUP1 DUP1 PUSH2 0x3286 PUSH1 0x40 SWAP2 CODECOPY PUSH1 0x40 DUP1 MLOAD SWAP2 DUP3 SWAP1 SUB DUP2 ADD DUP3 KECCAK256 DUP3 DUP3 ADD SWAP1 SWAP2 MSTORE PUSH1 0xF DUP3 MSTORE PUSH15 0x556E696C6F616E2050616972204C5 PUSH1 0x8C SHL PUSH1 0x20 SWAP1 SWAP3 ADD SWAP2 SWAP1 SWAP2 MSTORE SWAP1 POP PUSH32 0xAACE3CBF2422C8CBD6FF54FF4B8468CC948B62AE207DB9D074F6CE3D38C6B58B PUSH2 0x24F0 PUSH2 0x300E JUMP JUMPDEST ADDRESS PUSH1 0x40 MLOAD PUSH1 0x20 ADD DUP1 DUP6 DUP2 MSTORE PUSH1 0x20 ADD DUP5 DUP2 MSTORE PUSH1 0x20 ADD DUP4 DUP2 MSTORE PUSH1 0x20 ADD DUP3 PUSH1 0x1 PUSH1 0x1 PUSH1 0xA0 SHL SUB AND PUSH1 0x1 PUSH1 0x1 PUSH1 0xA0 SHL SUB AND DUP2 MSTORE PUSH1 0x20 ADD SWAP5 POP POP POP POP POP PUSH1 0x40 MLOAD PUSH1 0x20 DUP2 DUP4 SUB SUB DUP2 MSTORE SWAP1 PUSH1 0x40 MSTORE DUP1 MLOAD SWAP1 PUSH1 0x20 ADD KECCAK256 SWAP1 POP PUSH1 0x0 PUSH1 0x40 MLOAD DUP1 DUP1 PUSH2 0x318E PUSH1 0x49 SWAP2 CODECOPY PUSH1 0x40 DUP1 MLOAD SWAP2 DUP3 SWAP1 SUB PUSH1 0x49 ADD DUP3 KECCAK256 PUSH1 0x1 PUSH1 0x1 PUSH1 0xA0 SHL SUB DUP1 DUP15 AND PUSH1 0x0 DUP2 DUP2 MSTORE PUSH1 0x4 PUSH1 0x20 SWAP1 DUP2 MSTORE DUP6 DUP3 KECCAK256 DUP1 SLOAD PUSH1 0x1 DUP1 DUP3 ADD SWAP1 SWAP3 SSTORE DUP3 DUP10 ADD SWAP7 SWAP1 SWAP7 MSTORE DUP8 DUP8 ADD SWAP4 SWAP1 SWAP4 MSTORE SWAP3 DUP16 AND PUSH1 0x60 DUP8 ADD MSTORE PUSH1 0x80 DUP7 ADD DUP15 SWAP1 MSTORE PUSH1 0xA0 DUP7 ADD SWAP4 SWAP1 SWAP4 MSTORE PUSH1 0xC0 DUP1 DUP7 ADD DUP14 SWAP1 MSTORE DUP5 MLOAD DUP1 DUP8 SUB SWAP1 SWAP2 ADD DUP2 MSTORE PUSH1 0xE0 DUP7 ADD DUP6 MSTORE DUP1 MLOAD SWAP1 DUP4 ADD KECCAK256 PUSH2 0x1901 PUSH1 0xF0 SHL PUSH2 0x100 DUP8 ADD MSTORE PUSH2 0x102 DUP7 ADD DUP10 SWAP1 MSTORE PUSH2 0x122 DUP1 DUP8 ADD DUP3 SWAP1 MSTORE DUP6 MLOAD DUP1 DUP9 SUB SWAP1 SWAP2 ADD DUP2 MSTORE PUSH2 0x142 DUP8 ADD DUP1 DUP8 MSTORE DUP2 MLOAD SWAP2 DUP6 ADD SWAP2 SWAP1 SWAP2 KECCAK256 SWAP1 DUP6 SWAP1 MSTORE PUSH2 0x162 DUP8 ADD DUP1 DUP8 MSTORE DUP2 SWAP1 MSTORE PUSH1 0xFF DUP14 AND PUSH2 0x182 DUP9 ADD MSTORE PUSH2 0x1A2 DUP8 ADD DUP13 SWAP1 MSTORE PUSH2 0x1C2 DUP8 ADD DUP12 SWAP1 MSTORE SWAP5 MLOAD SWAP1 SWAP8 POP SWAP4 SWAP6 POP SWAP2 SWAP4 SWAP2 SWAP3 PUSH2 0x1E2 DUP1 DUP5 ADD SWAP4 PUSH1 0x1F NOT DUP4 ADD SWAP3 SWAP1 DUP2 SWAP1 SUB SWAP1 SWAP2 ADD SWAP1 DUP6 GAS STATICCALL ISZERO DUP1 ISZERO PUSH2 0x2658 JUMPI RETURNDATASIZE PUSH1 0x0 DUP1 RETURNDATACOPY RETURNDATASIZE PUSH1 0x0 REVERT JUMPDEST POP POP PUSH1 0x40 MLOAD PUSH1 0x1F NOT ADD MLOAD SWAP2 POP POP PUSH1 0x1 PUSH1 0x1 PUSH1 0xA0 SHL SUB DUP2 AND PUSH2 0x26AA JUMPI PUSH1 0x40 MLOAD PUSH3 0x461BCD PUSH1 0xE5 SHL DUP2 MSTORE PUSH1 0x4 ADD DUP1 DUP1 PUSH1 0x20 ADD DUP3 DUP2 SUB DUP3 MSTORE PUSH1 0x22 DUP2 MSTORE PUSH1 0x20 ADD DUP1 PUSH2 0x3311 PUSH1 0x22 SWAP2 CODECOPY PUSH1 0x40 ADD SWAP2 POP POP PUSH1 0x40 MLOAD DUP1 SWAP2 SUB SWAP1 REVERT JUMPDEST DUP11 PUSH1 0x1 PUSH1 0x1 PUSH1 0xA0 SHL SUB AND DUP2 PUSH1 0x1 PUSH1 0x1 PUSH1 0xA0 SHL SUB AND EQ PUSH2 0x2710 JUMPI PUSH1 0x40 DUP1 MLOAD PUSH3 0x461BCD PUSH1 0xE5 SHL DUP2 MSTORE PUSH1 0x20 PUSH1 0x4 DUP3 ADD MSTORE PUSH1 0x1D PUSH1 0x24 DUP3 ADD MSTORE PUSH32 0x556E696C6F616E3A3A7065726D69743A20756E617574686F72697A6564000000 PUSH1 0x44 DUP3 ADD MSTORE SWAP1 MLOAD SWAP1 DUP2 SWAP1 SUB PUSH1 0x64 ADD SWAP1 REVERT JUMPDEST DUP8 TIMESTAMP GT ISZERO PUSH2 0x274F JUMPI PUSH1 0x40 MLOAD PUSH3 0x461BCD PUSH1 0xE5 SHL DUP2 MSTORE PUSH1 0x4 ADD DUP1 DUP1 PUSH1 0x20 ADD DUP3 DUP2 SUB DUP3 MSTORE PUSH1 0x22 DUP2 MSTORE PUSH1 0x20 ADD DUP1 PUSH2 0x3227 PUSH1 0x22 SWAP2 CODECOPY PUSH1 0x40 ADD SWAP2 POP POP PUSH1 0x40 MLOAD DUP1 SWAP2 SUB SWAP1 REVERT JUMPDEST PUSH1 0x1 PUSH1 0x1 PUSH1 0xA0 SHL SUB DUP1 DUP13 AND PUSH1 0x0 DUP2 DUP2 MSTORE PUSH1 0x2 PUSH1 0x20 SWAP1 DUP2 MSTORE PUSH1 0x40 DUP1 DUP4 KECCAK256 SWAP5 DUP16 AND DUP1 DUP5 MSTORE SWAP5 DUP3 MSTORE SWAP2 DUP3 SWAP1 KECCAK256 DUP14 SWAP1 SSTORE DUP2 MLOAD DUP14 DUP2 MSTORE SWAP2 MLOAD PUSH32 0x8C5BE1E5EBEC7D5BD14F71427D1E84F3DD0314C0F7B2291E5B200AC8C7C3B925 SWAP3 DUP2 SWAP1 SUB SWAP1 SWAP2 ADD SWAP1 LOG3 POP POP POP POP POP POP POP POP POP POP POP JUMP JUMPDEST PUSH1 0x40 DUP1 MLOAD PUSH4 0x2D9198E1 PUSH1 0xE2 SHL DUP2 MSTORE PUSH1 0x1 PUSH1 0x1 PUSH1 0xA0 SHL SUB DUP6 DUP2 AND PUSH1 0x4 DUP4 ADD MSTORE DUP5 AND PUSH1 0x24 DUP3 ADD MSTORE PUSH1 0x44 DUP2 ADD DUP4 SWAP1 MSTORE SWAP1 MLOAD PUSH1 0x0 SWAP2 PUSH20 0xB5A6B318C39B60E7D8462F888E7FBA89F75D02F SWAP2 PUSH4 0xB6466384 SWAP2 PUSH1 0x64 DUP1 DUP3 ADD SWAP3 PUSH1 0x20 SWAP3 SWAP1 SWAP2 SWAP1 DUP3 SWAP1 SUB ADD DUP2 DUP7 DUP1 EXTCODESIZE ISZERO DUP1 ISZERO PUSH2 0x2826 JUMPI PUSH1 0x0 DUP1 REVERT JUMPDEST POP GAS STATICCALL ISZERO DUP1 ISZERO PUSH2 0x283A JUMPI RETURNDATASIZE PUSH1 0x0 DUP1 RETURNDATACOPY RETURNDATASIZE PUSH1 0x0 REVERT JUMPDEST POP POP POP POP PUSH1 0x40 MLOAD RETURNDATASIZE PUSH1 0x20 DUP2 LT ISZERO PUSH2 0x2850 JUMPI PUSH1 0x0 DUP1 REVERT JUMPDEST POP MLOAD SWAP5 SWAP4 POP POP POP POP JUMP JUMPDEST PUSH1 0xE SLOAD DUP2 JUMP JUMPDEST PUSH1 0x1 PUSH1 0x1 PUSH1 0xA0 SHL SUB SWAP2 DUP3 AND PUSH1 0x0 SWAP1 DUP2 MSTORE PUSH1 0x2 PUSH1 0x20 SWAP1 DUP2 MSTORE PUSH1 0x40 DUP1 DUP4 KECCAK256 SWAP4 SWAP1 SWAP5 AND DUP3 MSTORE SWAP2 SWAP1 SWAP2 MSTORE KECCAK256 SLOAD SWAP1 JUMP JUMPDEST PUSH1 0x5 SLOAD PUSH1 0x40 DUP1 MLOAD PUSH4 0x70A08231 PUSH1 0xE0 SHL DUP2 MSTORE CALLER PUSH1 0x4 DUP3 ADD MSTORE SWAP1 MLOAD PUSH1 0x0 SWAP3 PUSH2 0x1595 SWAP3 PUSH1 0x1 PUSH1 0x1 PUSH1 0xA0 SHL SUB SWAP1 SWAP2 AND SWAP2 PUSH4 0x70A08231 SWAP2 PUSH1 0x24 DUP1 DUP3 ADD SWAP3 PUSH1 0x20 SWAP3 SWAP1 SWAP2 SWAP1 DUP3 SWAP1 SUB ADD DUP2 DUP7 DUP1 EXTCODESIZE ISZERO DUP1 ISZERO PUSH2 0x28DD JUMPI PUSH1 0x0 DUP1 REVERT JUMPDEST POP GAS STATICCALL ISZERO DUP1 ISZERO PUSH2 0x28F1 JUMPI RETURNDATASIZE PUSH1 0x0 DUP1 RETURNDATACOPY RETURNDATASIZE PUSH1 0x0 REVERT JUMPDEST POP POP POP POP PUSH1 0x40 MLOAD RETURNDATASIZE PUSH1 0x20 DUP2 LT ISZERO PUSH2 0x2907 JUMPI PUSH1 0x0 DUP1 REVERT JUMPDEST POP MLOAD PUSH2 0x1E56 JUMP JUMPDEST PUSH3 0x186A0 DUP2 JUMP JUMPDEST PUSH1 0x9 SLOAD DUP2 JUMP JUMPDEST PUSH1 0xA SLOAD DUP2 JUMP JUMPDEST PUSH1 0x0 DUP2 DUP5 DUP5 GT ISZERO PUSH2 0x29B0 JUMPI PUSH1 0x40 MLOAD PUSH3 0x461BCD PUSH1 0xE5 SHL DUP2 MSTORE PUSH1 0x4 ADD DUP1 DUP1 PUSH1 0x20 ADD DUP3 DUP2 SUB DUP3 MSTORE DUP4 DUP2 DUP2 MLOAD DUP2 MSTORE PUSH1 0x20 ADD SWAP2 POP DUP1 MLOAD SWAP1 PUSH1 0x20 ADD SWAP1 DUP1 DUP4 DUP4 PUSH1 0x0 JUMPDEST DUP4 DUP2 LT ISZERO PUSH2 0x2975 JUMPI DUP2 DUP2 ADD MLOAD DUP4 DUP3 ADD MSTORE PUSH1 0x20 ADD PUSH2 0x295D JUMP JUMPDEST POP POP POP POP SWAP1 POP SWAP1 DUP2 ADD SWAP1 PUSH1 0x1F AND DUP1 ISZERO PUSH2 0x29A2 JUMPI DUP1 DUP3 SUB DUP1 MLOAD PUSH1 0x1 DUP4 PUSH1 0x20 SUB PUSH2 0x100 EXP SUB NOT AND DUP2 MSTORE PUSH1 0x20 ADD SWAP2 POP JUMPDEST POP SWAP3 POP POP POP PUSH1 0x40 MLOAD DUP1 SWAP2 SUB SWAP1 REVERT JUMPDEST POP POP POP SWAP1 SUB SWAP1 JUMP JUMPDEST PUSH1 0x0 DUP3 DUP3 ADD DUP4 DUP2 LT ISZERO PUSH2 0x17C5 JUMPI PUSH1 0x40 DUP1 MLOAD PUSH3 0x461BCD PUSH1 0xE5 SHL DUP2 MSTORE PUSH1 0x20 PUSH1 0x4 DUP3 ADD MSTORE PUSH1 0x1B PUSH1 0x24 DUP3 ADD MSTORE PUSH32 0x536166654D6174683A206164646974696F6E206F766572666C6F770000000000 PUSH1 0x44 DUP3 ADD MSTORE SWAP1 MLOAD SWAP1 DUP2 SWAP1 SUB PUSH1 0x64 ADD SWAP1 REVERT JUMPDEST PUSH1 0x1 PUSH1 0x1 PUSH1 0xA0 SHL SUB DUP4 AND PUSH2 0x2A57 JUMPI PUSH1 0x40 MLOAD PUSH3 0x461BCD PUSH1 0xE5 SHL DUP2 MSTORE PUSH1 0x4 ADD DUP1 DUP1 PUSH1 0x20 ADD DUP3 DUP2 SUB DUP3 MSTORE PUSH1 0x3F DUP2 MSTORE PUSH1 0x20 ADD DUP1 PUSH2 0x33B3 PUSH1 0x3F SWAP2 CODECOPY PUSH1 0x40 ADD SWAP2 POP POP PUSH1 0x40 MLOAD DUP1 SWAP2 SUB SWAP1 REVERT JUMPDEST PUSH1 0x1 PUSH1 0x1 PUSH1 0xA0 SHL SUB DUP3 AND PUSH2 0x2A9C JUMPI PUSH1 0x40 MLOAD PUSH3 0x461BCD PUSH1 0xE5 SHL DUP2 MSTORE PUSH1 0x4 ADD DUP1 DUP1 PUSH1 0x20 ADD DUP3 DUP2 SUB DUP3 MSTORE PUSH1 0x3D DUP2 MSTORE PUSH1 0x20 ADD DUP1 PUSH2 0x3249 PUSH1 0x3D SWAP2 CODECOPY PUSH1 0x40 ADD SWAP2 POP POP PUSH1 0x40 MLOAD DUP1 SWAP2 SUB SWAP1 REVERT JUMPDEST PUSH2 0x2ADF DUP2 PUSH1 0x40 MLOAD DUP1 PUSH1 0x60 ADD PUSH1 0x40 MSTORE DUP1 PUSH1 0x39 DUP2 MSTORE PUSH1 0x20 ADD PUSH2 0x33F2 PUSH1 0x39 SWAP2 CODECOPY PUSH1 0x1 PUSH1 0x1 PUSH1 0xA0 SHL SUB DUP7 AND PUSH1 0x0 SWAP1 DUP2 MSTORE PUSH1 0x3 PUSH1 0x20 MSTORE PUSH1 0x40 SWAP1 KECCAK256 SLOAD SWAP2 SWAP1 PUSH4 0xFFFFFFFF PUSH2 0x2921 AND JUMP JUMPDEST PUSH1 0x3 PUSH1 0x0 DUP6 PUSH1 0x1 PUSH1 0x1 PUSH1 0xA0 SHL SUB AND PUSH1 0x1 PUSH1 0x1 PUSH1 0xA0 SHL SUB AND DUP2 MSTORE PUSH1 0x20 ADD SWAP1 DUP2 MSTORE PUSH1 0x20 ADD PUSH1 0x0 KECCAK256 DUP2 SWAP1 SSTORE POP PUSH2 0x2B4B DUP2 PUSH1 0x40 MLOAD DUP1 PUSH1 0x60 ADD PUSH1 0x40 MSTORE DUP1 PUSH1 0x33 DUP2 MSTORE PUSH1 0x20 ADD PUSH2 0x3333 PUSH1 0x33 SWAP2 CODECOPY PUSH1 0x1 PUSH1 0x1 PUSH1 0xA0 SHL SUB DUP6 AND PUSH1 0x0 SWAP1 DUP2 MSTORE PUSH1 0x3 PUSH1 0x20 MSTORE PUSH1 0x40 SWAP1 KECCAK256 SLOAD SWAP2 SWAP1 PUSH4 0xFFFFFFFF PUSH2 0x3012 AND JUMP JUMPDEST PUSH1 0x1 PUSH1 0x1 PUSH1 0xA0 SHL SUB DUP1 DUP5 AND PUSH1 0x0 DUP2 DUP2 MSTORE PUSH1 0x3 PUSH1 0x20 SWAP1 DUP2 MSTORE PUSH1 0x40 SWAP2 DUP3 SWAP1 KECCAK256 SWAP5 SWAP1 SWAP5 SSTORE DUP1 MLOAD DUP6 DUP2 MSTORE SWAP1 MLOAD SWAP2 SWAP4 SWAP3 DUP8 AND SWAP3 PUSH32 0xDDF252AD1BE2C89B69C2B068FC378DAA952BA7F163C4A11628F55A4DF523B3EF SWAP3 SWAP2 DUP3 SWAP1 SUB ADD SWAP1 LOG3 POP POP POP JUMP JUMPDEST PUSH1 0x0 DUP3 PUSH2 0x2BB6 JUMPI POP PUSH1 0x0 PUSH2 0xA52 JUMP JUMPDEST DUP3 DUP3 MUL DUP3 DUP5 DUP3 DUP2 PUSH2 0x2BC3 JUMPI INVALID JUMPDEST DIV EQ PUSH2 0x17C5 JUMPI PUSH1 0x40 MLOAD PUSH3 0x461BCD PUSH1 0xE5 SHL DUP2 MSTORE PUSH1 0x4 ADD DUP1 DUP1 PUSH1 0x20 ADD DUP3 DUP2 SUB DUP3 MSTORE PUSH1 0x21 DUP2 MSTORE PUSH1 0x20 ADD DUP1 PUSH2 0x32F0 PUSH1 0x21 SWAP2 CODECOPY PUSH1 0x40 ADD SWAP2 POP POP PUSH1 0x40 MLOAD DUP1 SWAP2 SUB SWAP1 REVERT JUMPDEST PUSH1 0x0 PUSH2 0x17C5 DUP4 DUP4 PUSH1 0x40 MLOAD DUP1 PUSH1 0x40 ADD PUSH1 0x40 MSTORE DUP1 PUSH1 0x1A DUP2 MSTORE PUSH1 0x20 ADD PUSH32 0x536166654D6174683A206469766973696F6E206279207A65726F000000000000 DUP2 MSTORE POP PUSH2 0x3070 JUMP JUMPDEST PUSH1 0x40 DUP1 MLOAD DUP1 DUP3 ADD SWAP1 SWAP2 MSTORE PUSH1 0x19 DUP2 MSTORE PUSH25 0x556E696C6F616E3A3A5F6275726E3A20756E646572666C6F77 PUSH1 0x38 SHL PUSH1 0x20 DUP3 ADD MSTORE PUSH1 0x1 SLOAD PUSH2 0x2C86 SWAP2 DUP4 SWAP1 PUSH4 0xFFFFFFFF PUSH2 0x2921 AND JUMP JUMPDEST PUSH1 0x1 SSTORE PUSH1 0x40 DUP1 MLOAD DUP1 DUP3 ADD DUP3 MSTORE PUSH1 0x19 DUP2 MSTORE PUSH25 0x556E696C6F616E3A3A5F6275726E3A20756E646572666C6F77 PUSH1 0x38 SHL PUSH1 0x20 DUP1 DUP4 ADD SWAP2 SWAP1 SWAP2 MSTORE PUSH1 0x1 PUSH1 0x1 PUSH1 0xA0 SHL SUB DUP6 AND PUSH1 0x0 SWAP1 DUP2 MSTORE PUSH1 0x3 SWAP1 SWAP2 MSTORE SWAP2 SWAP1 SWAP2 KECCAK256 SLOAD PUSH2 0x2CE6 SWAP2 DUP4 SWAP1 PUSH4 0xFFFFFFFF PUSH2 0x2921 AND JUMP JUMPDEST PUSH1 0x1 PUSH1 0x1 PUSH1 0xA0 SHL SUB DUP4 AND PUSH1 0x0 DUP2 DUP2 MSTORE PUSH1 0x3 PUSH1 0x20 SWAP1 DUP2 MSTORE PUSH1 0x40 DUP1 DUP4 KECCAK256 SWAP5 SWAP1 SWAP5 SSTORE DUP4 MLOAD DUP6 DUP2 MSTORE SWAP4 MLOAD SWAP2 SWAP4 PUSH32 0xDDF252AD1BE2C89B69C2B068FC378DAA952BA7F163C4A11628F55A4DF523B3EF SWAP3 SWAP1 DUP2 SWAP1 SUB SWAP1 SWAP2 ADD SWAP1 LOG3 POP POP JUMP JUMPDEST PUSH1 0x0 PUSH2 0x17C5 DUP4 DUP4 PUSH1 0x40 MLOAD DUP1 PUSH1 0x60 ADD PUSH1 0x40 MSTORE DUP1 PUSH1 0x28 DUP2 MSTORE PUSH1 0x20 ADD PUSH2 0x31D7 PUSH1 0x28 SWAP2 CODECOPY PUSH2 0x2921 JUMP JUMPDEST PUSH1 0x0 PUSH2 0x2D6E DUP4 DUP4 PUSH2 0x16FA JUMP JUMPDEST SWAP1 POP PUSH2 0x2D8A PUSH3 0x186A0 PUSH2 0xD77 DUP4 PUSH3 0x19A28 PUSH4 0xFFFFFFFF PUSH2 0x2BA7 AND JUMP JUMPDEST PUSH1 0x6 SLOAD SWAP1 SWAP2 POP PUSH1 0x0 SWAP1 DUP2 SWAP1 PUSH1 0x1 PUSH1 0x1 PUSH1 0xA0 SHL SUB DUP7 DUP2 AND SWAP2 AND EQ ISZERO PUSH2 0x2DB0 JUMPI DUP4 SWAP2 POP PUSH2 0x2DC9 JUMP JUMPDEST PUSH1 0x7 SLOAD PUSH1 0x1 PUSH1 0x1 PUSH1 0xA0 SHL SUB DUP7 DUP2 AND SWAP2 AND EQ ISZERO PUSH2 0x2DC9 JUMPI POP DUP3 JUMPDEST PUSH1 0x5 SLOAD PUSH1 0x40 DUP1 MLOAD PUSH4 0x95EA7B3 PUSH1 0xE0 SHL DUP2 MSTORE PUSH20 0x7A250D5630B4CF539739DF2C5DACB4C659F2488D PUSH1 0x4 DUP3 ADD MSTORE PUSH1 0x24 DUP2 ADD DUP7 SWAP1 MSTORE SWAP1 MLOAD PUSH1 0x1 PUSH1 0x1 PUSH1 0xA0 SHL SUB SWAP1 SWAP3 AND SWAP2 PUSH4 0x95EA7B3 SWAP2 PUSH1 0x44 DUP1 DUP3 ADD SWAP3 PUSH1 0x20 SWAP3 SWAP1 SWAP2 SWAP1 DUP3 SWAP1 SUB ADD DUP2 PUSH1 0x0 DUP8 DUP1 EXTCODESIZE ISZERO DUP1 ISZERO PUSH2 0x2E31 JUMPI PUSH1 0x0 DUP1 REVERT JUMPDEST POP GAS CALL ISZERO DUP1 ISZERO PUSH2 0x2E45 JUMPI RETURNDATASIZE PUSH1 0x0 DUP1 RETURNDATACOPY RETURNDATASIZE PUSH1 0x0 REVERT JUMPDEST POP POP POP POP PUSH1 0x40 MLOAD RETURNDATASIZE PUSH1 0x20 DUP2 LT ISZERO PUSH2 0x2E5B JUMPI PUSH1 0x0 DUP1 REVERT JUMPDEST POP POP PUSH1 0x6 SLOAD PUSH1 0x7 SLOAD PUSH20 0x7A250D5630B4CF539739DF2C5DACB4C659F2488D SWAP2 PUSH4 0xBAA2ABDE SWAP2 PUSH1 0x1 PUSH1 0x1 PUSH1 0xA0 SHL SUB SWAP2 DUP3 AND SWAP2 AND DUP7 DUP7 DUP7 ADDRESS PUSH2 0x2EA2 TIMESTAMP PUSH2 0x708 PUSH4 0xFFFFFFFF PUSH2 0x29B8 AND JUMP JUMPDEST PUSH1 0x40 DUP1 MLOAD PUSH1 0x1 PUSH1 0x1 PUSH1 0xE0 SHL SUB NOT PUSH1 0xE0 DUP12 SWAP1 SHL AND DUP2 MSTORE PUSH1 0x1 PUSH1 0x1 PUSH1 0xA0 SHL SUB SWAP9 DUP10 AND PUSH1 0x4 DUP3 ADD MSTORE SWAP7 DUP9 AND PUSH1 0x24 DUP9 ADD MSTORE PUSH1 0x44 DUP8 ADD SWAP6 SWAP1 SWAP6 MSTORE PUSH1 0x64 DUP7 ADD SWAP4 SWAP1 SWAP4 MSTORE PUSH1 0x84 DUP6 ADD SWAP2 SWAP1 SWAP2 MSTORE SWAP1 SWAP4 AND PUSH1 0xA4 DUP4 ADD MSTORE PUSH1 0xC4 DUP3 ADD SWAP3 SWAP1 SWAP3 MSTORE DUP2 MLOAD PUSH1 0xE4 DUP1 DUP4 ADD SWAP4 SWAP3 DUP3 SWAP1 SUB ADD DUP2 PUSH1 0x0 DUP8 DUP1 EXTCODESIZE ISZERO DUP1 ISZERO PUSH2 0x2F16 JUMPI PUSH1 0x0 DUP1 REVERT JUMPDEST POP GAS CALL ISZERO DUP1 ISZERO PUSH2 0x2F2A JUMPI RETURNDATASIZE PUSH1 0x0 DUP1 RETURNDATACOPY RETURNDATASIZE PUSH1 0x0 REVERT JUMPDEST POP POP POP POP PUSH1 0x40 MLOAD RETURNDATASIZE PUSH1 0x40 DUP2 LT ISZERO PUSH2 0x2F40 JUMPI PUSH1 0x0 DUP1 REVERT JUMPDEST POP POP PUSH1 0xF SLOAD PUSH2 0x2F55 SWAP1 DUP5 PUSH4 0xFFFFFFFF PUSH2 0x29B8 AND JUMP JUMPDEST PUSH1 0xF SSTORE POP SWAP1 SWAP4 SWAP3 POP POP POP JUMP JUMPDEST PUSH1 0x1 SLOAD PUSH2 0x2F74 SWAP1 DUP3 PUSH4 0xFFFFFFFF PUSH2 0x29B8 AND JUMP JUMPDEST PUSH1 0x1 SSTORE PUSH1 0x1 PUSH1 0x1 PUSH1 0xA0 SHL SUB DUP3 AND PUSH1 0x0 SWAP1 DUP2 MSTORE PUSH1 0x3 PUSH1 0x20 MSTORE PUSH1 0x40 SWAP1 KECCAK256 SLOAD PUSH2 0x2FA0 SWAP1 DUP3 PUSH4 0xFFFFFFFF PUSH2 0x29B8 AND JUMP JUMPDEST PUSH1 0x1 PUSH1 0x1 PUSH1 0xA0 SHL SUB DUP4 AND PUSH1 0x0 DUP2 DUP2 MSTORE PUSH1 0x3 PUSH1 0x20 SWAP1 DUP2 MSTORE PUSH1 0x40 DUP1 DUP4 KECCAK256 SWAP5 SWAP1 SWAP5 SSTORE DUP4 MLOAD DUP6 DUP2 MSTORE SWAP4 MLOAD SWAP3 SWAP4 SWAP2 SWAP3 PUSH32 0xDDF252AD1BE2C89B69C2B068FC378DAA952BA7F163C4A11628F55A4DF523B3EF SWAP3 DUP2 SWAP1 SUB SWAP1 SWAP2 ADD SWAP1 LOG3 POP POP JUMP JUMPDEST PUSH1 0x0 DUP2 DUP4 LT PUSH2 0x3007 JUMPI DUP2 PUSH2 0x17C5 JUMP JUMPDEST POP SWAP1 SWAP2 SWAP1 POP JUMP JUMPDEST CHAINID SWAP1 JUMP JUMPDEST PUSH1 0x0 DUP4 DUP4 ADD DUP3 DUP6 DUP3 LT ISZERO PUSH2 0x3067 JUMPI PUSH1 0x40 MLOAD PUSH3 0x461BCD PUSH1 0xE5 SHL DUP2 MSTORE PUSH1 0x20 PUSH1 0x4 DUP3 ADD DUP2 DUP2 MSTORE DUP4 MLOAD PUSH1 0x24 DUP5 ADD MSTORE DUP4 MLOAD SWAP1 SWAP3 DUP4 SWAP3 PUSH1 0x44 SWAP1 SWAP2 ADD SWAP2 SWAP1 DUP6 ADD SWAP1 DUP1 DUP4 DUP4 PUSH1 0x0 DUP4 ISZERO PUSH2 0x2975 JUMPI DUP2 DUP2 ADD MLOAD DUP4 DUP3 ADD MSTORE PUSH1 0x20 ADD PUSH2 0x295D JUMP JUMPDEST POP SWAP5 SWAP4 POP POP POP POP JUMP JUMPDEST PUSH1 0x0 DUP2 DUP4 PUSH2 0x30BF JUMPI PUSH1 0x40 MLOAD PUSH3 0x461BCD PUSH1 0xE5 SHL DUP2 MSTORE PUSH1 0x20 PUSH1 0x4 DUP3 ADD DUP2 DUP2 MSTORE DUP4 MLOAD PUSH1 0x24 DUP5 ADD MSTORE DUP4 MLOAD SWAP1 SWAP3 DUP4 SWAP3 PUSH1 0x44 SWAP1 SWAP2 ADD SWAP2 SWAP1 DUP6 ADD SWAP1 DUP1 DUP4 DUP4 PUSH1 0x0 DUP4 ISZERO PUSH2 0x2975 JUMPI DUP2 DUP2 ADD MLOAD DUP4 DUP3 ADD MSTORE PUSH1 0x20 ADD PUSH2 0x295D JUMP JUMPDEST POP PUSH1 0x0 DUP4 DUP6 DUP2 PUSH2 0x30CB JUMPI INVALID JUMPDEST DIV SWAP6 SWAP5 POP POP POP POP POP JUMP INVALID SSTORE PUSH15 0x696C6F616E3A3A7472616E73666572 CHAINID PUSH19 0x6F6D3A207472616E7366657220616D6F756E74 KECCAK256 PUSH6 0x786365656473 KECCAK256 PUSH20 0x70656E64657220616C6C6F77616E6365556E696C PUSH16 0x616E3A3A6465706F7369744C69717569 PUSH5 0x6974793A20 PUSH15 0x6F7420616E20454F41206B65657065 PUSH19 0x556E696C6F616E3A3A6C6F616E3A20696E7375 PUSH7 0x66696369656E74 KECCAK256 PUSH13 0x6971756964697479556E696C6F PUSH2 0x6E3A GASPRICE PUSH4 0x6C6F7365 GASPRICE KECCAK256 PUSH13 0x6971756964697479496E557365 KECCAK256 PUSH16 0x766572666C6F775065726D6974286164 PUSH5 0x7265737320 PUSH16 0x776E65722C6164647265737320737065 PUSH15 0x6465722C75696E742076616C75652C PUSH22 0x696E74206E6F6E63652C75696E7420646561646C696E PUSH6 0x29556E696C6F PUSH2 0x6E3A GASPRICE MSTORE8 PUSH2 0x6665 0x4D PUSH2 0x7468 GASPRICE KECCAK256 PUSH20 0x75627472616374696F6E20756E646572666C6F77 SSTORE PUSH15 0x696C6F616E3A3A72657061793A2070 PUSH16 0x736974696F6E20616C72656164792065 PUSH25 0x7069726564556E696C6F616E3A3A7065726D69743A20736967 PUSH15 0x61747572652065787069726564556E PUSH10 0x6C6F616E3A3A5F747261 PUSH15 0x73666572546F6B656E733A2063616E PUSH15 0x6F74207472616E7366657220746F20 PUSH21 0x6865207A65726F2061646472657373454950373132 DIFFICULTY PUSH16 0x6D61696E28737472696E67206E616D65 0x2C PUSH22 0x696E7420636861696E49642C61646472657373207665 PUSH19 0x696679696E67436F6E747261637429556E696C PUSH16 0x616E3A3A72657061793A20706F736974 PUSH10 0x6F6E20697320616C7265 PUSH2 0x6479 KECCAK256 PUSH4 0x6C6F7365 PUSH5 0x536166654D PUSH2 0x7468 GASPRICE KECCAK256 PUSH14 0x756C7469706C69636174696F6E20 PUSH16 0x766572666C6F77556E696C6F616E3A3A PUSH17 0x65726D69743A20696E76616C6964207369 PUSH8 0x6E6174757265556E PUSH10 0x6C6F616E3A3A5F747261 PUSH15 0x73666572546F6B656E733A20747261 PUSH15 0x7366657220616D6F756E74206F7665 PUSH19 0x666C6F7773556E696C6F616E3A3A7769746864 PUSH19 0x61773A20696E73756666696369656E74206C69 PUSH18 0x75696469747920746F207769746864726177 0x2C KECCAK256 PUSH21 0x7279206465706F7369744C69717569646974792829 SSTORE PUSH15 0x696C6F616E3A3A5F7472616E736665 PUSH19 0x546F6B656E733A2063616E6E6F74207472616E PUSH20 0x6665722066726F6D20746865207A65726F206164 PUSH5 0x7265737355 PUSH15 0x696C6F616E3A3A5F7472616E736665 PUSH19 0x546F6B656E733A207472616E7366657220616D PUSH16 0x756E7420657863656564732062616C61 PUSH15 0x6365A26469706673582212209ED54A DUP5 0x24 CALLER 0xEE 0xA9 LOG2 CREATE ADDRESS SWAP13 0xA8 0xD5 PUSH21 0x4DB71E2FD92A8D4E1C9D4246E84FCB60EE64736F6C PUSH4 0x43000606 STOP CALLER SSTORE PUSH15 0x696C6F616E50616972466163746F72 PUSH26 0x3A3A6465706C6F793A207061697220616C726561647920637265 PUSH2 0x7465 PUSH5 0xA264697066 PUSH20 0x5822122051340976739F4D938A2E89D39DE2409F 0xF9 DIV 0xAB DUP15 CODECOPY CALLDATALOAD KECCAK256 JUMPDEST ORIGIN DUP16 DUP14 SELFDESTRUCT 0xB5 MULMOD 0xA5 MULMOD PUSH5 0x736F6C6343 STOP MOD MOD STOP CALLER "
		},
		"gasEstimates": {
			"creation": {
				"codeDepositCost": "3170200",
				"executionCost": "3507",
				"totalCost": "3173707"
			},
			"external": {
				"addresses()": "infinite",
				"deploy(address)": "infinite",
				"deployed(uint256)": "1948",
				"pairs(address)": "1210"
			}
		},
		"methodIdentifiers": {
			"addresses()": "da0321cd",
			"deploy(address)": "4c96a389",
			"deployed(uint256)": "15b40ec0",
			"pairs(address)": "fe33b302"
		}
	},
	"abi": [
		{
			"inputs": [],
			"name": "addresses",
			"outputs": [
				{
					"internalType": "address[]",
					"name": "",
					"type": "address[]"
				}
			],
			"stateMutability": "view",
			"type": "function"
		},
		{
			"inputs": [
				{
					"internalType": "contract IUniswapV2Pair",
					"name": "_pair",
					"type": "address"
				}
			],
			"name": "deploy",
			"outputs": [
				{
					"internalType": "address",
					"name": "",
					"type": "address"
				}
			],
			"stateMutability": "nonpayable",
			"type": "function"
		},
		{
			"inputs": [
				{
					"internalType": "uint256",
					"name": "",
					"type": "uint256"
				}
			],
			"name": "deployed",
			"outputs": [
				{
					"internalType": "address",
					"name": "",
					"type": "address"
				}
			],
			"stateMutability": "view",
			"type": "function"
		},
		{
			"inputs": [
				{
					"internalType": "address",
					"name": "",
					"type": "address"
				}
			],
			"name": "pairs",
			"outputs": [
				{
					"internalType": "address",
					"name": "",
					"type": "address"
				}
			],
			"stateMutability": "view",
			"type": "function"
		}
	]
}